{
  "contractName": "Decentraboard",
  "abi": [
    {
      "inputs": [
        {
          "internalType": "string",
          "name": "name",
          "type": "string"
        },
        {
          "internalType": "string",
          "name": "symbol",
          "type": "string"
        }
      ],
      "stateMutability": "nonpayable",
      "type": "constructor"
    },
    {
      "anonymous": false,
      "inputs": [
        {
          "indexed": true,
          "internalType": "address",
          "name": "owner",
          "type": "address"
        },
        {
          "indexed": true,
          "internalType": "address",
          "name": "approved",
          "type": "address"
        },
        {
          "indexed": true,
          "internalType": "uint256",
          "name": "tokenId",
          "type": "uint256"
        }
      ],
      "name": "Approval",
      "type": "event"
    },
    {
      "anonymous": false,
      "inputs": [
        {
          "indexed": true,
          "internalType": "address",
          "name": "owner",
          "type": "address"
        },
        {
          "indexed": true,
          "internalType": "address",
          "name": "operator",
          "type": "address"
        },
        {
          "indexed": false,
          "internalType": "bool",
          "name": "approved",
          "type": "bool"
        }
      ],
      "name": "ApprovalForAll",
      "type": "event"
    },
    {
      "anonymous": false,
      "inputs": [
        {
          "indexed": true,
          "internalType": "address",
          "name": "previousOwner",
          "type": "address"
        },
        {
          "indexed": true,
          "internalType": "address",
          "name": "newOwner",
          "type": "address"
        }
      ],
      "name": "OwnershipTransferred",
      "type": "event"
    },
    {
      "anonymous": false,
      "inputs": [
        {
          "indexed": true,
          "internalType": "address",
          "name": "from",
          "type": "address"
        },
        {
          "indexed": true,
          "internalType": "address",
          "name": "to",
          "type": "address"
        },
        {
          "indexed": true,
          "internalType": "uint256",
          "name": "tokenId",
          "type": "uint256"
        }
      ],
      "name": "Transfer",
      "type": "event"
    },
    {
      "inputs": [
        {
          "internalType": "uint256",
          "name": "",
          "type": "uint256"
        },
        {
          "internalType": "string",
          "name": "",
          "type": "string"
        }
      ],
      "name": "_tokenData",
      "outputs": [
        {
          "internalType": "uint256",
          "name": "tokenId",
          "type": "uint256"
        },
        {
          "internalType": "string",
          "name": "image",
          "type": "string"
        },
        {
          "internalType": "string",
          "name": "city",
          "type": "string"
        },
        {
          "internalType": "string",
          "name": "redirectUrl",
          "type": "string"
        },
        {
          "internalType": "string",
          "name": "adImage",
          "type": "string"
        },
        {
          "internalType": "bool",
          "name": "status",
          "type": "bool"
        },
        {
          "internalType": "string",
          "name": "ownerName",
          "type": "string"
        }
      ],
      "stateMutability": "view",
      "type": "function",
      "constant": true
    },
    {
      "inputs": [
        {
          "internalType": "uint256",
          "name": "",
          "type": "uint256"
        }
      ],
      "name": "_tokenIdInfo",
      "outputs": [
        {
          "internalType": "uint256",
          "name": "boardId",
          "type": "uint256"
        },
        {
          "internalType": "string",
          "name": "slot",
          "type": "string"
        }
      ],
      "stateMutability": "view",
      "type": "function",
      "constant": true
    },
    {
      "inputs": [
        {
          "internalType": "address",
          "name": "to",
          "type": "address"
        },
        {
          "internalType": "uint256",
          "name": "tokenId",
          "type": "uint256"
        }
      ],
      "name": "approve",
      "outputs": [],
      "stateMutability": "nonpayable",
      "type": "function"
    },
    {
      "inputs": [
        {
          "internalType": "address",
          "name": "owner",
          "type": "address"
        }
      ],
      "name": "balanceOf",
      "outputs": [
        {
          "internalType": "uint256",
          "name": "",
          "type": "uint256"
        }
      ],
      "stateMutability": "view",
      "type": "function",
      "constant": true
    },
    {
      "inputs": [
        {
          "internalType": "uint256",
          "name": "tokenId",
          "type": "uint256"
        }
      ],
      "name": "getApproved",
      "outputs": [
        {
          "internalType": "address",
          "name": "",
          "type": "address"
        }
      ],
      "stateMutability": "view",
      "type": "function",
      "constant": true
    },
    {
      "inputs": [
        {
          "internalType": "address",
          "name": "owner",
          "type": "address"
        },
        {
          "internalType": "address",
          "name": "operator",
          "type": "address"
        }
      ],
      "name": "isApprovedForAll",
      "outputs": [
        {
          "internalType": "bool",
          "name": "",
          "type": "bool"
        }
      ],
      "stateMutability": "view",
      "type": "function",
      "constant": true
    },
    {
      "inputs": [],
      "name": "name",
      "outputs": [
        {
          "internalType": "string",
          "name": "",
          "type": "string"
        }
      ],
      "stateMutability": "view",
      "type": "function",
      "constant": true
    },
    {
      "inputs": [],
      "name": "owner",
      "outputs": [
        {
          "internalType": "address",
          "name": "",
          "type": "address"
        }
      ],
      "stateMutability": "view",
      "type": "function",
      "constant": true
    },
    {
      "inputs": [
        {
          "internalType": "uint256",
          "name": "tokenId",
          "type": "uint256"
        }
      ],
      "name": "ownerOf",
      "outputs": [
        {
          "internalType": "address",
          "name": "",
          "type": "address"
        }
      ],
      "stateMutability": "view",
      "type": "function",
      "constant": true
    },
    {
      "inputs": [],
      "name": "renounceOwnership",
      "outputs": [],
      "stateMutability": "nonpayable",
      "type": "function"
    },
    {
      "inputs": [
        {
          "internalType": "address",
          "name": "from",
          "type": "address"
        },
        {
          "internalType": "address",
          "name": "to",
          "type": "address"
        },
        {
          "internalType": "uint256",
          "name": "tokenId",
          "type": "uint256"
        }
      ],
      "name": "safeTransferFrom",
      "outputs": [],
      "stateMutability": "nonpayable",
      "type": "function"
    },
    {
      "inputs": [
        {
          "internalType": "address",
          "name": "from",
          "type": "address"
        },
        {
          "internalType": "address",
          "name": "to",
          "type": "address"
        },
        {
          "internalType": "uint256",
          "name": "tokenId",
          "type": "uint256"
        },
        {
          "internalType": "bytes",
          "name": "_data",
          "type": "bytes"
        }
      ],
      "name": "safeTransferFrom",
      "outputs": [],
      "stateMutability": "nonpayable",
      "type": "function"
    },
    {
      "inputs": [
        {
          "internalType": "address",
          "name": "operator",
          "type": "address"
        },
        {
          "internalType": "bool",
          "name": "approved",
          "type": "bool"
        }
      ],
      "name": "setApprovalForAll",
      "outputs": [],
      "stateMutability": "nonpayable",
      "type": "function"
    },
    {
      "inputs": [
        {
          "internalType": "bytes4",
          "name": "interfaceId",
          "type": "bytes4"
        }
      ],
      "name": "supportsInterface",
      "outputs": [
        {
          "internalType": "bool",
          "name": "",
          "type": "bool"
        }
      ],
      "stateMutability": "view",
      "type": "function",
      "constant": true
    },
    {
      "inputs": [],
      "name": "symbol",
      "outputs": [
        {
          "internalType": "string",
          "name": "",
          "type": "string"
        }
      ],
      "stateMutability": "view",
      "type": "function",
      "constant": true
    },
    {
      "inputs": [
        {
          "internalType": "address",
          "name": "from",
          "type": "address"
        },
        {
          "internalType": "address",
          "name": "to",
          "type": "address"
        },
        {
          "internalType": "uint256",
          "name": "tokenId",
          "type": "uint256"
        }
      ],
      "name": "transferFrom",
      "outputs": [],
      "stateMutability": "nonpayable",
      "type": "function"
    },
    {
      "inputs": [
        {
          "internalType": "address",
          "name": "newOwner",
          "type": "address"
        }
      ],
      "name": "transferOwnership",
      "outputs": [],
      "stateMutability": "nonpayable",
      "type": "function"
    },
    {
      "inputs": [
        {
          "internalType": "address",
          "name": "owner",
          "type": "address"
        }
      ],
      "name": "updateContractOwner",
      "outputs": [],
      "stateMutability": "nonpayable",
      "type": "function"
    },
    {
      "inputs": [
        {
          "internalType": "address",
          "name": "minter",
          "type": "address"
        }
      ],
      "name": "updateContractMinter",
      "outputs": [],
      "stateMutability": "nonpayable",
      "type": "function"
    },
    {
      "inputs": [
        {
          "internalType": "uint256",
          "name": "boardId",
          "type": "uint256"
        },
        {
          "internalType": "string",
          "name": "slot",
          "type": "string"
        },
        {
          "internalType": "string",
          "name": "image",
          "type": "string"
        },
        {
          "internalType": "string",
          "name": "city",
          "type": "string"
        }
      ],
      "name": "mintToken",
      "outputs": [],
      "stateMutability": "nonpayable",
      "type": "function"
    },
    {
      "inputs": [
        {
          "internalType": "uint256",
          "name": "boardId",
          "type": "uint256"
        },
        {
          "internalType": "string",
          "name": "slot",
          "type": "string"
        },
        {
          "internalType": "string",
          "name": "image",
          "type": "string"
        },
        {
          "internalType": "string",
          "name": "city",
          "type": "string"
        },
        {
          "internalType": "string",
          "name": "adImage",
          "type": "string"
        },
        {
          "internalType": "string",
          "name": "redirectUrl",
          "type": "string"
        },
        {
          "internalType": "bool",
          "name": "status",
          "type": "bool"
        },
        {
          "internalType": "string",
          "name": "ownerName",
          "type": "string"
        }
      ],
      "name": "mintTokenWithData",
      "outputs": [],
      "stateMutability": "nonpayable",
      "type": "function"
    },
    {
      "inputs": [
        {
          "internalType": "uint256",
          "name": "tokenId",
          "type": "uint256"
        }
      ],
      "name": "tokenURI",
      "outputs": [
        {
          "internalType": "string",
          "name": "",
          "type": "string"
        }
      ],
      "stateMutability": "view",
      "type": "function",
      "constant": true
    },
    {
      "inputs": [
        {
          "internalType": "string",
          "name": "prefix",
          "type": "string"
        },
        {
          "internalType": "string",
          "name": "suffix",
          "type": "string"
        }
      ],
      "name": "setTokenURI",
      "outputs": [],
      "stateMutability": "nonpayable",
      "type": "function"
    },
    {
      "inputs": [],
      "name": "contractURI",
      "outputs": [
        {
          "internalType": "string",
          "name": "",
          "type": "string"
        }
      ],
      "stateMutability": "view",
      "type": "function",
      "constant": true
    },
    {
      "inputs": [
        {
          "internalType": "string",
          "name": "contractUri",
          "type": "string"
        }
      ],
      "name": "setContractURI",
      "outputs": [],
      "stateMutability": "nonpayable",
      "type": "function"
    },
    {
      "inputs": [
        {
          "internalType": "uint256",
          "name": "boardId",
          "type": "uint256"
        },
        {
          "internalType": "string",
          "name": "slot",
          "type": "string"
        },
        {
          "internalType": "string",
          "name": "adImage",
          "type": "string"
        },
        {
          "internalType": "string",
          "name": "redirectUrl",
          "type": "string"
        },
        {
          "internalType": "bool",
          "name": "status",
          "type": "bool"
        },
        {
          "internalType": "string",
          "name": "ownerName",
          "type": "string"
        }
      ],
      "name": "setMetaData",
      "outputs": [],
      "stateMutability": "nonpayable",
      "type": "function"
    },
    {
      "inputs": [
        {
          "internalType": "uint256",
          "name": "boardId",
          "type": "uint256"
        },
        {
          "internalType": "string",
          "name": "slot",
          "type": "string"
        },
        {
          "internalType": "string",
          "name": "adImage",
          "type": "string"
        }
      ],
      "name": "setAdImage",
      "outputs": [],
      "stateMutability": "nonpayable",
      "type": "function"
    },
    {
      "inputs": [
        {
          "internalType": "uint256",
          "name": "boardId",
          "type": "uint256"
        },
        {
          "internalType": "string",
          "name": "slot",
          "type": "string"
        },
        {
          "internalType": "string",
          "name": "redirectUrl",
          "type": "string"
        }
      ],
      "name": "setRedirectUrl",
      "outputs": [],
      "stateMutability": "nonpayable",
      "type": "function"
    },
    {
      "inputs": [
        {
          "internalType": "uint256",
          "name": "boardId",
          "type": "uint256"
        },
        {
          "internalType": "string",
          "name": "slot",
          "type": "string"
        },
        {
          "internalType": "bool",
          "name": "status",
          "type": "bool"
        }
      ],
      "name": "setStatus",
      "outputs": [],
      "stateMutability": "nonpayable",
      "type": "function"
    },
    {
      "inputs": [
        {
          "internalType": "uint256",
          "name": "boardId",
          "type": "uint256"
        },
        {
          "internalType": "string",
          "name": "slot",
          "type": "string"
        },
        {
          "internalType": "string",
          "name": "ownerName",
          "type": "string"
        }
      ],
      "name": "setOwnerName",
      "outputs": [],
      "stateMutability": "nonpayable",
      "type": "function"
    }
  ],
  "bytecode": "0x608060405260405180602001604052806000815250600990805190602001906200002b92919062000304565b5060405180602001604052806000815250600a90805190602001906200005392919062000304565b5060405180602001604052806000815250600b90805190602001906200007b92919062000304565b506000600c556000600d60006101000a81548173ffffffffffffffffffffffffffffffffffffffff021916908373ffffffffffffffffffffffffffffffffffffffff1602179055506000600e60006101000a81548173ffffffffffffffffffffffffffffffffffffffff021916908373ffffffffffffffffffffffffffffffffffffffff1602179055503480156200011257600080fd5b5060405162004ed538038062004ed5833981810160405281019062000138919062000426565b818181600090805190602001906200015292919062000304565b5080600190805190602001906200016b92919062000304565b5050506200018e620001826200023660201b60201c565b6200023e60201b60201c565b6200019e6200023660201b60201c565b600d60006101000a81548173ffffffffffffffffffffffffffffffffffffffff021916908373ffffffffffffffffffffffffffffffffffffffff160217905550620001ee6200023660201b60201c565b600e60006101000a81548173ffffffffffffffffffffffffffffffffffffffff021916908373ffffffffffffffffffffffffffffffffffffffff1602179055505050620005ca565b600033905090565b6000600660009054906101000a900473ffffffffffffffffffffffffffffffffffffffff16905081600660006101000a81548173ffffffffffffffffffffffffffffffffffffffff021916908373ffffffffffffffffffffffffffffffffffffffff1602179055508173ffffffffffffffffffffffffffffffffffffffff168173ffffffffffffffffffffffffffffffffffffffff167f8be0079c531659141344cd1fd0a4f28419497f9722a3daafe3b4186f6b6457e060405160405180910390a35050565b828054620003129062000536565b90600052602060002090601f01602090048101928262000336576000855562000382565b82601f106200035157805160ff191683800117855562000382565b8280016001018555821562000382579182015b828111156200038157825182559160200191906001019062000364565b5b50905062000391919062000395565b5090565b5b80821115620003b057600081600090555060010162000396565b5090565b6000620003cb620003c584620004cd565b62000499565b905082815260208101848484011115620003e457600080fd5b620003f184828562000500565b509392505050565b600082601f8301126200040b57600080fd5b81516200041d848260208601620003b4565b91505092915050565b600080604083850312156200043a57600080fd5b600083015167ffffffffffffffff8111156200045557600080fd5b6200046385828601620003f9565b925050602083015167ffffffffffffffff8111156200048157600080fd5b6200048f85828601620003f9565b9150509250929050565b6000604051905081810181811067ffffffffffffffff82111715620004c357620004c26200059b565b5b8060405250919050565b600067ffffffffffffffff821115620004eb57620004ea6200059b565b5b601f19601f8301169050602081019050919050565b60005b838110156200052057808201518184015260208101905062000503565b8381111562000530576000848401525b50505050565b600060028204905060018216806200054f57607f821691505b602082108114156200056657620005656200056c565b5b50919050565b7f4e487b7100000000000000000000000000000000000000000000000000000000600052602260045260246000fd5b7f4e487b7100000000000000000000000000000000000000000000000000000000600052604160045260246000fd5b6148fb80620005da6000396000f3fe608060405234801561001057600080fd5b50600436106101da5760003560e01c8063938e3d7b11610104578063c87b56dd116100a2578063e985e9c511610071578063e985e9c514610540578063eb9df7db14610570578063f2fde38b1461058c578063f38b6bb0146105a8576101da565b8063c87b56dd146104ba578063d40dace8146104ea578063d48ede9914610506578063e8a3d48514610522576101da565b8063a22cb465116100de578063a22cb46514610430578063ae05b8321461044c578063b88d4fde14610482578063c28aeb771461049e576101da565b8063938e3d7b146103c557806395d89b41146103e1578063976c1e35146103ff576101da565b806342842e0e1161017c57806366b87c7e1161014b57806366b87c7e1461035157806370a082311461036d578063715018a61461039d5780638da5cb5b146103a7576101da565b806342842e0e146102cd578063483a6e57146102e9578063483f1d13146103055780636352211e14610321576101da565b8063095ea7b3116101b8578063095ea7b31461025d5780630d329f581461027957806323b872dd146102955780633f6c13bc146102b1576101da565b806301ffc9a7146101df57806306fdde031461020f578063081812fc1461022d575b600080fd5b6101f960048036038101906101f4919061313a565b6105c4565b604051610206919061409c565b60405180910390f35b6102176106a6565b60405161022491906140b7565b60405180910390f35b61024760048036038101906102429190613239565b610738565b6040516102549190614035565b60405180910390f35b610277600480360381019061027291906130fe565b6107bd565b005b610293600480360381019061028e9190613530565b6108d5565b005b6102af60048036038101906102aa9190612ff8565b6108f9565b005b6102cb60048036038101906102c69190613447565b610959565b005b6102e760048036038101906102e29190612ff8565b610b7d565b005b61030360048036038101906102fe919061331d565b610b9d565b005b61031f600480360381019061031a91906132b6565b610ce6565b005b61033b60048036038101906103369190613239565b610e32565b6040516103489190614035565b60405180910390f35b61036b6004803603810190610366919061331d565b610ee4565b005b61038760048036038101906103829190612f93565b61102d565b60405161039491906143b9565b60405180910390f35b6103a56110e5565b005b6103af61116d565b6040516103bc9190614035565b60405180910390f35b6103df60048036038101906103da919061318c565b611197565b005b6103e9611248565b6040516103f691906140b7565b60405180910390f35b61041960048036038101906104149190613239565b6112da565b6040516104279291906143d4565b60405180910390f35b61044a600480360381019061044591906130c2565b611386565b005b61046660048036038101906104619190613262565b611507565b6040516104799796959493929190614404565b60405180910390f35b61049c60048036038101906104979190613047565b611821565b005b6104b860048036038101906104b3919061331d565b611883565b005b6104d460048036038101906104cf9190613239565b6119cc565b6040516104e191906140b7565b60405180910390f35b61050460048036038101906104ff919061339c565b611b0d565b005b610520600480360381019061051b91906131cd565b611d84565b005b61052a611e4d565b60405161053791906140b7565b60405180910390f35b61055a60048036038101906105559190612fbc565b611edf565b604051610567919061409c565b60405180910390f35b61058a60048036038101906105859190612f93565b611f73565b005b6105a660048036038101906105a19190612f93565b61204e565b005b6105c260048036038101906105bd9190612f93565b612146565b005b60007f80ac58cd000000000000000000000000000000000000000000000000000000007bffffffffffffffffffffffffffffffffffffffffffffffffffffffff1916827bffffffffffffffffffffffffffffffffffffffffffffffffffffffff1916148061068f57507f5b5e139f000000000000000000000000000000000000000000000000000000007bffffffffffffffffffffffffffffffffffffffffffffffffffffffff1916827bffffffffffffffffffffffffffffffffffffffffffffffffffffffff1916145b8061069f575061069e82612221565b5b9050919050565b6060600080546106b5906146f0565b80601f01602080910402602001604051908101604052809291908181526020018280546106e1906146f0565b801561072e5780601f106107035761010080835404028352916020019161072e565b820191906000526020600020905b81548152906001019060200180831161071157829003601f168201915b5050505050905090565b60006107438261228b565b610782576040517f08c379a0000000000000000000000000000000000000000000000000000000008152600401610779906142d9565b60405180910390fd5b6004600083815260200190815260200160002060009054906101000a900473ffffffffffffffffffffffffffffffffffffffff169050919050565b60006107c882610e32565b90508073ffffffffffffffffffffffffffffffffffffffff168373ffffffffffffffffffffffffffffffffffffffff161415610839576040517f08c379a000000000000000000000000000000000000000000000000000000000815260040161083090614379565b60405180910390fd5b8073ffffffffffffffffffffffffffffffffffffffff166108586122f7565b73ffffffffffffffffffffffffffffffffffffffff1614806108875750610886816108816122f7565b611edf565b5b6108c6576040517f08c379a00000000000000000000000000000000000000000000000000000000081526004016108bd90614259565b60405180910390fd5b6108d083836122ff565b505050565b6108e188888888611b0d565b6108ef888886868686610959565b5050505050505050565b61090a6109046122f7565b826123b8565b610949576040517f08c379a000000000000000000000000000000000000000000000000000000000815260040161094090614399565b60405180910390fd5b610954838383612496565b505050565b6000600760008881526020019081526020016000208660405161097c9190613fd5565b90815260200160405180910390206000015490506109998161228b565b6109d8576040517f08c379a00000000000000000000000000000000000000000000000000000000081526004016109cf906141f9565b60405180910390fd5b6109e181610e32565b73ffffffffffffffffffffffffffffffffffffffff166109ff6122f7565b73ffffffffffffffffffffffffffffffffffffffff1614610a55576040517f08c379a0000000000000000000000000000000000000000000000000000000008152600401610a4c90614339565b60405180910390fd5b846007600089815260200190815260200160002087604051610a779190613fd5565b90815260200160405180910390206004019080519060200190610a9b929190612db7565b50836007600089815260200190815260200160002087604051610abe9190613fd5565b90815260200160405180910390206003019080519060200190610ae2929190612db7565b50826007600089815260200190815260200160002087604051610b059190613fd5565b908152602001604051809103902060050160006101000a81548160ff021916908315150217905550816007600089815260200190815260200160002087604051610b4f9190613fd5565b90815260200160405180910390206006019080519060200190610b73929190612db7565b5050505050505050565b610b9883838360405180602001604052806000815250611821565b505050565b60006007600085815260200190815260200160002083604051610bc09190613fd5565b9081526020016040518091039020600001549050610bdd8161228b565b610c1c576040517f08c379a0000000000000000000000000000000000000000000000000000000008152600401610c13906141f9565b60405180910390fd5b610c2581610e32565b73ffffffffffffffffffffffffffffffffffffffff16610c436122f7565b73ffffffffffffffffffffffffffffffffffffffff1614610c99576040517f08c379a0000000000000000000000000000000000000000000000000000000008152600401610c9090614339565b60405180910390fd5b816007600086815260200190815260200160002084604051610cbb9190613fd5565b90815260200160405180910390206004019080519060200190610cdf929190612db7565b5050505050565b60006007600085815260200190815260200160002083604051610d099190613fd5565b9081526020016040518091039020600001549050610d268161228b565b610d65576040517f08c379a0000000000000000000000000000000000000000000000000000000008152600401610d5c906141f9565b60405180910390fd5b610d6e81610e32565b73ffffffffffffffffffffffffffffffffffffffff16610d8c6122f7565b73ffffffffffffffffffffffffffffffffffffffff1614610de2576040517f08c379a0000000000000000000000000000000000000000000000000000000008152600401610dd990614339565b60405180910390fd5b816007600086815260200190815260200160002084604051610e049190613fd5565b908152602001604051809103902060050160006101000a81548160ff02191690831515021790555050505050565b6000806002600084815260200190815260200160002060009054906101000a900473ffffffffffffffffffffffffffffffffffffffff169050600073ffffffffffffffffffffffffffffffffffffffff168173ffffffffffffffffffffffffffffffffffffffff161415610edb576040517f08c379a0000000000000000000000000000000000000000000000000000000008152600401610ed290614299565b60405180910390fd5b80915050919050565b60006007600085815260200190815260200160002083604051610f079190613fd5565b9081526020016040518091039020600001549050610f248161228b565b610f63576040517f08c379a0000000000000000000000000000000000000000000000000000000008152600401610f5a906141f9565b60405180910390fd5b610f6c81610e32565b73ffffffffffffffffffffffffffffffffffffffff16610f8a6122f7565b73ffffffffffffffffffffffffffffffffffffffff1614610fe0576040517f08c379a0000000000000000000000000000000000000000000000000000000008152600401610fd790614339565b60405180910390fd5b8160076000868152602001908152602001600020846040516110029190613fd5565b90815260200160405180910390206003019080519060200190611026929190612db7565b5050505050565b60008073ffffffffffffffffffffffffffffffffffffffff168273ffffffffffffffffffffffffffffffffffffffff16141561109e576040517f08c379a000000000000000000000000000000000000000000000000000000000815260040161109590614279565b60405180910390fd5b600360008373ffffffffffffffffffffffffffffffffffffffff1673ffffffffffffffffffffffffffffffffffffffff168152602001908152602001600020549050919050565b6110ed6122f7565b73ffffffffffffffffffffffffffffffffffffffff1661110b61116d565b73ffffffffffffffffffffffffffffffffffffffff1614611161576040517f08c379a000000000000000000000000000000000000000000000000000000000815260040161115890614319565b60405180910390fd5b61116b60006126f2565b565b6000600660009054906101000a900473ffffffffffffffffffffffffffffffffffffffff16905090565b600d60009054906101000a900473ffffffffffffffffffffffffffffffffffffffff1673ffffffffffffffffffffffffffffffffffffffff166111d86122f7565b73ffffffffffffffffffffffffffffffffffffffff161461122e576040517f08c379a0000000000000000000000000000000000000000000000000000000008152600401611225906140d9565b60405180910390fd5b80600b9080519060200190611244929190612db7565b5050565b606060018054611257906146f0565b80601f0160208091040260200160405190810160405280929190818152602001828054611283906146f0565b80156112d05780601f106112a5576101008083540402835291602001916112d0565b820191906000526020600020905b8154815290600101906020018083116112b357829003601f168201915b5050505050905090565b6008602052806000526040600020600091509050806000015490806001018054611303906146f0565b80601f016020809104026020016040519081016040528092919081815260200182805461132f906146f0565b801561137c5780601f106113515761010080835404028352916020019161137c565b820191906000526020600020905b81548152906001019060200180831161135f57829003601f168201915b5050505050905082565b61138e6122f7565b73ffffffffffffffffffffffffffffffffffffffff168273ffffffffffffffffffffffffffffffffffffffff1614156113fc576040517f08c379a00000000000000000000000000000000000000000000000000000000081526004016113f3906141b9565b60405180910390fd5b80600560006114096122f7565b73ffffffffffffffffffffffffffffffffffffffff1673ffffffffffffffffffffffffffffffffffffffff16815260200190815260200160002060008473ffffffffffffffffffffffffffffffffffffffff1673ffffffffffffffffffffffffffffffffffffffff16815260200190815260200160002060006101000a81548160ff0219169083151502179055508173ffffffffffffffffffffffffffffffffffffffff166114b66122f7565b73ffffffffffffffffffffffffffffffffffffffff167f17307eab39ab6107e8899845ad3d59bd9653f200f220920489ca2b5937696c31836040516114fb919061409c565b60405180910390a35050565b60076020528160005260406000208180516020810182018051848252602083016020850120818352809550505050505060009150915050806000015490806001018054611553906146f0565b80601f016020809104026020016040519081016040528092919081815260200182805461157f906146f0565b80156115cc5780601f106115a1576101008083540402835291602001916115cc565b820191906000526020600020905b8154815290600101906020018083116115af57829003601f168201915b5050505050908060020180546115e1906146f0565b80601f016020809104026020016040519081016040528092919081815260200182805461160d906146f0565b801561165a5780601f1061162f5761010080835404028352916020019161165a565b820191906000526020600020905b81548152906001019060200180831161163d57829003601f168201915b50505050509080600301805461166f906146f0565b80601f016020809104026020016040519081016040528092919081815260200182805461169b906146f0565b80156116e85780601f106116bd576101008083540402835291602001916116e8565b820191906000526020600020905b8154815290600101906020018083116116cb57829003601f168201915b5050505050908060040180546116fd906146f0565b80601f0160208091040260200160405190810160405280929190818152602001828054611729906146f0565b80156117765780601f1061174b57610100808354040283529160200191611776565b820191906000526020600020905b81548152906001019060200180831161175957829003601f168201915b5050505050908060050160009054906101000a900460ff169080600601805461179e906146f0565b80601f01602080910402602001604051908101604052809291908181526020018280546117ca906146f0565b80156118175780601f106117ec57610100808354040283529160200191611817565b820191906000526020600020905b8154815290600101906020018083116117fa57829003601f168201915b5050505050905087565b61183261182c6122f7565b836123b8565b611871576040517f08c379a000000000000000000000000000000000000000000000000000000000815260040161186890614399565b60405180910390fd5b61187d848484846127b8565b50505050565b600060076000858152602001908152602001600020836040516118a69190613fd5565b90815260200160405180910390206000015490506118c38161228b565b611902576040517f08c379a00000000000000000000000000000000000000000000000000000000081526004016118f9906141f9565b60405180910390fd5b61190b81610e32565b73ffffffffffffffffffffffffffffffffffffffff166119296122f7565b73ffffffffffffffffffffffffffffffffffffffff161461197f576040517f08c379a000000000000000000000000000000000000000000000000000000000815260040161197690614339565b60405180910390fd5b8160076000868152602001908152602001600020846040516119a19190613fd5565b908152602001604051809103902060060190805190602001906119c5929190612db7565b5050505050565b60606119d78261228b565b611a16576040517f08c379a0000000000000000000000000000000000000000000000000000000008152600401611a0d906141f9565b60405180910390fd5b6000600860008481526020019081526020016000206000015490506000600860008581526020019081526020016000206001018054611a54906146f0565b80601f0160208091040260200160405190810160405280929190818152602001828054611a80906146f0565b8015611acd5780601f10611aa257610100808354040283529160200191611acd565b820191906000526020600020905b815481529060010190602001808311611ab057829003601f168201915b505050505090506009611adf83612814565b82600a604051602001611af59493929190613fec565b60405160208183030381529060405292505050919050565b600e60009054906101000a900473ffffffffffffffffffffffffffffffffffffffff1673ffffffffffffffffffffffffffffffffffffffff16611b4e6122f7565b73ffffffffffffffffffffffffffffffffffffffff1614611ba4576040517f08c379a0000000000000000000000000000000000000000000000000000000008152600401611b9b906142f9565b60405180910390fd5b60006007600086815260200190815260200160002084604051611bc79190613fd5565b90815260200160405180910390206001018054611be3906146f0565b905014611c25576040517f08c379a0000000000000000000000000000000000000000000000000000000008152600401611c1c90614179565b60405180910390fd5b6000600c549050611c58600e60009054906101000a900473ffffffffffffffffffffffffffffffffffffffff16826129c1565b6001600c6000828254611c6b919061457f565b92505081905550806007600087815260200190815260200160002085604051611c949190613fd5565b908152602001604051809103902060000181905550826007600087815260200190815260200160002085604051611ccb9190613fd5565b90815260200160405180910390206001019080519060200190611cef929190612db7565b50816007600087815260200190815260200160002085604051611d129190613fd5565b90815260200160405180910390206002019080519060200190611d36929190612db7565b5084600860008381526020019081526020016000206000018190555083600860008381526020019081526020016000206001019080519060200190611d7c929190612db7565b505050505050565b600d60009054906101000a900473ffffffffffffffffffffffffffffffffffffffff1673ffffffffffffffffffffffffffffffffffffffff16611dc56122f7565b73ffffffffffffffffffffffffffffffffffffffff1614611e1b576040517f08c379a0000000000000000000000000000000000000000000000000000000008152600401611e1290614239565b60405180910390fd5b8160099080519060200190611e31929190612db7565b5080600a9080519060200190611e48929190612db7565b505050565b6060600b8054611e5c906146f0565b80601f0160208091040260200160405190810160405280929190818152602001828054611e88906146f0565b8015611ed55780601f10611eaa57610100808354040283529160200191611ed5565b820191906000526020600020905b815481529060010190602001808311611eb857829003601f168201915b5050505050905090565b6000600560008473ffffffffffffffffffffffffffffffffffffffff1673ffffffffffffffffffffffffffffffffffffffff16815260200190815260200160002060008373ffffffffffffffffffffffffffffffffffffffff1673ffffffffffffffffffffffffffffffffffffffff16815260200190815260200160002060009054906101000a900460ff16905092915050565b600d60009054906101000a900473ffffffffffffffffffffffffffffffffffffffff1673ffffffffffffffffffffffffffffffffffffffff16611fb46122f7565b73ffffffffffffffffffffffffffffffffffffffff161461200a576040517f08c379a0000000000000000000000000000000000000000000000000000000008152600401612001906141d9565b60405180910390fd5b80600d60006101000a81548173ffffffffffffffffffffffffffffffffffffffff021916908373ffffffffffffffffffffffffffffffffffffffff16021790555050565b6120566122f7565b73ffffffffffffffffffffffffffffffffffffffff1661207461116d565b73ffffffffffffffffffffffffffffffffffffffff16146120ca576040517f08c379a00000000000000000000000000000000000000000000000000000000081526004016120c190614319565b60405180910390fd5b600073ffffffffffffffffffffffffffffffffffffffff168173ffffffffffffffffffffffffffffffffffffffff16141561213a576040517f08c379a000000000000000000000000000000000000000000000000000000000815260040161213190614119565b60405180910390fd5b612143816126f2565b50565b600d60009054906101000a900473ffffffffffffffffffffffffffffffffffffffff1673ffffffffffffffffffffffffffffffffffffffff166121876122f7565b73ffffffffffffffffffffffffffffffffffffffff16146121dd576040517f08c379a00000000000000000000000000000000000000000000000000000000081526004016121d490614139565b60405180910390fd5b80600e60006101000a81548173ffffffffffffffffffffffffffffffffffffffff021916908373ffffffffffffffffffffffffffffffffffffffff16021790555050565b60007f01ffc9a7000000000000000000000000000000000000000000000000000000007bffffffffffffffffffffffffffffffffffffffffffffffffffffffff1916827bffffffffffffffffffffffffffffffffffffffffffffffffffffffff1916149050919050565b60008073ffffffffffffffffffffffffffffffffffffffff166002600084815260200190815260200160002060009054906101000a900473ffffffffffffffffffffffffffffffffffffffff1673ffffffffffffffffffffffffffffffffffffffff1614159050919050565b600033905090565b816004600083815260200190815260200160002060006101000a81548173ffffffffffffffffffffffffffffffffffffffff021916908373ffffffffffffffffffffffffffffffffffffffff160217905550808273ffffffffffffffffffffffffffffffffffffffff1661237283610e32565b73ffffffffffffffffffffffffffffffffffffffff167f8c5be1e5ebec7d5bd14f71427d1e84f3dd0314c0f7b2291e5b200ac8c7c3b92560405160405180910390a45050565b60006123c38261228b565b612402576040517f08c379a00000000000000000000000000000000000000000000000000000000081526004016123f990614219565b60405180910390fd5b600061240d83610e32565b90508073ffffffffffffffffffffffffffffffffffffffff168473ffffffffffffffffffffffffffffffffffffffff16148061247c57508373ffffffffffffffffffffffffffffffffffffffff1661246484610738565b73ffffffffffffffffffffffffffffffffffffffff16145b8061248d575061248c8185611edf565b5b91505092915050565b8273ffffffffffffffffffffffffffffffffffffffff166124b682610e32565b73ffffffffffffffffffffffffffffffffffffffff161461250c576040517f08c379a000000000000000000000000000000000000000000000000000000000815260040161250390614359565b60405180910390fd5b600073ffffffffffffffffffffffffffffffffffffffff168273ffffffffffffffffffffffffffffffffffffffff16141561257c576040517f08c379a000000000000000000000000000000000000000000000000000000000815260040161257390614199565b60405180910390fd5b6125878383836129df565b6125926000826122ff565b6001600360008573ffffffffffffffffffffffffffffffffffffffff1673ffffffffffffffffffffffffffffffffffffffff16815260200190815260200160002060008282546125e29190614606565b925050819055506001600360008473ffffffffffffffffffffffffffffffffffffffff1673ffffffffffffffffffffffffffffffffffffffff1681526020019081526020016000206000828254612639919061457f565b92505081905550816002600083815260200190815260200160002060006101000a81548173ffffffffffffffffffffffffffffffffffffffff021916908373ffffffffffffffffffffffffffffffffffffffff160217905550808273ffffffffffffffffffffffffffffffffffffffff168473ffffffffffffffffffffffffffffffffffffffff167fddf252ad1be2c89b69c2b068fc378daa952ba7f163c4a11628f55a4df523b3ef60405160405180910390a4505050565b6000600660009054906101000a900473ffffffffffffffffffffffffffffffffffffffff16905081600660006101000a81548173ffffffffffffffffffffffffffffffffffffffff021916908373ffffffffffffffffffffffffffffffffffffffff1602179055508173ffffffffffffffffffffffffffffffffffffffff168173ffffffffffffffffffffffffffffffffffffffff167f8be0079c531659141344cd1fd0a4f28419497f9722a3daafe3b4186f6b6457e060405160405180910390a35050565b6127c3848484612496565b6127cf848484846129e4565b61280e576040517f08c379a0000000000000000000000000000000000000000000000000000000008152600401612805906140f9565b60405180910390fd5b50505050565b6060600082141561285c576040518060400160405280600181526020017f300000000000000000000000000000000000000000000000000000000000000081525090506129bc565b600082905060005b6000821461288e57808061287790614722565b915050600a8261288791906145d5565b9150612864565b60008167ffffffffffffffff8111156128d0577f4e487b7100000000000000000000000000000000000000000000000000000000600052604160045260246000fd5b6040519080825280601f01601f1916602001820160405280156129025781602001600182028036833780820191505090505b5090505b600085146129b55760018261291b9190614606565b9150600a8561292a919061476b565b6030612936919061457f565b60f81b818381518110612972577f4e487b7100000000000000000000000000000000000000000000000000000000600052603260045260246000fd5b60200101907effffffffffffffffffffffffffffffffffffffffffffffffffffffffffffff1916908160001a905350600a856129ae91906145d5565b9450612906565b8093505050505b919050565b6129db828260405180602001604052806000815250612b7b565b5050565b505050565b6000612a058473ffffffffffffffffffffffffffffffffffffffff16612bd6565b15612b6e578373ffffffffffffffffffffffffffffffffffffffff1663150b7a02612a2e6122f7565b8786866040518563ffffffff1660e01b8152600401612a509493929190614050565b602060405180830381600087803b158015612a6a57600080fd5b505af1925050508015612a9b57506040513d601f19601f82011682018060405250810190612a989190613163565b60015b612b1e573d8060008114612acb576040519150601f19603f3d011682016040523d82523d6000602084013e612ad0565b606091505b50600081511415612b16576040517f08c379a0000000000000000000000000000000000000000000000000000000008152600401612b0d906140f9565b60405180910390fd5b805181602001fd5b63150b7a0260e01b7bffffffffffffffffffffffffffffffffffffffffffffffffffffffff1916817bffffffffffffffffffffffffffffffffffffffffffffffffffffffff191614915050612b73565b600190505b949350505050565b612b858383612be9565b612b9260008484846129e4565b612bd1576040517f08c379a0000000000000000000000000000000000000000000000000000000008152600401612bc8906140f9565b60405180910390fd5b505050565b600080823b905060008111915050919050565b600073ffffffffffffffffffffffffffffffffffffffff168273ffffffffffffffffffffffffffffffffffffffff161415612c59576040517f08c379a0000000000000000000000000000000000000000000000000000000008152600401612c50906142b9565b60405180910390fd5b612c628161228b565b15612ca2576040517f08c379a0000000000000000000000000000000000000000000000000000000008152600401612c9990614159565b60405180910390fd5b612cae600083836129df565b6001600360008473ffffffffffffffffffffffffffffffffffffffff1673ffffffffffffffffffffffffffffffffffffffff1681526020019081526020016000206000828254612cfe919061457f565b92505081905550816002600083815260200190815260200160002060006101000a81548173ffffffffffffffffffffffffffffffffffffffff021916908373ffffffffffffffffffffffffffffffffffffffff160217905550808273ffffffffffffffffffffffffffffffffffffffff16600073ffffffffffffffffffffffffffffffffffffffff167fddf252ad1be2c89b69c2b068fc378daa952ba7f163c4a11628f55a4df523b3ef60405160405180910390a45050565b828054612dc3906146f0565b90600052602060002090601f016020900481019282612de55760008555612e2c565b82601f10612dfe57805160ff1916838001178555612e2c565b82800160010185558215612e2c579182015b82811115612e2b578251825591602001919060010190612e10565b5b509050612e399190612e3d565b5090565b5b80821115612e56576000816000905550600101612e3e565b5090565b6000612e6d612e68846144c7565b614496565b905082815260208101848484011115612e8557600080fd5b612e908482856146ae565b509392505050565b6000612eab612ea6846144f7565b614496565b905082815260208101848484011115612ec357600080fd5b612ece8482856146ae565b509392505050565b600081359050612ee581614869565b92915050565b600081359050612efa81614880565b92915050565b600081359050612f0f81614897565b92915050565b600081519050612f2481614897565b92915050565b600082601f830112612f3b57600080fd5b8135612f4b848260208601612e5a565b91505092915050565b600082601f830112612f6557600080fd5b8135612f75848260208601612e98565b91505092915050565b600081359050612f8d816148ae565b92915050565b600060208284031215612fa557600080fd5b6000612fb384828501612ed6565b91505092915050565b60008060408385031215612fcf57600080fd5b6000612fdd85828601612ed6565b9250506020612fee85828601612ed6565b9150509250929050565b60008060006060848603121561300d57600080fd5b600061301b86828701612ed6565b935050602061302c86828701612ed6565b925050604061303d86828701612f7e565b9150509250925092565b6000806000806080858703121561305d57600080fd5b600061306b87828801612ed6565b945050602061307c87828801612ed6565b935050604061308d87828801612f7e565b925050606085013567ffffffffffffffff8111156130aa57600080fd5b6130b687828801612f2a565b91505092959194509250565b600080604083850312156130d557600080fd5b60006130e385828601612ed6565b92505060206130f485828601612eeb565b9150509250929050565b6000806040838503121561311157600080fd5b600061311f85828601612ed6565b925050602061313085828601612f7e565b9150509250929050565b60006020828403121561314c57600080fd5b600061315a84828501612f00565b91505092915050565b60006020828403121561317557600080fd5b600061318384828501612f15565b91505092915050565b60006020828403121561319e57600080fd5b600082013567ffffffffffffffff8111156131b857600080fd5b6131c484828501612f54565b91505092915050565b600080604083850312156131e057600080fd5b600083013567ffffffffffffffff8111156131fa57600080fd5b61320685828601612f54565b925050602083013567ffffffffffffffff81111561322357600080fd5b61322f85828601612f54565b9150509250929050565b60006020828403121561324b57600080fd5b600061325984828501612f7e565b91505092915050565b6000806040838503121561327557600080fd5b600061328385828601612f7e565b925050602083013567ffffffffffffffff8111156132a057600080fd5b6132ac85828601612f54565b9150509250929050565b6000806000606084860312156132cb57600080fd5b60006132d986828701612f7e565b935050602084013567ffffffffffffffff8111156132f657600080fd5b61330286828701612f54565b925050604061331386828701612eeb565b9150509250925092565b60008060006060848603121561333257600080fd5b600061334086828701612f7e565b935050602084013567ffffffffffffffff81111561335d57600080fd5b61336986828701612f54565b925050604084013567ffffffffffffffff81111561338657600080fd5b61339286828701612f54565b9150509250925092565b600080600080608085870312156133b257600080fd5b60006133c087828801612f7e565b945050602085013567ffffffffffffffff8111156133dd57600080fd5b6133e987828801612f54565b935050604085013567ffffffffffffffff81111561340657600080fd5b61341287828801612f54565b925050606085013567ffffffffffffffff81111561342f57600080fd5b61343b87828801612f54565b91505092959194509250565b60008060008060008060c0878903121561346057600080fd5b600061346e89828a01612f7e565b965050602087013567ffffffffffffffff81111561348b57600080fd5b61349789828a01612f54565b955050604087013567ffffffffffffffff8111156134b457600080fd5b6134c089828a01612f54565b945050606087013567ffffffffffffffff8111156134dd57600080fd5b6134e989828a01612f54565b93505060806134fa89828a01612eeb565b92505060a087013567ffffffffffffffff81111561351757600080fd5b61352389828a01612f54565b9150509295509295509295565b600080600080600080600080610100898b03121561354d57600080fd5b600061355b8b828c01612f7e565b985050602089013567ffffffffffffffff81111561357857600080fd5b6135848b828c01612f54565b975050604089013567ffffffffffffffff8111156135a157600080fd5b6135ad8b828c01612f54565b965050606089013567ffffffffffffffff8111156135ca57600080fd5b6135d68b828c01612f54565b955050608089013567ffffffffffffffff8111156135f357600080fd5b6135ff8b828c01612f54565b94505060a089013567ffffffffffffffff81111561361c57600080fd5b6136288b828c01612f54565b93505060c06136398b828c01612eeb565b92505060e089013567ffffffffffffffff81111561365657600080fd5b6136628b828c01612f54565b9150509295985092959890939650565b61367b8161463a565b82525050565b61368a8161464c565b82525050565b600061369b8261453c565b6136a58185614552565b93506136b58185602086016146bd565b6136be81614858565b840191505092915050565b60006136d482614547565b6136de8185614563565b93506136ee8185602086016146bd565b6136f781614858565b840191505092915050565b600061370d82614547565b6137178185614574565b93506137278185602086016146bd565b80840191505092915050565b60008154613740816146f0565b61374a8186614574565b945060018216600081146137655760018114613776576137a9565b60ff198316865281860193506137a9565b61377f85614527565b60005b838110156137a157815481890152600182019150602081019050613782565b838801955050505b50505092915050565b60006137bf602283614563565b91507f4f6e6c79206f776e65722063616e2075706461746520636f6e7472616374205560008301527f52490000000000000000000000000000000000000000000000000000000000006020830152604082019050919050565b6000613825603283614563565b91507f4552433732313a207472616e7366657220746f206e6f6e20455243373231526560008301527f63656976657220696d706c656d656e74657200000000000000000000000000006020830152604082019050919050565b600061388b602683614563565b91507f4f776e61626c653a206e6577206f776e657220697320746865207a65726f206160008301527f64647265737300000000000000000000000000000000000000000000000000006020830152604082019050919050565b60006138f1602583614563565b91507f4f6e6c79206f776e65722063616e2075706461746520636f6e7472616374206d60008301527f696e7465720000000000000000000000000000000000000000000000000000006020830152604082019050919050565b6000613957601c83614563565b91507f4552433732313a20746f6b656e20616c7265616479206d696e746564000000006000830152602082019050919050565b6000613997601483614563565b91507f546f6b656e20616c7265616479206578697374730000000000000000000000006000830152602082019050919050565b60006139d7602483614563565b91507f4552433732313a207472616e7366657220746f20746865207a65726f2061646460008301527f72657373000000000000000000000000000000000000000000000000000000006020830152604082019050919050565b6000613a3d601983614563565b91507f4552433732313a20617070726f766520746f2063616c6c6572000000000000006000830152602082019050919050565b6000613a7d602183614563565b91507f4f6e6c79206f776e65722063616e207472616e73666572206f776e657273686960008301527f70000000000000000000000000000000000000000000000000000000000000006020830152604082019050919050565b6000613ae3601483614563565b91507f546f6b656e20646f6573206e6f742065786973740000000000000000000000006000830152602082019050919050565b6000613b23602c83614563565b91507f4552433732313a206f70657261746f7220717565727920666f72206e6f6e657860008301527f697374656e7420746f6b656e00000000000000000000000000000000000000006020830152604082019050919050565b6000613b89601983614563565b91507f4f6e6c79206f776e65722063616e2075706461746520555249000000000000006000830152602082019050919050565b6000613bc9603883614563565b91507f4552433732313a20617070726f76652063616c6c6572206973206e6f74206f7760008301527f6e6572206e6f7220617070726f76656420666f7220616c6c00000000000000006020830152604082019050919050565b6000613c2f602a83614563565b91507f4552433732313a2062616c616e636520717565727920666f7220746865207a6560008301527f726f2061646472657373000000000000000000000000000000000000000000006020830152604082019050919050565b6000613c95602983614563565b91507f4552433732313a206f776e657220717565727920666f72206e6f6e657869737460008301527f656e7420746f6b656e00000000000000000000000000000000000000000000006020830152604082019050919050565b6000613cfb602083614563565b91507f4552433732313a206d696e7420746f20746865207a65726f20616464726573736000830152602082019050919050565b6000613d3b602c83614563565b91507f4552433732313a20617070726f76656420717565727920666f72206e6f6e657860008301527f697374656e7420746f6b656e00000000000000000000000000000000000000006020830152604082019050919050565b6000613da1601c83614563565b91507f4f6e6c79206d696e74657220616464726573732063616e206d696e74000000006000830152602082019050919050565b6000613de1602083614563565b91507f4f776e61626c653a2063616c6c6572206973206e6f7420746865206f776e65726000830152602082019050919050565b6000613e21601e83614563565b91507f4f6e6c79206f776e65722063616e20757064617465206d6574616461746100006000830152602082019050919050565b6000613e61602983614563565b91507f4552433732313a207472616e73666572206f6620746f6b656e2074686174206960008301527f73206e6f74206f776e00000000000000000000000000000000000000000000006020830152604082019050919050565b6000613ec7602183614563565b91507f4552433732313a20617070726f76616c20746f2063757272656e74206f776e6560008301527f72000000000000000000000000000000000000000000000000000000000000006020830152604082019050919050565b6000613f2d603183614563565b91507f4552433732313a207472616e736665722063616c6c6572206973206e6f74206f60008301527f776e6572206e6f7220617070726f7665640000000000000000000000000000006020830152604082019050919050565b6000613f93600183614574565b91507f2d000000000000000000000000000000000000000000000000000000000000006000830152600182019050919050565b613fcf816146a4565b82525050565b6000613fe18284613702565b915081905092915050565b6000613ff88287613733565b91506140048286613702565b915061400f82613f86565b915061401b8285613702565b91506140278284613733565b915081905095945050505050565b600060208201905061404a6000830184613672565b92915050565b60006080820190506140656000830187613672565b6140726020830186613672565b61407f6040830185613fc6565b81810360608301526140918184613690565b905095945050505050565b60006020820190506140b16000830184613681565b92915050565b600060208201905081810360008301526140d181846136c9565b905092915050565b600060208201905081810360008301526140f2816137b2565b9050919050565b6000602082019050818103600083015261411281613818565b9050919050565b600060208201905081810360008301526141328161387e565b9050919050565b60006020820190508181036000830152614152816138e4565b9050919050565b600060208201905081810360008301526141728161394a565b9050919050565b600060208201905081810360008301526141928161398a565b9050919050565b600060208201905081810360008301526141b2816139ca565b9050919050565b600060208201905081810360008301526141d281613a30565b9050919050565b600060208201905081810360008301526141f281613a70565b9050919050565b6000602082019050818103600083015261421281613ad6565b9050919050565b6000602082019050818103600083015261423281613b16565b9050919050565b6000602082019050818103600083015261425281613b7c565b9050919050565b6000602082019050818103600083015261427281613bbc565b9050919050565b6000602082019050818103600083015261429281613c22565b9050919050565b600060208201905081810360008301526142b281613c88565b9050919050565b600060208201905081810360008301526142d281613cee565b9050919050565b600060208201905081810360008301526142f281613d2e565b9050919050565b6000602082019050818103600083015261431281613d94565b9050919050565b6000602082019050818103600083015261433281613dd4565b9050919050565b6000602082019050818103600083015261435281613e14565b9050919050565b6000602082019050818103600083015261437281613e54565b9050919050565b6000602082019050818103600083015261439281613eba565b9050919050565b600060208201905081810360008301526143b281613f20565b9050919050565b60006020820190506143ce6000830184613fc6565b92915050565b60006040820190506143e96000830185613fc6565b81810360208301526143fb81846136c9565b90509392505050565b600060e082019050614419600083018a613fc6565b818103602083015261442b81896136c9565b9050818103604083015261443f81886136c9565b9050818103606083015261445381876136c9565b9050818103608083015261446781866136c9565b905061447660a0830185613681565b81810360c083015261448881846136c9565b905098975050505050505050565b6000604051905081810181811067ffffffffffffffff821117156144bd576144bc614829565b5b8060405250919050565b600067ffffffffffffffff8211156144e2576144e1614829565b5b601f19601f8301169050602081019050919050565b600067ffffffffffffffff82111561451257614511614829565b5b601f19601f8301169050602081019050919050565b60008190508160005260206000209050919050565b600081519050919050565b600081519050919050565b600082825260208201905092915050565b600082825260208201905092915050565b600081905092915050565b600061458a826146a4565b9150614595836146a4565b9250827fffffffffffffffffffffffffffffffffffffffffffffffffffffffffffffffff038211156145ca576145c961479c565b5b828201905092915050565b60006145e0826146a4565b91506145eb836146a4565b9250826145fb576145fa6147cb565b5b828204905092915050565b6000614611826146a4565b915061461c836146a4565b92508282101561462f5761462e61479c565b5b828203905092915050565b600061464582614684565b9050919050565b60008115159050919050565b60007fffffffff0000000000000000000000000000000000000000000000000000000082169050919050565b600073ffffffffffffffffffffffffffffffffffffffff82169050919050565b6000819050919050565b82818337600083830152505050565b60005b838110156146db5780820151818401526020810190506146c0565b838111156146ea576000848401525b50505050565b6000600282049050600182168061470857607f821691505b6020821081141561471c5761471b6147fa565b5b50919050565b600061472d826146a4565b91507fffffffffffffffffffffffffffffffffffffffffffffffffffffffffffffffff8214156147605761475f61479c565b5b600182019050919050565b6000614776826146a4565b9150614781836146a4565b925082614791576147906147cb565b5b828206905092915050565b7f4e487b7100000000000000000000000000000000000000000000000000000000600052601160045260246000fd5b7f4e487b7100000000000000000000000000000000000000000000000000000000600052601260045260246000fd5b7f4e487b7100000000000000000000000000000000000000000000000000000000600052602260045260246000fd5b7f4e487b7100000000000000000000000000000000000000000000000000000000600052604160045260246000fd5b6000601f19601f8301169050919050565b6148728161463a565b811461487d57600080fd5b50565b6148898161464c565b811461489457600080fd5b50565b6148a081614658565b81146148ab57600080fd5b50565b6148b7816146a4565b81146148c257600080fd5b5056fea264697066735822122051b3137e2bf4e2ccbda3bdef5195d2bd187787f85b9a2c0e9fb4f1be1013ff8c64736f6c63430008000033",
  "immutableReferences": {},
  "source": "pragma solidity ^0.8.0;\n\nimport \"openzeppelin-solidity/contracts/token/ERC721/ERC721.sol\";\nimport \"openzeppelin-solidity/contracts/access/Ownable.sol\";\nimport \"openzeppelin-solidity/contracts/utils/math/SafeMath.sol\";\n\ncontract Decentraboard is ERC721, Ownable {\n\n  using SafeMath for uint256;\n  using Strings for uint256;\n\n  //\n  // ******************* METADATA STRUCT *******************\n  //\n\n  struct MetaData {\n    uint256 tokenId;\n    string image;\n    string city;\n    string redirectUrl;\n    string adImage;\n    bool status;\n    string ownerName;\n  }\n\n  struct TokenIdInfo {\n    uint256 boardId;\n    string slot;\n  }\n\n  //\n  // ******************* VARIABLES *******************\n  //\n\n  // MetaData map\n  mapping(uint256 => mapping(string => MetaData)) public _tokenData;\n\n  // Token ID to board+slot info\n  mapping(uint256 => TokenIdInfo) public _tokenIdInfo;\n\n  // Token URI\n  string private _tokenURIPrefix = \"\";\n  string private _tokenURISuffix = \"\";\n\n  // Contract URI\n  string private _contractURI = \"\";\n\n  // Total tokens\n  uint256 private _totalSupply = 0;\n\n  // Contract owner\n  address private _contractOwner = address(0);\n\n  // Contract minter\n  address private _contractMinter = address(0);\n\n  //\n  // ******************* SETUP *******************\n  //\n\n  // Constructor\n  constructor (string memory name, string memory symbol) public ERC721(name, symbol) {\n\n    // Initially the deployer is the owner\n    _contractOwner = _msgSender();\n    _contractMinter = _msgSender();\n  }\n\n  //\n  // ******************* OWNERSHIP *******************\n  //\n\n  function updateContractOwner(address owner) public {\n    require(_msgSender() == _contractOwner, \"Only owner can transfer ownership\");\n\n    _contractOwner = owner; \n  }\n\n  function updateContractMinter(address minter) public {\n    require(_msgSender() == _contractOwner, \"Only owner can update contract minter\");\n\n    _contractMinter = minter;\n  }\n\n  //\n  // ******************* MINT *******************\n  //\n\n  function mintToken(\n      uint256 boardId,\n      string memory slot,\n      string memory image, \n      string memory city\n    ) public {\n\n    require(_msgSender() == _contractMinter, \"Only minter address can mint\");\n    require(bytes(_tokenData[boardId][slot].image).length == 0, \"Token already exists\");\n\n    // Minted token will be send to minter address\n    uint256 tokenId = _totalSupply;\n    _safeMint(_contractMinter, tokenId);\n    _totalSupply += 1;\n\n    // Set tokenId\n    _tokenData[boardId][slot].tokenId = tokenId;\n\n    // Update hardcoded metadata\n    _tokenData[boardId][slot].image = image;\n    _tokenData[boardId][slot].city = city;\n\n    // Update token ID info\n    _tokenIdInfo[tokenId].boardId = boardId;\n    _tokenIdInfo[tokenId].slot = slot;\n  }\n\n  function mintTokenWithData(\n      uint256 boardId,\n      string memory slot,\n      string memory image, \n      string memory city, \n      string memory adImage, \n      string memory redirectUrl, \n      bool status,\n      string memory ownerName\n    ) public {\n\n    // Mint token\n    mintToken(boardId, slot, image, city);\n      \n    // Update editable metadata\n    setMetaData(boardId, slot, adImage, redirectUrl, status, ownerName);\n  }\n\n  //\n  // ******************* ERC721 *******************\n  //\n\n  function tokenURI(uint256 tokenId) public view override returns (string memory) {\n    require(_exists(tokenId), \"Token does not exist\");\n\n    uint256 boardId = _tokenIdInfo[tokenId].boardId;\n    string memory slot = _tokenIdInfo[tokenId].slot;\n\n    return string(abi.encodePacked(_tokenURIPrefix, boardId.toString(), \"-\", slot, _tokenURISuffix));\n  }\n\n  //\n  // ******************* TOKEN URI *******************\n  //\n\n  function setTokenURI(string memory prefix, string memory suffix) public {\n    require(_msgSender() == _contractOwner, \"Only owner can update URI\");\n\n    _tokenURIPrefix = prefix;\n    _tokenURISuffix = suffix;\n  }\n\n  //\n  // ******************* CONTRACT URI *******************\n  //\n\n  function contractURI() public view returns (string memory) {\n    return _contractURI;\n  }\n\n  function setContractURI(string memory contractUri) public {\n    require(_msgSender() == _contractOwner, \"Only owner can update contract URI\");\n\n    _contractURI = contractUri;\n  }\n\n  //\n  // ******************* SETTERS *******************\n  //\n\n  function setMetaData(\n      uint256 boardId,\n      string memory slot, \n      string memory adImage, \n      string memory redirectUrl, \n      bool status,\n      string memory ownerName\n    ) public {\n\n    uint256 tokenId = _tokenData[boardId][slot].tokenId;\n\n    require(_exists(tokenId), \"Token does not exist\");\n    require(_msgSender() == ownerOf(tokenId), \"Only owner can update metadata\");\n\n    _tokenData[boardId][slot].adImage = adImage;\n    _tokenData[boardId][slot].redirectUrl = redirectUrl;\n    _tokenData[boardId][slot].status = status;\n    _tokenData[boardId][slot].ownerName = ownerName;\n  }\n\n  function setAdImage(uint256 boardId, string memory slot, string memory adImage) public {\n    uint256 tokenId = _tokenData[boardId][slot].tokenId;\n\n    require(_exists(tokenId), \"Token does not exist\");\n    require(_msgSender() == ownerOf(tokenId), \"Only owner can update metadata\");\n\n    _tokenData[boardId][slot].adImage = adImage;\n  }\n\n  function setRedirectUrl(uint256 boardId, string memory slot, string memory redirectUrl) public {\n    uint256 tokenId = _tokenData[boardId][slot].tokenId;\n\n    require(_exists(tokenId), \"Token does not exist\");\n    require(_msgSender() == ownerOf(tokenId), \"Only owner can update metadata\");\n\n    _tokenData[boardId][slot].redirectUrl = redirectUrl;\n  }\n\n  function setStatus(uint256 boardId, string memory slot, bool status) public {\n    uint256 tokenId = _tokenData[boardId][slot].tokenId;\n\n    require(_exists(tokenId), \"Token does not exist\");\n    require(_msgSender() == ownerOf(tokenId), \"Only owner can update metadata\");\n\n    _tokenData[boardId][slot].status = status;\n  }\n\n  function setOwnerName(uint256 boardId, string memory slot, string memory ownerName) public {\n    uint256 tokenId = _tokenData[boardId][slot].tokenId;\n\n    require(_exists(tokenId), \"Token does not exist\");\n    require(_msgSender() == ownerOf(tokenId), \"Only owner can update metadata\");\n\n    _tokenData[boardId][slot].ownerName = ownerName;\n  }\n\n}\n",
  "sourcePath": "/Users/nieldeckx/Development/Envoy-Their-Git/Contracts/contracts/Decentraboard.sol",
  "compiler": {
    "name": "solc",
    "version": "0.8.0+commit.c7dfd78e.Emscripten.clang"
  },
  "schemaVersion": "3.4.1",
  "updatedAt": "2021-08-17T09:25:13.707Z",
  "networkType": "ethereum",
  "devdoc": {
    "kind": "dev",
    "methods": {
      "approve(address,uint256)": {
        "details": "See {IERC721-approve}."
      },
      "balanceOf(address)": {
        "details": "See {IERC721-balanceOf}."
      },
      "getApproved(uint256)": {
        "details": "See {IERC721-getApproved}."
      },
      "isApprovedForAll(address,address)": {
        "details": "See {IERC721-isApprovedForAll}."
      },
      "name()": {
        "details": "See {IERC721Metadata-name}."
      },
      "owner()": {
        "details": "Returns the address of the current owner."
      },
      "ownerOf(uint256)": {
        "details": "See {IERC721-ownerOf}."
      },
      "renounceOwnership()": {
        "details": "Leaves the contract without owner. It will not be possible to call `onlyOwner` functions anymore. Can only be called by the current owner. NOTE: Renouncing ownership will leave the contract without an owner, thereby removing any functionality that is only available to the owner."
      },
      "safeTransferFrom(address,address,uint256)": {
        "details": "See {IERC721-safeTransferFrom}."
      },
      "safeTransferFrom(address,address,uint256,bytes)": {
        "details": "See {IERC721-safeTransferFrom}."
      },
      "setApprovalForAll(address,bool)": {
        "details": "See {IERC721-setApprovalForAll}."
      },
      "supportsInterface(bytes4)": {
        "details": "See {IERC165-supportsInterface}."
      },
      "symbol()": {
        "details": "See {IERC721Metadata-symbol}."
      },
      "tokenURI(uint256)": {
        "details": "See {IERC721Metadata-tokenURI}."
      },
      "transferFrom(address,address,uint256)": {
        "details": "See {IERC721-transferFrom}."
      },
      "transferOwnership(address)": {
        "details": "Transfers ownership of the contract to a new account (`newOwner`). Can only be called by the current owner."
      }
    },
    "version": 1
  },
  "userdoc": {
    "kind": "user",
    "methods": {},
    "version": 1
  }
}