{
  "contractName": "Decentraboard",
  "abi": [
    {
      "inputs": [
        {
          "internalType": "string",
          "name": "name",
          "type": "string"
        },
        {
          "internalType": "string",
          "name": "symbol",
          "type": "string"
        }
      ],
      "stateMutability": "nonpayable",
      "type": "constructor"
    },
    {
      "anonymous": false,
      "inputs": [
        {
          "indexed": true,
          "internalType": "address",
          "name": "owner",
          "type": "address"
        },
        {
          "indexed": true,
          "internalType": "address",
          "name": "approved",
          "type": "address"
        },
        {
          "indexed": true,
          "internalType": "uint256",
          "name": "tokenId",
          "type": "uint256"
        }
      ],
      "name": "Approval",
      "type": "event"
    },
    {
      "anonymous": false,
      "inputs": [
        {
          "indexed": true,
          "internalType": "address",
          "name": "owner",
          "type": "address"
        },
        {
          "indexed": true,
          "internalType": "address",
          "name": "operator",
          "type": "address"
        },
        {
          "indexed": false,
          "internalType": "bool",
          "name": "approved",
          "type": "bool"
        }
      ],
      "name": "ApprovalForAll",
      "type": "event"
    },
    {
      "anonymous": false,
      "inputs": [
        {
          "indexed": true,
          "internalType": "address",
          "name": "previousOwner",
          "type": "address"
        },
        {
          "indexed": true,
          "internalType": "address",
          "name": "newOwner",
          "type": "address"
        }
      ],
      "name": "OwnershipTransferred",
      "type": "event"
    },
    {
      "anonymous": false,
      "inputs": [
        {
          "indexed": true,
          "internalType": "address",
          "name": "from",
          "type": "address"
        },
        {
          "indexed": true,
          "internalType": "address",
          "name": "to",
          "type": "address"
        },
        {
          "indexed": true,
          "internalType": "uint256",
          "name": "tokenId",
          "type": "uint256"
        }
      ],
      "name": "Transfer",
      "type": "event"
    },
    {
      "inputs": [
        {
          "internalType": "uint256",
          "name": "",
          "type": "uint256"
        },
        {
          "internalType": "string",
          "name": "",
          "type": "string"
        }
      ],
      "name": "_tokenData",
      "outputs": [
        {
          "internalType": "uint256",
          "name": "tokenId",
          "type": "uint256"
        },
        {
          "internalType": "string",
          "name": "image",
          "type": "string"
        },
        {
          "internalType": "string",
          "name": "city",
          "type": "string"
        },
        {
          "internalType": "string",
          "name": "redirectUrl",
          "type": "string"
        },
        {
          "internalType": "string",
          "name": "adImage",
          "type": "string"
        },
        {
          "internalType": "bool",
          "name": "status",
          "type": "bool"
        },
        {
          "internalType": "string",
          "name": "ownerName",
          "type": "string"
        }
      ],
      "stateMutability": "view",
      "type": "function",
      "constant": true
    },
    {
      "inputs": [
        {
          "internalType": "address",
          "name": "to",
          "type": "address"
        },
        {
          "internalType": "uint256",
          "name": "tokenId",
          "type": "uint256"
        }
      ],
      "name": "approve",
      "outputs": [],
      "stateMutability": "nonpayable",
      "type": "function"
    },
    {
      "inputs": [
        {
          "internalType": "address",
          "name": "owner",
          "type": "address"
        }
      ],
      "name": "balanceOf",
      "outputs": [
        {
          "internalType": "uint256",
          "name": "",
          "type": "uint256"
        }
      ],
      "stateMutability": "view",
      "type": "function",
      "constant": true
    },
    {
      "inputs": [
        {
          "internalType": "uint256",
          "name": "tokenId",
          "type": "uint256"
        }
      ],
      "name": "getApproved",
      "outputs": [
        {
          "internalType": "address",
          "name": "",
          "type": "address"
        }
      ],
      "stateMutability": "view",
      "type": "function",
      "constant": true
    },
    {
      "inputs": [
        {
          "internalType": "address",
          "name": "owner",
          "type": "address"
        },
        {
          "internalType": "address",
          "name": "operator",
          "type": "address"
        }
      ],
      "name": "isApprovedForAll",
      "outputs": [
        {
          "internalType": "bool",
          "name": "",
          "type": "bool"
        }
      ],
      "stateMutability": "view",
      "type": "function",
      "constant": true
    },
    {
      "inputs": [],
      "name": "name",
      "outputs": [
        {
          "internalType": "string",
          "name": "",
          "type": "string"
        }
      ],
      "stateMutability": "view",
      "type": "function",
      "constant": true
    },
    {
      "inputs": [],
      "name": "owner",
      "outputs": [
        {
          "internalType": "address",
          "name": "",
          "type": "address"
        }
      ],
      "stateMutability": "view",
      "type": "function",
      "constant": true
    },
    {
      "inputs": [
        {
          "internalType": "uint256",
          "name": "tokenId",
          "type": "uint256"
        }
      ],
      "name": "ownerOf",
      "outputs": [
        {
          "internalType": "address",
          "name": "",
          "type": "address"
        }
      ],
      "stateMutability": "view",
      "type": "function",
      "constant": true
    },
    {
      "inputs": [],
      "name": "renounceOwnership",
      "outputs": [],
      "stateMutability": "nonpayable",
      "type": "function"
    },
    {
      "inputs": [
        {
          "internalType": "address",
          "name": "from",
          "type": "address"
        },
        {
          "internalType": "address",
          "name": "to",
          "type": "address"
        },
        {
          "internalType": "uint256",
          "name": "tokenId",
          "type": "uint256"
        }
      ],
      "name": "safeTransferFrom",
      "outputs": [],
      "stateMutability": "nonpayable",
      "type": "function"
    },
    {
      "inputs": [
        {
          "internalType": "address",
          "name": "from",
          "type": "address"
        },
        {
          "internalType": "address",
          "name": "to",
          "type": "address"
        },
        {
          "internalType": "uint256",
          "name": "tokenId",
          "type": "uint256"
        },
        {
          "internalType": "bytes",
          "name": "_data",
          "type": "bytes"
        }
      ],
      "name": "safeTransferFrom",
      "outputs": [],
      "stateMutability": "nonpayable",
      "type": "function"
    },
    {
      "inputs": [
        {
          "internalType": "address",
          "name": "operator",
          "type": "address"
        },
        {
          "internalType": "bool",
          "name": "approved",
          "type": "bool"
        }
      ],
      "name": "setApprovalForAll",
      "outputs": [],
      "stateMutability": "nonpayable",
      "type": "function"
    },
    {
      "inputs": [
        {
          "internalType": "bytes4",
          "name": "interfaceId",
          "type": "bytes4"
        }
      ],
      "name": "supportsInterface",
      "outputs": [
        {
          "internalType": "bool",
          "name": "",
          "type": "bool"
        }
      ],
      "stateMutability": "view",
      "type": "function",
      "constant": true
    },
    {
      "inputs": [],
      "name": "symbol",
      "outputs": [
        {
          "internalType": "string",
          "name": "",
          "type": "string"
        }
      ],
      "stateMutability": "view",
      "type": "function",
      "constant": true
    },
    {
      "inputs": [
        {
          "internalType": "address",
          "name": "from",
          "type": "address"
        },
        {
          "internalType": "address",
          "name": "to",
          "type": "address"
        },
        {
          "internalType": "uint256",
          "name": "tokenId",
          "type": "uint256"
        }
      ],
      "name": "transferFrom",
      "outputs": [],
      "stateMutability": "nonpayable",
      "type": "function"
    },
    {
      "inputs": [
        {
          "internalType": "address",
          "name": "newOwner",
          "type": "address"
        }
      ],
      "name": "transferOwnership",
      "outputs": [],
      "stateMutability": "nonpayable",
      "type": "function"
    },
    {
      "inputs": [
        {
          "internalType": "address",
          "name": "owner",
          "type": "address"
        }
      ],
      "name": "updateContractOwner",
      "outputs": [],
      "stateMutability": "nonpayable",
      "type": "function"
    },
    {
      "inputs": [
        {
          "internalType": "address",
          "name": "minter",
          "type": "address"
        }
      ],
      "name": "updateContractMinter",
      "outputs": [],
      "stateMutability": "nonpayable",
      "type": "function"
    },
    {
      "inputs": [
        {
          "internalType": "uint256",
          "name": "boardId",
          "type": "uint256"
        },
        {
          "internalType": "string",
          "name": "slot",
          "type": "string"
        },
        {
          "internalType": "string",
          "name": "image",
          "type": "string"
        },
        {
          "internalType": "string",
          "name": "city",
          "type": "string"
        }
      ],
      "name": "mintToken",
      "outputs": [],
      "stateMutability": "nonpayable",
      "type": "function"
    },
    {
      "inputs": [
        {
          "internalType": "uint256",
          "name": "boardId",
          "type": "uint256"
        },
        {
          "internalType": "string",
          "name": "slot",
          "type": "string"
        },
        {
          "internalType": "string",
          "name": "image",
          "type": "string"
        },
        {
          "internalType": "string",
          "name": "city",
          "type": "string"
        },
        {
          "internalType": "string",
          "name": "adImage",
          "type": "string"
        },
        {
          "internalType": "string",
          "name": "redirectUrl",
          "type": "string"
        },
        {
          "internalType": "bool",
          "name": "status",
          "type": "bool"
        },
        {
          "internalType": "string",
          "name": "ownerName",
          "type": "string"
        }
      ],
      "name": "mintTokenWithData",
      "outputs": [],
      "stateMutability": "nonpayable",
      "type": "function"
    },
    {
      "inputs": [
        {
          "internalType": "uint256",
          "name": "tokenId",
          "type": "uint256"
        }
      ],
      "name": "tokenURI",
      "outputs": [
        {
          "internalType": "string",
          "name": "",
          "type": "string"
        }
      ],
      "stateMutability": "view",
      "type": "function",
      "constant": true
    },
    {
      "inputs": [
        {
          "internalType": "string",
          "name": "baseTokenURI",
          "type": "string"
        }
      ],
      "name": "setBaseTokenURI",
      "outputs": [],
      "stateMutability": "nonpayable",
      "type": "function"
    },
    {
      "inputs": [
        {
          "internalType": "uint256",
          "name": "boardId",
          "type": "uint256"
        },
        {
          "internalType": "string",
          "name": "slot",
          "type": "string"
        },
        {
          "internalType": "string",
          "name": "adImage",
          "type": "string"
        },
        {
          "internalType": "string",
          "name": "redirectUrl",
          "type": "string"
        },
        {
          "internalType": "bool",
          "name": "status",
          "type": "bool"
        },
        {
          "internalType": "string",
          "name": "ownerName",
          "type": "string"
        }
      ],
      "name": "setMetaData",
      "outputs": [],
      "stateMutability": "nonpayable",
      "type": "function"
    },
    {
      "inputs": [
        {
          "internalType": "uint256",
          "name": "boardId",
          "type": "uint256"
        },
        {
          "internalType": "string",
          "name": "slot",
          "type": "string"
        },
        {
          "internalType": "string",
          "name": "adImage",
          "type": "string"
        }
      ],
      "name": "setAdImage",
      "outputs": [],
      "stateMutability": "nonpayable",
      "type": "function"
    },
    {
      "inputs": [
        {
          "internalType": "uint256",
          "name": "boardId",
          "type": "uint256"
        },
        {
          "internalType": "string",
          "name": "slot",
          "type": "string"
        },
        {
          "internalType": "string",
          "name": "redirectUrl",
          "type": "string"
        }
      ],
      "name": "setRedirectUrl",
      "outputs": [],
      "stateMutability": "nonpayable",
      "type": "function"
    },
    {
      "inputs": [
        {
          "internalType": "uint256",
          "name": "boardId",
          "type": "uint256"
        },
        {
          "internalType": "string",
          "name": "slot",
          "type": "string"
        },
        {
          "internalType": "bool",
          "name": "status",
          "type": "bool"
        }
      ],
      "name": "setStatus",
      "outputs": [],
      "stateMutability": "nonpayable",
      "type": "function"
    },
    {
      "inputs": [
        {
          "internalType": "uint256",
          "name": "boardId",
          "type": "uint256"
        },
        {
          "internalType": "string",
          "name": "slot",
          "type": "string"
        },
        {
          "internalType": "string",
          "name": "ownerName",
          "type": "string"
        }
      ],
      "name": "setOwnerName",
      "outputs": [],
      "stateMutability": "nonpayable",
      "type": "function"
    }
  ],
  "bytecode": "0x608060405260405180602001604052806000815250600890805190602001906200002b929190620002b4565b5060006009556000600a60006101000a81548173ffffffffffffffffffffffffffffffffffffffff021916908373ffffffffffffffffffffffffffffffffffffffff1602179055506000600b60006101000a81548173ffffffffffffffffffffffffffffffffffffffff021916908373ffffffffffffffffffffffffffffffffffffffff160217905550348015620000c257600080fd5b5060405162004950380380620049508339818101604052810190620000e89190620003d6565b8181816000908051906020019062000102929190620002b4565b5080600190805190602001906200011b929190620002b4565b5050506200013e62000132620001e660201b60201c565b620001ee60201b60201c565b6200014e620001e660201b60201c565b600a60006101000a81548173ffffffffffffffffffffffffffffffffffffffff021916908373ffffffffffffffffffffffffffffffffffffffff1602179055506200019e620001e660201b60201c565b600b60006101000a81548173ffffffffffffffffffffffffffffffffffffffff021916908373ffffffffffffffffffffffffffffffffffffffff16021790555050506200057a565b600033905090565b6000600660009054906101000a900473ffffffffffffffffffffffffffffffffffffffff16905081600660006101000a81548173ffffffffffffffffffffffffffffffffffffffff021916908373ffffffffffffffffffffffffffffffffffffffff1602179055508173ffffffffffffffffffffffffffffffffffffffff168173ffffffffffffffffffffffffffffffffffffffff167f8be0079c531659141344cd1fd0a4f28419497f9722a3daafe3b4186f6b6457e060405160405180910390a35050565b828054620002c290620004e6565b90600052602060002090601f016020900481019282620002e6576000855562000332565b82601f106200030157805160ff191683800117855562000332565b8280016001018555821562000332579182015b828111156200033157825182559160200191906001019062000314565b5b50905062000341919062000345565b5090565b5b808211156200036057600081600090555060010162000346565b5090565b60006200037b62000375846200047d565b62000449565b9050828152602081018484840111156200039457600080fd5b620003a1848285620004b0565b509392505050565b600082601f830112620003bb57600080fd5b8151620003cd84826020860162000364565b91505092915050565b60008060408385031215620003ea57600080fd5b600083015167ffffffffffffffff8111156200040557600080fd5b6200041385828601620003a9565b925050602083015167ffffffffffffffff8111156200043157600080fd5b6200043f85828601620003a9565b9150509250929050565b6000604051905081810181811067ffffffffffffffff821117156200047357620004726200054b565b5b8060405250919050565b600067ffffffffffffffff8211156200049b576200049a6200054b565b5b601f19601f8301169050602081019050919050565b60005b83811015620004d0578082015181840152602081019050620004b3565b83811115620004e0576000848401525b50505050565b60006002820490506001821680620004ff57607f821691505b602082108114156200051657620005156200051c565b5b50919050565b7f4e487b7100000000000000000000000000000000000000000000000000000000600052602260045260246000fd5b7f4e487b7100000000000000000000000000000000000000000000000000000000600052604160045260246000fd5b6143c6806200058a6000396000f3fe608060405234801561001057600080fd5b50600436106101a95760003560e01c806370a08231116100f9578063c28aeb7711610097578063e985e9c511610071578063e985e9c5146104a4578063eb9df7db146104d4578063f2fde38b146104f0578063f38b6bb01461050c576101a9565b8063c28aeb771461043c578063c87b56dd14610458578063d40dace814610488576101a9565b806395d89b41116100d357806395d89b41146103b0578063a22cb465146103ce578063ae05b832146103ea578063b88d4fde14610420576101a9565b806370a0823114610358578063715018a6146103885780638da5cb5b14610392576101a9565b806330176e1311610166578063483a6e5711610140578063483a6e57146102d4578063483f1d13146102f05780636352211e1461030c57806366b87c7e1461033c576101a9565b806330176e13146102805780633f6c13bc1461029c57806342842e0e146102b8576101a9565b806301ffc9a7146101ae57806306fdde03146101de578063081812fc146101fc578063095ea7b31461022c5780630d329f581461024857806323b872dd14610264575b600080fd5b6101c860048036038101906101c39190612d8c565b610528565b6040516101d59190613bb7565b60405180910390f35b6101e661060a565b6040516101f39190613bd2565b60405180910390f35b61021660048036038101906102119190612e1f565b61069c565b6040516102239190613b50565b60405180910390f35b61024660048036038101906102419190612d50565b610721565b005b610262600480360381019061025d9190613116565b610839565b005b61027e60048036038101906102799190612c4a565b61085d565b005b61029a60048036038101906102959190612dde565b6108bd565b005b6102b660048036038101906102b1919061302d565b61096e565b005b6102d260048036038101906102cd9190612c4a565b610b92565b005b6102ee60048036038101906102e99190612f03565b610bb2565b005b61030a60048036038101906103059190612e9c565b610cfb565b005b61032660048036038101906103219190612e1f565b610e47565b6040516103339190613b50565b60405180910390f35b61035660048036038101906103519190612f03565b610ef9565b005b610372600480360381019061036d9190612be5565b611042565b60405161037f9190613eb4565b60405180910390f35b6103906110fa565b005b61039a611182565b6040516103a79190613b50565b60405180910390f35b6103b86111ac565b6040516103c59190613bd2565b60405180910390f35b6103e860048036038101906103e39190612d14565b61123e565b005b61040460048036038101906103ff9190612e48565b6113bf565b6040516104179796959493929190613ecf565b60405180910390f35b61043a60048036038101906104359190612c99565b6116d9565b005b61045660048036038101906104519190612f03565b61173b565b005b610472600480360381019061046d9190612e1f565b611884565b60405161047f9190613bd2565b60405180910390f35b6104a2600480360381019061049d9190612f82565b611900565b005b6104be60048036038101906104b99190612c0e565b611b31565b6040516104cb9190613bb7565b60405180910390f35b6104ee60048036038101906104e99190612be5565b611bc5565b005b61050a60048036038101906105059190612be5565b611ca0565b005b61052660048036038101906105219190612be5565b611d98565b005b60007f80ac58cd000000000000000000000000000000000000000000000000000000007bffffffffffffffffffffffffffffffffffffffffffffffffffffffff1916827bffffffffffffffffffffffffffffffffffffffffffffffffffffffff191614806105f357507f5b5e139f000000000000000000000000000000000000000000000000000000007bffffffffffffffffffffffffffffffffffffffffffffffffffffffff1916827bffffffffffffffffffffffffffffffffffffffffffffffffffffffff1916145b80610603575061060282611e73565b5b9050919050565b606060008054610619906141bb565b80601f0160208091040260200160405190810160405280929190818152602001828054610645906141bb565b80156106925780601f1061066757610100808354040283529160200191610692565b820191906000526020600020905b81548152906001019060200180831161067557829003601f168201915b5050505050905090565b60006106a782611edd565b6106e6576040517f08c379a00000000000000000000000000000000000000000000000000000000081526004016106dd90613dd4565b60405180910390fd5b6004600083815260200190815260200160002060009054906101000a900473ffffffffffffffffffffffffffffffffffffffff169050919050565b600061072c82610e47565b90508073ffffffffffffffffffffffffffffffffffffffff168373ffffffffffffffffffffffffffffffffffffffff16141561079d576040517f08c379a000000000000000000000000000000000000000000000000000000000815260040161079490613e74565b60405180910390fd5b8073ffffffffffffffffffffffffffffffffffffffff166107bc611f49565b73ffffffffffffffffffffffffffffffffffffffff1614806107eb57506107ea816107e5611f49565b611b31565b5b61082a576040517f08c379a000000000000000000000000000000000000000000000000000000000815260040161082190613d54565b60405180910390fd5b6108348383611f51565b505050565b61084588888888611900565b61085388888686868661096e565b5050505050505050565b61086e610868611f49565b8261200a565b6108ad576040517f08c379a00000000000000000000000000000000000000000000000000000000081526004016108a490613e94565b60405180910390fd5b6108b88383836120e8565b505050565b600a60009054906101000a900473ffffffffffffffffffffffffffffffffffffffff1673ffffffffffffffffffffffffffffffffffffffff166108fe611f49565b73ffffffffffffffffffffffffffffffffffffffff1614610954576040517f08c379a000000000000000000000000000000000000000000000000000000000815260040161094b90613c74565b60405180910390fd5b806008908051906020019061096a929190612a09565b5050565b600060076000888152602001908152602001600020866040516109919190613b15565b90815260200160405180910390206000015490506109ae81611edd565b6109ed576040517f08c379a00000000000000000000000000000000000000000000000000000000081526004016109e490613d14565b60405180910390fd5b6109f681610e47565b73ffffffffffffffffffffffffffffffffffffffff16610a14611f49565b73ffffffffffffffffffffffffffffffffffffffff1614610a6a576040517f08c379a0000000000000000000000000000000000000000000000000000000008152600401610a6190613e34565b60405180910390fd5b846007600089815260200190815260200160002087604051610a8c9190613b15565b90815260200160405180910390206004019080519060200190610ab0929190612a09565b50836007600089815260200190815260200160002087604051610ad39190613b15565b90815260200160405180910390206003019080519060200190610af7929190612a09565b50826007600089815260200190815260200160002087604051610b1a9190613b15565b908152602001604051809103902060050160006101000a81548160ff021916908315150217905550816007600089815260200190815260200160002087604051610b649190613b15565b90815260200160405180910390206006019080519060200190610b88929190612a09565b5050505050505050565b610bad838383604051806020016040528060008152506116d9565b505050565b60006007600085815260200190815260200160002083604051610bd59190613b15565b9081526020016040518091039020600001549050610bf281611edd565b610c31576040517f08c379a0000000000000000000000000000000000000000000000000000000008152600401610c2890613d14565b60405180910390fd5b610c3a81610e47565b73ffffffffffffffffffffffffffffffffffffffff16610c58611f49565b73ffffffffffffffffffffffffffffffffffffffff1614610cae576040517f08c379a0000000000000000000000000000000000000000000000000000000008152600401610ca590613e34565b60405180910390fd5b816007600086815260200190815260200160002084604051610cd09190613b15565b90815260200160405180910390206004019080519060200190610cf4929190612a09565b5050505050565b60006007600085815260200190815260200160002083604051610d1e9190613b15565b9081526020016040518091039020600001549050610d3b81611edd565b610d7a576040517f08c379a0000000000000000000000000000000000000000000000000000000008152600401610d7190613d14565b60405180910390fd5b610d8381610e47565b73ffffffffffffffffffffffffffffffffffffffff16610da1611f49565b73ffffffffffffffffffffffffffffffffffffffff1614610df7576040517f08c379a0000000000000000000000000000000000000000000000000000000008152600401610dee90613e34565b60405180910390fd5b816007600086815260200190815260200160002084604051610e199190613b15565b908152602001604051809103902060050160006101000a81548160ff02191690831515021790555050505050565b6000806002600084815260200190815260200160002060009054906101000a900473ffffffffffffffffffffffffffffffffffffffff169050600073ffffffffffffffffffffffffffffffffffffffff168173ffffffffffffffffffffffffffffffffffffffff161415610ef0576040517f08c379a0000000000000000000000000000000000000000000000000000000008152600401610ee790613d94565b60405180910390fd5b80915050919050565b60006007600085815260200190815260200160002083604051610f1c9190613b15565b9081526020016040518091039020600001549050610f3981611edd565b610f78576040517f08c379a0000000000000000000000000000000000000000000000000000000008152600401610f6f90613d14565b60405180910390fd5b610f8181610e47565b73ffffffffffffffffffffffffffffffffffffffff16610f9f611f49565b73ffffffffffffffffffffffffffffffffffffffff1614610ff5576040517f08c379a0000000000000000000000000000000000000000000000000000000008152600401610fec90613e34565b60405180910390fd5b8160076000868152602001908152602001600020846040516110179190613b15565b9081526020016040518091039020600301908051906020019061103b929190612a09565b5050505050565b60008073ffffffffffffffffffffffffffffffffffffffff168273ffffffffffffffffffffffffffffffffffffffff1614156110b3576040517f08c379a00000000000000000000000000000000000000000000000000000000081526004016110aa90613d74565b60405180910390fd5b600360008373ffffffffffffffffffffffffffffffffffffffff1673ffffffffffffffffffffffffffffffffffffffff168152602001908152602001600020549050919050565b611102611f49565b73ffffffffffffffffffffffffffffffffffffffff16611120611182565b73ffffffffffffffffffffffffffffffffffffffff1614611176576040517f08c379a000000000000000000000000000000000000000000000000000000000815260040161116d90613e14565b60405180910390fd5b6111806000612344565b565b6000600660009054906101000a900473ffffffffffffffffffffffffffffffffffffffff16905090565b6060600180546111bb906141bb565b80601f01602080910402602001604051908101604052809291908181526020018280546111e7906141bb565b80156112345780601f1061120957610100808354040283529160200191611234565b820191906000526020600020905b81548152906001019060200180831161121757829003601f168201915b5050505050905090565b611246611f49565b73ffffffffffffffffffffffffffffffffffffffff168273ffffffffffffffffffffffffffffffffffffffff1614156112b4576040517f08c379a00000000000000000000000000000000000000000000000000000000081526004016112ab90613cd4565b60405180910390fd5b80600560006112c1611f49565b73ffffffffffffffffffffffffffffffffffffffff1673ffffffffffffffffffffffffffffffffffffffff16815260200190815260200160002060008473ffffffffffffffffffffffffffffffffffffffff1673ffffffffffffffffffffffffffffffffffffffff16815260200190815260200160002060006101000a81548160ff0219169083151502179055508173ffffffffffffffffffffffffffffffffffffffff1661136e611f49565b73ffffffffffffffffffffffffffffffffffffffff167f17307eab39ab6107e8899845ad3d59bd9653f200f220920489ca2b5937696c31836040516113b39190613bb7565b60405180910390a35050565b6007602052816000526040600020818051602081018201805184825260208301602085012081835280955050505050506000915091505080600001549080600101805461140b906141bb565b80601f0160208091040260200160405190810160405280929190818152602001828054611437906141bb565b80156114845780601f1061145957610100808354040283529160200191611484565b820191906000526020600020905b81548152906001019060200180831161146757829003601f168201915b505050505090806002018054611499906141bb565b80601f01602080910402602001604051908101604052809291908181526020018280546114c5906141bb565b80156115125780601f106114e757610100808354040283529160200191611512565b820191906000526020600020905b8154815290600101906020018083116114f557829003601f168201915b505050505090806003018054611527906141bb565b80601f0160208091040260200160405190810160405280929190818152602001828054611553906141bb565b80156115a05780601f10611575576101008083540402835291602001916115a0565b820191906000526020600020905b81548152906001019060200180831161158357829003601f168201915b5050505050908060040180546115b5906141bb565b80601f01602080910402602001604051908101604052809291908181526020018280546115e1906141bb565b801561162e5780601f106116035761010080835404028352916020019161162e565b820191906000526020600020905b81548152906001019060200180831161161157829003601f168201915b5050505050908060050160009054906101000a900460ff1690806006018054611656906141bb565b80601f0160208091040260200160405190810160405280929190818152602001828054611682906141bb565b80156116cf5780601f106116a4576101008083540402835291602001916116cf565b820191906000526020600020905b8154815290600101906020018083116116b257829003601f168201915b5050505050905087565b6116ea6116e4611f49565b8361200a565b611729576040517f08c379a000000000000000000000000000000000000000000000000000000000815260040161172090613e94565b60405180910390fd5b6117358484848461240a565b50505050565b6000600760008581526020019081526020016000208360405161175e9190613b15565b908152602001604051809103902060000154905061177b81611edd565b6117ba576040517f08c379a00000000000000000000000000000000000000000000000000000000081526004016117b190613d14565b60405180910390fd5b6117c381610e47565b73ffffffffffffffffffffffffffffffffffffffff166117e1611f49565b73ffffffffffffffffffffffffffffffffffffffff1614611837576040517f08c379a000000000000000000000000000000000000000000000000000000000815260040161182e90613e34565b60405180910390fd5b8160076000868152602001908152602001600020846040516118599190613b15565b9081526020016040518091039020600601908051906020019061187d929190612a09565b5050505050565b606061188f82611edd565b6118ce576040517f08c379a00000000000000000000000000000000000000000000000000000000081526004016118c590613d14565b60405180910390fd5b60086118d983612466565b6040516020016118ea929190613b2c565b6040516020818303038152906040529050919050565b600b60009054906101000a900473ffffffffffffffffffffffffffffffffffffffff1673ffffffffffffffffffffffffffffffffffffffff16611941611f49565b73ffffffffffffffffffffffffffffffffffffffff1614611997576040517f08c379a000000000000000000000000000000000000000000000000000000000815260040161198e90613df4565b60405180910390fd5b600060076000868152602001908152602001600020846040516119ba9190613b15565b908152602001604051809103902060010180546119d6906141bb565b905014611a18576040517f08c379a0000000000000000000000000000000000000000000000000000000008152600401611a0f90613c94565b60405180910390fd5b60006009549050611a4b600b60009054906101000a900473ffffffffffffffffffffffffffffffffffffffff1682612613565b600160096000828254611a5e919061404a565b92505081905550806007600087815260200190815260200160002085604051611a879190613b15565b908152602001604051809103902060000181905550826007600087815260200190815260200160002085604051611abe9190613b15565b90815260200160405180910390206001019080519060200190611ae2929190612a09565b50816007600087815260200190815260200160002085604051611b059190613b15565b90815260200160405180910390206002019080519060200190611b29929190612a09565b505050505050565b6000600560008473ffffffffffffffffffffffffffffffffffffffff1673ffffffffffffffffffffffffffffffffffffffff16815260200190815260200160002060008373ffffffffffffffffffffffffffffffffffffffff1673ffffffffffffffffffffffffffffffffffffffff16815260200190815260200160002060009054906101000a900460ff16905092915050565b600a60009054906101000a900473ffffffffffffffffffffffffffffffffffffffff1673ffffffffffffffffffffffffffffffffffffffff16611c06611f49565b73ffffffffffffffffffffffffffffffffffffffff1614611c5c576040517f08c379a0000000000000000000000000000000000000000000000000000000008152600401611c5390613cf4565b60405180910390fd5b80600a60006101000a81548173ffffffffffffffffffffffffffffffffffffffff021916908373ffffffffffffffffffffffffffffffffffffffff16021790555050565b611ca8611f49565b73ffffffffffffffffffffffffffffffffffffffff16611cc6611182565b73ffffffffffffffffffffffffffffffffffffffff1614611d1c576040517f08c379a0000000000000000000000000000000000000000000000000000000008152600401611d1390613e14565b60405180910390fd5b600073ffffffffffffffffffffffffffffffffffffffff168173ffffffffffffffffffffffffffffffffffffffff161415611d8c576040517f08c379a0000000000000000000000000000000000000000000000000000000008152600401611d8390613c14565b60405180910390fd5b611d9581612344565b50565b600a60009054906101000a900473ffffffffffffffffffffffffffffffffffffffff1673ffffffffffffffffffffffffffffffffffffffff16611dd9611f49565b73ffffffffffffffffffffffffffffffffffffffff1614611e2f576040517f08c379a0000000000000000000000000000000000000000000000000000000008152600401611e2690613c34565b60405180910390fd5b80600b60006101000a81548173ffffffffffffffffffffffffffffffffffffffff021916908373ffffffffffffffffffffffffffffffffffffffff16021790555050565b60007f01ffc9a7000000000000000000000000000000000000000000000000000000007bffffffffffffffffffffffffffffffffffffffffffffffffffffffff1916827bffffffffffffffffffffffffffffffffffffffffffffffffffffffff1916149050919050565b60008073ffffffffffffffffffffffffffffffffffffffff166002600084815260200190815260200160002060009054906101000a900473ffffffffffffffffffffffffffffffffffffffff1673ffffffffffffffffffffffffffffffffffffffff1614159050919050565b600033905090565b816004600083815260200190815260200160002060006101000a81548173ffffffffffffffffffffffffffffffffffffffff021916908373ffffffffffffffffffffffffffffffffffffffff160217905550808273ffffffffffffffffffffffffffffffffffffffff16611fc483610e47565b73ffffffffffffffffffffffffffffffffffffffff167f8c5be1e5ebec7d5bd14f71427d1e84f3dd0314c0f7b2291e5b200ac8c7c3b92560405160405180910390a45050565b600061201582611edd565b612054576040517f08c379a000000000000000000000000000000000000000000000000000000000815260040161204b90613d34565b60405180910390fd5b600061205f83610e47565b90508073ffffffffffffffffffffffffffffffffffffffff168473ffffffffffffffffffffffffffffffffffffffff1614806120ce57508373ffffffffffffffffffffffffffffffffffffffff166120b68461069c565b73ffffffffffffffffffffffffffffffffffffffff16145b806120df57506120de8185611b31565b5b91505092915050565b8273ffffffffffffffffffffffffffffffffffffffff1661210882610e47565b73ffffffffffffffffffffffffffffffffffffffff161461215e576040517f08c379a000000000000000000000000000000000000000000000000000000000815260040161215590613e54565b60405180910390fd5b600073ffffffffffffffffffffffffffffffffffffffff168273ffffffffffffffffffffffffffffffffffffffff1614156121ce576040517f08c379a00000000000000000000000000000000000000000000000000000000081526004016121c590613cb4565b60405180910390fd5b6121d9838383612631565b6121e4600082611f51565b6001600360008573ffffffffffffffffffffffffffffffffffffffff1673ffffffffffffffffffffffffffffffffffffffff168152602001908152602001600020600082825461223491906140d1565b925050819055506001600360008473ffffffffffffffffffffffffffffffffffffffff1673ffffffffffffffffffffffffffffffffffffffff168152602001908152602001600020600082825461228b919061404a565b92505081905550816002600083815260200190815260200160002060006101000a81548173ffffffffffffffffffffffffffffffffffffffff021916908373ffffffffffffffffffffffffffffffffffffffff160217905550808273ffffffffffffffffffffffffffffffffffffffff168473ffffffffffffffffffffffffffffffffffffffff167fddf252ad1be2c89b69c2b068fc378daa952ba7f163c4a11628f55a4df523b3ef60405160405180910390a4505050565b6000600660009054906101000a900473ffffffffffffffffffffffffffffffffffffffff16905081600660006101000a81548173ffffffffffffffffffffffffffffffffffffffff021916908373ffffffffffffffffffffffffffffffffffffffff1602179055508173ffffffffffffffffffffffffffffffffffffffff168173ffffffffffffffffffffffffffffffffffffffff167f8be0079c531659141344cd1fd0a4f28419497f9722a3daafe3b4186f6b6457e060405160405180910390a35050565b6124158484846120e8565b61242184848484612636565b612460576040517f08c379a000000000000000000000000000000000000000000000000000000000815260040161245790613bf4565b60405180910390fd5b50505050565b606060008214156124ae576040518060400160405280600181526020017f3000000000000000000000000000000000000000000000000000000000000000815250905061260e565b600082905060005b600082146124e05780806124c9906141ed565b915050600a826124d991906140a0565b91506124b6565b60008167ffffffffffffffff811115612522577f4e487b7100000000000000000000000000000000000000000000000000000000600052604160045260246000fd5b6040519080825280601f01601f1916602001820160405280156125545781602001600182028036833780820191505090505b5090505b600085146126075760018261256d91906140d1565b9150600a8561257c9190614236565b6030612588919061404a565b60f81b8183815181106125c4577f4e487b7100000000000000000000000000000000000000000000000000000000600052603260045260246000fd5b60200101907effffffffffffffffffffffffffffffffffffffffffffffffffffffffffffff1916908160001a905350600a8561260091906140a0565b9450612558565b8093505050505b919050565b61262d8282604051806020016040528060008152506127cd565b5050565b505050565b60006126578473ffffffffffffffffffffffffffffffffffffffff16612828565b156127c0578373ffffffffffffffffffffffffffffffffffffffff1663150b7a02612680611f49565b8786866040518563ffffffff1660e01b81526004016126a29493929190613b6b565b602060405180830381600087803b1580156126bc57600080fd5b505af19250505080156126ed57506040513d601f19601f820116820180604052508101906126ea9190612db5565b60015b612770573d806000811461271d576040519150601f19603f3d011682016040523d82523d6000602084013e612722565b606091505b50600081511415612768576040517f08c379a000000000000000000000000000000000000000000000000000000000815260040161275f90613bf4565b60405180910390fd5b805181602001fd5b63150b7a0260e01b7bffffffffffffffffffffffffffffffffffffffffffffffffffffffff1916817bffffffffffffffffffffffffffffffffffffffffffffffffffffffff1916149150506127c5565b600190505b949350505050565b6127d7838361283b565b6127e46000848484612636565b612823576040517f08c379a000000000000000000000000000000000000000000000000000000000815260040161281a90613bf4565b60405180910390fd5b505050565b600080823b905060008111915050919050565b600073ffffffffffffffffffffffffffffffffffffffff168273ffffffffffffffffffffffffffffffffffffffff1614156128ab576040517f08c379a00000000000000000000000000000000000000000000000000000000081526004016128a290613db4565b60405180910390fd5b6128b481611edd565b156128f4576040517f08c379a00000000000000000000000000000000000000000000000000000000081526004016128eb90613c54565b60405180910390fd5b61290060008383612631565b6001600360008473ffffffffffffffffffffffffffffffffffffffff1673ffffffffffffffffffffffffffffffffffffffff1681526020019081526020016000206000828254612950919061404a565b92505081905550816002600083815260200190815260200160002060006101000a81548173ffffffffffffffffffffffffffffffffffffffff021916908373ffffffffffffffffffffffffffffffffffffffff160217905550808273ffffffffffffffffffffffffffffffffffffffff16600073ffffffffffffffffffffffffffffffffffffffff167fddf252ad1be2c89b69c2b068fc378daa952ba7f163c4a11628f55a4df523b3ef60405160405180910390a45050565b828054612a15906141bb565b90600052602060002090601f016020900481019282612a375760008555612a7e565b82601f10612a5057805160ff1916838001178555612a7e565b82800160010185558215612a7e579182015b82811115612a7d578251825591602001919060010190612a62565b5b509050612a8b9190612a8f565b5090565b5b80821115612aa8576000816000905550600101612a90565b5090565b6000612abf612aba84613f92565b613f61565b905082815260208101848484011115612ad757600080fd5b612ae2848285614179565b509392505050565b6000612afd612af884613fc2565b613f61565b905082815260208101848484011115612b1557600080fd5b612b20848285614179565b509392505050565b600081359050612b3781614334565b92915050565b600081359050612b4c8161434b565b92915050565b600081359050612b6181614362565b92915050565b600081519050612b7681614362565b92915050565b600082601f830112612b8d57600080fd5b8135612b9d848260208601612aac565b91505092915050565b600082601f830112612bb757600080fd5b8135612bc7848260208601612aea565b91505092915050565b600081359050612bdf81614379565b92915050565b600060208284031215612bf757600080fd5b6000612c0584828501612b28565b91505092915050565b60008060408385031215612c2157600080fd5b6000612c2f85828601612b28565b9250506020612c4085828601612b28565b9150509250929050565b600080600060608486031215612c5f57600080fd5b6000612c6d86828701612b28565b9350506020612c7e86828701612b28565b9250506040612c8f86828701612bd0565b9150509250925092565b60008060008060808587031215612caf57600080fd5b6000612cbd87828801612b28565b9450506020612cce87828801612b28565b9350506040612cdf87828801612bd0565b925050606085013567ffffffffffffffff811115612cfc57600080fd5b612d0887828801612b7c565b91505092959194509250565b60008060408385031215612d2757600080fd5b6000612d3585828601612b28565b9250506020612d4685828601612b3d565b9150509250929050565b60008060408385031215612d6357600080fd5b6000612d7185828601612b28565b9250506020612d8285828601612bd0565b9150509250929050565b600060208284031215612d9e57600080fd5b6000612dac84828501612b52565b91505092915050565b600060208284031215612dc757600080fd5b6000612dd584828501612b67565b91505092915050565b600060208284031215612df057600080fd5b600082013567ffffffffffffffff811115612e0a57600080fd5b612e1684828501612ba6565b91505092915050565b600060208284031215612e3157600080fd5b6000612e3f84828501612bd0565b91505092915050565b60008060408385031215612e5b57600080fd5b6000612e6985828601612bd0565b925050602083013567ffffffffffffffff811115612e8657600080fd5b612e9285828601612ba6565b9150509250929050565b600080600060608486031215612eb157600080fd5b6000612ebf86828701612bd0565b935050602084013567ffffffffffffffff811115612edc57600080fd5b612ee886828701612ba6565b9250506040612ef986828701612b3d565b9150509250925092565b600080600060608486031215612f1857600080fd5b6000612f2686828701612bd0565b935050602084013567ffffffffffffffff811115612f4357600080fd5b612f4f86828701612ba6565b925050604084013567ffffffffffffffff811115612f6c57600080fd5b612f7886828701612ba6565b9150509250925092565b60008060008060808587031215612f9857600080fd5b6000612fa687828801612bd0565b945050602085013567ffffffffffffffff811115612fc357600080fd5b612fcf87828801612ba6565b935050604085013567ffffffffffffffff811115612fec57600080fd5b612ff887828801612ba6565b925050606085013567ffffffffffffffff81111561301557600080fd5b61302187828801612ba6565b91505092959194509250565b60008060008060008060c0878903121561304657600080fd5b600061305489828a01612bd0565b965050602087013567ffffffffffffffff81111561307157600080fd5b61307d89828a01612ba6565b955050604087013567ffffffffffffffff81111561309a57600080fd5b6130a689828a01612ba6565b945050606087013567ffffffffffffffff8111156130c357600080fd5b6130cf89828a01612ba6565b93505060806130e089828a01612b3d565b92505060a087013567ffffffffffffffff8111156130fd57600080fd5b61310989828a01612ba6565b9150509295509295509295565b600080600080600080600080610100898b03121561313357600080fd5b60006131418b828c01612bd0565b985050602089013567ffffffffffffffff81111561315e57600080fd5b61316a8b828c01612ba6565b975050604089013567ffffffffffffffff81111561318757600080fd5b6131938b828c01612ba6565b965050606089013567ffffffffffffffff8111156131b057600080fd5b6131bc8b828c01612ba6565b955050608089013567ffffffffffffffff8111156131d957600080fd5b6131e58b828c01612ba6565b94505060a089013567ffffffffffffffff81111561320257600080fd5b61320e8b828c01612ba6565b93505060c061321f8b828c01612b3d565b92505060e089013567ffffffffffffffff81111561323c57600080fd5b6132488b828c01612ba6565b9150509295985092959890939650565b61326181614105565b82525050565b61327081614117565b82525050565b600061328182614007565b61328b818561401d565b935061329b818560208601614188565b6132a481614323565b840191505092915050565b60006132ba82614012565b6132c4818561402e565b93506132d4818560208601614188565b6132dd81614323565b840191505092915050565b60006132f382614012565b6132fd818561403f565b935061330d818560208601614188565b80840191505092915050565b60008154613326816141bb565b613330818661403f565b9450600182166000811461334b576001811461335c5761338f565b60ff1983168652818601935061338f565b61336585613ff2565b60005b8381101561338757815481890152600182019150602081019050613368565b838801955050505b50505092915050565b60006133a560328361402e565b91507f4552433732313a207472616e7366657220746f206e6f6e20455243373231526560008301527f63656976657220696d706c656d656e74657200000000000000000000000000006020830152604082019050919050565b600061340b60268361402e565b91507f4f776e61626c653a206e6577206f776e657220697320746865207a65726f206160008301527f64647265737300000000000000000000000000000000000000000000000000006020830152604082019050919050565b600061347160258361402e565b91507f4f6e6c79206f776e65722063616e2075706461746520636f6e7472616374206d60008301527f696e7465720000000000000000000000000000000000000000000000000000006020830152604082019050919050565b60006134d7601c8361402e565b91507f4552433732313a20746f6b656e20616c7265616479206d696e746564000000006000830152602082019050919050565b6000613517601e8361402e565b91507f4f6e6c79206f776e65722063616e2075706461746520626173652055524900006000830152602082019050919050565b600061355760148361402e565b91507f546f6b656e20616c7265616479206578697374730000000000000000000000006000830152602082019050919050565b600061359760248361402e565b91507f4552433732313a207472616e7366657220746f20746865207a65726f2061646460008301527f72657373000000000000000000000000000000000000000000000000000000006020830152604082019050919050565b60006135fd60198361402e565b91507f4552433732313a20617070726f766520746f2063616c6c6572000000000000006000830152602082019050919050565b600061363d60218361402e565b91507f4f6e6c79206f776e65722063616e207472616e73666572206f776e657273686960008301527f70000000000000000000000000000000000000000000000000000000000000006020830152604082019050919050565b60006136a360148361402e565b91507f546f6b656e20646f6573206e6f742065786973740000000000000000000000006000830152602082019050919050565b60006136e3602c8361402e565b91507f4552433732313a206f70657261746f7220717565727920666f72206e6f6e657860008301527f697374656e7420746f6b656e00000000000000000000000000000000000000006020830152604082019050919050565b600061374960388361402e565b91507f4552433732313a20617070726f76652063616c6c6572206973206e6f74206f7760008301527f6e6572206e6f7220617070726f76656420666f7220616c6c00000000000000006020830152604082019050919050565b60006137af602a8361402e565b91507f4552433732313a2062616c616e636520717565727920666f7220746865207a6560008301527f726f2061646472657373000000000000000000000000000000000000000000006020830152604082019050919050565b600061381560298361402e565b91507f4552433732313a206f776e657220717565727920666f72206e6f6e657869737460008301527f656e7420746f6b656e00000000000000000000000000000000000000000000006020830152604082019050919050565b600061387b60208361402e565b91507f4552433732313a206d696e7420746f20746865207a65726f20616464726573736000830152602082019050919050565b60006138bb602c8361402e565b91507f4552433732313a20617070726f76656420717565727920666f72206e6f6e657860008301527f697374656e7420746f6b656e00000000000000000000000000000000000000006020830152604082019050919050565b6000613921601c8361402e565b91507f4f6e6c79206d696e74657220616464726573732063616e206d696e74000000006000830152602082019050919050565b600061396160208361402e565b91507f4f776e61626c653a2063616c6c6572206973206e6f7420746865206f776e65726000830152602082019050919050565b60006139a1601e8361402e565b91507f4f6e6c79206f776e65722063616e20757064617465206d6574616461746100006000830152602082019050919050565b60006139e160298361402e565b91507f4552433732313a207472616e73666572206f6620746f6b656e2074686174206960008301527f73206e6f74206f776e00000000000000000000000000000000000000000000006020830152604082019050919050565b6000613a4760218361402e565b91507f4552433732313a20617070726f76616c20746f2063757272656e74206f776e6560008301527f72000000000000000000000000000000000000000000000000000000000000006020830152604082019050919050565b6000613aad60318361402e565b91507f4552433732313a207472616e736665722063616c6c6572206973206e6f74206f60008301527f776e6572206e6f7220617070726f7665640000000000000000000000000000006020830152604082019050919050565b613b0f8161416f565b82525050565b6000613b2182846132e8565b915081905092915050565b6000613b388285613319565b9150613b4482846132e8565b91508190509392505050565b6000602082019050613b656000830184613258565b92915050565b6000608082019050613b806000830187613258565b613b8d6020830186613258565b613b9a6040830185613b06565b8181036060830152613bac8184613276565b905095945050505050565b6000602082019050613bcc6000830184613267565b92915050565b60006020820190508181036000830152613bec81846132af565b905092915050565b60006020820190508181036000830152613c0d81613398565b9050919050565b60006020820190508181036000830152613c2d816133fe565b9050919050565b60006020820190508181036000830152613c4d81613464565b9050919050565b60006020820190508181036000830152613c6d816134ca565b9050919050565b60006020820190508181036000830152613c8d8161350a565b9050919050565b60006020820190508181036000830152613cad8161354a565b9050919050565b60006020820190508181036000830152613ccd8161358a565b9050919050565b60006020820190508181036000830152613ced816135f0565b9050919050565b60006020820190508181036000830152613d0d81613630565b9050919050565b60006020820190508181036000830152613d2d81613696565b9050919050565b60006020820190508181036000830152613d4d816136d6565b9050919050565b60006020820190508181036000830152613d6d8161373c565b9050919050565b60006020820190508181036000830152613d8d816137a2565b9050919050565b60006020820190508181036000830152613dad81613808565b9050919050565b60006020820190508181036000830152613dcd8161386e565b9050919050565b60006020820190508181036000830152613ded816138ae565b9050919050565b60006020820190508181036000830152613e0d81613914565b9050919050565b60006020820190508181036000830152613e2d81613954565b9050919050565b60006020820190508181036000830152613e4d81613994565b9050919050565b60006020820190508181036000830152613e6d816139d4565b9050919050565b60006020820190508181036000830152613e8d81613a3a565b9050919050565b60006020820190508181036000830152613ead81613aa0565b9050919050565b6000602082019050613ec96000830184613b06565b92915050565b600060e082019050613ee4600083018a613b06565b8181036020830152613ef681896132af565b90508181036040830152613f0a81886132af565b90508181036060830152613f1e81876132af565b90508181036080830152613f3281866132af565b9050613f4160a0830185613267565b81810360c0830152613f5381846132af565b905098975050505050505050565b6000604051905081810181811067ffffffffffffffff82111715613f8857613f876142f4565b5b8060405250919050565b600067ffffffffffffffff821115613fad57613fac6142f4565b5b601f19601f8301169050602081019050919050565b600067ffffffffffffffff821115613fdd57613fdc6142f4565b5b601f19601f8301169050602081019050919050565b60008190508160005260206000209050919050565b600081519050919050565b600081519050919050565b600082825260208201905092915050565b600082825260208201905092915050565b600081905092915050565b60006140558261416f565b91506140608361416f565b9250827fffffffffffffffffffffffffffffffffffffffffffffffffffffffffffffffff0382111561409557614094614267565b5b828201905092915050565b60006140ab8261416f565b91506140b68361416f565b9250826140c6576140c5614296565b5b828204905092915050565b60006140dc8261416f565b91506140e78361416f565b9250828210156140fa576140f9614267565b5b828203905092915050565b60006141108261414f565b9050919050565b60008115159050919050565b60007fffffffff0000000000000000000000000000000000000000000000000000000082169050919050565b600073ffffffffffffffffffffffffffffffffffffffff82169050919050565b6000819050919050565b82818337600083830152505050565b60005b838110156141a657808201518184015260208101905061418b565b838111156141b5576000848401525b50505050565b600060028204905060018216806141d357607f821691505b602082108114156141e7576141e66142c5565b5b50919050565b60006141f88261416f565b91507fffffffffffffffffffffffffffffffffffffffffffffffffffffffffffffffff82141561422b5761422a614267565b5b600182019050919050565b60006142418261416f565b915061424c8361416f565b92508261425c5761425b614296565b5b828206905092915050565b7f4e487b7100000000000000000000000000000000000000000000000000000000600052601160045260246000fd5b7f4e487b7100000000000000000000000000000000000000000000000000000000600052601260045260246000fd5b7f4e487b7100000000000000000000000000000000000000000000000000000000600052602260045260246000fd5b7f4e487b7100000000000000000000000000000000000000000000000000000000600052604160045260246000fd5b6000601f19601f8301169050919050565b61433d81614105565b811461434857600080fd5b50565b61435481614117565b811461435f57600080fd5b50565b61436b81614123565b811461437657600080fd5b50565b6143828161416f565b811461438d57600080fd5b5056fea2646970667358221220eb52da3efcb5504aa8b513966a54163284eee25710beb7f4ebbd19d824b244b464736f6c63430008000033",
  "immutableReferences": {},
  "source": "pragma solidity ^0.8.0;\n\nimport \"openzeppelin-solidity/contracts/token/ERC721/ERC721.sol\";\nimport \"openzeppelin-solidity/contracts/access/Ownable.sol\";\nimport \"openzeppelin-solidity/contracts/utils/math/SafeMath.sol\";\n\ncontract Decentraboard is ERC721, Ownable {\n\n  using SafeMath for uint256;\n  using Strings for uint256;\n\n  //\n  // ******************* METADATA STRUCT *******************\n  //\n\n  struct MetaData {\n    uint256 tokenId;\n    string image;\n    string city;\n    string redirectUrl;\n    string adImage;\n    bool status;\n    string ownerName;\n  }\n\n  //\n  // ******************* VARIABLES *******************\n  //\n\n  // MetaData map\n  mapping(uint256 => mapping(string => MetaData)) public _tokenData;\n\n  // Base URI\n  string private _baseTokenURI = \"\";\n\n  // Total tokens\n  uint256 private _totalSupply = 0;\n\n  // Contract owner\n  address private _contractOwner = address(0);\n\n  // Contract minter\n  address private _contractMinter = address(0);\n\n  //\n  // ******************* SETUP *******************\n  //\n\n  // Constructor\n  constructor (string memory name, string memory symbol) public ERC721(name, symbol) {\n\n    // Initially the deployer is the owner\n    _contractOwner = _msgSender();\n    _contractMinter = _msgSender();\n  }\n\n  //\n  // ******************* OWNERSHIP *******************\n  //\n\n  function updateContractOwner(address owner) public {\n    require(_msgSender() == _contractOwner, \"Only owner can transfer ownership\");\n\n    _contractOwner = owner; \n  }\n\n  function updateContractMinter(address minter) public {\n    require(_msgSender() == _contractOwner, \"Only owner can update contract minter\");\n\n    _contractMinter = minter;\n  }\n\n  //\n  // ******************* MINT *******************\n  //\n\n  function mintToken(\n      uint256 boardId,\n      string memory slot,\n      string memory image, \n      string memory city\n    ) public {\n\n    require(_msgSender() == _contractMinter, \"Only minter address can mint\");\n    require(bytes(_tokenData[boardId][slot].image).length == 0, \"Token already exists\");\n\n    // Minted token will be send to minter address\n    uint256 tokenId = _totalSupply;\n    _safeMint(_contractMinter, tokenId);\n    _totalSupply += 1;\n\n    // Set tokenId\n    _tokenData[boardId][slot].tokenId = tokenId;\n\n    // Update hardcoded metadata\n    _tokenData[boardId][slot].image = image;\n    _tokenData[boardId][slot].city = city;\n  }\n\n  function mintTokenWithData(\n      uint256 boardId,\n      string memory slot,\n      string memory image, \n      string memory city, \n      string memory adImage, \n      string memory redirectUrl, \n      bool status,\n      string memory ownerName\n    ) public {\n\n    // Mint token\n    mintToken(boardId, slot, image, city);\n      \n    // Update editable metadata\n    setMetaData(boardId, slot, adImage, redirectUrl, status, ownerName);\n  }\n\n  //\n  // ******************* ERC721 *******************\n  //\n\n  function tokenURI(uint256 tokenId) public view override returns (string memory) {\n    require(_exists(tokenId), \"Token does not exist\");\n\n    return string(abi.encodePacked(_baseTokenURI, tokenId.toString()));\n  }\n\n  function setBaseTokenURI(string memory baseTokenURI) public {\n    require(_msgSender() == _contractOwner, \"Only owner can update base URI\");\n\n    _baseTokenURI = baseTokenURI;\n  }\n\n\n  //\n  // ******************* SETTERS *******************\n  //\n\n  function setMetaData(\n      uint256 boardId,\n      string memory slot, \n      string memory adImage, \n      string memory redirectUrl, \n      bool status,\n      string memory ownerName\n    ) public {\n\n    uint256 tokenId = _tokenData[boardId][slot].tokenId;\n\n    require(_exists(tokenId), \"Token does not exist\");\n    require(_msgSender() == ownerOf(tokenId), \"Only owner can update metadata\");\n\n    _tokenData[boardId][slot].adImage = adImage;\n    _tokenData[boardId][slot].redirectUrl = redirectUrl;\n    _tokenData[boardId][slot].status = status;\n    _tokenData[boardId][slot].ownerName = ownerName;\n  }\n\n  function setAdImage(uint256 boardId, string memory slot, string memory adImage) public {\n    uint256 tokenId = _tokenData[boardId][slot].tokenId;\n\n    require(_exists(tokenId), \"Token does not exist\");\n    require(_msgSender() == ownerOf(tokenId), \"Only owner can update metadata\");\n\n    _tokenData[boardId][slot].adImage = adImage;\n  }\n\n  function setRedirectUrl(uint256 boardId, string memory slot, string memory redirectUrl) public {\n    uint256 tokenId = _tokenData[boardId][slot].tokenId;\n\n    require(_exists(tokenId), \"Token does not exist\");\n    require(_msgSender() == ownerOf(tokenId), \"Only owner can update metadata\");\n\n    _tokenData[boardId][slot].redirectUrl = redirectUrl;\n  }\n\n  function setStatus(uint256 boardId, string memory slot, bool status) public {\n    uint256 tokenId = _tokenData[boardId][slot].tokenId;\n\n    require(_exists(tokenId), \"Token does not exist\");\n    require(_msgSender() == ownerOf(tokenId), \"Only owner can update metadata\");\n\n    _tokenData[boardId][slot].status = status;\n  }\n\n  function setOwnerName(uint256 boardId, string memory slot, string memory ownerName) public {\n    uint256 tokenId = _tokenData[boardId][slot].tokenId;\n\n    require(_exists(tokenId), \"Token does not exist\");\n    require(_msgSender() == ownerOf(tokenId), \"Only owner can update metadata\");\n\n    _tokenData[boardId][slot].ownerName = ownerName;\n  }\n\n}\n",
  "sourcePath": "/Users/nieldeckx/Development/Envoy-Their-Git/Contracts/contracts/Decentraboard.sol",
  "compiler": {
    "name": "solc",
    "version": "0.8.0+commit.c7dfd78e.Emscripten.clang"
  },
  "schemaVersion": "3.4.1",
  "updatedAt": "2021-08-06T10:31:39.055Z",
  "networkType": "ethereum",
  "devdoc": {
    "kind": "dev",
    "methods": {
      "approve(address,uint256)": {
        "details": "See {IERC721-approve}."
      },
      "balanceOf(address)": {
        "details": "See {IERC721-balanceOf}."
      },
      "getApproved(uint256)": {
        "details": "See {IERC721-getApproved}."
      },
      "isApprovedForAll(address,address)": {
        "details": "See {IERC721-isApprovedForAll}."
      },
      "name()": {
        "details": "See {IERC721Metadata-name}."
      },
      "owner()": {
        "details": "Returns the address of the current owner."
      },
      "ownerOf(uint256)": {
        "details": "See {IERC721-ownerOf}."
      },
      "renounceOwnership()": {
        "details": "Leaves the contract without owner. It will not be possible to call `onlyOwner` functions anymore. Can only be called by the current owner. NOTE: Renouncing ownership will leave the contract without an owner, thereby removing any functionality that is only available to the owner."
      },
      "safeTransferFrom(address,address,uint256)": {
        "details": "See {IERC721-safeTransferFrom}."
      },
      "safeTransferFrom(address,address,uint256,bytes)": {
        "details": "See {IERC721-safeTransferFrom}."
      },
      "setApprovalForAll(address,bool)": {
        "details": "See {IERC721-setApprovalForAll}."
      },
      "supportsInterface(bytes4)": {
        "details": "See {IERC165-supportsInterface}."
      },
      "symbol()": {
        "details": "See {IERC721Metadata-symbol}."
      },
      "tokenURI(uint256)": {
        "details": "See {IERC721Metadata-tokenURI}."
      },
      "transferFrom(address,address,uint256)": {
        "details": "See {IERC721-transferFrom}."
      },
      "transferOwnership(address)": {
        "details": "Transfers ownership of the contract to a new account (`newOwner`). Can only be called by the current owner."
      }
    },
    "version": 1
  },
  "userdoc": {
    "kind": "user",
    "methods": {},
    "version": 1
  }
}