{
  "contractName": "Decentraboard",
  "abi": [
    {
      "inputs": [
        {
          "internalType": "string",
          "name": "name",
          "type": "string"
        },
        {
          "internalType": "string",
          "name": "symbol",
          "type": "string"
        }
      ],
      "stateMutability": "nonpayable",
      "type": "constructor"
    },
    {
      "anonymous": false,
      "inputs": [
        {
          "indexed": true,
          "internalType": "address",
          "name": "owner",
          "type": "address"
        },
        {
          "indexed": true,
          "internalType": "address",
          "name": "approved",
          "type": "address"
        },
        {
          "indexed": true,
          "internalType": "uint256",
          "name": "tokenId",
          "type": "uint256"
        }
      ],
      "name": "Approval",
      "type": "event"
    },
    {
      "anonymous": false,
      "inputs": [
        {
          "indexed": true,
          "internalType": "address",
          "name": "owner",
          "type": "address"
        },
        {
          "indexed": true,
          "internalType": "address",
          "name": "operator",
          "type": "address"
        },
        {
          "indexed": false,
          "internalType": "bool",
          "name": "approved",
          "type": "bool"
        }
      ],
      "name": "ApprovalForAll",
      "type": "event"
    },
    {
      "anonymous": false,
      "inputs": [
        {
          "indexed": true,
          "internalType": "address",
          "name": "previousOwner",
          "type": "address"
        },
        {
          "indexed": true,
          "internalType": "address",
          "name": "newOwner",
          "type": "address"
        }
      ],
      "name": "OwnershipTransferred",
      "type": "event"
    },
    {
      "anonymous": false,
      "inputs": [
        {
          "indexed": true,
          "internalType": "address",
          "name": "from",
          "type": "address"
        },
        {
          "indexed": true,
          "internalType": "address",
          "name": "to",
          "type": "address"
        },
        {
          "indexed": true,
          "internalType": "uint256",
          "name": "tokenId",
          "type": "uint256"
        }
      ],
      "name": "Transfer",
      "type": "event"
    },
    {
      "inputs": [
        {
          "internalType": "uint256",
          "name": "",
          "type": "uint256"
        },
        {
          "internalType": "string",
          "name": "",
          "type": "string"
        }
      ],
      "name": "_tokenData",
      "outputs": [
        {
          "internalType": "uint256",
          "name": "tokenId",
          "type": "uint256"
        },
        {
          "internalType": "string",
          "name": "image",
          "type": "string"
        },
        {
          "internalType": "string",
          "name": "city",
          "type": "string"
        },
        {
          "internalType": "string",
          "name": "redirectUrl",
          "type": "string"
        },
        {
          "internalType": "string",
          "name": "adImage",
          "type": "string"
        },
        {
          "internalType": "bool",
          "name": "status",
          "type": "bool"
        },
        {
          "internalType": "string",
          "name": "ownerName",
          "type": "string"
        }
      ],
      "stateMutability": "view",
      "type": "function",
      "constant": true
    },
    {
      "inputs": [
        {
          "internalType": "uint256",
          "name": "",
          "type": "uint256"
        }
      ],
      "name": "_tokenIdInfo",
      "outputs": [
        {
          "internalType": "uint256",
          "name": "boardId",
          "type": "uint256"
        },
        {
          "internalType": "string",
          "name": "slot",
          "type": "string"
        }
      ],
      "stateMutability": "view",
      "type": "function",
      "constant": true
    },
    {
      "inputs": [
        {
          "internalType": "address",
          "name": "to",
          "type": "address"
        },
        {
          "internalType": "uint256",
          "name": "tokenId",
          "type": "uint256"
        }
      ],
      "name": "approve",
      "outputs": [],
      "stateMutability": "nonpayable",
      "type": "function"
    },
    {
      "inputs": [
        {
          "internalType": "address",
          "name": "owner",
          "type": "address"
        }
      ],
      "name": "balanceOf",
      "outputs": [
        {
          "internalType": "uint256",
          "name": "",
          "type": "uint256"
        }
      ],
      "stateMutability": "view",
      "type": "function",
      "constant": true
    },
    {
      "inputs": [
        {
          "internalType": "uint256",
          "name": "tokenId",
          "type": "uint256"
        }
      ],
      "name": "getApproved",
      "outputs": [
        {
          "internalType": "address",
          "name": "",
          "type": "address"
        }
      ],
      "stateMutability": "view",
      "type": "function",
      "constant": true
    },
    {
      "inputs": [
        {
          "internalType": "address",
          "name": "owner",
          "type": "address"
        },
        {
          "internalType": "address",
          "name": "operator",
          "type": "address"
        }
      ],
      "name": "isApprovedForAll",
      "outputs": [
        {
          "internalType": "bool",
          "name": "",
          "type": "bool"
        }
      ],
      "stateMutability": "view",
      "type": "function",
      "constant": true
    },
    {
      "inputs": [],
      "name": "name",
      "outputs": [
        {
          "internalType": "string",
          "name": "",
          "type": "string"
        }
      ],
      "stateMutability": "view",
      "type": "function",
      "constant": true
    },
    {
      "inputs": [],
      "name": "owner",
      "outputs": [
        {
          "internalType": "address",
          "name": "",
          "type": "address"
        }
      ],
      "stateMutability": "view",
      "type": "function",
      "constant": true
    },
    {
      "inputs": [
        {
          "internalType": "uint256",
          "name": "tokenId",
          "type": "uint256"
        }
      ],
      "name": "ownerOf",
      "outputs": [
        {
          "internalType": "address",
          "name": "",
          "type": "address"
        }
      ],
      "stateMutability": "view",
      "type": "function",
      "constant": true
    },
    {
      "inputs": [],
      "name": "renounceOwnership",
      "outputs": [],
      "stateMutability": "nonpayable",
      "type": "function"
    },
    {
      "inputs": [
        {
          "internalType": "address",
          "name": "from",
          "type": "address"
        },
        {
          "internalType": "address",
          "name": "to",
          "type": "address"
        },
        {
          "internalType": "uint256",
          "name": "tokenId",
          "type": "uint256"
        }
      ],
      "name": "safeTransferFrom",
      "outputs": [],
      "stateMutability": "nonpayable",
      "type": "function"
    },
    {
      "inputs": [
        {
          "internalType": "address",
          "name": "from",
          "type": "address"
        },
        {
          "internalType": "address",
          "name": "to",
          "type": "address"
        },
        {
          "internalType": "uint256",
          "name": "tokenId",
          "type": "uint256"
        },
        {
          "internalType": "bytes",
          "name": "_data",
          "type": "bytes"
        }
      ],
      "name": "safeTransferFrom",
      "outputs": [],
      "stateMutability": "nonpayable",
      "type": "function"
    },
    {
      "inputs": [
        {
          "internalType": "address",
          "name": "operator",
          "type": "address"
        },
        {
          "internalType": "bool",
          "name": "approved",
          "type": "bool"
        }
      ],
      "name": "setApprovalForAll",
      "outputs": [],
      "stateMutability": "nonpayable",
      "type": "function"
    },
    {
      "inputs": [
        {
          "internalType": "bytes4",
          "name": "interfaceId",
          "type": "bytes4"
        }
      ],
      "name": "supportsInterface",
      "outputs": [
        {
          "internalType": "bool",
          "name": "",
          "type": "bool"
        }
      ],
      "stateMutability": "view",
      "type": "function",
      "constant": true
    },
    {
      "inputs": [],
      "name": "symbol",
      "outputs": [
        {
          "internalType": "string",
          "name": "",
          "type": "string"
        }
      ],
      "stateMutability": "view",
      "type": "function",
      "constant": true
    },
    {
      "inputs": [
        {
          "internalType": "address",
          "name": "from",
          "type": "address"
        },
        {
          "internalType": "address",
          "name": "to",
          "type": "address"
        },
        {
          "internalType": "uint256",
          "name": "tokenId",
          "type": "uint256"
        }
      ],
      "name": "transferFrom",
      "outputs": [],
      "stateMutability": "nonpayable",
      "type": "function"
    },
    {
      "inputs": [
        {
          "internalType": "address",
          "name": "newOwner",
          "type": "address"
        }
      ],
      "name": "transferOwnership",
      "outputs": [],
      "stateMutability": "nonpayable",
      "type": "function"
    },
    {
      "inputs": [
        {
          "internalType": "address",
          "name": "owner",
          "type": "address"
        }
      ],
      "name": "updateContractOwner",
      "outputs": [],
      "stateMutability": "nonpayable",
      "type": "function"
    },
    {
      "inputs": [
        {
          "internalType": "address",
          "name": "minter",
          "type": "address"
        }
      ],
      "name": "updateContractMinter",
      "outputs": [],
      "stateMutability": "nonpayable",
      "type": "function"
    },
    {
      "inputs": [
        {
          "internalType": "uint256",
          "name": "boardId",
          "type": "uint256"
        },
        {
          "internalType": "string",
          "name": "slot",
          "type": "string"
        },
        {
          "internalType": "string",
          "name": "image",
          "type": "string"
        },
        {
          "internalType": "string",
          "name": "city",
          "type": "string"
        }
      ],
      "name": "mintToken",
      "outputs": [],
      "stateMutability": "nonpayable",
      "type": "function"
    },
    {
      "inputs": [
        {
          "internalType": "uint256",
          "name": "boardId",
          "type": "uint256"
        },
        {
          "internalType": "string",
          "name": "slot",
          "type": "string"
        },
        {
          "internalType": "string",
          "name": "image",
          "type": "string"
        },
        {
          "internalType": "string",
          "name": "city",
          "type": "string"
        },
        {
          "internalType": "string",
          "name": "adImage",
          "type": "string"
        },
        {
          "internalType": "string",
          "name": "redirectUrl",
          "type": "string"
        },
        {
          "internalType": "bool",
          "name": "status",
          "type": "bool"
        },
        {
          "internalType": "string",
          "name": "ownerName",
          "type": "string"
        }
      ],
      "name": "mintTokenWithData",
      "outputs": [],
      "stateMutability": "nonpayable",
      "type": "function"
    },
    {
      "inputs": [
        {
          "internalType": "uint256",
          "name": "tokenId",
          "type": "uint256"
        }
      ],
      "name": "tokenURI",
      "outputs": [
        {
          "internalType": "string",
          "name": "",
          "type": "string"
        }
      ],
      "stateMutability": "view",
      "type": "function",
      "constant": true
    },
    {
      "inputs": [
        {
          "internalType": "string",
          "name": "prefix",
          "type": "string"
        },
        {
          "internalType": "string",
          "name": "suffix",
          "type": "string"
        }
      ],
      "name": "setTokenURI",
      "outputs": [],
      "stateMutability": "nonpayable",
      "type": "function"
    },
    {
      "inputs": [
        {
          "internalType": "uint256",
          "name": "boardId",
          "type": "uint256"
        },
        {
          "internalType": "string",
          "name": "slot",
          "type": "string"
        },
        {
          "internalType": "string",
          "name": "adImage",
          "type": "string"
        },
        {
          "internalType": "string",
          "name": "redirectUrl",
          "type": "string"
        },
        {
          "internalType": "bool",
          "name": "status",
          "type": "bool"
        },
        {
          "internalType": "string",
          "name": "ownerName",
          "type": "string"
        }
      ],
      "name": "setMetaData",
      "outputs": [],
      "stateMutability": "nonpayable",
      "type": "function"
    },
    {
      "inputs": [
        {
          "internalType": "uint256",
          "name": "boardId",
          "type": "uint256"
        },
        {
          "internalType": "string",
          "name": "slot",
          "type": "string"
        },
        {
          "internalType": "string",
          "name": "adImage",
          "type": "string"
        }
      ],
      "name": "setAdImage",
      "outputs": [],
      "stateMutability": "nonpayable",
      "type": "function"
    },
    {
      "inputs": [
        {
          "internalType": "uint256",
          "name": "boardId",
          "type": "uint256"
        },
        {
          "internalType": "string",
          "name": "slot",
          "type": "string"
        },
        {
          "internalType": "string",
          "name": "redirectUrl",
          "type": "string"
        }
      ],
      "name": "setRedirectUrl",
      "outputs": [],
      "stateMutability": "nonpayable",
      "type": "function"
    },
    {
      "inputs": [
        {
          "internalType": "uint256",
          "name": "boardId",
          "type": "uint256"
        },
        {
          "internalType": "string",
          "name": "slot",
          "type": "string"
        },
        {
          "internalType": "bool",
          "name": "status",
          "type": "bool"
        }
      ],
      "name": "setStatus",
      "outputs": [],
      "stateMutability": "nonpayable",
      "type": "function"
    },
    {
      "inputs": [
        {
          "internalType": "uint256",
          "name": "boardId",
          "type": "uint256"
        },
        {
          "internalType": "string",
          "name": "slot",
          "type": "string"
        },
        {
          "internalType": "string",
          "name": "ownerName",
          "type": "string"
        }
      ],
      "name": "setOwnerName",
      "outputs": [],
      "stateMutability": "nonpayable",
      "type": "function"
    }
  ],
  "bytecode": "0x608060405260405180602001604052806000815250600990805190602001906200002b929190620002dc565b5060405180602001604052806000815250600a908051906020019062000053929190620002dc565b506000600b556000600c60006101000a81548173ffffffffffffffffffffffffffffffffffffffff021916908373ffffffffffffffffffffffffffffffffffffffff1602179055506000600d60006101000a81548173ffffffffffffffffffffffffffffffffffffffff021916908373ffffffffffffffffffffffffffffffffffffffff160217905550348015620000ea57600080fd5b5060405162004c5338038062004c538339818101604052810190620001109190620003fe565b818181600090805190602001906200012a929190620002dc565b50806001908051906020019062000143929190620002dc565b505050620001666200015a6200020e60201b60201c565b6200021660201b60201c565b620001766200020e60201b60201c565b600c60006101000a81548173ffffffffffffffffffffffffffffffffffffffff021916908373ffffffffffffffffffffffffffffffffffffffff160217905550620001c66200020e60201b60201c565b600d60006101000a81548173ffffffffffffffffffffffffffffffffffffffff021916908373ffffffffffffffffffffffffffffffffffffffff1602179055505050620005a2565b600033905090565b6000600660009054906101000a900473ffffffffffffffffffffffffffffffffffffffff16905081600660006101000a81548173ffffffffffffffffffffffffffffffffffffffff021916908373ffffffffffffffffffffffffffffffffffffffff1602179055508173ffffffffffffffffffffffffffffffffffffffff168173ffffffffffffffffffffffffffffffffffffffff167f8be0079c531659141344cd1fd0a4f28419497f9722a3daafe3b4186f6b6457e060405160405180910390a35050565b828054620002ea906200050e565b90600052602060002090601f0160209004810192826200030e57600085556200035a565b82601f106200032957805160ff19168380011785556200035a565b828001600101855582156200035a579182015b82811115620003595782518255916020019190600101906200033c565b5b5090506200036991906200036d565b5090565b5b80821115620003885760008160009055506001016200036e565b5090565b6000620003a36200039d84620004a5565b62000471565b905082815260208101848484011115620003bc57600080fd5b620003c9848285620004d8565b509392505050565b600082601f830112620003e357600080fd5b8151620003f58482602086016200038c565b91505092915050565b600080604083850312156200041257600080fd5b600083015167ffffffffffffffff8111156200042d57600080fd5b6200043b85828601620003d1565b925050602083015167ffffffffffffffff8111156200045957600080fd5b6200046785828601620003d1565b9150509250929050565b6000604051905081810181811067ffffffffffffffff821117156200049b576200049a62000573565b5b8060405250919050565b600067ffffffffffffffff821115620004c357620004c262000573565b5b601f19601f8301169050602081019050919050565b60005b83811015620004f8578082015181840152602081019050620004db565b8381111562000508576000848401525b50505050565b600060028204905060018216806200052757607f821691505b602082108114156200053e576200053d62000544565b5b50919050565b7f4e487b7100000000000000000000000000000000000000000000000000000000600052602260045260246000fd5b7f4e487b7100000000000000000000000000000000000000000000000000000000600052604160045260246000fd5b6146a180620005b26000396000f3fe608060405234801561001057600080fd5b50600436106101c45760003560e01c80638da5cb5b116100f9578063c87b56dd11610097578063e985e9c511610071578063e985e9c5146104f0578063eb9df7db14610520578063f2fde38b1461053c578063f38b6bb014610558576101c4565b8063c87b56dd14610488578063d40dace8146104b8578063d48ede99146104d4576101c4565b8063a22cb465116100d3578063a22cb465146103fe578063ae05b8321461041a578063b88d4fde14610450578063c28aeb771461046c576101c4565b80638da5cb5b1461039157806395d89b41146103af578063976c1e35146103cd576101c4565b806342842e0e116101665780636352211e116101405780636352211e1461030b57806366b87c7e1461033b57806370a0823114610357578063715018a614610387576101c4565b806342842e0e146102b7578063483a6e57146102d3578063483f1d13146102ef576101c4565b8063095ea7b3116101a2578063095ea7b3146102475780630d329f581461026357806323b872dd1461027f5780633f6c13bc1461029b576101c4565b806301ffc9a7146101c957806306fdde03146101f9578063081812fc14610217575b600080fd5b6101e360048036038101906101de9190612fa7565b610574565b6040516101f09190613e62565b60405180910390f35b610201610656565b60405161020e9190613e7d565b60405180910390f35b610231600480360381019061022c9190613065565b6106e8565b60405161023e9190613dfb565b60405180910390f35b610261600480360381019061025c9190612f6b565b61076d565b005b61027d6004803603810190610278919061335c565b610885565b005b61029960048036038101906102949190612e65565b6108a9565b005b6102b560048036038101906102b09190613273565b610909565b005b6102d160048036038101906102cc9190612e65565b610b2d565b005b6102ed60048036038101906102e89190613149565b610b4d565b005b610309600480360381019061030491906130e2565b610c96565b005b61032560048036038101906103209190613065565b610de2565b6040516103329190613dfb565b60405180910390f35b61035560048036038101906103509190613149565b610e94565b005b610371600480360381019061036c9190612e00565b610fdd565b60405161037e919061415f565b60405180910390f35b61038f611095565b005b61039961111d565b6040516103a69190613dfb565b60405180910390f35b6103b7611147565b6040516103c49190613e7d565b60405180910390f35b6103e760048036038101906103e29190613065565b6111d9565b6040516103f592919061417a565b60405180910390f35b61041860048036038101906104139190612f2f565b611285565b005b610434600480360381019061042f919061308e565b611406565b60405161044797969594939291906141aa565b60405180910390f35b61046a60048036038101906104659190612eb4565b611720565b005b61048660048036038101906104819190613149565b611782565b005b6104a2600480360381019061049d9190613065565b6118cb565b6040516104af9190613e7d565b60405180910390f35b6104d260048036038101906104cd91906131c8565b611a0c565b005b6104ee60048036038101906104e99190612ff9565b611c83565b005b61050a60048036038101906105059190612e29565b611d4c565b6040516105179190613e62565b60405180910390f35b61053a60048036038101906105359190612e00565b611de0565b005b61055660048036038101906105519190612e00565b611ebb565b005b610572600480360381019061056d9190612e00565b611fb3565b005b60007f80ac58cd000000000000000000000000000000000000000000000000000000007bffffffffffffffffffffffffffffffffffffffffffffffffffffffff1916827bffffffffffffffffffffffffffffffffffffffffffffffffffffffff1916148061063f57507f5b5e139f000000000000000000000000000000000000000000000000000000007bffffffffffffffffffffffffffffffffffffffffffffffffffffffff1916827bffffffffffffffffffffffffffffffffffffffffffffffffffffffff1916145b8061064f575061064e8261208e565b5b9050919050565b60606000805461066590614496565b80601f016020809104026020016040519081016040528092919081815260200182805461069190614496565b80156106de5780601f106106b3576101008083540402835291602001916106de565b820191906000526020600020905b8154815290600101906020018083116106c157829003601f168201915b5050505050905090565b60006106f3826120f8565b610732576040517f08c379a00000000000000000000000000000000000000000000000000000000081526004016107299061407f565b60405180910390fd5b6004600083815260200190815260200160002060009054906101000a900473ffffffffffffffffffffffffffffffffffffffff169050919050565b600061077882610de2565b90508073ffffffffffffffffffffffffffffffffffffffff168373ffffffffffffffffffffffffffffffffffffffff1614156107e9576040517f08c379a00000000000000000000000000000000000000000000000000000000081526004016107e09061411f565b60405180910390fd5b8073ffffffffffffffffffffffffffffffffffffffff16610808612164565b73ffffffffffffffffffffffffffffffffffffffff161480610837575061083681610831612164565b611d4c565b5b610876576040517f08c379a000000000000000000000000000000000000000000000000000000000815260040161086d90613fff565b60405180910390fd5b610880838361216c565b505050565b61089188888888611a0c565b61089f888886868686610909565b5050505050505050565b6108ba6108b4612164565b82612225565b6108f9576040517f08c379a00000000000000000000000000000000000000000000000000000000081526004016108f09061413f565b60405180910390fd5b610904838383612303565b505050565b6000600760008881526020019081526020016000208660405161092c9190613d9b565b9081526020016040518091039020600001549050610949816120f8565b610988576040517f08c379a000000000000000000000000000000000000000000000000000000000815260040161097f90613f9f565b60405180910390fd5b61099181610de2565b73ffffffffffffffffffffffffffffffffffffffff166109af612164565b73ffffffffffffffffffffffffffffffffffffffff1614610a05576040517f08c379a00000000000000000000000000000000000000000000000000000000081526004016109fc906140df565b60405180910390fd5b846007600089815260200190815260200160002087604051610a279190613d9b565b90815260200160405180910390206004019080519060200190610a4b929190612c24565b50836007600089815260200190815260200160002087604051610a6e9190613d9b565b90815260200160405180910390206003019080519060200190610a92929190612c24565b50826007600089815260200190815260200160002087604051610ab59190613d9b565b908152602001604051809103902060050160006101000a81548160ff021916908315150217905550816007600089815260200190815260200160002087604051610aff9190613d9b565b90815260200160405180910390206006019080519060200190610b23929190612c24565b5050505050505050565b610b4883838360405180602001604052806000815250611720565b505050565b60006007600085815260200190815260200160002083604051610b709190613d9b565b9081526020016040518091039020600001549050610b8d816120f8565b610bcc576040517f08c379a0000000000000000000000000000000000000000000000000000000008152600401610bc390613f9f565b60405180910390fd5b610bd581610de2565b73ffffffffffffffffffffffffffffffffffffffff16610bf3612164565b73ffffffffffffffffffffffffffffffffffffffff1614610c49576040517f08c379a0000000000000000000000000000000000000000000000000000000008152600401610c40906140df565b60405180910390fd5b816007600086815260200190815260200160002084604051610c6b9190613d9b565b90815260200160405180910390206004019080519060200190610c8f929190612c24565b5050505050565b60006007600085815260200190815260200160002083604051610cb99190613d9b565b9081526020016040518091039020600001549050610cd6816120f8565b610d15576040517f08c379a0000000000000000000000000000000000000000000000000000000008152600401610d0c90613f9f565b60405180910390fd5b610d1e81610de2565b73ffffffffffffffffffffffffffffffffffffffff16610d3c612164565b73ffffffffffffffffffffffffffffffffffffffff1614610d92576040517f08c379a0000000000000000000000000000000000000000000000000000000008152600401610d89906140df565b60405180910390fd5b816007600086815260200190815260200160002084604051610db49190613d9b565b908152602001604051809103902060050160006101000a81548160ff02191690831515021790555050505050565b6000806002600084815260200190815260200160002060009054906101000a900473ffffffffffffffffffffffffffffffffffffffff169050600073ffffffffffffffffffffffffffffffffffffffff168173ffffffffffffffffffffffffffffffffffffffff161415610e8b576040517f08c379a0000000000000000000000000000000000000000000000000000000008152600401610e829061403f565b60405180910390fd5b80915050919050565b60006007600085815260200190815260200160002083604051610eb79190613d9b565b9081526020016040518091039020600001549050610ed4816120f8565b610f13576040517f08c379a0000000000000000000000000000000000000000000000000000000008152600401610f0a90613f9f565b60405180910390fd5b610f1c81610de2565b73ffffffffffffffffffffffffffffffffffffffff16610f3a612164565b73ffffffffffffffffffffffffffffffffffffffff1614610f90576040517f08c379a0000000000000000000000000000000000000000000000000000000008152600401610f87906140df565b60405180910390fd5b816007600086815260200190815260200160002084604051610fb29190613d9b565b90815260200160405180910390206003019080519060200190610fd6929190612c24565b5050505050565b60008073ffffffffffffffffffffffffffffffffffffffff168273ffffffffffffffffffffffffffffffffffffffff16141561104e576040517f08c379a00000000000000000000000000000000000000000000000000000000081526004016110459061401f565b60405180910390fd5b600360008373ffffffffffffffffffffffffffffffffffffffff1673ffffffffffffffffffffffffffffffffffffffff168152602001908152602001600020549050919050565b61109d612164565b73ffffffffffffffffffffffffffffffffffffffff166110bb61111d565b73ffffffffffffffffffffffffffffffffffffffff1614611111576040517f08c379a0000000000000000000000000000000000000000000000000000000008152600401611108906140bf565b60405180910390fd5b61111b600061255f565b565b6000600660009054906101000a900473ffffffffffffffffffffffffffffffffffffffff16905090565b60606001805461115690614496565b80601f016020809104026020016040519081016040528092919081815260200182805461118290614496565b80156111cf5780601f106111a4576101008083540402835291602001916111cf565b820191906000526020600020905b8154815290600101906020018083116111b257829003601f168201915b5050505050905090565b600860205280600052604060002060009150905080600001549080600101805461120290614496565b80601f016020809104026020016040519081016040528092919081815260200182805461122e90614496565b801561127b5780601f106112505761010080835404028352916020019161127b565b820191906000526020600020905b81548152906001019060200180831161125e57829003601f168201915b5050505050905082565b61128d612164565b73ffffffffffffffffffffffffffffffffffffffff168273ffffffffffffffffffffffffffffffffffffffff1614156112fb576040517f08c379a00000000000000000000000000000000000000000000000000000000081526004016112f290613f5f565b60405180910390fd5b8060056000611308612164565b73ffffffffffffffffffffffffffffffffffffffff1673ffffffffffffffffffffffffffffffffffffffff16815260200190815260200160002060008473ffffffffffffffffffffffffffffffffffffffff1673ffffffffffffffffffffffffffffffffffffffff16815260200190815260200160002060006101000a81548160ff0219169083151502179055508173ffffffffffffffffffffffffffffffffffffffff166113b5612164565b73ffffffffffffffffffffffffffffffffffffffff167f17307eab39ab6107e8899845ad3d59bd9653f200f220920489ca2b5937696c31836040516113fa9190613e62565b60405180910390a35050565b6007602052816000526040600020818051602081018201805184825260208301602085012081835280955050505050506000915091505080600001549080600101805461145290614496565b80601f016020809104026020016040519081016040528092919081815260200182805461147e90614496565b80156114cb5780601f106114a0576101008083540402835291602001916114cb565b820191906000526020600020905b8154815290600101906020018083116114ae57829003601f168201915b5050505050908060020180546114e090614496565b80601f016020809104026020016040519081016040528092919081815260200182805461150c90614496565b80156115595780601f1061152e57610100808354040283529160200191611559565b820191906000526020600020905b81548152906001019060200180831161153c57829003601f168201915b50505050509080600301805461156e90614496565b80601f016020809104026020016040519081016040528092919081815260200182805461159a90614496565b80156115e75780601f106115bc576101008083540402835291602001916115e7565b820191906000526020600020905b8154815290600101906020018083116115ca57829003601f168201915b5050505050908060040180546115fc90614496565b80601f016020809104026020016040519081016040528092919081815260200182805461162890614496565b80156116755780601f1061164a57610100808354040283529160200191611675565b820191906000526020600020905b81548152906001019060200180831161165857829003601f168201915b5050505050908060050160009054906101000a900460ff169080600601805461169d90614496565b80601f01602080910402602001604051908101604052809291908181526020018280546116c990614496565b80156117165780601f106116eb57610100808354040283529160200191611716565b820191906000526020600020905b8154815290600101906020018083116116f957829003601f168201915b5050505050905087565b61173161172b612164565b83612225565b611770576040517f08c379a00000000000000000000000000000000000000000000000000000000081526004016117679061413f565b60405180910390fd5b61177c84848484612625565b50505050565b600060076000858152602001908152602001600020836040516117a59190613d9b565b90815260200160405180910390206000015490506117c2816120f8565b611801576040517f08c379a00000000000000000000000000000000000000000000000000000000081526004016117f890613f9f565b60405180910390fd5b61180a81610de2565b73ffffffffffffffffffffffffffffffffffffffff16611828612164565b73ffffffffffffffffffffffffffffffffffffffff161461187e576040517f08c379a0000000000000000000000000000000000000000000000000000000008152600401611875906140df565b60405180910390fd5b8160076000868152602001908152602001600020846040516118a09190613d9b565b908152602001604051809103902060060190805190602001906118c4929190612c24565b5050505050565b60606118d6826120f8565b611915576040517f08c379a000000000000000000000000000000000000000000000000000000000815260040161190c90613f9f565b60405180910390fd5b600060086000848152602001908152602001600020600001549050600060086000858152602001908152602001600020600101805461195390614496565b80601f016020809104026020016040519081016040528092919081815260200182805461197f90614496565b80156119cc5780601f106119a1576101008083540402835291602001916119cc565b820191906000526020600020905b8154815290600101906020018083116119af57829003601f168201915b5050505050905060096119de83612681565b82600a6040516020016119f49493929190613db2565b60405160208183030381529060405292505050919050565b600d60009054906101000a900473ffffffffffffffffffffffffffffffffffffffff1673ffffffffffffffffffffffffffffffffffffffff16611a4d612164565b73ffffffffffffffffffffffffffffffffffffffff1614611aa3576040517f08c379a0000000000000000000000000000000000000000000000000000000008152600401611a9a9061409f565b60405180910390fd5b60006007600086815260200190815260200160002084604051611ac69190613d9b565b90815260200160405180910390206001018054611ae290614496565b905014611b24576040517f08c379a0000000000000000000000000000000000000000000000000000000008152600401611b1b90613f1f565b60405180910390fd5b6000600b549050611b57600d60009054906101000a900473ffffffffffffffffffffffffffffffffffffffff168261282e565b6001600b6000828254611b6a9190614325565b92505081905550806007600087815260200190815260200160002085604051611b939190613d9b565b908152602001604051809103902060000181905550826007600087815260200190815260200160002085604051611bca9190613d9b565b90815260200160405180910390206001019080519060200190611bee929190612c24565b50816007600087815260200190815260200160002085604051611c119190613d9b565b90815260200160405180910390206002019080519060200190611c35929190612c24565b5084600860008381526020019081526020016000206000018190555083600860008381526020019081526020016000206001019080519060200190611c7b929190612c24565b505050505050565b600c60009054906101000a900473ffffffffffffffffffffffffffffffffffffffff1673ffffffffffffffffffffffffffffffffffffffff16611cc4612164565b73ffffffffffffffffffffffffffffffffffffffff1614611d1a576040517f08c379a0000000000000000000000000000000000000000000000000000000008152600401611d1190613fdf565b60405180910390fd5b8160099080519060200190611d30929190612c24565b5080600a9080519060200190611d47929190612c24565b505050565b6000600560008473ffffffffffffffffffffffffffffffffffffffff1673ffffffffffffffffffffffffffffffffffffffff16815260200190815260200160002060008373ffffffffffffffffffffffffffffffffffffffff1673ffffffffffffffffffffffffffffffffffffffff16815260200190815260200160002060009054906101000a900460ff16905092915050565b600c60009054906101000a900473ffffffffffffffffffffffffffffffffffffffff1673ffffffffffffffffffffffffffffffffffffffff16611e21612164565b73ffffffffffffffffffffffffffffffffffffffff1614611e77576040517f08c379a0000000000000000000000000000000000000000000000000000000008152600401611e6e90613f7f565b60405180910390fd5b80600c60006101000a81548173ffffffffffffffffffffffffffffffffffffffff021916908373ffffffffffffffffffffffffffffffffffffffff16021790555050565b611ec3612164565b73ffffffffffffffffffffffffffffffffffffffff16611ee161111d565b73ffffffffffffffffffffffffffffffffffffffff1614611f37576040517f08c379a0000000000000000000000000000000000000000000000000000000008152600401611f2e906140bf565b60405180910390fd5b600073ffffffffffffffffffffffffffffffffffffffff168173ffffffffffffffffffffffffffffffffffffffff161415611fa7576040517f08c379a0000000000000000000000000000000000000000000000000000000008152600401611f9e90613ebf565b60405180910390fd5b611fb08161255f565b50565b600c60009054906101000a900473ffffffffffffffffffffffffffffffffffffffff1673ffffffffffffffffffffffffffffffffffffffff16611ff4612164565b73ffffffffffffffffffffffffffffffffffffffff161461204a576040517f08c379a000000000000000000000000000000000000000000000000000000000815260040161204190613edf565b60405180910390fd5b80600d60006101000a81548173ffffffffffffffffffffffffffffffffffffffff021916908373ffffffffffffffffffffffffffffffffffffffff16021790555050565b60007f01ffc9a7000000000000000000000000000000000000000000000000000000007bffffffffffffffffffffffffffffffffffffffffffffffffffffffff1916827bffffffffffffffffffffffffffffffffffffffffffffffffffffffff1916149050919050565b60008073ffffffffffffffffffffffffffffffffffffffff166002600084815260200190815260200160002060009054906101000a900473ffffffffffffffffffffffffffffffffffffffff1673ffffffffffffffffffffffffffffffffffffffff1614159050919050565b600033905090565b816004600083815260200190815260200160002060006101000a81548173ffffffffffffffffffffffffffffffffffffffff021916908373ffffffffffffffffffffffffffffffffffffffff160217905550808273ffffffffffffffffffffffffffffffffffffffff166121df83610de2565b73ffffffffffffffffffffffffffffffffffffffff167f8c5be1e5ebec7d5bd14f71427d1e84f3dd0314c0f7b2291e5b200ac8c7c3b92560405160405180910390a45050565b6000612230826120f8565b61226f576040517f08c379a000000000000000000000000000000000000000000000000000000000815260040161226690613fbf565b60405180910390fd5b600061227a83610de2565b90508073ffffffffffffffffffffffffffffffffffffffff168473ffffffffffffffffffffffffffffffffffffffff1614806122e957508373ffffffffffffffffffffffffffffffffffffffff166122d1846106e8565b73ffffffffffffffffffffffffffffffffffffffff16145b806122fa57506122f98185611d4c565b5b91505092915050565b8273ffffffffffffffffffffffffffffffffffffffff1661232382610de2565b73ffffffffffffffffffffffffffffffffffffffff1614612379576040517f08c379a0000000000000000000000000000000000000000000000000000000008152600401612370906140ff565b60405180910390fd5b600073ffffffffffffffffffffffffffffffffffffffff168273ffffffffffffffffffffffffffffffffffffffff1614156123e9576040517f08c379a00000000000000000000000000000000000000000000000000000000081526004016123e090613f3f565b60405180910390fd5b6123f483838361284c565b6123ff60008261216c565b6001600360008573ffffffffffffffffffffffffffffffffffffffff1673ffffffffffffffffffffffffffffffffffffffff168152602001908152602001600020600082825461244f91906143ac565b925050819055506001600360008473ffffffffffffffffffffffffffffffffffffffff1673ffffffffffffffffffffffffffffffffffffffff16815260200190815260200160002060008282546124a69190614325565b92505081905550816002600083815260200190815260200160002060006101000a81548173ffffffffffffffffffffffffffffffffffffffff021916908373ffffffffffffffffffffffffffffffffffffffff160217905550808273ffffffffffffffffffffffffffffffffffffffff168473ffffffffffffffffffffffffffffffffffffffff167fddf252ad1be2c89b69c2b068fc378daa952ba7f163c4a11628f55a4df523b3ef60405160405180910390a4505050565b6000600660009054906101000a900473ffffffffffffffffffffffffffffffffffffffff16905081600660006101000a81548173ffffffffffffffffffffffffffffffffffffffff021916908373ffffffffffffffffffffffffffffffffffffffff1602179055508173ffffffffffffffffffffffffffffffffffffffff168173ffffffffffffffffffffffffffffffffffffffff167f8be0079c531659141344cd1fd0a4f28419497f9722a3daafe3b4186f6b6457e060405160405180910390a35050565b612630848484612303565b61263c84848484612851565b61267b576040517f08c379a000000000000000000000000000000000000000000000000000000000815260040161267290613e9f565b60405180910390fd5b50505050565b606060008214156126c9576040518060400160405280600181526020017f30000000000000000000000000000000000000000000000000000000000000008152509050612829565b600082905060005b600082146126fb5780806126e4906144c8565b915050600a826126f4919061437b565b91506126d1565b60008167ffffffffffffffff81111561273d577f4e487b7100000000000000000000000000000000000000000000000000000000600052604160045260246000fd5b6040519080825280601f01601f19166020018201604052801561276f5781602001600182028036833780820191505090505b5090505b600085146128225760018261278891906143ac565b9150600a856127979190614511565b60306127a39190614325565b60f81b8183815181106127df577f4e487b7100000000000000000000000000000000000000000000000000000000600052603260045260246000fd5b60200101907effffffffffffffffffffffffffffffffffffffffffffffffffffffffffffff1916908160001a905350600a8561281b919061437b565b9450612773565b8093505050505b919050565b6128488282604051806020016040528060008152506129e8565b5050565b505050565b60006128728473ffffffffffffffffffffffffffffffffffffffff16612a43565b156129db578373ffffffffffffffffffffffffffffffffffffffff1663150b7a0261289b612164565b8786866040518563ffffffff1660e01b81526004016128bd9493929190613e16565b602060405180830381600087803b1580156128d757600080fd5b505af192505050801561290857506040513d601f19601f820116820180604052508101906129059190612fd0565b60015b61298b573d8060008114612938576040519150601f19603f3d011682016040523d82523d6000602084013e61293d565b606091505b50600081511415612983576040517f08c379a000000000000000000000000000000000000000000000000000000000815260040161297a90613e9f565b60405180910390fd5b805181602001fd5b63150b7a0260e01b7bffffffffffffffffffffffffffffffffffffffffffffffffffffffff1916817bffffffffffffffffffffffffffffffffffffffffffffffffffffffff1916149150506129e0565b600190505b949350505050565b6129f28383612a56565b6129ff6000848484612851565b612a3e576040517f08c379a0000000000000000000000000000000000000000000000000000000008152600401612a3590613e9f565b60405180910390fd5b505050565b600080823b905060008111915050919050565b600073ffffffffffffffffffffffffffffffffffffffff168273ffffffffffffffffffffffffffffffffffffffff161415612ac6576040517f08c379a0000000000000000000000000000000000000000000000000000000008152600401612abd9061405f565b60405180910390fd5b612acf816120f8565b15612b0f576040517f08c379a0000000000000000000000000000000000000000000000000000000008152600401612b0690613eff565b60405180910390fd5b612b1b6000838361284c565b6001600360008473ffffffffffffffffffffffffffffffffffffffff1673ffffffffffffffffffffffffffffffffffffffff1681526020019081526020016000206000828254612b6b9190614325565b92505081905550816002600083815260200190815260200160002060006101000a81548173ffffffffffffffffffffffffffffffffffffffff021916908373ffffffffffffffffffffffffffffffffffffffff160217905550808273ffffffffffffffffffffffffffffffffffffffff16600073ffffffffffffffffffffffffffffffffffffffff167fddf252ad1be2c89b69c2b068fc378daa952ba7f163c4a11628f55a4df523b3ef60405160405180910390a45050565b828054612c3090614496565b90600052602060002090601f016020900481019282612c525760008555612c99565b82601f10612c6b57805160ff1916838001178555612c99565b82800160010185558215612c99579182015b82811115612c98578251825591602001919060010190612c7d565b5b509050612ca69190612caa565b5090565b5b80821115612cc3576000816000905550600101612cab565b5090565b6000612cda612cd58461426d565b61423c565b905082815260208101848484011115612cf257600080fd5b612cfd848285614454565b509392505050565b6000612d18612d138461429d565b61423c565b905082815260208101848484011115612d3057600080fd5b612d3b848285614454565b509392505050565b600081359050612d528161460f565b92915050565b600081359050612d6781614626565b92915050565b600081359050612d7c8161463d565b92915050565b600081519050612d918161463d565b92915050565b600082601f830112612da857600080fd5b8135612db8848260208601612cc7565b91505092915050565b600082601f830112612dd257600080fd5b8135612de2848260208601612d05565b91505092915050565b600081359050612dfa81614654565b92915050565b600060208284031215612e1257600080fd5b6000612e2084828501612d43565b91505092915050565b60008060408385031215612e3c57600080fd5b6000612e4a85828601612d43565b9250506020612e5b85828601612d43565b9150509250929050565b600080600060608486031215612e7a57600080fd5b6000612e8886828701612d43565b9350506020612e9986828701612d43565b9250506040612eaa86828701612deb565b9150509250925092565b60008060008060808587031215612eca57600080fd5b6000612ed887828801612d43565b9450506020612ee987828801612d43565b9350506040612efa87828801612deb565b925050606085013567ffffffffffffffff811115612f1757600080fd5b612f2387828801612d97565b91505092959194509250565b60008060408385031215612f4257600080fd5b6000612f5085828601612d43565b9250506020612f6185828601612d58565b9150509250929050565b60008060408385031215612f7e57600080fd5b6000612f8c85828601612d43565b9250506020612f9d85828601612deb565b9150509250929050565b600060208284031215612fb957600080fd5b6000612fc784828501612d6d565b91505092915050565b600060208284031215612fe257600080fd5b6000612ff084828501612d82565b91505092915050565b6000806040838503121561300c57600080fd5b600083013567ffffffffffffffff81111561302657600080fd5b61303285828601612dc1565b925050602083013567ffffffffffffffff81111561304f57600080fd5b61305b85828601612dc1565b9150509250929050565b60006020828403121561307757600080fd5b600061308584828501612deb565b91505092915050565b600080604083850312156130a157600080fd5b60006130af85828601612deb565b925050602083013567ffffffffffffffff8111156130cc57600080fd5b6130d885828601612dc1565b9150509250929050565b6000806000606084860312156130f757600080fd5b600061310586828701612deb565b935050602084013567ffffffffffffffff81111561312257600080fd5b61312e86828701612dc1565b925050604061313f86828701612d58565b9150509250925092565b60008060006060848603121561315e57600080fd5b600061316c86828701612deb565b935050602084013567ffffffffffffffff81111561318957600080fd5b61319586828701612dc1565b925050604084013567ffffffffffffffff8111156131b257600080fd5b6131be86828701612dc1565b9150509250925092565b600080600080608085870312156131de57600080fd5b60006131ec87828801612deb565b945050602085013567ffffffffffffffff81111561320957600080fd5b61321587828801612dc1565b935050604085013567ffffffffffffffff81111561323257600080fd5b61323e87828801612dc1565b925050606085013567ffffffffffffffff81111561325b57600080fd5b61326787828801612dc1565b91505092959194509250565b60008060008060008060c0878903121561328c57600080fd5b600061329a89828a01612deb565b965050602087013567ffffffffffffffff8111156132b757600080fd5b6132c389828a01612dc1565b955050604087013567ffffffffffffffff8111156132e057600080fd5b6132ec89828a01612dc1565b945050606087013567ffffffffffffffff81111561330957600080fd5b61331589828a01612dc1565b935050608061332689828a01612d58565b92505060a087013567ffffffffffffffff81111561334357600080fd5b61334f89828a01612dc1565b9150509295509295509295565b600080600080600080600080610100898b03121561337957600080fd5b60006133878b828c01612deb565b985050602089013567ffffffffffffffff8111156133a457600080fd5b6133b08b828c01612dc1565b975050604089013567ffffffffffffffff8111156133cd57600080fd5b6133d98b828c01612dc1565b965050606089013567ffffffffffffffff8111156133f657600080fd5b6134028b828c01612dc1565b955050608089013567ffffffffffffffff81111561341f57600080fd5b61342b8b828c01612dc1565b94505060a089013567ffffffffffffffff81111561344857600080fd5b6134548b828c01612dc1565b93505060c06134658b828c01612d58565b92505060e089013567ffffffffffffffff81111561348257600080fd5b61348e8b828c01612dc1565b9150509295985092959890939650565b6134a7816143e0565b82525050565b6134b6816143f2565b82525050565b60006134c7826142e2565b6134d181856142f8565b93506134e1818560208601614463565b6134ea816145fe565b840191505092915050565b6000613500826142ed565b61350a8185614309565b935061351a818560208601614463565b613523816145fe565b840191505092915050565b6000613539826142ed565b613543818561431a565b9350613553818560208601614463565b80840191505092915050565b6000815461356c81614496565b613576818661431a565b9450600182166000811461359157600181146135a2576135d5565b60ff198316865281860193506135d5565b6135ab856142cd565b60005b838110156135cd578154818901526001820191506020810190506135ae565b838801955050505b50505092915050565b60006135eb603283614309565b91507f4552433732313a207472616e7366657220746f206e6f6e20455243373231526560008301527f63656976657220696d706c656d656e74657200000000000000000000000000006020830152604082019050919050565b6000613651602683614309565b91507f4f776e61626c653a206e6577206f776e657220697320746865207a65726f206160008301527f64647265737300000000000000000000000000000000000000000000000000006020830152604082019050919050565b60006136b7602583614309565b91507f4f6e6c79206f776e65722063616e2075706461746520636f6e7472616374206d60008301527f696e7465720000000000000000000000000000000000000000000000000000006020830152604082019050919050565b600061371d601c83614309565b91507f4552433732313a20746f6b656e20616c7265616479206d696e746564000000006000830152602082019050919050565b600061375d601483614309565b91507f546f6b656e20616c7265616479206578697374730000000000000000000000006000830152602082019050919050565b600061379d602483614309565b91507f4552433732313a207472616e7366657220746f20746865207a65726f2061646460008301527f72657373000000000000000000000000000000000000000000000000000000006020830152604082019050919050565b6000613803601983614309565b91507f4552433732313a20617070726f766520746f2063616c6c6572000000000000006000830152602082019050919050565b6000613843602183614309565b91507f4f6e6c79206f776e65722063616e207472616e73666572206f776e657273686960008301527f70000000000000000000000000000000000000000000000000000000000000006020830152604082019050919050565b60006138a9601483614309565b91507f546f6b656e20646f6573206e6f742065786973740000000000000000000000006000830152602082019050919050565b60006138e9602c83614309565b91507f4552433732313a206f70657261746f7220717565727920666f72206e6f6e657860008301527f697374656e7420746f6b656e00000000000000000000000000000000000000006020830152604082019050919050565b600061394f601983614309565b91507f4f6e6c79206f776e65722063616e2075706461746520555249000000000000006000830152602082019050919050565b600061398f603883614309565b91507f4552433732313a20617070726f76652063616c6c6572206973206e6f74206f7760008301527f6e6572206e6f7220617070726f76656420666f7220616c6c00000000000000006020830152604082019050919050565b60006139f5602a83614309565b91507f4552433732313a2062616c616e636520717565727920666f7220746865207a6560008301527f726f2061646472657373000000000000000000000000000000000000000000006020830152604082019050919050565b6000613a5b602983614309565b91507f4552433732313a206f776e657220717565727920666f72206e6f6e657869737460008301527f656e7420746f6b656e00000000000000000000000000000000000000000000006020830152604082019050919050565b6000613ac1602083614309565b91507f4552433732313a206d696e7420746f20746865207a65726f20616464726573736000830152602082019050919050565b6000613b01602c83614309565b91507f4552433732313a20617070726f76656420717565727920666f72206e6f6e657860008301527f697374656e7420746f6b656e00000000000000000000000000000000000000006020830152604082019050919050565b6000613b67601c83614309565b91507f4f6e6c79206d696e74657220616464726573732063616e206d696e74000000006000830152602082019050919050565b6000613ba7602083614309565b91507f4f776e61626c653a2063616c6c6572206973206e6f7420746865206f776e65726000830152602082019050919050565b6000613be7601e83614309565b91507f4f6e6c79206f776e65722063616e20757064617465206d6574616461746100006000830152602082019050919050565b6000613c27602983614309565b91507f4552433732313a207472616e73666572206f6620746f6b656e2074686174206960008301527f73206e6f74206f776e00000000000000000000000000000000000000000000006020830152604082019050919050565b6000613c8d602183614309565b91507f4552433732313a20617070726f76616c20746f2063757272656e74206f776e6560008301527f72000000000000000000000000000000000000000000000000000000000000006020830152604082019050919050565b6000613cf3603183614309565b91507f4552433732313a207472616e736665722063616c6c6572206973206e6f74206f60008301527f776e6572206e6f7220617070726f7665640000000000000000000000000000006020830152604082019050919050565b6000613d5960018361431a565b91507f2d000000000000000000000000000000000000000000000000000000000000006000830152600182019050919050565b613d958161444a565b82525050565b6000613da7828461352e565b915081905092915050565b6000613dbe828761355f565b9150613dca828661352e565b9150613dd582613d4c565b9150613de1828561352e565b9150613ded828461355f565b915081905095945050505050565b6000602082019050613e10600083018461349e565b92915050565b6000608082019050613e2b600083018761349e565b613e38602083018661349e565b613e456040830185613d8c565b8181036060830152613e5781846134bc565b905095945050505050565b6000602082019050613e7760008301846134ad565b92915050565b60006020820190508181036000830152613e9781846134f5565b905092915050565b60006020820190508181036000830152613eb8816135de565b9050919050565b60006020820190508181036000830152613ed881613644565b9050919050565b60006020820190508181036000830152613ef8816136aa565b9050919050565b60006020820190508181036000830152613f1881613710565b9050919050565b60006020820190508181036000830152613f3881613750565b9050919050565b60006020820190508181036000830152613f5881613790565b9050919050565b60006020820190508181036000830152613f78816137f6565b9050919050565b60006020820190508181036000830152613f9881613836565b9050919050565b60006020820190508181036000830152613fb88161389c565b9050919050565b60006020820190508181036000830152613fd8816138dc565b9050919050565b60006020820190508181036000830152613ff881613942565b9050919050565b6000602082019050818103600083015261401881613982565b9050919050565b60006020820190508181036000830152614038816139e8565b9050919050565b6000602082019050818103600083015261405881613a4e565b9050919050565b6000602082019050818103600083015261407881613ab4565b9050919050565b6000602082019050818103600083015261409881613af4565b9050919050565b600060208201905081810360008301526140b881613b5a565b9050919050565b600060208201905081810360008301526140d881613b9a565b9050919050565b600060208201905081810360008301526140f881613bda565b9050919050565b6000602082019050818103600083015261411881613c1a565b9050919050565b6000602082019050818103600083015261413881613c80565b9050919050565b6000602082019050818103600083015261415881613ce6565b9050919050565b60006020820190506141746000830184613d8c565b92915050565b600060408201905061418f6000830185613d8c565b81810360208301526141a181846134f5565b90509392505050565b600060e0820190506141bf600083018a613d8c565b81810360208301526141d181896134f5565b905081810360408301526141e581886134f5565b905081810360608301526141f981876134f5565b9050818103608083015261420d81866134f5565b905061421c60a08301856134ad565b81810360c083015261422e81846134f5565b905098975050505050505050565b6000604051905081810181811067ffffffffffffffff82111715614263576142626145cf565b5b8060405250919050565b600067ffffffffffffffff821115614288576142876145cf565b5b601f19601f8301169050602081019050919050565b600067ffffffffffffffff8211156142b8576142b76145cf565b5b601f19601f8301169050602081019050919050565b60008190508160005260206000209050919050565b600081519050919050565b600081519050919050565b600082825260208201905092915050565b600082825260208201905092915050565b600081905092915050565b60006143308261444a565b915061433b8361444a565b9250827fffffffffffffffffffffffffffffffffffffffffffffffffffffffffffffffff038211156143705761436f614542565b5b828201905092915050565b60006143868261444a565b91506143918361444a565b9250826143a1576143a0614571565b5b828204905092915050565b60006143b78261444a565b91506143c28361444a565b9250828210156143d5576143d4614542565b5b828203905092915050565b60006143eb8261442a565b9050919050565b60008115159050919050565b60007fffffffff0000000000000000000000000000000000000000000000000000000082169050919050565b600073ffffffffffffffffffffffffffffffffffffffff82169050919050565b6000819050919050565b82818337600083830152505050565b60005b83811015614481578082015181840152602081019050614466565b83811115614490576000848401525b50505050565b600060028204905060018216806144ae57607f821691505b602082108114156144c2576144c16145a0565b5b50919050565b60006144d38261444a565b91507fffffffffffffffffffffffffffffffffffffffffffffffffffffffffffffffff82141561450657614505614542565b5b600182019050919050565b600061451c8261444a565b91506145278361444a565b92508261453757614536614571565b5b828206905092915050565b7f4e487b7100000000000000000000000000000000000000000000000000000000600052601160045260246000fd5b7f4e487b7100000000000000000000000000000000000000000000000000000000600052601260045260246000fd5b7f4e487b7100000000000000000000000000000000000000000000000000000000600052602260045260246000fd5b7f4e487b7100000000000000000000000000000000000000000000000000000000600052604160045260246000fd5b6000601f19601f8301169050919050565b614618816143e0565b811461462357600080fd5b50565b61462f816143f2565b811461463a57600080fd5b50565b614646816143fe565b811461465157600080fd5b50565b61465d8161444a565b811461466857600080fd5b5056fea264697066735822122073ae84097fea6c5a9a2fc21e35df9874e2319e4a0fe4ec57d19f38b24adf5ee364736f6c63430008000033",
  "immutableReferences": {},
  "source": "pragma solidity ^0.8.0;\n\nimport \"openzeppelin-solidity/contracts/token/ERC721/ERC721.sol\";\nimport \"openzeppelin-solidity/contracts/access/Ownable.sol\";\nimport \"openzeppelin-solidity/contracts/utils/math/SafeMath.sol\";\n\ncontract Decentraboard is ERC721, Ownable {\n\n  using SafeMath for uint256;\n  using Strings for uint256;\n\n  //\n  // ******************* METADATA STRUCT *******************\n  //\n\n  struct MetaData {\n    uint256 tokenId;\n    string image;\n    string city;\n    string redirectUrl;\n    string adImage;\n    bool status;\n    string ownerName;\n  }\n\n  struct TokenIdInfo {\n    uint256 boardId;\n    string slot;\n  }\n\n  //\n  // ******************* VARIABLES *******************\n  //\n\n  // MetaData map\n  mapping(uint256 => mapping(string => MetaData)) public _tokenData;\n\n  // Token ID to board+slot info\n  mapping(uint256 => TokenIdInfo) public _tokenIdInfo;\n\n  // Token URI\n  string private _tokenURIPrefix = \"\";\n  string private _tokenURISuffix = \"\";\n\n  // Total tokens\n  uint256 private _totalSupply = 0;\n\n  // Contract owner\n  address private _contractOwner = address(0);\n\n  // Contract minter\n  address private _contractMinter = address(0);\n\n  //\n  // ******************* SETUP *******************\n  //\n\n  // Constructor\n  constructor (string memory name, string memory symbol) public ERC721(name, symbol) {\n\n    // Initially the deployer is the owner\n    _contractOwner = _msgSender();\n    _contractMinter = _msgSender();\n  }\n\n  //\n  // ******************* OWNERSHIP *******************\n  //\n\n  function updateContractOwner(address owner) public {\n    require(_msgSender() == _contractOwner, \"Only owner can transfer ownership\");\n\n    _contractOwner = owner; \n  }\n\n  function updateContractMinter(address minter) public {\n    require(_msgSender() == _contractOwner, \"Only owner can update contract minter\");\n\n    _contractMinter = minter;\n  }\n\n  //\n  // ******************* MINT *******************\n  //\n\n  function mintToken(\n      uint256 boardId,\n      string memory slot,\n      string memory image, \n      string memory city\n    ) public {\n\n    require(_msgSender() == _contractMinter, \"Only minter address can mint\");\n    require(bytes(_tokenData[boardId][slot].image).length == 0, \"Token already exists\");\n\n    // Minted token will be send to minter address\n    uint256 tokenId = _totalSupply;\n    _safeMint(_contractMinter, tokenId);\n    _totalSupply += 1;\n\n    // Set tokenId\n    _tokenData[boardId][slot].tokenId = tokenId;\n\n    // Update hardcoded metadata\n    _tokenData[boardId][slot].image = image;\n    _tokenData[boardId][slot].city = city;\n\n    // Update token ID info\n    _tokenIdInfo[tokenId].boardId = boardId;\n    _tokenIdInfo[tokenId].slot = slot;\n  }\n\n  function mintTokenWithData(\n      uint256 boardId,\n      string memory slot,\n      string memory image, \n      string memory city, \n      string memory adImage, \n      string memory redirectUrl, \n      bool status,\n      string memory ownerName\n    ) public {\n\n    // Mint token\n    mintToken(boardId, slot, image, city);\n      \n    // Update editable metadata\n    setMetaData(boardId, slot, adImage, redirectUrl, status, ownerName);\n  }\n\n  //\n  // ******************* ERC721 *******************\n  //\n\n  function tokenURI(uint256 tokenId) public view override returns (string memory) {\n    require(_exists(tokenId), \"Token does not exist\");\n\n    uint256 boardId = _tokenIdInfo[tokenId].boardId;\n    string memory slot = _tokenIdInfo[tokenId].slot;\n\n    return string(abi.encodePacked(_tokenURIPrefix, boardId.toString(), \"-\", slot, _tokenURISuffix));\n  }\n\n  //\n  // ******************* TOKEN URI *******************\n  //\n\n  function setTokenURI(string memory prefix, string memory suffix) public {\n    require(_msgSender() == _contractOwner, \"Only owner can update URI\");\n\n    _tokenURIPrefix = prefix;\n    _tokenURISuffix = suffix;\n  }\n\n  //\n  // ******************* SETTERS *******************\n  //\n\n  function setMetaData(\n      uint256 boardId,\n      string memory slot, \n      string memory adImage, \n      string memory redirectUrl, \n      bool status,\n      string memory ownerName\n    ) public {\n\n    uint256 tokenId = _tokenData[boardId][slot].tokenId;\n\n    require(_exists(tokenId), \"Token does not exist\");\n    require(_msgSender() == ownerOf(tokenId), \"Only owner can update metadata\");\n\n    _tokenData[boardId][slot].adImage = adImage;\n    _tokenData[boardId][slot].redirectUrl = redirectUrl;\n    _tokenData[boardId][slot].status = status;\n    _tokenData[boardId][slot].ownerName = ownerName;\n  }\n\n  function setAdImage(uint256 boardId, string memory slot, string memory adImage) public {\n    uint256 tokenId = _tokenData[boardId][slot].tokenId;\n\n    require(_exists(tokenId), \"Token does not exist\");\n    require(_msgSender() == ownerOf(tokenId), \"Only owner can update metadata\");\n\n    _tokenData[boardId][slot].adImage = adImage;\n  }\n\n  function setRedirectUrl(uint256 boardId, string memory slot, string memory redirectUrl) public {\n    uint256 tokenId = _tokenData[boardId][slot].tokenId;\n\n    require(_exists(tokenId), \"Token does not exist\");\n    require(_msgSender() == ownerOf(tokenId), \"Only owner can update metadata\");\n\n    _tokenData[boardId][slot].redirectUrl = redirectUrl;\n  }\n\n  function setStatus(uint256 boardId, string memory slot, bool status) public {\n    uint256 tokenId = _tokenData[boardId][slot].tokenId;\n\n    require(_exists(tokenId), \"Token does not exist\");\n    require(_msgSender() == ownerOf(tokenId), \"Only owner can update metadata\");\n\n    _tokenData[boardId][slot].status = status;\n  }\n\n  function setOwnerName(uint256 boardId, string memory slot, string memory ownerName) public {\n    uint256 tokenId = _tokenData[boardId][slot].tokenId;\n\n    require(_exists(tokenId), \"Token does not exist\");\n    require(_msgSender() == ownerOf(tokenId), \"Only owner can update metadata\");\n\n    _tokenData[boardId][slot].ownerName = ownerName;\n  }\n\n}\n",
  "sourcePath": "/Users/nieldeckx/Development/Envoy-Their-Git/Contracts/contracts/Decentraboard.sol",
  "compiler": {
    "name": "solc",
    "version": "0.8.0+commit.c7dfd78e.Emscripten.clang"
  },
  "schemaVersion": "3.4.1",
  "updatedAt": "2021-08-06T15:47:10.217Z",
  "networkType": "ethereum",
  "devdoc": {
    "kind": "dev",
    "methods": {
      "approve(address,uint256)": {
        "details": "See {IERC721-approve}."
      },
      "balanceOf(address)": {
        "details": "See {IERC721-balanceOf}."
      },
      "getApproved(uint256)": {
        "details": "See {IERC721-getApproved}."
      },
      "isApprovedForAll(address,address)": {
        "details": "See {IERC721-isApprovedForAll}."
      },
      "name()": {
        "details": "See {IERC721Metadata-name}."
      },
      "owner()": {
        "details": "Returns the address of the current owner."
      },
      "ownerOf(uint256)": {
        "details": "See {IERC721-ownerOf}."
      },
      "renounceOwnership()": {
        "details": "Leaves the contract without owner. It will not be possible to call `onlyOwner` functions anymore. Can only be called by the current owner. NOTE: Renouncing ownership will leave the contract without an owner, thereby removing any functionality that is only available to the owner."
      },
      "safeTransferFrom(address,address,uint256)": {
        "details": "See {IERC721-safeTransferFrom}."
      },
      "safeTransferFrom(address,address,uint256,bytes)": {
        "details": "See {IERC721-safeTransferFrom}."
      },
      "setApprovalForAll(address,bool)": {
        "details": "See {IERC721-setApprovalForAll}."
      },
      "supportsInterface(bytes4)": {
        "details": "See {IERC165-supportsInterface}."
      },
      "symbol()": {
        "details": "See {IERC721Metadata-symbol}."
      },
      "tokenURI(uint256)": {
        "details": "See {IERC721Metadata-tokenURI}."
      },
      "transferFrom(address,address,uint256)": {
        "details": "See {IERC721-transferFrom}."
      },
      "transferOwnership(address)": {
        "details": "Transfers ownership of the contract to a new account (`newOwner`). Can only be called by the current owner."
      }
    },
    "version": 1
  },
  "userdoc": {
    "kind": "user",
    "methods": {},
    "version": 1
  }
}