{
  "contractName": "Decentraboard",
  "abi": [
    {
      "inputs": [
        {
          "internalType": "string",
          "name": "name",
          "type": "string"
        },
        {
          "internalType": "string",
          "name": "symbol",
          "type": "string"
        }
      ],
      "stateMutability": "nonpayable",
      "type": "constructor"
    },
    {
      "anonymous": false,
      "inputs": [
        {
          "indexed": true,
          "internalType": "address",
          "name": "owner",
          "type": "address"
        },
        {
          "indexed": true,
          "internalType": "address",
          "name": "approved",
          "type": "address"
        },
        {
          "indexed": true,
          "internalType": "uint256",
          "name": "tokenId",
          "type": "uint256"
        }
      ],
      "name": "Approval",
      "type": "event"
    },
    {
      "anonymous": false,
      "inputs": [
        {
          "indexed": true,
          "internalType": "address",
          "name": "owner",
          "type": "address"
        },
        {
          "indexed": true,
          "internalType": "address",
          "name": "operator",
          "type": "address"
        },
        {
          "indexed": false,
          "internalType": "bool",
          "name": "approved",
          "type": "bool"
        }
      ],
      "name": "ApprovalForAll",
      "type": "event"
    },
    {
      "anonymous": false,
      "inputs": [
        {
          "indexed": true,
          "internalType": "address",
          "name": "previousOwner",
          "type": "address"
        },
        {
          "indexed": true,
          "internalType": "address",
          "name": "newOwner",
          "type": "address"
        }
      ],
      "name": "OwnershipTransferred",
      "type": "event"
    },
    {
      "anonymous": false,
      "inputs": [
        {
          "indexed": true,
          "internalType": "address",
          "name": "from",
          "type": "address"
        },
        {
          "indexed": true,
          "internalType": "address",
          "name": "to",
          "type": "address"
        },
        {
          "indexed": true,
          "internalType": "uint256",
          "name": "tokenId",
          "type": "uint256"
        }
      ],
      "name": "Transfer",
      "type": "event"
    },
    {
      "inputs": [
        {
          "internalType": "uint128",
          "name": "",
          "type": "uint128"
        }
      ],
      "name": "_tierPrice",
      "outputs": [
        {
          "internalType": "uint256",
          "name": "",
          "type": "uint256"
        }
      ],
      "stateMutability": "view",
      "type": "function",
      "constant": true
    },
    {
      "inputs": [
        {
          "internalType": "uint128",
          "name": "",
          "type": "uint128"
        },
        {
          "internalType": "uint128",
          "name": "",
          "type": "uint128"
        }
      ],
      "name": "_tokenData",
      "outputs": [
        {
          "internalType": "uint256",
          "name": "tokenId",
          "type": "uint256"
        },
        {
          "internalType": "uint128",
          "name": "tier",
          "type": "uint128"
        },
        {
          "internalType": "bool",
          "name": "forSale",
          "type": "bool"
        },
        {
          "internalType": "string",
          "name": "redirectUrl",
          "type": "string"
        },
        {
          "internalType": "string",
          "name": "adImage",
          "type": "string"
        },
        {
          "internalType": "string",
          "name": "ownerName",
          "type": "string"
        }
      ],
      "stateMutability": "view",
      "type": "function",
      "constant": true
    },
    {
      "inputs": [
        {
          "internalType": "uint256",
          "name": "",
          "type": "uint256"
        }
      ],
      "name": "_tokenIdInfo",
      "outputs": [
        {
          "internalType": "uint128",
          "name": "boardId",
          "type": "uint128"
        },
        {
          "internalType": "uint128",
          "name": "slot",
          "type": "uint128"
        },
        {
          "internalType": "uint256",
          "name": "unlockTime",
          "type": "uint256"
        }
      ],
      "stateMutability": "view",
      "type": "function",
      "constant": true
    },
    {
      "inputs": [
        {
          "internalType": "address",
          "name": "to",
          "type": "address"
        },
        {
          "internalType": "uint256",
          "name": "tokenId",
          "type": "uint256"
        }
      ],
      "name": "approve",
      "outputs": [],
      "stateMutability": "nonpayable",
      "type": "function"
    },
    {
      "inputs": [
        {
          "internalType": "address",
          "name": "owner",
          "type": "address"
        }
      ],
      "name": "balanceOf",
      "outputs": [
        {
          "internalType": "uint256",
          "name": "",
          "type": "uint256"
        }
      ],
      "stateMutability": "view",
      "type": "function",
      "constant": true
    },
    {
      "inputs": [
        {
          "internalType": "uint256",
          "name": "tokenId",
          "type": "uint256"
        }
      ],
      "name": "getApproved",
      "outputs": [
        {
          "internalType": "address",
          "name": "",
          "type": "address"
        }
      ],
      "stateMutability": "view",
      "type": "function",
      "constant": true
    },
    {
      "inputs": [
        {
          "internalType": "address",
          "name": "owner",
          "type": "address"
        },
        {
          "internalType": "address",
          "name": "operator",
          "type": "address"
        }
      ],
      "name": "isApprovedForAll",
      "outputs": [
        {
          "internalType": "bool",
          "name": "",
          "type": "bool"
        }
      ],
      "stateMutability": "view",
      "type": "function",
      "constant": true
    },
    {
      "inputs": [],
      "name": "name",
      "outputs": [
        {
          "internalType": "string",
          "name": "",
          "type": "string"
        }
      ],
      "stateMutability": "view",
      "type": "function",
      "constant": true
    },
    {
      "inputs": [],
      "name": "owner",
      "outputs": [
        {
          "internalType": "address",
          "name": "",
          "type": "address"
        }
      ],
      "stateMutability": "view",
      "type": "function",
      "constant": true
    },
    {
      "inputs": [
        {
          "internalType": "uint256",
          "name": "tokenId",
          "type": "uint256"
        }
      ],
      "name": "ownerOf",
      "outputs": [
        {
          "internalType": "address",
          "name": "",
          "type": "address"
        }
      ],
      "stateMutability": "view",
      "type": "function",
      "constant": true
    },
    {
      "inputs": [],
      "name": "renounceOwnership",
      "outputs": [],
      "stateMutability": "nonpayable",
      "type": "function"
    },
    {
      "inputs": [
        {
          "internalType": "address",
          "name": "operator",
          "type": "address"
        },
        {
          "internalType": "bool",
          "name": "approved",
          "type": "bool"
        }
      ],
      "name": "setApprovalForAll",
      "outputs": [],
      "stateMutability": "nonpayable",
      "type": "function"
    },
    {
      "inputs": [
        {
          "internalType": "bytes4",
          "name": "interfaceId",
          "type": "bytes4"
        }
      ],
      "name": "supportsInterface",
      "outputs": [
        {
          "internalType": "bool",
          "name": "",
          "type": "bool"
        }
      ],
      "stateMutability": "view",
      "type": "function",
      "constant": true
    },
    {
      "inputs": [],
      "name": "symbol",
      "outputs": [
        {
          "internalType": "string",
          "name": "",
          "type": "string"
        }
      ],
      "stateMutability": "view",
      "type": "function",
      "constant": true
    },
    {
      "inputs": [
        {
          "internalType": "address",
          "name": "newOwner",
          "type": "address"
        }
      ],
      "name": "transferOwnership",
      "outputs": [],
      "stateMutability": "nonpayable",
      "type": "function"
    },
    {
      "inputs": [
        {
          "internalType": "address",
          "name": "owner",
          "type": "address"
        }
      ],
      "name": "updateContractOwner",
      "outputs": [],
      "stateMutability": "nonpayable",
      "type": "function"
    },
    {
      "inputs": [
        {
          "internalType": "address",
          "name": "wallet",
          "type": "address"
        }
      ],
      "name": "updateWallet",
      "outputs": [],
      "stateMutability": "nonpayable",
      "type": "function"
    },
    {
      "inputs": [
        {
          "internalType": "uint256",
          "name": "tokenId",
          "type": "uint256"
        }
      ],
      "name": "tokenURI",
      "outputs": [
        {
          "internalType": "string",
          "name": "",
          "type": "string"
        }
      ],
      "stateMutability": "view",
      "type": "function",
      "constant": true
    },
    {
      "inputs": [
        {
          "internalType": "string",
          "name": "prefix",
          "type": "string"
        },
        {
          "internalType": "string",
          "name": "suffix",
          "type": "string"
        }
      ],
      "name": "setTokenURI",
      "outputs": [],
      "stateMutability": "nonpayable",
      "type": "function"
    },
    {
      "inputs": [
        {
          "internalType": "string",
          "name": "prefix",
          "type": "string"
        },
        {
          "internalType": "string",
          "name": "suffix",
          "type": "string"
        }
      ],
      "name": "setSlotImageURI",
      "outputs": [],
      "stateMutability": "nonpayable",
      "type": "function"
    },
    {
      "inputs": [
        {
          "internalType": "uint128",
          "name": "boardId",
          "type": "uint128"
        },
        {
          "internalType": "uint128",
          "name": "slot",
          "type": "uint128"
        }
      ],
      "name": "slotImageURI",
      "outputs": [
        {
          "internalType": "string",
          "name": "",
          "type": "string"
        }
      ],
      "stateMutability": "view",
      "type": "function",
      "constant": true
    },
    {
      "inputs": [],
      "name": "contractURI",
      "outputs": [
        {
          "internalType": "string",
          "name": "",
          "type": "string"
        }
      ],
      "stateMutability": "view",
      "type": "function",
      "constant": true
    },
    {
      "inputs": [
        {
          "internalType": "string",
          "name": "contractUri",
          "type": "string"
        }
      ],
      "name": "setContractURI",
      "outputs": [],
      "stateMutability": "nonpayable",
      "type": "function"
    },
    {
      "inputs": [
        {
          "internalType": "uint256",
          "name": "totalBoards",
          "type": "uint256"
        }
      ],
      "name": "setTotalBoards",
      "outputs": [],
      "stateMutability": "nonpayable",
      "type": "function"
    },
    {
      "inputs": [
        {
          "internalType": "uint128",
          "name": "tier",
          "type": "uint128"
        },
        {
          "internalType": "uint256",
          "name": "price",
          "type": "uint256"
        }
      ],
      "name": "setTierPrice",
      "outputs": [],
      "stateMutability": "nonpayable",
      "type": "function"
    },
    {
      "inputs": [
        {
          "internalType": "uint128",
          "name": "slot",
          "type": "uint128"
        }
      ],
      "name": "tierForSlot",
      "outputs": [
        {
          "internalType": "uint128",
          "name": "",
          "type": "uint128"
        }
      ],
      "stateMutability": "view",
      "type": "function",
      "constant": true
    },
    {
      "inputs": [
        {
          "internalType": "uint128",
          "name": "boardId",
          "type": "uint128"
        },
        {
          "internalType": "uint128",
          "name": "slot",
          "type": "uint128"
        }
      ],
      "name": "mintSlot",
      "outputs": [],
      "stateMutability": "payable",
      "type": "function",
      "payable": true
    },
    {
      "inputs": [
        {
          "internalType": "uint128",
          "name": "boardId",
          "type": "uint128"
        },
        {
          "internalType": "uint128",
          "name": "slot",
          "type": "uint128"
        },
        {
          "internalType": "string",
          "name": "adImage",
          "type": "string"
        },
        {
          "internalType": "string",
          "name": "redirectUrl",
          "type": "string"
        },
        {
          "internalType": "bool",
          "name": "forSale",
          "type": "bool"
        },
        {
          "internalType": "string",
          "name": "ownerName",
          "type": "string"
        }
      ],
      "name": "mintSlotWithData",
      "outputs": [],
      "stateMutability": "payable",
      "type": "function",
      "payable": true
    },
    {
      "inputs": [
        {
          "internalType": "uint128",
          "name": "boardId",
          "type": "uint128"
        },
        {
          "internalType": "uint128",
          "name": "slot",
          "type": "uint128"
        },
        {
          "internalType": "string",
          "name": "adImage",
          "type": "string"
        },
        {
          "internalType": "string",
          "name": "redirectUrl",
          "type": "string"
        },
        {
          "internalType": "bool",
          "name": "forSale",
          "type": "bool"
        },
        {
          "internalType": "string",
          "name": "ownerName",
          "type": "string"
        }
      ],
      "name": "setMetaData",
      "outputs": [],
      "stateMutability": "nonpayable",
      "type": "function"
    },
    {
      "inputs": [
        {
          "internalType": "uint128",
          "name": "boardId",
          "type": "uint128"
        },
        {
          "internalType": "uint128",
          "name": "slot",
          "type": "uint128"
        },
        {
          "internalType": "string",
          "name": "adImage",
          "type": "string"
        }
      ],
      "name": "setAdImage",
      "outputs": [],
      "stateMutability": "nonpayable",
      "type": "function"
    },
    {
      "inputs": [
        {
          "internalType": "uint128",
          "name": "boardId",
          "type": "uint128"
        },
        {
          "internalType": "uint128",
          "name": "slot",
          "type": "uint128"
        },
        {
          "internalType": "string",
          "name": "redirectUrl",
          "type": "string"
        }
      ],
      "name": "setRedirectUrl",
      "outputs": [],
      "stateMutability": "nonpayable",
      "type": "function"
    },
    {
      "inputs": [
        {
          "internalType": "uint128",
          "name": "boardId",
          "type": "uint128"
        },
        {
          "internalType": "uint128",
          "name": "slot",
          "type": "uint128"
        },
        {
          "internalType": "bool",
          "name": "forSale",
          "type": "bool"
        }
      ],
      "name": "setForSale",
      "outputs": [],
      "stateMutability": "nonpayable",
      "type": "function"
    },
    {
      "inputs": [
        {
          "internalType": "uint128",
          "name": "boardId",
          "type": "uint128"
        },
        {
          "internalType": "uint128",
          "name": "slot",
          "type": "uint128"
        },
        {
          "internalType": "string",
          "name": "ownerName",
          "type": "string"
        }
      ],
      "name": "setOwnerName",
      "outputs": [],
      "stateMutability": "nonpayable",
      "type": "function"
    },
    {
      "inputs": [
        {
          "internalType": "uint128",
          "name": "boardId",
          "type": "uint128"
        },
        {
          "internalType": "uint128",
          "name": "slot",
          "type": "uint128"
        },
        {
          "internalType": "uint256",
          "name": "unlockTime",
          "type": "uint256"
        }
      ],
      "name": "setLock",
      "outputs": [],
      "stateMutability": "nonpayable",
      "type": "function"
    },
    {
      "inputs": [
        {
          "internalType": "uint256",
          "name": "tokenId",
          "type": "uint256"
        }
      ],
      "name": "isTokenLocked",
      "outputs": [
        {
          "internalType": "bool",
          "name": "",
          "type": "bool"
        }
      ],
      "stateMutability": "view",
      "type": "function",
      "constant": true
    },
    {
      "inputs": [
        {
          "internalType": "address",
          "name": "from",
          "type": "address"
        },
        {
          "internalType": "address",
          "name": "to",
          "type": "address"
        },
        {
          "internalType": "uint256",
          "name": "tokenId",
          "type": "uint256"
        }
      ],
      "name": "transferFrom",
      "outputs": [],
      "stateMutability": "nonpayable",
      "type": "function"
    },
    {
      "inputs": [
        {
          "internalType": "address",
          "name": "from",
          "type": "address"
        },
        {
          "internalType": "address",
          "name": "to",
          "type": "address"
        },
        {
          "internalType": "uint256",
          "name": "tokenId",
          "type": "uint256"
        }
      ],
      "name": "safeTransferFrom",
      "outputs": [],
      "stateMutability": "nonpayable",
      "type": "function"
    },
    {
      "inputs": [
        {
          "internalType": "address",
          "name": "from",
          "type": "address"
        },
        {
          "internalType": "address",
          "name": "to",
          "type": "address"
        },
        {
          "internalType": "uint256",
          "name": "tokenId",
          "type": "uint256"
        },
        {
          "internalType": "bytes",
          "name": "_data",
          "type": "bytes"
        }
      ],
      "name": "safeTransferFrom",
      "outputs": [],
      "stateMutability": "nonpayable",
      "type": "function"
    }
  ],
  "bytecode": "0x60806040524260075560016011553480156200001a57600080fd5b5060405162005ef438038062005ef48339818101604052810190620000409190620002de565b818181600090805190602001906200005a929190620001bc565b50806001908051906020019062000073929190620001bc565b505050620000966200008a620000ee60201b60201c565b620000f660201b60201c565b620000a6620000ee60201b60201c565b601260006101000a81548173ffffffffffffffffffffffffffffffffffffffff021916908373ffffffffffffffffffffffffffffffffffffffff160217905550505062000482565b600033905090565b6000600660009054906101000a900473ffffffffffffffffffffffffffffffffffffffff16905081600660006101000a81548173ffffffffffffffffffffffffffffffffffffffff021916908373ffffffffffffffffffffffffffffffffffffffff1602179055508173ffffffffffffffffffffffffffffffffffffffff168173ffffffffffffffffffffffffffffffffffffffff167f8be0079c531659141344cd1fd0a4f28419497f9722a3daafe3b4186f6b6457e060405160405180910390a35050565b828054620001ca90620003ee565b90600052602060002090601f016020900481019282620001ee57600085556200023a565b82601f106200020957805160ff19168380011785556200023a565b828001600101855582156200023a579182015b82811115620002395782518255916020019190600101906200021c565b5b5090506200024991906200024d565b5090565b5b80821115620002685760008160009055506001016200024e565b5090565b6000620002836200027d8462000385565b62000351565b9050828152602081018484840111156200029c57600080fd5b620002a9848285620003b8565b509392505050565b600082601f830112620002c357600080fd5b8151620002d58482602086016200026c565b91505092915050565b60008060408385031215620002f257600080fd5b600083015167ffffffffffffffff8111156200030d57600080fd5b6200031b85828601620002b1565b925050602083015167ffffffffffffffff8111156200033957600080fd5b6200034785828601620002b1565b9150509250929050565b6000604051905081810181811067ffffffffffffffff821117156200037b576200037a62000453565b5b8060405250919050565b600067ffffffffffffffff821115620003a357620003a262000453565b5b601f19601f8301169050602081019050919050565b60005b83811015620003d8578082015181840152602081019050620003bb565b83811115620003e8576000848401525b50505050565b600060028204905060018216806200040757607f821691505b602082108114156200041e576200041d62000424565b5b50919050565b7f4e487b7100000000000000000000000000000000000000000000000000000000600052602260045260246000fd5b7f4e487b7100000000000000000000000000000000000000000000000000000000600052604160045260246000fd5b615a6280620004926000396000f3fe6080604052600436106102245760003560e01c806395d89b4111610123578063be6d986f116100ab578063e6116e251161006f578063e6116e251461082f578063e8a3d48514610858578063e985e9c514610883578063eb9df7db146108c0578063f2fde38b146108e957610224565b8063be6d986f14610735578063c87b56dd1461075e578063ca3037871461079b578063cddcb5d7146107c4578063d48ede991461080657610224565b8063a7042cf4116100f2578063a7042cf414610675578063af19b24614610691578063b22e9416146106ba578063b454b4b3146106e3578063b88d4fde1461070c57610224565b806395d89b41146105a5578063976c1e35146105d0578063a22cb4651461060f578063a702b0f61461063857610224565b806339079f57116101b157806370a082311161017557806370a08231146104d4578063715018a614610511578063848b86e3146105285780638da5cb5b14610551578063938e3d7b1461057c57610224565b806339079f57146103cb57806342842e0e1461040857806344a82424146104315780636352211e1461045a578063670053d21461049757610224565b8063081812fc116101f8578063081812fc146102d6578063095ea7b31461031357806323b872dd1461033c578063276a28a3146103655780632c5942be146103a257610224565b8062e1b821146102295780630143dd751461024557806301ffc9a71461026e57806306fdde03146102ab575b600080fd5b610243600480360381019061023e91906141f9565b610912565b005b34801561025157600080fd5b5061026c60048036038101906102679190614284565b610d85565b005b34801561027a57600080fd5b50610295600480360381019061029091906140d1565b610fe5565b6040516102a291906150ea565b60405180910390f35b3480156102b757600080fd5b506102c06110c7565b6040516102cd9190615105565b60405180910390f35b3480156102e257600080fd5b506102fd60048036038101906102f89190614447565b611159565b60405161030a9190615083565b60405180910390f35b34801561031f57600080fd5b5061033a60048036038101906103359190614095565b6111de565b005b34801561034857600080fd5b50610363600480360381019061035e9190613f8f565b6112f6565b005b34801561037157600080fd5b5061038c60048036038101906103879190614447565b6113a5565b60405161039991906150ea565b60405180910390f35b3480156103ae57600080fd5b506103c960048036038101906103c4919061440b565b6113c7565b005b3480156103d757600080fd5b506103f260048036038101906103ed91906141d0565b61149e565b6040516103ff91906154e7565b60405180910390f35b34801561041457600080fd5b5061042f600480360381019061042a9190613f8f565b611583565b005b34801561043d57600080fd5b50610458600480360381019061045391906142eb565b6115a3565b005b34801561046657600080fd5b50610481600480360381019061047c9190614447565b611995565b60405161048e9190615083565b60405180910390f35b3480156104a357600080fd5b506104be60048036038101906104b991906141f9565b611a47565b6040516104cb9190615105565b60405180910390f35b3480156104e057600080fd5b506104fb60048036038101906104f69190613f2a565b611aad565b6040516105089190615539565b60405180910390f35b34801561051d57600080fd5b50610526611b65565b005b34801561053457600080fd5b5061054f600480360381019061054a9190613f2a565b611bed565b005b34801561055d57600080fd5b50610566611cc8565b6040516105739190615083565b60405180910390f35b34801561058857600080fd5b506105a3600480360381019061059e9190614123565b611cf2565b005b3480156105b157600080fd5b506105ba611da3565b6040516105c79190615105565b60405180910390f35b3480156105dc57600080fd5b506105f760048036038101906105f29190614447565b611e35565b60405161060693929190615502565b60405180910390f35b34801561061b57600080fd5b5061063660048036038101906106319190614059565b611e97565b005b34801561064457600080fd5b5061065f600480360381019061065a91906141d0565b612018565b60405161066c9190615539565b60405180910390f35b61068f600480360381019061068a91906142eb565b612030565b005b34801561069d57600080fd5b506106b860048036038101906106b39190614284565b612050565b005b3480156106c657600080fd5b506106e160048036038101906106dc9190614164565b6122b0565b005b3480156106ef57600080fd5b5061070a60048036038101906107059190614284565b612379565b005b34801561071857600080fd5b50610733600480360381019061072e9190613fde565b6125d9565b005b34801561074157600080fd5b5061075c60048036038101906107579190614235565b61268a565b005b34801561076a57600080fd5b5061078560048036038101906107809190614447565b6128ed565b6040516107929190615105565b60405180910390f35b3480156107a757600080fd5b506107c260048036038101906107bd9190614447565b612a0a565b005b3480156107d057600080fd5b506107eb60048036038101906107e691906141f9565b612aab565b6040516107fd96959493929190615554565b60405180910390f35b34801561081257600080fd5b5061082d60048036038101906108289190614164565b612cb5565b005b34801561083b57600080fd5b50610856600480360381019061085191906143bc565b612d7e565b005b34801561086457600080fd5b5061086d612eaa565b60405161087a9190615105565b60405180910390f35b34801561088f57600080fd5b506108aa60048036038101906108a59190613f53565b612f3c565b6040516108b791906150ea565b60405180910390f35b3480156108cc57600080fd5b506108e760048036038101906108e29190613f2a565b612fd0565b005b3480156108f557600080fd5b50610910600480360381019061090b9190613f2a565b6130ab565b005b600061091d8261149e565b90506000816fffffffffffffffffffffffffffffffff161415610975576040517f08c379a000000000000000000000000000000000000000000000000000000000815260040161096c90615227565b60405180910390fd5b600060086000856fffffffffffffffffffffffffffffffff166fffffffffffffffffffffffffffffffff1681526020019081526020016000206000846fffffffffffffffffffffffffffffffff166fffffffffffffffffffffffffffffffff16815260200190815260200160002060010160009054906101000a90046fffffffffffffffffffffffffffffffff166fffffffffffffffffffffffffffffffff1614610a55576040517f08c379a0000000000000000000000000000000000000000000000000000000008152600401610a4c906154a7565b60405180910390fd5b601154836fffffffffffffffffffffffffffffffff1610610aab576040517f08c379a0000000000000000000000000000000000000000000000000000000008152600401610aa2906152e7565b60405180910390fd5b6000600a6000836fffffffffffffffffffffffffffffffff166fffffffffffffffffffffffffffffffff1681526020019081526020016000205490506000349050818114610b2e576040517f08c379a0000000000000000000000000000000000000000000000000000000008152600401610b2590615127565b60405180910390fd5b601360009054906101000a900473ffffffffffffffffffffffffffffffffffffffff1673ffffffffffffffffffffffffffffffffffffffff166108fc829081150290604051600060405180830381858888f19350505050158015610b96573d6000803e3d6000fd5b5060006010549050610baf610ba96131a3565b826131ab565b600160106000828254610bc291906156b3565b925050819055508060086000886fffffffffffffffffffffffffffffffff166fffffffffffffffffffffffffffffffff1681526020019081526020016000206000876fffffffffffffffffffffffffffffffff166fffffffffffffffffffffffffffffffff168152602001908152602001600020600001819055508360086000886fffffffffffffffffffffffffffffffff166fffffffffffffffffffffffffffffffff1681526020019081526020016000206000876fffffffffffffffffffffffffffffffff166fffffffffffffffffffffffffffffffff16815260200190815260200160002060010160006101000a8154816fffffffffffffffffffffffffffffffff02191690836fffffffffffffffffffffffffffffffff160217905550856009600083815260200190815260200160002060000160006101000a8154816fffffffffffffffffffffffffffffffff02191690836fffffffffffffffffffffffffffffffff160217905550846009600083815260200190815260200160002060000160106101000a8154816fffffffffffffffffffffffffffffffff02191690836fffffffffffffffffffffffffffffffff160217905550505050505050565b8282600060086000846fffffffffffffffffffffffffffffffff166fffffffffffffffffffffffffffffffff1681526020019081526020016000206000836fffffffffffffffffffffffffffffffff166fffffffffffffffffffffffffffffffff168152602001908152602001600020600001549050600060086000856fffffffffffffffffffffffffffffffff166fffffffffffffffffffffffffffffffff1681526020019081526020016000206000846fffffffffffffffffffffffffffffffff166fffffffffffffffffffffffffffffffff16815260200190815260200160002060010160009054906101000a90046fffffffffffffffffffffffffffffffff166fffffffffffffffffffffffffffffffff161415610edc576040517f08c379a0000000000000000000000000000000000000000000000000000000008152600401610ed390615247565b60405180910390fd5b610ee581611995565b73ffffffffffffffffffffffffffffffffffffffff16610f036131a3565b73ffffffffffffffffffffffffffffffffffffffff1614610f59576040517f08c379a0000000000000000000000000000000000000000000000000000000008152600401610f50906153e7565b60405180910390fd5b8360086000886fffffffffffffffffffffffffffffffff166fffffffffffffffffffffffffffffffff1681526020019081526020016000206000876fffffffffffffffffffffffffffffffff166fffffffffffffffffffffffffffffffff1681526020019081526020016000206004019080519060200190610fdc929190613d39565b50505050505050565b60007f80ac58cd000000000000000000000000000000000000000000000000000000007bffffffffffffffffffffffffffffffffffffffffffffffffffffffff1916827bffffffffffffffffffffffffffffffffffffffffffffffffffffffff191614806110b057507f5b5e139f000000000000000000000000000000000000000000000000000000007bffffffffffffffffffffffffffffffffffffffffffffffffffffffff1916827bffffffffffffffffffffffffffffffffffffffffffffffffffffffff1916145b806110c057506110bf826131c9565b5b9050919050565b6060600080546110d690615840565b80601f016020809104026020016040519081016040528092919081815260200182805461110290615840565b801561114f5780601f106111245761010080835404028352916020019161114f565b820191906000526020600020905b81548152906001019060200180831161113257829003601f168201915b5050505050905090565b600061116482613233565b6111a3576040517f08c379a000000000000000000000000000000000000000000000000000000000815260040161119a906153a7565b60405180910390fd5b6004600083815260200190815260200160002060009054906101000a900473ffffffffffffffffffffffffffffffffffffffff169050919050565b60006111e982611995565b90508073ffffffffffffffffffffffffffffffffffffffff168373ffffffffffffffffffffffffffffffffffffffff16141561125a576040517f08c379a000000000000000000000000000000000000000000000000000000000815260040161125190615447565b60405180910390fd5b8073ffffffffffffffffffffffffffffffffffffffff166112796131a3565b73ffffffffffffffffffffffffffffffffffffffff1614806112a857506112a7816112a26131a3565b612f3c565b5b6112e7576040517f08c379a00000000000000000000000000000000000000000000000000000000081526004016112de906152c7565b60405180910390fd5b6112f1838361329f565b505050565b6113076113016131a3565b82613358565b611346576040517f08c379a000000000000000000000000000000000000000000000000000000000815260040161133d90615487565b60405180910390fd5b60001515611353826113a5565b151514611395576040517f08c379a000000000000000000000000000000000000000000000000000000000815260040161138c90615207565b60405180910390fd5b6113a0838383613436565b505050565b6000426009600084815260200190815260200160002060010154119050919050565b601260009054906101000a900473ffffffffffffffffffffffffffffffffffffffff1673ffffffffffffffffffffffffffffffffffffffff166114086131a3565b73ffffffffffffffffffffffffffffffffffffffff161461145e576040517f08c379a000000000000000000000000000000000000000000000000000000000815260040161145590615427565b60405180910390fd5b80600a6000846fffffffffffffffffffffffffffffffff166fffffffffffffffffffffffffffffffff168152602001908152602001600020819055505050565b6000600a826fffffffffffffffffffffffffffffffff1610156114c4576001905061157e565b600e826fffffffffffffffffffffffffffffffff1610156114e8576002905061157e565b6036826fffffffffffffffffffffffffffffffff16101561150c576003905061157e565b603e826fffffffffffffffffffffffffffffffff161015611530576004905061157e565b607a826fffffffffffffffffffffffffffffffff161015611554576005905061157e565b6101ba826fffffffffffffffffffffffffffffffff161015611579576006905061157e565b600090505b919050565b61159e838383604051806020016040528060008152506125d9565b505050565b8585600060086000846fffffffffffffffffffffffffffffffff166fffffffffffffffffffffffffffffffff1681526020019081526020016000206000836fffffffffffffffffffffffffffffffff166fffffffffffffffffffffffffffffffff168152602001908152602001600020600001549050600060086000856fffffffffffffffffffffffffffffffff166fffffffffffffffffffffffffffffffff1681526020019081526020016000206000846fffffffffffffffffffffffffffffffff166fffffffffffffffffffffffffffffffff16815260200190815260200160002060010160009054906101000a90046fffffffffffffffffffffffffffffffff166fffffffffffffffffffffffffffffffff1614156116fa576040517f08c379a00000000000000000000000000000000000000000000000000000000081526004016116f190615247565b60405180910390fd5b61170381611995565b73ffffffffffffffffffffffffffffffffffffffff166117216131a3565b73ffffffffffffffffffffffffffffffffffffffff1614611777576040517f08c379a000000000000000000000000000000000000000000000000000000000815260040161176e906153e7565b60405180910390fd5b86600860008b6fffffffffffffffffffffffffffffffff166fffffffffffffffffffffffffffffffff16815260200190815260200160002060008a6fffffffffffffffffffffffffffffffff166fffffffffffffffffffffffffffffffff16815260200190815260200160002060030190805190602001906117fa929190613d39565b5085600860008b6fffffffffffffffffffffffffffffffff166fffffffffffffffffffffffffffffffff16815260200190815260200160002060008a6fffffffffffffffffffffffffffffffff166fffffffffffffffffffffffffffffffff168152602001908152602001600020600201908051906020019061187e929190613d39565b5084600860008b6fffffffffffffffffffffffffffffffff166fffffffffffffffffffffffffffffffff16815260200190815260200160002060008a6fffffffffffffffffffffffffffffffff166fffffffffffffffffffffffffffffffff16815260200190815260200160002060010160106101000a81548160ff02191690831515021790555083600860008b6fffffffffffffffffffffffffffffffff166fffffffffffffffffffffffffffffffff16815260200190815260200160002060008a6fffffffffffffffffffffffffffffffff166fffffffffffffffffffffffffffffffff1681526020019081526020016000206004019080519060200190611989929190613d39565b50505050505050505050565b6000806002600084815260200190815260200160002060009054906101000a900473ffffffffffffffffffffffffffffffffffffffff169050600073ffffffffffffffffffffffffffffffffffffffff168173ffffffffffffffffffffffffffffffffffffffff161415611a3e576040517f08c379a0000000000000000000000000000000000000000000000000000000008152600401611a3590615327565b60405180910390fd5b80915050919050565b6060600b611a66846fffffffffffffffffffffffffffffffff16613692565b611a81846fffffffffffffffffffffffffffffffff16613692565b600c604051602001611a96949392919061503a565b604051602081830303815290604052905092915050565b60008073ffffffffffffffffffffffffffffffffffffffff168273ffffffffffffffffffffffffffffffffffffffff161415611b1e576040517f08c379a0000000000000000000000000000000000000000000000000000000008152600401611b1590615307565b60405180910390fd5b600360008373ffffffffffffffffffffffffffffffffffffffff1673ffffffffffffffffffffffffffffffffffffffff168152602001908152602001600020549050919050565b611b6d6131a3565b73ffffffffffffffffffffffffffffffffffffffff16611b8b611cc8565b73ffffffffffffffffffffffffffffffffffffffff1614611be1576040517f08c379a0000000000000000000000000000000000000000000000000000000008152600401611bd8906153c7565b60405180910390fd5b611beb600061383f565b565b601260009054906101000a900473ffffffffffffffffffffffffffffffffffffffff1673ffffffffffffffffffffffffffffffffffffffff16611c2e6131a3565b73ffffffffffffffffffffffffffffffffffffffff1614611c84576040517f08c379a0000000000000000000000000000000000000000000000000000000008152600401611c7b906154c7565b60405180910390fd5b80601360006101000a81548173ffffffffffffffffffffffffffffffffffffffff021916908373ffffffffffffffffffffffffffffffffffffffff16021790555050565b6000600660009054906101000a900473ffffffffffffffffffffffffffffffffffffffff16905090565b601260009054906101000a900473ffffffffffffffffffffffffffffffffffffffff1673ffffffffffffffffffffffffffffffffffffffff16611d336131a3565b73ffffffffffffffffffffffffffffffffffffffff1614611d89576040517f08c379a0000000000000000000000000000000000000000000000000000000008152600401611d8090615147565b60405180910390fd5b80600f9080519060200190611d9f929190613d39565b5050565b606060018054611db290615840565b80601f0160208091040260200160405190810160405280929190818152602001828054611dde90615840565b8015611e2b5780601f10611e0057610100808354040283529160200191611e2b565b820191906000526020600020905b815481529060010190602001808311611e0e57829003601f168201915b5050505050905090565b60096020528060005260406000206000915090508060000160009054906101000a90046fffffffffffffffffffffffffffffffff16908060000160109054906101000a90046fffffffffffffffffffffffffffffffff16908060010154905083565b611e9f6131a3565b73ffffffffffffffffffffffffffffffffffffffff168273ffffffffffffffffffffffffffffffffffffffff161415611f0d576040517f08c379a0000000000000000000000000000000000000000000000000000000008152600401611f04906151e7565b60405180910390fd5b8060056000611f1a6131a3565b73ffffffffffffffffffffffffffffffffffffffff1673ffffffffffffffffffffffffffffffffffffffff16815260200190815260200160002060008473ffffffffffffffffffffffffffffffffffffffff1673ffffffffffffffffffffffffffffffffffffffff16815260200190815260200160002060006101000a81548160ff0219169083151502179055508173ffffffffffffffffffffffffffffffffffffffff16611fc76131a3565b73ffffffffffffffffffffffffffffffffffffffff167f17307eab39ab6107e8899845ad3d59bd9653f200f220920489ca2b5937696c318360405161200c91906150ea565b60405180910390a35050565b600a6020528060005260406000206000915090505481565b61203a8686610912565b6120488686868686866115a3565b505050505050565b8282600060086000846fffffffffffffffffffffffffffffffff166fffffffffffffffffffffffffffffffff1681526020019081526020016000206000836fffffffffffffffffffffffffffffffff166fffffffffffffffffffffffffffffffff168152602001908152602001600020600001549050600060086000856fffffffffffffffffffffffffffffffff166fffffffffffffffffffffffffffffffff1681526020019081526020016000206000846fffffffffffffffffffffffffffffffff166fffffffffffffffffffffffffffffffff16815260200190815260200160002060010160009054906101000a90046fffffffffffffffffffffffffffffffff166fffffffffffffffffffffffffffffffff1614156121a7576040517f08c379a000000000000000000000000000000000000000000000000000000000815260040161219e90615247565b60405180910390fd5b6121b081611995565b73ffffffffffffffffffffffffffffffffffffffff166121ce6131a3565b73ffffffffffffffffffffffffffffffffffffffff1614612224576040517f08c379a000000000000000000000000000000000000000000000000000000000815260040161221b906153e7565b60405180910390fd5b8360086000886fffffffffffffffffffffffffffffffff166fffffffffffffffffffffffffffffffff1681526020019081526020016000206000876fffffffffffffffffffffffffffffffff166fffffffffffffffffffffffffffffffff16815260200190815260200160002060030190805190602001906122a7929190613d39565b50505050505050565b601260009054906101000a900473ffffffffffffffffffffffffffffffffffffffff1673ffffffffffffffffffffffffffffffffffffffff166122f16131a3565b73ffffffffffffffffffffffffffffffffffffffff1614612347576040517f08c379a000000000000000000000000000000000000000000000000000000000815260040161233e90615467565b60405180910390fd5b81600b908051906020019061235d929190613d39565b5080600c9080519060200190612374929190613d39565b505050565b8282600060086000846fffffffffffffffffffffffffffffffff166fffffffffffffffffffffffffffffffff1681526020019081526020016000206000836fffffffffffffffffffffffffffffffff166fffffffffffffffffffffffffffffffff168152602001908152602001600020600001549050600060086000856fffffffffffffffffffffffffffffffff166fffffffffffffffffffffffffffffffff1681526020019081526020016000206000846fffffffffffffffffffffffffffffffff166fffffffffffffffffffffffffffffffff16815260200190815260200160002060010160009054906101000a90046fffffffffffffffffffffffffffffffff166fffffffffffffffffffffffffffffffff1614156124d0576040517f08c379a00000000000000000000000000000000000000000000000000000000081526004016124c790615247565b60405180910390fd5b6124d981611995565b73ffffffffffffffffffffffffffffffffffffffff166124f76131a3565b73ffffffffffffffffffffffffffffffffffffffff161461254d576040517f08c379a0000000000000000000000000000000000000000000000000000000008152600401612544906153e7565b60405180910390fd5b8360086000886fffffffffffffffffffffffffffffffff166fffffffffffffffffffffffffffffffff1681526020019081526020016000206000876fffffffffffffffffffffffffffffffff166fffffffffffffffffffffffffffffffff16815260200190815260200160002060020190805190602001906125d0929190613d39565b50505050505050565b6125ea6125e46131a3565b83613358565b612629576040517f08c379a000000000000000000000000000000000000000000000000000000000815260040161262090615487565b60405180910390fd5b60001515612636836113a5565b151514612678576040517f08c379a000000000000000000000000000000000000000000000000000000000815260040161266f90615207565b60405180910390fd5b61268484848484613905565b50505050565b8282600060086000846fffffffffffffffffffffffffffffffff166fffffffffffffffffffffffffffffffff1681526020019081526020016000206000836fffffffffffffffffffffffffffffffff166fffffffffffffffffffffffffffffffff168152602001908152602001600020600001549050600060086000856fffffffffffffffffffffffffffffffff166fffffffffffffffffffffffffffffffff1681526020019081526020016000206000846fffffffffffffffffffffffffffffffff166fffffffffffffffffffffffffffffffff16815260200190815260200160002060010160009054906101000a90046fffffffffffffffffffffffffffffffff166fffffffffffffffffffffffffffffffff1614156127e1576040517f08c379a00000000000000000000000000000000000000000000000000000000081526004016127d890615247565b60405180910390fd5b6127ea81611995565b73ffffffffffffffffffffffffffffffffffffffff166128086131a3565b73ffffffffffffffffffffffffffffffffffffffff161461285e576040517f08c379a0000000000000000000000000000000000000000000000000000000008152600401612855906153e7565b60405180910390fd5b8360086000886fffffffffffffffffffffffffffffffff166fffffffffffffffffffffffffffffffff1681526020019081526020016000206000876fffffffffffffffffffffffffffffffff166fffffffffffffffffffffffffffffffff16815260200190815260200160002060010160106101000a81548160ff021916908315150217905550505050505050565b60606128f882613233565b612937576040517f08c379a000000000000000000000000000000000000000000000000000000000815260040161292e90615247565b60405180910390fd5b60006009600084815260200190815260200160002060000160009054906101000a90046fffffffffffffffffffffffffffffffff16905060006009600085815260200190815260200160002060000160109054906101000a90046fffffffffffffffffffffffffffffffff169050600d6129c2836fffffffffffffffffffffffffffffffff16613692565b6129dd836fffffffffffffffffffffffffffffffff16613692565b600e6040516020016129f2949392919061503a565b60405160208183030381529060405292505050919050565b601260009054906101000a900473ffffffffffffffffffffffffffffffffffffffff1673ffffffffffffffffffffffffffffffffffffffff16612a4b6131a3565b73ffffffffffffffffffffffffffffffffffffffff1614612aa1576040517f08c379a0000000000000000000000000000000000000000000000000000000008152600401612a98906152a7565b60405180910390fd5b8060118190555050565b6008602052816000526040600020602052806000526040600020600091509150508060000154908060010160009054906101000a90046fffffffffffffffffffffffffffffffff16908060010160109054906101000a900460ff1690806002018054612b1690615840565b80601f0160208091040260200160405190810160405280929190818152602001828054612b4290615840565b8015612b8f5780601f10612b6457610100808354040283529160200191612b8f565b820191906000526020600020905b815481529060010190602001808311612b7257829003601f168201915b505050505090806003018054612ba490615840565b80601f0160208091040260200160405190810160405280929190818152602001828054612bd090615840565b8015612c1d5780601f10612bf257610100808354040283529160200191612c1d565b820191906000526020600020905b815481529060010190602001808311612c0057829003601f168201915b505050505090806004018054612c3290615840565b80601f0160208091040260200160405190810160405280929190818152602001828054612c5e90615840565b8015612cab5780601f10612c8057610100808354040283529160200191612cab565b820191906000526020600020905b815481529060010190602001808311612c8e57829003601f168201915b5050505050905086565b601260009054906101000a900473ffffffffffffffffffffffffffffffffffffffff1673ffffffffffffffffffffffffffffffffffffffff16612cf66131a3565b73ffffffffffffffffffffffffffffffffffffffff1614612d4c576040517f08c379a0000000000000000000000000000000000000000000000000000000008152600401612d4390615347565b60405180910390fd5b81600d9080519060200190612d62929190613d39565b5080600e9080519060200190612d79929190613d39565b505050565b601260009054906101000a900473ffffffffffffffffffffffffffffffffffffffff1673ffffffffffffffffffffffffffffffffffffffff16612dbf6131a3565b73ffffffffffffffffffffffffffffffffffffffff1614612e15576040517f08c379a0000000000000000000000000000000000000000000000000000000008152600401612e0c90615367565b60405180910390fd5b600060086000856fffffffffffffffffffffffffffffffff166fffffffffffffffffffffffffffffffff1681526020019081526020016000206000846fffffffffffffffffffffffffffffffff166fffffffffffffffffffffffffffffffff16815260200190815260200160002060000154905081600960008381526020019081526020016000206001018190555050505050565b6060600f8054612eb990615840565b80601f0160208091040260200160405190810160405280929190818152602001828054612ee590615840565b8015612f325780601f10612f0757610100808354040283529160200191612f32565b820191906000526020600020905b815481529060010190602001808311612f1557829003601f168201915b5050505050905090565b6000600560008473ffffffffffffffffffffffffffffffffffffffff1673ffffffffffffffffffffffffffffffffffffffff16815260200190815260200160002060008373ffffffffffffffffffffffffffffffffffffffff1673ffffffffffffffffffffffffffffffffffffffff16815260200190815260200160002060009054906101000a900460ff16905092915050565b601260009054906101000a900473ffffffffffffffffffffffffffffffffffffffff1673ffffffffffffffffffffffffffffffffffffffff166130116131a3565b73ffffffffffffffffffffffffffffffffffffffff1614613067576040517f08c379a000000000000000000000000000000000000000000000000000000000815260040161305e90615287565b60405180910390fd5b80601260006101000a81548173ffffffffffffffffffffffffffffffffffffffff021916908373ffffffffffffffffffffffffffffffffffffffff16021790555050565b6130b36131a3565b73ffffffffffffffffffffffffffffffffffffffff166130d1611cc8565b73ffffffffffffffffffffffffffffffffffffffff1614613127576040517f08c379a000000000000000000000000000000000000000000000000000000000815260040161311e906153c7565b60405180910390fd5b600073ffffffffffffffffffffffffffffffffffffffff168173ffffffffffffffffffffffffffffffffffffffff161415613197576040517f08c379a000000000000000000000000000000000000000000000000000000000815260040161318e90615187565b60405180910390fd5b6131a08161383f565b50565b600033905090565b6131c5828260405180602001604052806000815250613961565b5050565b60007f01ffc9a7000000000000000000000000000000000000000000000000000000007bffffffffffffffffffffffffffffffffffffffffffffffffffffffff1916827bffffffffffffffffffffffffffffffffffffffffffffffffffffffff1916149050919050565b60008073ffffffffffffffffffffffffffffffffffffffff166002600084815260200190815260200160002060009054906101000a900473ffffffffffffffffffffffffffffffffffffffff1673ffffffffffffffffffffffffffffffffffffffff1614159050919050565b816004600083815260200190815260200160002060006101000a81548173ffffffffffffffffffffffffffffffffffffffff021916908373ffffffffffffffffffffffffffffffffffffffff160217905550808273ffffffffffffffffffffffffffffffffffffffff1661331283611995565b73ffffffffffffffffffffffffffffffffffffffff167f8c5be1e5ebec7d5bd14f71427d1e84f3dd0314c0f7b2291e5b200ac8c7c3b92560405160405180910390a45050565b600061336382613233565b6133a2576040517f08c379a000000000000000000000000000000000000000000000000000000000815260040161339990615267565b60405180910390fd5b60006133ad83611995565b90508073ffffffffffffffffffffffffffffffffffffffff168473ffffffffffffffffffffffffffffffffffffffff16148061341c57508373ffffffffffffffffffffffffffffffffffffffff1661340484611159565b73ffffffffffffffffffffffffffffffffffffffff16145b8061342d575061342c8185612f3c565b5b91505092915050565b8273ffffffffffffffffffffffffffffffffffffffff1661345682611995565b73ffffffffffffffffffffffffffffffffffffffff16146134ac576040517f08c379a00000000000000000000000000000000000000000000000000000000081526004016134a390615407565b60405180910390fd5b600073ffffffffffffffffffffffffffffffffffffffff168273ffffffffffffffffffffffffffffffffffffffff16141561351c576040517f08c379a0000000000000000000000000000000000000000000000000000000008152600401613513906151c7565b60405180910390fd5b6135278383836139bc565b61353260008261329f565b6001600360008573ffffffffffffffffffffffffffffffffffffffff1673ffffffffffffffffffffffffffffffffffffffff1681526020019081526020016000206000828254613582919061573a565b925050819055506001600360008473ffffffffffffffffffffffffffffffffffffffff1673ffffffffffffffffffffffffffffffffffffffff16815260200190815260200160002060008282546135d991906156b3565b92505081905550816002600083815260200190815260200160002060006101000a81548173ffffffffffffffffffffffffffffffffffffffff021916908373ffffffffffffffffffffffffffffffffffffffff160217905550808273ffffffffffffffffffffffffffffffffffffffff168473ffffffffffffffffffffffffffffffffffffffff167fddf252ad1be2c89b69c2b068fc378daa952ba7f163c4a11628f55a4df523b3ef60405160405180910390a4505050565b606060008214156136da576040518060400160405280600181526020017f3000000000000000000000000000000000000000000000000000000000000000815250905061383a565b600082905060005b6000821461370c5780806136f590615872565b915050600a826137059190615709565b91506136e2565b60008167ffffffffffffffff81111561374e577f4e487b7100000000000000000000000000000000000000000000000000000000600052604160045260246000fd5b6040519080825280601f01601f1916602001820160405280156137805781602001600182028036833780820191505090505b5090505b6000851461383357600182613799919061573a565b9150600a856137a891906158bb565b60306137b491906156b3565b60f81b8183815181106137f0577f4e487b7100000000000000000000000000000000000000000000000000000000600052603260045260246000fd5b60200101907effffffffffffffffffffffffffffffffffffffffffffffffffffffffffffff1916908160001a905350600a8561382c9190615709565b9450613784565b8093505050505b919050565b6000600660009054906101000a900473ffffffffffffffffffffffffffffffffffffffff16905081600660006101000a81548173ffffffffffffffffffffffffffffffffffffffff021916908373ffffffffffffffffffffffffffffffffffffffff1602179055508173ffffffffffffffffffffffffffffffffffffffff168173ffffffffffffffffffffffffffffffffffffffff167f8be0079c531659141344cd1fd0a4f28419497f9722a3daafe3b4186f6b6457e060405160405180910390a35050565b613910848484613436565b61391c848484846139c1565b61395b576040517f08c379a000000000000000000000000000000000000000000000000000000000815260040161395290615167565b60405180910390fd5b50505050565b61396b8383613b58565b61397860008484846139c1565b6139b7576040517f08c379a00000000000000000000000000000000000000000000000000000000081526004016139ae90615167565b60405180910390fd5b505050565b505050565b60006139e28473ffffffffffffffffffffffffffffffffffffffff16613d26565b15613b4b578373ffffffffffffffffffffffffffffffffffffffff1663150b7a02613a0b6131a3565b8786866040518563ffffffff1660e01b8152600401613a2d949392919061509e565b602060405180830381600087803b158015613a4757600080fd5b505af1925050508015613a7857506040513d601f19601f82011682018060405250810190613a7591906140fa565b60015b613afb573d8060008114613aa8576040519150601f19603f3d011682016040523d82523d6000602084013e613aad565b606091505b50600081511415613af3576040517f08c379a0000000000000000000000000000000000000000000000000000000008152600401613aea90615167565b60405180910390fd5b805181602001fd5b63150b7a0260e01b7bffffffffffffffffffffffffffffffffffffffffffffffffffffffff1916817bffffffffffffffffffffffffffffffffffffffffffffffffffffffff191614915050613b50565b600190505b949350505050565b600073ffffffffffffffffffffffffffffffffffffffff168273ffffffffffffffffffffffffffffffffffffffff161415613bc8576040517f08c379a0000000000000000000000000000000000000000000000000000000008152600401613bbf90615387565b60405180910390fd5b613bd181613233565b15613c11576040517f08c379a0000000000000000000000000000000000000000000000000000000008152600401613c08906151a7565b60405180910390fd5b613c1d600083836139bc565b6001600360008473ffffffffffffffffffffffffffffffffffffffff1673ffffffffffffffffffffffffffffffffffffffff1681526020019081526020016000206000828254613c6d91906156b3565b92505081905550816002600083815260200190815260200160002060006101000a81548173ffffffffffffffffffffffffffffffffffffffff021916908373ffffffffffffffffffffffffffffffffffffffff160217905550808273ffffffffffffffffffffffffffffffffffffffff16600073ffffffffffffffffffffffffffffffffffffffff167fddf252ad1be2c89b69c2b068fc378daa952ba7f163c4a11628f55a4df523b3ef60405160405180910390a45050565b600080823b905060008111915050919050565b828054613d4590615840565b90600052602060002090601f016020900481019282613d675760008555613dae565b82601f10613d8057805160ff1916838001178555613dae565b82800160010185558215613dae579182015b82811115613dad578251825591602001919060010190613d92565b5b509050613dbb9190613dbf565b5090565b5b80821115613dd8576000816000905550600101613dc0565b5090565b6000613def613dea846155fb565b6155ca565b905082815260208101848484011115613e0757600080fd5b613e128482856157fe565b509392505050565b6000613e2d613e288461562b565b6155ca565b905082815260208101848484011115613e4557600080fd5b613e508482856157fe565b509392505050565b600081359050613e67816159b9565b92915050565b600081359050613e7c816159d0565b92915050565b600081359050613e91816159e7565b92915050565b600081519050613ea6816159e7565b92915050565b600082601f830112613ebd57600080fd5b8135613ecd848260208601613ddc565b91505092915050565b600082601f830112613ee757600080fd5b8135613ef7848260208601613e1a565b91505092915050565b600081359050613f0f816159fe565b92915050565b600081359050613f2481615a15565b92915050565b600060208284031215613f3c57600080fd5b6000613f4a84828501613e58565b91505092915050565b60008060408385031215613f6657600080fd5b6000613f7485828601613e58565b9250506020613f8585828601613e58565b9150509250929050565b600080600060608486031215613fa457600080fd5b6000613fb286828701613e58565b9350506020613fc386828701613e58565b9250506040613fd486828701613f15565b9150509250925092565b60008060008060808587031215613ff457600080fd5b600061400287828801613e58565b945050602061401387828801613e58565b935050604061402487828801613f15565b925050606085013567ffffffffffffffff81111561404157600080fd5b61404d87828801613eac565b91505092959194509250565b6000806040838503121561406c57600080fd5b600061407a85828601613e58565b925050602061408b85828601613e6d565b9150509250929050565b600080604083850312156140a857600080fd5b60006140b685828601613e58565b92505060206140c785828601613f15565b9150509250929050565b6000602082840312156140e357600080fd5b60006140f184828501613e82565b91505092915050565b60006020828403121561410c57600080fd5b600061411a84828501613e97565b91505092915050565b60006020828403121561413557600080fd5b600082013567ffffffffffffffff81111561414f57600080fd5b61415b84828501613ed6565b91505092915050565b6000806040838503121561417757600080fd5b600083013567ffffffffffffffff81111561419157600080fd5b61419d85828601613ed6565b925050602083013567ffffffffffffffff8111156141ba57600080fd5b6141c685828601613ed6565b9150509250929050565b6000602082840312156141e257600080fd5b60006141f084828501613f00565b91505092915050565b6000806040838503121561420c57600080fd5b600061421a85828601613f00565b925050602061422b85828601613f00565b9150509250929050565b60008060006060848603121561424a57600080fd5b600061425886828701613f00565b935050602061426986828701613f00565b925050604061427a86828701613e6d565b9150509250925092565b60008060006060848603121561429957600080fd5b60006142a786828701613f00565b93505060206142b886828701613f00565b925050604084013567ffffffffffffffff8111156142d557600080fd5b6142e186828701613ed6565b9150509250925092565b60008060008060008060c0878903121561430457600080fd5b600061431289828a01613f00565b965050602061432389828a01613f00565b955050604087013567ffffffffffffffff81111561434057600080fd5b61434c89828a01613ed6565b945050606087013567ffffffffffffffff81111561436957600080fd5b61437589828a01613ed6565b935050608061438689828a01613e6d565b92505060a087013567ffffffffffffffff8111156143a357600080fd5b6143af89828a01613ed6565b9150509295509295509295565b6000806000606084860312156143d157600080fd5b60006143df86828701613f00565b93505060206143f086828701613f00565b925050604061440186828701613f15565b9150509250925092565b6000806040838503121561441e57600080fd5b600061442c85828601613f00565b925050602061443d85828601613f15565b9150509250929050565b60006020828403121561445957600080fd5b600061446784828501613f15565b91505092915050565b6144798161576e565b82525050565b61448881615780565b82525050565b600061449982615670565b6144a38185615686565b93506144b381856020860161580d565b6144bc816159a8565b840191505092915050565b60006144d28261567b565b6144dc8185615697565b93506144ec81856020860161580d565b6144f5816159a8565b840191505092915050565b600061450b8261567b565b61451581856156a8565b935061452581856020860161580d565b80840191505092915050565b6000815461453e81615840565b61454881866156a8565b945060018216600081146145635760018114614574576145a7565b60ff198316865281860193506145a7565b61457d8561565b565b60005b8381101561459f57815481890152600182019150602081019050614580565b838801955050505b50505092915050565b60006145bd601083615697565b91507f496e76616c6964204554482070616964000000000000000000000000000000006000830152602082019050919050565b60006145fd602b83615697565b91507f4f6e6c7920636f6e7472616374206f776e65722063616e20757064617465206360008301527f6f6e7472616374205552490000000000000000000000000000000000000000006020830152604082019050919050565b6000614663603283615697565b91507f4552433732313a207472616e7366657220746f206e6f6e20455243373231526560008301527f63656976657220696d706c656d656e74657200000000000000000000000000006020830152604082019050919050565b60006146c9602683615697565b91507f4f776e61626c653a206e6577206f776e657220697320746865207a65726f206160008301527f64647265737300000000000000000000000000000000000000000000000000006020830152604082019050919050565b600061472f601c83615697565b91507f4552433732313a20746f6b656e20616c7265616479206d696e746564000000006000830152602082019050919050565b600061476f602483615697565b91507f4552433732313a207472616e7366657220746f20746865207a65726f2061646460008301527f72657373000000000000000000000000000000000000000000000000000000006020830152604082019050919050565b60006147d5601983615697565b91507f4552433732313a20617070726f766520746f2063616c6c6572000000000000006000830152602082019050919050565b6000614815601283615697565b91507f546f6b656e207374696c6c206c6f636b656400000000000000000000000000006000830152602082019050919050565b6000614855600c83615697565b91507f496e76616c696420736c6f7400000000000000000000000000000000000000006000830152602082019050919050565b6000614895601483615697565b91507f546f6b656e20646f6573206e6f742065786973740000000000000000000000006000830152602082019050919050565b60006148d5602c83615697565b91507f4552433732313a206f70657261746f7220717565727920666f72206e6f6e657860008301527f697374656e7420746f6b656e00000000000000000000000000000000000000006020830152604082019050919050565b600061493b602a83615697565b91507f4f6e6c7920636f6e7472616374206f776e65722063616e207472616e7366657260008301527f206f776e657273686970000000000000000000000000000000000000000000006020830152604082019050919050565b60006149a1603283615697565b91507f4f6e6c7920636f6e7472616374206f776e65722063616e2073657420746f746160008301527f6c20616d6f756e74206f6620626f6172647300000000000000000000000000006020830152604082019050919050565b6000614a07603883615697565b91507f4552433732313a20617070726f76652063616c6c6572206973206e6f74206f7760008301527f6e6572206e6f7220617070726f76656420666f7220616c6c00000000000000006020830152604082019050919050565b6000614a6d601483615697565b91507f426f61726420646f6573206e6f742065786973740000000000000000000000006000830152602082019050919050565b6000614aad602a83615697565b91507f4552433732313a2062616c616e636520717565727920666f7220746865207a6560008301527f726f2061646472657373000000000000000000000000000000000000000000006020830152604082019050919050565b6000614b13602983615697565b91507f4552433732313a206f776e657220717565727920666f72206e6f6e657869737460008301527f656e7420746f6b656e00000000000000000000000000000000000000000000006020830152604082019050919050565b6000614b79602283615697565b91507f4f6e6c7920636f6e7472616374206f776e65722063616e20757064617465205560008301527f52490000000000000000000000000000000000000000000000000000000000006020830152604082019050919050565b6000614bdf602083615697565b91507f4f6e6c79206f776e65722063616e2075706461746520746f6b656e206c6f636b6000830152602082019050919050565b6000614c1f602083615697565b91507f4552433732313a206d696e7420746f20746865207a65726f20616464726573736000830152602082019050919050565b6000614c5f602c83615697565b91507f4552433732313a20617070726f76656420717565727920666f72206e6f6e657860008301527f697374656e7420746f6b656e00000000000000000000000000000000000000006020830152604082019050919050565b6000614cc5602083615697565b91507f4f776e61626c653a2063616c6c6572206973206e6f7420746865206f776e65726000830152602082019050919050565b6000614d05601e83615697565b91507f4f6e6c79206f776e65722063616e20757064617465206d6574616461746100006000830152602082019050919050565b6000614d45602983615697565b91507f4552433732313a207472616e73666572206f6620746f6b656e2074686174206960008301527f73206e6f74206f776e00000000000000000000000000000000000000000000006020830152604082019050919050565b6000614dab602983615697565b91507f4f6e6c7920636f6e7472616374206f776e65722063616e20757064617465207460008301527f69657220707269636500000000000000000000000000000000000000000000006020830152604082019050919050565b6000614e11602183615697565b91507f4552433732313a20617070726f76616c20746f2063757272656e74206f776e6560008301527f72000000000000000000000000000000000000000000000000000000000000006020830152604082019050919050565b6000614e77602d83615697565b91507f4f6e6c7920636f6e7472616374206f776e65722063616e20757064617465207360008301527f6c6f7420696d61676520555249000000000000000000000000000000000000006020830152604082019050919050565b6000614edd603183615697565b91507f4552433732313a207472616e736665722063616c6c6572206973206e6f74206f60008301527f776e6572206e6f7220617070726f7665640000000000000000000000000000006020830152604082019050919050565b6000614f436001836156a8565b91507f2d000000000000000000000000000000000000000000000000000000000000006000830152600182019050919050565b6000614f83601383615697565b91507f536c6f7420616c7265616479206d696e746564000000000000000000000000006000830152602082019050919050565b6000614fc3602583615697565b91507f4f6e6c7920636f6e7472616374206f776e65722063616e20757064617465207760008301527f616c6c65740000000000000000000000000000000000000000000000000000006020830152604082019050919050565b615025816157b8565b82525050565b615034816157f4565b82525050565b60006150468287614531565b91506150528286614500565b915061505d82614f36565b91506150698285614500565b91506150758284614531565b915081905095945050505050565b60006020820190506150986000830184614470565b92915050565b60006080820190506150b36000830187614470565b6150c06020830186614470565b6150cd604083018561502b565b81810360608301526150df818461448e565b905095945050505050565b60006020820190506150ff600083018461447f565b92915050565b6000602082019050818103600083015261511f81846144c7565b905092915050565b60006020820190508181036000830152615140816145b0565b9050919050565b60006020820190508181036000830152615160816145f0565b9050919050565b6000602082019050818103600083015261518081614656565b9050919050565b600060208201905081810360008301526151a0816146bc565b9050919050565b600060208201905081810360008301526151c081614722565b9050919050565b600060208201905081810360008301526151e081614762565b9050919050565b60006020820190508181036000830152615200816147c8565b9050919050565b6000602082019050818103600083015261522081614808565b9050919050565b6000602082019050818103600083015261524081614848565b9050919050565b6000602082019050818103600083015261526081614888565b9050919050565b60006020820190508181036000830152615280816148c8565b9050919050565b600060208201905081810360008301526152a08161492e565b9050919050565b600060208201905081810360008301526152c081614994565b9050919050565b600060208201905081810360008301526152e0816149fa565b9050919050565b6000602082019050818103600083015261530081614a60565b9050919050565b6000602082019050818103600083015261532081614aa0565b9050919050565b6000602082019050818103600083015261534081614b06565b9050919050565b6000602082019050818103600083015261536081614b6c565b9050919050565b6000602082019050818103600083015261538081614bd2565b9050919050565b600060208201905081810360008301526153a081614c12565b9050919050565b600060208201905081810360008301526153c081614c52565b9050919050565b600060208201905081810360008301526153e081614cb8565b9050919050565b6000602082019050818103600083015261540081614cf8565b9050919050565b6000602082019050818103600083015261542081614d38565b9050919050565b6000602082019050818103600083015261544081614d9e565b9050919050565b6000602082019050818103600083015261546081614e04565b9050919050565b6000602082019050818103600083015261548081614e6a565b9050919050565b600060208201905081810360008301526154a081614ed0565b9050919050565b600060208201905081810360008301526154c081614f76565b9050919050565b600060208201905081810360008301526154e081614fb6565b9050919050565b60006020820190506154fc600083018461501c565b92915050565b6000606082019050615517600083018661501c565b615524602083018561501c565b615531604083018461502b565b949350505050565b600060208201905061554e600083018461502b565b92915050565b600060c082019050615569600083018961502b565b615576602083018861501c565b615583604083018761447f565b818103606083015261559581866144c7565b905081810360808301526155a981856144c7565b905081810360a08301526155bd81846144c7565b9050979650505050505050565b6000604051905081810181811067ffffffffffffffff821117156155f1576155f0615979565b5b8060405250919050565b600067ffffffffffffffff82111561561657615615615979565b5b601f19601f8301169050602081019050919050565b600067ffffffffffffffff82111561564657615645615979565b5b601f19601f8301169050602081019050919050565b60008190508160005260206000209050919050565b600081519050919050565b600081519050919050565b600082825260208201905092915050565b600082825260208201905092915050565b600081905092915050565b60006156be826157f4565b91506156c9836157f4565b9250827fffffffffffffffffffffffffffffffffffffffffffffffffffffffffffffffff038211156156fe576156fd6158ec565b5b828201905092915050565b6000615714826157f4565b915061571f836157f4565b92508261572f5761572e61591b565b5b828204905092915050565b6000615745826157f4565b9150615750836157f4565b925082821015615763576157626158ec565b5b828203905092915050565b6000615779826157d4565b9050919050565b60008115159050919050565b60007fffffffff0000000000000000000000000000000000000000000000000000000082169050919050565b60006fffffffffffffffffffffffffffffffff82169050919050565b600073ffffffffffffffffffffffffffffffffffffffff82169050919050565b6000819050919050565b82818337600083830152505050565b60005b8381101561582b578082015181840152602081019050615810565b8381111561583a576000848401525b50505050565b6000600282049050600182168061585857607f821691505b6020821081141561586c5761586b61594a565b5b50919050565b600061587d826157f4565b91507fffffffffffffffffffffffffffffffffffffffffffffffffffffffffffffffff8214156158b0576158af6158ec565b5b600182019050919050565b60006158c6826157f4565b91506158d1836157f4565b9250826158e1576158e061591b565b5b828206905092915050565b7f4e487b7100000000000000000000000000000000000000000000000000000000600052601160045260246000fd5b7f4e487b7100000000000000000000000000000000000000000000000000000000600052601260045260246000fd5b7f4e487b7100000000000000000000000000000000000000000000000000000000600052602260045260246000fd5b7f4e487b7100000000000000000000000000000000000000000000000000000000600052604160045260246000fd5b6000601f19601f8301169050919050565b6159c28161576e565b81146159cd57600080fd5b50565b6159d981615780565b81146159e457600080fd5b50565b6159f08161578c565b81146159fb57600080fd5b50565b615a07816157b8565b8114615a1257600080fd5b50565b615a1e816157f4565b8114615a2957600080fd5b5056fea2646970667358221220c9673393cd04aa1149ab158bf2d6ae14cf387c004187c79259645fc3bd3b386164736f6c63430008000033",
  "immutableReferences": {},
  "source": "pragma solidity ^0.8.0;\n\nimport \"openzeppelin-solidity/contracts/token/ERC721/ERC721.sol\";\nimport \"openzeppelin-solidity/contracts/access/Ownable.sol\";\nimport \"openzeppelin-solidity/contracts/utils/math/SafeMath.sol\";\n\ncontract Decentraboard is ERC721, Ownable {\n\n  using SafeMath for uint256;\n  using SafeMath for uint128;\n  using Strings for uint256;\n  using Strings for uint128;\n\n  //\n  // ******************* METADATA STRUCT *******************\n  //\n\n  struct MetaData {\n    uint256 tokenId;\n    uint128 tier;\n    bool forSale;\n    string redirectUrl;\n    string adImage;\n    string ownerName;\n  }\n\n  struct TokenIdInfo {\n    uint128 boardId;\n    uint128 slot;\n    uint256 unlockTime;\n  }\n\n  //\n  // ******************* VARIABLES *******************\n  //\n\n  // Deploy time\n  uint256 private _deployTime = block.timestamp;\n\n  // MetaData map\n  mapping(uint128 => mapping(uint128 => MetaData)) public _tokenData;\n\n  // Token ID to board+slot info (for token URI)\n  mapping(uint256 => TokenIdInfo) public _tokenIdInfo;\n\n  // Token ID to board+slot info (for token URI)\n  mapping(uint128 => uint256) public _tierPrice;\n\n  // Slot image\n  string private _slotImagePrefix;\n  string private _slotImageSuffix;\n\n  // Token URI\n  string private _tokenURIPrefix;\n  string private _tokenURISuffix;\n\n  // Contract URI\n  string private _contractURI;\n\n  // Total tokens\n  uint256 private _totalSupply;\n\n  // Total boards\n  uint256 private _totalBoards = 1;\n\n  // Contract owner\n  address private _contractOwner;\n\n  // Contract owner\n  address private _wallet;\n\n  //\n  // ******************* MODIFIERS *******************\n  //\n\n  modifier onlyTokenOwner(uint128 boardId, uint128 slot) {\n    uint256 tokenId = _tokenData[boardId][slot].tokenId;\n    require(_tokenData[boardId][slot].tier != 0, \"Token does not exist\");\n    require(_msgSender() == ownerOf(tokenId), \"Only owner can update metadata\");\n    _;\n  }\n\n  //\n  // ******************* SETUP *******************\n  //\n\n  // Constructor\n  constructor (string memory name, string memory symbol) public ERC721(name, symbol) {\n\n    // Initially the deployer is the owner\n    _contractOwner = _msgSender();\n  }\n\n  //\n  // ******************* OWNERSHIP *******************\n  //\n\n  function updateContractOwner(address owner) public {\n    require(_msgSender() == _contractOwner, \"Only contract owner can transfer ownership\");\n\n    _contractOwner = owner; \n  }\n\n  function updateWallet(address wallet) public {\n    require(_msgSender() == _contractOwner, \"Only contract owner can update wallet\");\n\n    _wallet = wallet; \n  }\n\n  //\n  // ******************* ERC721 *******************\n  //\n\n  function tokenURI(uint256 tokenId) public view override returns (string memory) {\n    require(_exists(tokenId), \"Token does not exist\");\n\n    uint128 boardId = _tokenIdInfo[tokenId].boardId;\n    uint128 slot = _tokenIdInfo[tokenId].slot;\n\n    return string(abi.encodePacked(_tokenURIPrefix, boardId.toString(), \"-\", slot.toString(), _tokenURISuffix));\n  }\n\n  //\n  // ******************* TOKEN URI *******************\n  //\n\n  function setTokenURI(string memory prefix, string memory suffix) public {\n    require(_msgSender() == _contractOwner, \"Only contract owner can update URI\");\n\n    _tokenURIPrefix = prefix;\n    _tokenURISuffix = suffix;\n  }\n\n  //\n  // ******************* IMAGE URI *******************\n  //\n\n  function setSlotImageURI(string memory prefix, string memory suffix) public {\n    require(_msgSender() == _contractOwner, \"Only contract owner can update slot image URI\");\n\n    _slotImagePrefix = prefix;\n    _slotImageSuffix = suffix;\n  }\n\n  function slotImageURI(uint128 boardId, uint128 slot) public view returns (string memory) {\n    return string(abi.encodePacked(_slotImagePrefix, boardId.toString(), \"-\", slot.toString(), _slotImageSuffix));\n  }\n\n  //\n  // ******************* CONTRACT URI *******************\n  //\n\n  function contractURI() public view returns (string memory) {\n    return _contractURI;\n  }\n\n  function setContractURI(string memory contractUri) public {\n    require(_msgSender() == _contractOwner, \"Only contract owner can update contract URI\");\n\n    _contractURI = contractUri;\n  }\n\n  //\n  // ******************* MINT *******************\n  //\n\n  function setTotalBoards(uint256 totalBoards) public {\n    require(_msgSender() == _contractOwner, \"Only contract owner can set total amount of boards\");\n\n    _totalBoards = totalBoards;\n  }\n\n  function setTierPrice(uint128 tier, uint256 price) public {\n    require(_msgSender() == _contractOwner, \"Only contract owner can update tier price\");\n\n    _tierPrice[tier] = price;\n  }\n\n  function tierForSlot(uint128 slot) public view returns (uint128) {\n    if (slot < 10) {\n      return 1; \n    } else if (slot < 14) {\n      return 2; \n    } else if (slot < 54) {\n      return 3; \n    } else if (slot < 62) {\n      return 4; \n    } else if (slot < 122) {\n      return 5; \n    } else if (slot < 442) {\n      return 6;\n    }\n    return 0;\n  }\n\n  function mintSlot(\n      uint128 boardId,\n      uint128 slot\n    ) public payable {\n\n    // Get tier and check if slot is valid\n    uint128 tier = tierForSlot(slot);\n    require(tier != 0, \"Invalid slot\");\n\n    // Check if slot can be minted\n    require(_tokenData[boardId][slot].tier == 0, \"Slot already minted\");\n\n    // Check if board exists\n    require(boardId < _totalBoards, \"Board does not exist\");\n\n    // Get tier price\n    uint256 tierPrice = _tierPrice[tier];\n\n    // Check if send ETH is equal to tier price\n    uint256 weiAmount = msg.value;\n    require(weiAmount == tierPrice, \"Invalid ETH paid\");\n\n    // Send ETH to wallet\n    payable(_wallet).transfer(weiAmount);\n\n    // Mint token\n    uint256 tokenId = _totalSupply;\n    _safeMint(_msgSender(), tokenId);\n    _totalSupply += 1;\n\n    // Set token data\n    _tokenData[boardId][slot].tokenId = tokenId;\n    _tokenData[boardId][slot].tier = tier;\n\n    // Update token ID info\n    _tokenIdInfo[tokenId].boardId = boardId;\n    _tokenIdInfo[tokenId].slot = slot;\n  }\n\n  function mintSlotWithData(\n      uint128 boardId,\n      uint128 slot,\n      string memory adImage, \n      string memory redirectUrl, \n      bool forSale,\n      string memory ownerName\n    ) public payable {\n\n    // Mint token\n    mintSlot(boardId, slot);\n      \n    // Update editable metadata\n    setMetaData(boardId, slot, adImage, redirectUrl, forSale, ownerName);\n  }\n\n  //\n  // ******************* SETTERS *******************\n  //\n\n  function setMetaData(\n      uint128 boardId,\n      uint128 slot, \n      string memory adImage, \n      string memory redirectUrl, \n      bool forSale,\n      string memory ownerName\n    ) public onlyTokenOwner(boardId, slot) {\n\n    _tokenData[boardId][slot].adImage = adImage;\n    _tokenData[boardId][slot].redirectUrl = redirectUrl;\n    _tokenData[boardId][slot].forSale = forSale;\n    _tokenData[boardId][slot].ownerName = ownerName;\n  }\n\n  function setAdImage(uint128 boardId, uint128 slot, string memory adImage) public onlyTokenOwner(boardId, slot) {\n    _tokenData[boardId][slot].adImage = adImage;\n  }\n\n  function setRedirectUrl(uint128 boardId, uint128 slot, string memory redirectUrl) public onlyTokenOwner(boardId, slot) {\n    _tokenData[boardId][slot].redirectUrl = redirectUrl;\n  }\n\n  function setForSale(uint128 boardId, uint128 slot, bool forSale) public onlyTokenOwner(boardId, slot) {\n    _tokenData[boardId][slot].forSale = forSale;\n  }\n\n  function setOwnerName(uint128 boardId, uint128 slot, string memory ownerName) public onlyTokenOwner(boardId, slot) {\n    _tokenData[boardId][slot].ownerName = ownerName;\n  }\n\n  //\n  // ******************* TRANSFER LOCK *******************\n  //\n  \n  function setLock(uint128 boardId, uint128 slot, uint256 unlockTime) public {\n    require(_msgSender() == _contractOwner, \"Only owner can update token lock\");\n\n    uint256 tokenId = _tokenData[boardId][slot].tokenId;\n    _tokenIdInfo[tokenId].unlockTime = unlockTime;\n  }\n\n  function isTokenLocked(uint256 tokenId) public view returns (bool) {\n    return _tokenIdInfo[tokenId].unlockTime > block.timestamp;\n  }\n\n  function transferFrom(address from, address to, uint256 tokenId) public virtual override {\n    require(_isApprovedOrOwner(_msgSender(), tokenId), \"ERC721: transfer caller is not owner nor approved\");\n    require(isTokenLocked(tokenId) == false, \"Token still locked\");\n\n    _transfer(from, to, tokenId);\n  }\n\n  function safeTransferFrom(address from, address to, uint256 tokenId, bytes memory _data) public virtual override {\n    require(_isApprovedOrOwner(_msgSender(), tokenId), \"ERC721: transfer caller is not owner nor approved\");\n    require(isTokenLocked(tokenId) == false, \"Token still locked\");\n\n    _safeTransfer(from, to, tokenId, _data);\n  }\n\n}\n",
  "sourcePath": "/Users/nieldeckx/Development/Envoy-Their-Git/Contracts/contracts/Decentraboard.sol",
  "compiler": {
    "name": "solc",
    "version": "0.8.0+commit.c7dfd78e.Emscripten.clang"
  },
  "schemaVersion": "3.4.1",
  "updatedAt": "2021-08-23T12:20:22.637Z",
  "networkType": "ethereum",
  "devdoc": {
    "kind": "dev",
    "methods": {
      "approve(address,uint256)": {
        "details": "See {IERC721-approve}."
      },
      "balanceOf(address)": {
        "details": "See {IERC721-balanceOf}."
      },
      "getApproved(uint256)": {
        "details": "See {IERC721-getApproved}."
      },
      "isApprovedForAll(address,address)": {
        "details": "See {IERC721-isApprovedForAll}."
      },
      "name()": {
        "details": "See {IERC721Metadata-name}."
      },
      "owner()": {
        "details": "Returns the address of the current owner."
      },
      "ownerOf(uint256)": {
        "details": "See {IERC721-ownerOf}."
      },
      "renounceOwnership()": {
        "details": "Leaves the contract without owner. It will not be possible to call `onlyOwner` functions anymore. Can only be called by the current owner. NOTE: Renouncing ownership will leave the contract without an owner, thereby removing any functionality that is only available to the owner."
      },
      "safeTransferFrom(address,address,uint256)": {
        "details": "See {IERC721-safeTransferFrom}."
      },
      "safeTransferFrom(address,address,uint256,bytes)": {
        "details": "See {IERC721-safeTransferFrom}."
      },
      "setApprovalForAll(address,bool)": {
        "details": "See {IERC721-setApprovalForAll}."
      },
      "supportsInterface(bytes4)": {
        "details": "See {IERC165-supportsInterface}."
      },
      "symbol()": {
        "details": "See {IERC721Metadata-symbol}."
      },
      "tokenURI(uint256)": {
        "details": "See {IERC721Metadata-tokenURI}."
      },
      "transferFrom(address,address,uint256)": {
        "details": "See {IERC721-transferFrom}."
      },
      "transferOwnership(address)": {
        "details": "Transfers ownership of the contract to a new account (`newOwner`). Can only be called by the current owner."
      }
    },
    "version": 1
  },
  "userdoc": {
    "kind": "user",
    "methods": {},
    "version": 1
  }
}