{
  "contractName": "EnvoyBillboard",
  "abi": [
    {
      "inputs": [
        {
          "internalType": "string",
          "name": "name",
          "type": "string"
        },
        {
          "internalType": "string",
          "name": "symbol",
          "type": "string"
        }
      ],
      "stateMutability": "nonpayable",
      "type": "constructor"
    },
    {
      "anonymous": false,
      "inputs": [
        {
          "indexed": true,
          "internalType": "address",
          "name": "owner",
          "type": "address"
        },
        {
          "indexed": true,
          "internalType": "address",
          "name": "approved",
          "type": "address"
        },
        {
          "indexed": true,
          "internalType": "uint256",
          "name": "tokenId",
          "type": "uint256"
        }
      ],
      "name": "Approval",
      "type": "event"
    },
    {
      "anonymous": false,
      "inputs": [
        {
          "indexed": true,
          "internalType": "address",
          "name": "owner",
          "type": "address"
        },
        {
          "indexed": true,
          "internalType": "address",
          "name": "operator",
          "type": "address"
        },
        {
          "indexed": false,
          "internalType": "bool",
          "name": "approved",
          "type": "bool"
        }
      ],
      "name": "ApprovalForAll",
      "type": "event"
    },
    {
      "anonymous": false,
      "inputs": [
        {
          "indexed": true,
          "internalType": "address",
          "name": "previousOwner",
          "type": "address"
        },
        {
          "indexed": true,
          "internalType": "address",
          "name": "newOwner",
          "type": "address"
        }
      ],
      "name": "OwnershipTransferred",
      "type": "event"
    },
    {
      "anonymous": false,
      "inputs": [
        {
          "indexed": true,
          "internalType": "address",
          "name": "from",
          "type": "address"
        },
        {
          "indexed": true,
          "internalType": "address",
          "name": "to",
          "type": "address"
        },
        {
          "indexed": true,
          "internalType": "uint256",
          "name": "tokenId",
          "type": "uint256"
        }
      ],
      "name": "Transfer",
      "type": "event"
    },
    {
      "inputs": [
        {
          "internalType": "uint256",
          "name": "",
          "type": "uint256"
        }
      ],
      "name": "_tokenData",
      "outputs": [
        {
          "internalType": "string",
          "name": "image",
          "type": "string"
        },
        {
          "internalType": "string",
          "name": "city",
          "type": "string"
        },
        {
          "internalType": "string",
          "name": "redirectUrl",
          "type": "string"
        },
        {
          "internalType": "string",
          "name": "adImage",
          "type": "string"
        },
        {
          "internalType": "bool",
          "name": "status",
          "type": "bool"
        },
        {
          "internalType": "string",
          "name": "ownerName",
          "type": "string"
        }
      ],
      "stateMutability": "view",
      "type": "function",
      "constant": true
    },
    {
      "inputs": [
        {
          "internalType": "address",
          "name": "to",
          "type": "address"
        },
        {
          "internalType": "uint256",
          "name": "tokenId",
          "type": "uint256"
        }
      ],
      "name": "approve",
      "outputs": [],
      "stateMutability": "nonpayable",
      "type": "function"
    },
    {
      "inputs": [
        {
          "internalType": "address",
          "name": "owner",
          "type": "address"
        }
      ],
      "name": "balanceOf",
      "outputs": [
        {
          "internalType": "uint256",
          "name": "",
          "type": "uint256"
        }
      ],
      "stateMutability": "view",
      "type": "function",
      "constant": true
    },
    {
      "inputs": [
        {
          "internalType": "uint256",
          "name": "tokenId",
          "type": "uint256"
        }
      ],
      "name": "getApproved",
      "outputs": [
        {
          "internalType": "address",
          "name": "",
          "type": "address"
        }
      ],
      "stateMutability": "view",
      "type": "function",
      "constant": true
    },
    {
      "inputs": [
        {
          "internalType": "address",
          "name": "owner",
          "type": "address"
        },
        {
          "internalType": "address",
          "name": "operator",
          "type": "address"
        }
      ],
      "name": "isApprovedForAll",
      "outputs": [
        {
          "internalType": "bool",
          "name": "",
          "type": "bool"
        }
      ],
      "stateMutability": "view",
      "type": "function",
      "constant": true
    },
    {
      "inputs": [],
      "name": "name",
      "outputs": [
        {
          "internalType": "string",
          "name": "",
          "type": "string"
        }
      ],
      "stateMutability": "view",
      "type": "function",
      "constant": true
    },
    {
      "inputs": [],
      "name": "owner",
      "outputs": [
        {
          "internalType": "address",
          "name": "",
          "type": "address"
        }
      ],
      "stateMutability": "view",
      "type": "function",
      "constant": true
    },
    {
      "inputs": [
        {
          "internalType": "uint256",
          "name": "tokenId",
          "type": "uint256"
        }
      ],
      "name": "ownerOf",
      "outputs": [
        {
          "internalType": "address",
          "name": "",
          "type": "address"
        }
      ],
      "stateMutability": "view",
      "type": "function",
      "constant": true
    },
    {
      "inputs": [],
      "name": "renounceOwnership",
      "outputs": [],
      "stateMutability": "nonpayable",
      "type": "function"
    },
    {
      "inputs": [
        {
          "internalType": "address",
          "name": "from",
          "type": "address"
        },
        {
          "internalType": "address",
          "name": "to",
          "type": "address"
        },
        {
          "internalType": "uint256",
          "name": "tokenId",
          "type": "uint256"
        }
      ],
      "name": "safeTransferFrom",
      "outputs": [],
      "stateMutability": "nonpayable",
      "type": "function"
    },
    {
      "inputs": [
        {
          "internalType": "address",
          "name": "from",
          "type": "address"
        },
        {
          "internalType": "address",
          "name": "to",
          "type": "address"
        },
        {
          "internalType": "uint256",
          "name": "tokenId",
          "type": "uint256"
        },
        {
          "internalType": "bytes",
          "name": "_data",
          "type": "bytes"
        }
      ],
      "name": "safeTransferFrom",
      "outputs": [],
      "stateMutability": "nonpayable",
      "type": "function"
    },
    {
      "inputs": [
        {
          "internalType": "address",
          "name": "operator",
          "type": "address"
        },
        {
          "internalType": "bool",
          "name": "approved",
          "type": "bool"
        }
      ],
      "name": "setApprovalForAll",
      "outputs": [],
      "stateMutability": "nonpayable",
      "type": "function"
    },
    {
      "inputs": [
        {
          "internalType": "bytes4",
          "name": "interfaceId",
          "type": "bytes4"
        }
      ],
      "name": "supportsInterface",
      "outputs": [
        {
          "internalType": "bool",
          "name": "",
          "type": "bool"
        }
      ],
      "stateMutability": "view",
      "type": "function",
      "constant": true
    },
    {
      "inputs": [],
      "name": "symbol",
      "outputs": [
        {
          "internalType": "string",
          "name": "",
          "type": "string"
        }
      ],
      "stateMutability": "view",
      "type": "function",
      "constant": true
    },
    {
      "inputs": [
        {
          "internalType": "address",
          "name": "from",
          "type": "address"
        },
        {
          "internalType": "address",
          "name": "to",
          "type": "address"
        },
        {
          "internalType": "uint256",
          "name": "tokenId",
          "type": "uint256"
        }
      ],
      "name": "transferFrom",
      "outputs": [],
      "stateMutability": "nonpayable",
      "type": "function"
    },
    {
      "inputs": [
        {
          "internalType": "address",
          "name": "newOwner",
          "type": "address"
        }
      ],
      "name": "transferOwnership",
      "outputs": [],
      "stateMutability": "nonpayable",
      "type": "function"
    },
    {
      "inputs": [
        {
          "internalType": "uint256",
          "name": "tokenId",
          "type": "uint256"
        }
      ],
      "name": "tokenURI",
      "outputs": [
        {
          "internalType": "string",
          "name": "",
          "type": "string"
        }
      ],
      "stateMutability": "view",
      "type": "function",
      "constant": true
    },
    {
      "inputs": [
        {
          "internalType": "uint256",
          "name": "tokenId",
          "type": "uint256"
        },
        {
          "internalType": "string",
          "name": "adImage",
          "type": "string"
        },
        {
          "internalType": "string",
          "name": "redirectUrl",
          "type": "string"
        }
      ],
      "name": "setMetaData",
      "outputs": [],
      "stateMutability": "nonpayable",
      "type": "function"
    },
    {
      "inputs": [
        {
          "internalType": "uint256",
          "name": "tokenId",
          "type": "uint256"
        },
        {
          "internalType": "string",
          "name": "adImage",
          "type": "string"
        }
      ],
      "name": "setAdImage",
      "outputs": [],
      "stateMutability": "nonpayable",
      "type": "function"
    },
    {
      "inputs": [
        {
          "internalType": "uint256",
          "name": "tokenId",
          "type": "uint256"
        },
        {
          "internalType": "string",
          "name": "redirectUrl",
          "type": "string"
        }
      ],
      "name": "setRedirectUrl",
      "outputs": [],
      "stateMutability": "nonpayable",
      "type": "function"
    }
  ],
  "bytecode": "0x60806040523480156200001157600080fd5b5060405162003afd38038062003afd8339818101604052810190620000379190620007c5565b818181600090805190602001906200005192919062000660565b5080600190805190602001906200006a92919062000660565b5050506200008d62000081620000da60201b60201c565b620000e260201b60201c565b60005b6064811015620000d157620000bb620000ae620000da60201b60201c565b82620001a860201b60201c565b8080620000c89062000c08565b91505062000090565b50505062000d0e565b600033905090565b6000600660009054906101000a900473ffffffffffffffffffffffffffffffffffffffff16905081600660006101000a81548173ffffffffffffffffffffffffffffffffffffffff021916908373ffffffffffffffffffffffffffffffffffffffff1602179055508173ffffffffffffffffffffffffffffffffffffffff168173ffffffffffffffffffffffffffffffffffffffff167f8be0079c531659141344cd1fd0a4f28419497f9722a3daafe3b4186f6b6457e060405160405180910390a35050565b620001ca828260405180602001604052806000815250620001ce60201b60201c565b5050565b620001e083836200023c60201b60201c565b620001f560008484846200042260201b60201c565b62000237576040517f08c379a00000000000000000000000000000000000000000000000000000000081526004016200022e90620009db565b60405180910390fd5b505050565b600073ffffffffffffffffffffffffffffffffffffffff168273ffffffffffffffffffffffffffffffffffffffff161415620002af576040517f08c379a0000000000000000000000000000000000000000000000000000000008152600401620002a69062000a1f565b60405180910390fd5b620002c081620005dc60201b60201c565b1562000303576040517f08c379a0000000000000000000000000000000000000000000000000000000008152600401620002fa90620009fd565b60405180910390fd5b62000317600083836200064860201b60201c565b6001600360008473ffffffffffffffffffffffffffffffffffffffff1673ffffffffffffffffffffffffffffffffffffffff168152602001908152602001600020600082825462000369919062000ad5565b92505081905550816002600083815260200190815260200160002060006101000a81548173ffffffffffffffffffffffffffffffffffffffff021916908373ffffffffffffffffffffffffffffffffffffffff160217905550808273ffffffffffffffffffffffffffffffffffffffff16600073ffffffffffffffffffffffffffffffffffffffff167fddf252ad1be2c89b69c2b068fc378daa952ba7f163c4a11628f55a4df523b3ef60405160405180910390a45050565b6000620004508473ffffffffffffffffffffffffffffffffffffffff166200064d60201b6200147d1760201c565b15620005cf578373ffffffffffffffffffffffffffffffffffffffff1663150b7a0262000482620000da60201b60201c565b8786866040518563ffffffff1660e01b8152600401620004a6949392919062000987565b602060405180830381600087803b158015620004c157600080fd5b505af1925050508015620004f557506040513d601f19601f82011682018060405250810190620004f2919062000799565b60015b6200057e573d806000811462000528576040519150601f19603f3d011682016040523d82523d6000602084013e6200052d565b606091505b5060008151141562000576576040517f08c379a00000000000000000000000000000000000000000000000000000000081526004016200056d90620009db565b60405180910390fd5b805181602001fd5b63150b7a0260e01b7bffffffffffffffffffffffffffffffffffffffffffffffffffffffff1916817bffffffffffffffffffffffffffffffffffffffffffffffffffffffff191614915050620005d4565b600190505b949350505050565b60008073ffffffffffffffffffffffffffffffffffffffff166002600084815260200190815260200160002060009054906101000a900473ffffffffffffffffffffffffffffffffffffffff1673ffffffffffffffffffffffffffffffffffffffff1614159050919050565b505050565b600080823b905060008111915050919050565b8280546200066e9062000bd2565b90600052602060002090601f016020900481019282620006925760008555620006de565b82601f10620006ad57805160ff1916838001178555620006de565b82800160010185558215620006de579182015b82811115620006dd578251825591602001919060010190620006c0565b5b509050620006ed9190620006f1565b5090565b5b808211156200070c576000816000905550600101620006f2565b5090565b600062000727620007218462000a75565b62000a41565b9050828152602081018484840111156200074057600080fd5b6200074d84828562000b9c565b509392505050565b600081519050620007668162000cf4565b92915050565b600082601f8301126200077e57600080fd5b81516200079084826020860162000710565b91505092915050565b600060208284031215620007ac57600080fd5b6000620007bc8482850162000755565b91505092915050565b60008060408385031215620007d957600080fd5b600083015167ffffffffffffffff811115620007f457600080fd5b62000802858286016200076c565b925050602083015167ffffffffffffffff8111156200082057600080fd5b6200082e858286016200076c565b9150509250929050565b620008438162000b32565b82525050565b6000620008568262000aa8565b62000862818562000ab3565b93506200087481856020860162000b9c565b6200087f8162000ce3565b840191505092915050565b60006200089960328362000ac4565b91507f4552433732313a207472616e7366657220746f206e6f6e20455243373231526560008301527f63656976657220696d706c656d656e74657200000000000000000000000000006020830152604082019050919050565b600062000901601c8362000ac4565b91507f4552433732313a20746f6b656e20616c7265616479206d696e746564000000006000830152602082019050919050565b60006200094360208362000ac4565b91507f4552433732313a206d696e7420746f20746865207a65726f20616464726573736000830152602082019050919050565b620009818162000b92565b82525050565b60006080820190506200099e600083018762000838565b620009ad602083018662000838565b620009bc604083018562000976565b8181036060830152620009d0818462000849565b905095945050505050565b60006020820190508181036000830152620009f6816200088a565b9050919050565b6000602082019050818103600083015262000a1881620008f2565b9050919050565b6000602082019050818103600083015262000a3a8162000934565b9050919050565b6000604051905081810181811067ffffffffffffffff8211171562000a6b5762000a6a62000cb4565b5b8060405250919050565b600067ffffffffffffffff82111562000a935762000a9262000cb4565b5b601f19601f8301169050602081019050919050565b600081519050919050565b600082825260208201905092915050565b600082825260208201905092915050565b600062000ae28262000b92565b915062000aef8362000b92565b9250827fffffffffffffffffffffffffffffffffffffffffffffffffffffffffffffffff0382111562000b275762000b2662000c56565b5b828201905092915050565b600062000b3f8262000b72565b9050919050565b60007fffffffff0000000000000000000000000000000000000000000000000000000082169050919050565b600073ffffffffffffffffffffffffffffffffffffffff82169050919050565b6000819050919050565b60005b8381101562000bbc57808201518184015260208101905062000b9f565b8381111562000bcc576000848401525b50505050565b6000600282049050600182168062000beb57607f821691505b6020821081141562000c025762000c0162000c85565b5b50919050565b600062000c158262000b92565b91507fffffffffffffffffffffffffffffffffffffffffffffffffffffffffffffffff82141562000c4b5762000c4a62000c56565b5b600182019050919050565b7f4e487b7100000000000000000000000000000000000000000000000000000000600052601160045260246000fd5b7f4e487b7100000000000000000000000000000000000000000000000000000000600052602260045260246000fd5b7f4e487b7100000000000000000000000000000000000000000000000000000000600052604160045260246000fd5b6000601f19601f8301169050919050565b62000cff8162000b46565b811462000d0b57600080fd5b50565b612ddf8062000d1e6000396000f3fe608060405234801561001057600080fd5b506004361061012c5760003560e01c8063715018a6116100ad578063b88d4fde11610071578063b88d4fde14610332578063c87b56dd1461034e578063d159f0121461037e578063e985e9c51461039a578063f2fde38b146103ca5761012c565b8063715018a6146102b45780638da5cb5b146102be57806395d89b41146102dc578063a22cb465146102fa578063b14084d2146103165761012c565b80632c2cdd60116100f45780632c2cdd60146101e757806342842e0e1461021c5780636352211e1461023857806368f25a3c1461026857806370a08231146102845761012c565b806301ffc9a71461013157806306fdde0314610161578063081812fc1461017f578063095ea7b3146101af57806323b872dd146101cb575b600080fd5b61014b60048036038101906101469190611fa2565b6103e6565b6040516101589190612798565b60405180910390f35b6101696104c8565b60405161017691906127b3565b60405180910390f35b61019960048036038101906101949190611ff4565b61055a565b6040516101a69190612731565b60405180910390f35b6101c960048036038101906101c49190611f66565b6105df565b005b6101e560048036038101906101e09190611e60565b6106f7565b005b61020160048036038101906101fc9190611ff4565b610757565b604051610213969594939291906127d5565b60405180910390f35b61023660048036038101906102319190611e60565b610a48565b005b610252600480360381019061024d9190611ff4565b610a68565b60405161025f9190612731565b60405180910390f35b610282600480360381019061027d919061201d565b610b1a565b005b61029e60048036038101906102999190611dfb565b610c0e565b6040516102ab9190612a59565b60405180910390f35b6102bc610cc6565b005b6102c6610d4e565b6040516102d39190612731565b60405180910390f35b6102e4610d78565b6040516102f191906127b3565b60405180910390f35b610314600480360381019061030f9190611f2a565b610e0a565b005b610330600480360381019061032b919061201d565b610f8b565b005b61034c60048036038101906103479190611eaf565b61107f565b005b61036860048036038101906103639190611ff4565b6110e1565b60405161037591906127b3565b60405180910390f35b61039860048036038101906103939190612071565b6111d1565b005b6103b460048036038101906103af9190611e24565b6112f1565b6040516103c19190612798565b60405180910390f35b6103e460048036038101906103df9190611dfb565b611385565b005b60007f80ac58cd000000000000000000000000000000000000000000000000000000007bffffffffffffffffffffffffffffffffffffffffffffffffffffffff1916827bffffffffffffffffffffffffffffffffffffffffffffffffffffffff191614806104b157507f5b5e139f000000000000000000000000000000000000000000000000000000007bffffffffffffffffffffffffffffffffffffffffffffffffffffffff1916827bffffffffffffffffffffffffffffffffffffffffffffffffffffffff1916145b806104c157506104c082611490565b5b9050919050565b6060600080546104d790612c7d565b80601f016020809104026020016040519081016040528092919081815260200182805461050390612c7d565b80156105505780601f1061052557610100808354040283529160200191610550565b820191906000526020600020905b81548152906001019060200180831161053357829003601f168201915b5050505050905090565b6000610565826114fa565b6105a4576040517f08c379a000000000000000000000000000000000000000000000000000000000815260040161059b90612999565b60405180910390fd5b6004600083815260200190815260200160002060009054906101000a900473ffffffffffffffffffffffffffffffffffffffff169050919050565b60006105ea82610a68565b90508073ffffffffffffffffffffffffffffffffffffffff168373ffffffffffffffffffffffffffffffffffffffff16141561065b576040517f08c379a000000000000000000000000000000000000000000000000000000000815260040161065290612a19565b60405180910390fd5b8073ffffffffffffffffffffffffffffffffffffffff1661067a611566565b73ffffffffffffffffffffffffffffffffffffffff1614806106a957506106a8816106a3611566565b6112f1565b5b6106e8576040517f08c379a00000000000000000000000000000000000000000000000000000000081526004016106df90612939565b60405180910390fd5b6106f2838361156e565b505050565b610708610702611566565b82611627565b610747576040517f08c379a000000000000000000000000000000000000000000000000000000000815260040161073e90612a39565b60405180910390fd5b610752838383611705565b505050565b600760205280600052604060002060009150905080600001805461077a90612c7d565b80601f01602080910402602001604051908101604052809291908181526020018280546107a690612c7d565b80156107f35780601f106107c8576101008083540402835291602001916107f3565b820191906000526020600020905b8154815290600101906020018083116107d657829003601f168201915b50505050509080600101805461080890612c7d565b80601f016020809104026020016040519081016040528092919081815260200182805461083490612c7d565b80156108815780601f1061085657610100808354040283529160200191610881565b820191906000526020600020905b81548152906001019060200180831161086457829003601f168201915b50505050509080600201805461089690612c7d565b80601f01602080910402602001604051908101604052809291908181526020018280546108c290612c7d565b801561090f5780601f106108e45761010080835404028352916020019161090f565b820191906000526020600020905b8154815290600101906020018083116108f257829003601f168201915b50505050509080600301805461092490612c7d565b80601f016020809104026020016040519081016040528092919081815260200182805461095090612c7d565b801561099d5780601f106109725761010080835404028352916020019161099d565b820191906000526020600020905b81548152906001019060200180831161098057829003601f168201915b5050505050908060040160009054906101000a900460ff16908060050180546109c590612c7d565b80601f01602080910402602001604051908101604052809291908181526020018280546109f190612c7d565b8015610a3e5780601f10610a1357610100808354040283529160200191610a3e565b820191906000526020600020905b815481529060010190602001808311610a2157829003601f168201915b5050505050905086565b610a638383836040518060200160405280600081525061107f565b505050565b6000806002600084815260200190815260200160002060009054906101000a900473ffffffffffffffffffffffffffffffffffffffff169050600073ffffffffffffffffffffffffffffffffffffffff168173ffffffffffffffffffffffffffffffffffffffff161415610b11576040517f08c379a0000000000000000000000000000000000000000000000000000000008152600401610b0890612979565b60405180910390fd5b80915050919050565b610b23826114fa565b610b62576040517f08c379a0000000000000000000000000000000000000000000000000000000008152600401610b59906129f9565b60405180910390fd5b610b6b82610a68565b73ffffffffffffffffffffffffffffffffffffffff16610b89611566565b73ffffffffffffffffffffffffffffffffffffffff1614610bdf576040517f08c379a0000000000000000000000000000000000000000000000000000000008152600401610bd690612919565b60405180910390fd5b80600760008481526020019081526020016000206003019080519060200190610c09929190611c1f565b505050565b60008073ffffffffffffffffffffffffffffffffffffffff168273ffffffffffffffffffffffffffffffffffffffff161415610c7f576040517f08c379a0000000000000000000000000000000000000000000000000000000008152600401610c7690612959565b60405180910390fd5b600360008373ffffffffffffffffffffffffffffffffffffffff1673ffffffffffffffffffffffffffffffffffffffff168152602001908152602001600020549050919050565b610cce611566565b73ffffffffffffffffffffffffffffffffffffffff16610cec610d4e565b73ffffffffffffffffffffffffffffffffffffffff1614610d42576040517f08c379a0000000000000000000000000000000000000000000000000000000008152600401610d39906129b9565b60405180910390fd5b610d4c6000611961565b565b6000600660009054906101000a900473ffffffffffffffffffffffffffffffffffffffff16905090565b606060018054610d8790612c7d565b80601f0160208091040260200160405190810160405280929190818152602001828054610db390612c7d565b8015610e005780601f10610dd557610100808354040283529160200191610e00565b820191906000526020600020905b815481529060010190602001808311610de357829003601f168201915b5050505050905090565b610e12611566565b73ffffffffffffffffffffffffffffffffffffffff168273ffffffffffffffffffffffffffffffffffffffff161415610e80576040517f08c379a0000000000000000000000000000000000000000000000000000000008152600401610e77906128d9565b60405180910390fd5b8060056000610e8d611566565b73ffffffffffffffffffffffffffffffffffffffff1673ffffffffffffffffffffffffffffffffffffffff16815260200190815260200160002060008473ffffffffffffffffffffffffffffffffffffffff1673ffffffffffffffffffffffffffffffffffffffff16815260200190815260200160002060006101000a81548160ff0219169083151502179055508173ffffffffffffffffffffffffffffffffffffffff16610f3a611566565b73ffffffffffffffffffffffffffffffffffffffff167f17307eab39ab6107e8899845ad3d59bd9653f200f220920489ca2b5937696c3183604051610f7f9190612798565b60405180910390a35050565b610f94826114fa565b610fd3576040517f08c379a0000000000000000000000000000000000000000000000000000000008152600401610fca906129f9565b60405180910390fd5b610fdc82610a68565b73ffffffffffffffffffffffffffffffffffffffff16610ffa611566565b73ffffffffffffffffffffffffffffffffffffffff1614611050576040517f08c379a000000000000000000000000000000000000000000000000000000000815260040161104790612919565b60405180910390fd5b8060076000848152602001908152602001600020600201908051906020019061107a929190611c1f565b505050565b61109061108a611566565b83611627565b6110cf576040517f08c379a00000000000000000000000000000000000000000000000000000000081526004016110c690612a39565b60405180910390fd5b6110db84848484611a27565b50505050565b60606110ec826114fa565b61112b576040517f08c379a000000000000000000000000000000000000000000000000000000000815260040161112290612859565b60405180910390fd5b60076000838152602001908152602001600020600301805461114c90612c7d565b80601f016020809104026020016040519081016040528092919081815260200182805461117890612c7d565b80156111c55780601f1061119a576101008083540402835291602001916111c5565b820191906000526020600020905b8154815290600101906020018083116111a857829003601f168201915b50505050509050919050565b6111da836114fa565b611219576040517f08c379a0000000000000000000000000000000000000000000000000000000008152600401611210906129f9565b60405180910390fd5b61122283610a68565b73ffffffffffffffffffffffffffffffffffffffff16611240611566565b73ffffffffffffffffffffffffffffffffffffffff1614611296576040517f08c379a000000000000000000000000000000000000000000000000000000000815260040161128d90612919565b60405180910390fd5b816007600085815260200190815260200160002060030190805190602001906112c0929190611c1f565b50806007600085815260200190815260200160002060020190805190602001906112eb929190611c1f565b50505050565b6000600560008473ffffffffffffffffffffffffffffffffffffffff1673ffffffffffffffffffffffffffffffffffffffff16815260200190815260200160002060008373ffffffffffffffffffffffffffffffffffffffff1673ffffffffffffffffffffffffffffffffffffffff16815260200190815260200160002060009054906101000a900460ff16905092915050565b61138d611566565b73ffffffffffffffffffffffffffffffffffffffff166113ab610d4e565b73ffffffffffffffffffffffffffffffffffffffff1614611401576040517f08c379a00000000000000000000000000000000000000000000000000000000081526004016113f8906129b9565b60405180910390fd5b600073ffffffffffffffffffffffffffffffffffffffff168173ffffffffffffffffffffffffffffffffffffffff161415611471576040517f08c379a000000000000000000000000000000000000000000000000000000000815260040161146890612899565b60405180910390fd5b61147a81611961565b50565b600080823b905060008111915050919050565b60007f01ffc9a7000000000000000000000000000000000000000000000000000000007bffffffffffffffffffffffffffffffffffffffffffffffffffffffff1916827bffffffffffffffffffffffffffffffffffffffffffffffffffffffff1916149050919050565b60008073ffffffffffffffffffffffffffffffffffffffff166002600084815260200190815260200160002060009054906101000a900473ffffffffffffffffffffffffffffffffffffffff1673ffffffffffffffffffffffffffffffffffffffff1614159050919050565b600033905090565b816004600083815260200190815260200160002060006101000a81548173ffffffffffffffffffffffffffffffffffffffff021916908373ffffffffffffffffffffffffffffffffffffffff160217905550808273ffffffffffffffffffffffffffffffffffffffff166115e183610a68565b73ffffffffffffffffffffffffffffffffffffffff167f8c5be1e5ebec7d5bd14f71427d1e84f3dd0314c0f7b2291e5b200ac8c7c3b92560405160405180910390a45050565b6000611632826114fa565b611671576040517f08c379a0000000000000000000000000000000000000000000000000000000008152600401611668906128f9565b60405180910390fd5b600061167c83610a68565b90508073ffffffffffffffffffffffffffffffffffffffff168473ffffffffffffffffffffffffffffffffffffffff1614806116eb57508373ffffffffffffffffffffffffffffffffffffffff166116d38461055a565b73ffffffffffffffffffffffffffffffffffffffff16145b806116fc57506116fb81856112f1565b5b91505092915050565b8273ffffffffffffffffffffffffffffffffffffffff1661172582610a68565b73ffffffffffffffffffffffffffffffffffffffff161461177b576040517f08c379a0000000000000000000000000000000000000000000000000000000008152600401611772906129d9565b60405180910390fd5b600073ffffffffffffffffffffffffffffffffffffffff168273ffffffffffffffffffffffffffffffffffffffff1614156117eb576040517f08c379a00000000000000000000000000000000000000000000000000000000081526004016117e2906128b9565b60405180910390fd5b6117f6838383611a83565b61180160008261156e565b6001600360008573ffffffffffffffffffffffffffffffffffffffff1673ffffffffffffffffffffffffffffffffffffffff16815260200190815260200160002060008282546118519190612b93565b925050819055506001600360008473ffffffffffffffffffffffffffffffffffffffff1673ffffffffffffffffffffffffffffffffffffffff16815260200190815260200160002060008282546118a89190612b3d565b92505081905550816002600083815260200190815260200160002060006101000a81548173ffffffffffffffffffffffffffffffffffffffff021916908373ffffffffffffffffffffffffffffffffffffffff160217905550808273ffffffffffffffffffffffffffffffffffffffff168473ffffffffffffffffffffffffffffffffffffffff167fddf252ad1be2c89b69c2b068fc378daa952ba7f163c4a11628f55a4df523b3ef60405160405180910390a4505050565b6000600660009054906101000a900473ffffffffffffffffffffffffffffffffffffffff16905081600660006101000a81548173ffffffffffffffffffffffffffffffffffffffff021916908373ffffffffffffffffffffffffffffffffffffffff1602179055508173ffffffffffffffffffffffffffffffffffffffff168173ffffffffffffffffffffffffffffffffffffffff167f8be0079c531659141344cd1fd0a4f28419497f9722a3daafe3b4186f6b6457e060405160405180910390a35050565b611a32848484611705565b611a3e84848484611a88565b611a7d576040517f08c379a0000000000000000000000000000000000000000000000000000000008152600401611a7490612879565b60405180910390fd5b50505050565b505050565b6000611aa98473ffffffffffffffffffffffffffffffffffffffff1661147d565b15611c12578373ffffffffffffffffffffffffffffffffffffffff1663150b7a02611ad2611566565b8786866040518563ffffffff1660e01b8152600401611af4949392919061274c565b602060405180830381600087803b158015611b0e57600080fd5b505af1925050508015611b3f57506040513d601f19601f82011682018060405250810190611b3c9190611fcb565b60015b611bc2573d8060008114611b6f576040519150601f19603f3d011682016040523d82523d6000602084013e611b74565b606091505b50600081511415611bba576040517f08c379a0000000000000000000000000000000000000000000000000000000008152600401611bb190612879565b60405180910390fd5b805181602001fd5b63150b7a0260e01b7bffffffffffffffffffffffffffffffffffffffffffffffffffffffff1916817bffffffffffffffffffffffffffffffffffffffffffffffffffffffff191614915050611c17565b600190505b949350505050565b828054611c2b90612c7d565b90600052602060002090601f016020900481019282611c4d5760008555611c94565b82601f10611c6657805160ff1916838001178555611c94565b82800160010185558215611c94579182015b82811115611c93578251825591602001919060010190611c78565b5b509050611ca19190611ca5565b5090565b5b80821115611cbe576000816000905550600101611ca6565b5090565b6000611cd5611cd084612aa5565b612a74565b905082815260208101848484011115611ced57600080fd5b611cf8848285612c3b565b509392505050565b6000611d13611d0e84612ad5565b612a74565b905082815260208101848484011115611d2b57600080fd5b611d36848285612c3b565b509392505050565b600081359050611d4d81612d4d565b92915050565b600081359050611d6281612d64565b92915050565b600081359050611d7781612d7b565b92915050565b600081519050611d8c81612d7b565b92915050565b600082601f830112611da357600080fd5b8135611db3848260208601611cc2565b91505092915050565b600082601f830112611dcd57600080fd5b8135611ddd848260208601611d00565b91505092915050565b600081359050611df581612d92565b92915050565b600060208284031215611e0d57600080fd5b6000611e1b84828501611d3e565b91505092915050565b60008060408385031215611e3757600080fd5b6000611e4585828601611d3e565b9250506020611e5685828601611d3e565b9150509250929050565b600080600060608486031215611e7557600080fd5b6000611e8386828701611d3e565b9350506020611e9486828701611d3e565b9250506040611ea586828701611de6565b9150509250925092565b60008060008060808587031215611ec557600080fd5b6000611ed387828801611d3e565b9450506020611ee487828801611d3e565b9350506040611ef587828801611de6565b925050606085013567ffffffffffffffff811115611f1257600080fd5b611f1e87828801611d92565b91505092959194509250565b60008060408385031215611f3d57600080fd5b6000611f4b85828601611d3e565b9250506020611f5c85828601611d53565b9150509250929050565b60008060408385031215611f7957600080fd5b6000611f8785828601611d3e565b9250506020611f9885828601611de6565b9150509250929050565b600060208284031215611fb457600080fd5b6000611fc284828501611d68565b91505092915050565b600060208284031215611fdd57600080fd5b6000611feb84828501611d7d565b91505092915050565b60006020828403121561200657600080fd5b600061201484828501611de6565b91505092915050565b6000806040838503121561203057600080fd5b600061203e85828601611de6565b925050602083013567ffffffffffffffff81111561205b57600080fd5b61206785828601611dbc565b9150509250929050565b60008060006060848603121561208657600080fd5b600061209486828701611de6565b935050602084013567ffffffffffffffff8111156120b157600080fd5b6120bd86828701611dbc565b925050604084013567ffffffffffffffff8111156120da57600080fd5b6120e686828701611dbc565b9150509250925092565b6120f981612bc7565b82525050565b61210881612bd9565b82525050565b600061211982612b05565b6121238185612b1b565b9350612133818560208601612c4a565b61213c81612d3c565b840191505092915050565b600061215282612b10565b61215c8185612b2c565b935061216c818560208601612c4a565b61217581612d3c565b840191505092915050565b600061218d601f83612b2c565b91507f55524920717565727920666f72206e6f6e6578697374656e7420746f6b656e006000830152602082019050919050565b60006121cd603283612b2c565b91507f4552433732313a207472616e7366657220746f206e6f6e20455243373231526560008301527f63656976657220696d706c656d656e74657200000000000000000000000000006020830152604082019050919050565b6000612233602683612b2c565b91507f4f776e61626c653a206e6577206f776e657220697320746865207a65726f206160008301527f64647265737300000000000000000000000000000000000000000000000000006020830152604082019050919050565b6000612299602483612b2c565b91507f4552433732313a207472616e7366657220746f20746865207a65726f2061646460008301527f72657373000000000000000000000000000000000000000000000000000000006020830152604082019050919050565b60006122ff601983612b2c565b91507f4552433732313a20617070726f766520746f2063616c6c6572000000000000006000830152602082019050919050565b600061233f602c83612b2c565b91507f4552433732313a206f70657261746f7220717565727920666f72206e6f6e657860008301527f697374656e7420746f6b656e00000000000000000000000000000000000000006020830152604082019050919050565b60006123a5601983612b2c565b91507f4f6e6c79206f776e65722063616e2075706461746520555249000000000000006000830152602082019050919050565b60006123e5603883612b2c565b91507f4552433732313a20617070726f76652063616c6c6572206973206e6f74206f7760008301527f6e6572206e6f7220617070726f76656420666f7220616c6c00000000000000006020830152604082019050919050565b600061244b602a83612b2c565b91507f4552433732313a2062616c616e636520717565727920666f7220746865207a6560008301527f726f2061646472657373000000000000000000000000000000000000000000006020830152604082019050919050565b60006124b1602983612b2c565b91507f4552433732313a206f776e657220717565727920666f72206e6f6e657869737460008301527f656e7420746f6b656e00000000000000000000000000000000000000000000006020830152604082019050919050565b6000612517602c83612b2c565b91507f4552433732313a20617070726f76656420717565727920666f72206e6f6e657860008301527f697374656e7420746f6b656e00000000000000000000000000000000000000006020830152604082019050919050565b600061257d602083612b2c565b91507f4f776e61626c653a2063616c6c6572206973206e6f7420746865206f776e65726000830152602082019050919050565b60006125bd602983612b2c565b91507f4552433732313a207472616e73666572206f6620746f6b656e2074686174206960008301527f73206e6f74206f776e00000000000000000000000000000000000000000000006020830152604082019050919050565b6000612623601c83612b2c565b91507f55524920736574206f66206e6f6e6578697374656e7420746f6b656e000000006000830152602082019050919050565b6000612663602183612b2c565b91507f4552433732313a20617070726f76616c20746f2063757272656e74206f776e6560008301527f72000000000000000000000000000000000000000000000000000000000000006020830152604082019050919050565b60006126c9603183612b2c565b91507f4552433732313a207472616e736665722063616c6c6572206973206e6f74206f60008301527f776e6572206e6f7220617070726f7665640000000000000000000000000000006020830152604082019050919050565b61272b81612c31565b82525050565b600060208201905061274660008301846120f0565b92915050565b600060808201905061276160008301876120f0565b61276e60208301866120f0565b61277b6040830185612722565b818103606083015261278d818461210e565b905095945050505050565b60006020820190506127ad60008301846120ff565b92915050565b600060208201905081810360008301526127cd8184612147565b905092915050565b600060c08201905081810360008301526127ef8189612147565b905081810360208301526128038188612147565b905081810360408301526128178187612147565b9050818103606083015261282b8186612147565b905061283a60808301856120ff565b81810360a083015261284c8184612147565b9050979650505050505050565b6000602082019050818103600083015261287281612180565b9050919050565b60006020820190508181036000830152612892816121c0565b9050919050565b600060208201905081810360008301526128b281612226565b9050919050565b600060208201905081810360008301526128d28161228c565b9050919050565b600060208201905081810360008301526128f2816122f2565b9050919050565b6000602082019050818103600083015261291281612332565b9050919050565b6000602082019050818103600083015261293281612398565b9050919050565b60006020820190508181036000830152612952816123d8565b9050919050565b600060208201905081810360008301526129728161243e565b9050919050565b60006020820190508181036000830152612992816124a4565b9050919050565b600060208201905081810360008301526129b28161250a565b9050919050565b600060208201905081810360008301526129d281612570565b9050919050565b600060208201905081810360008301526129f2816125b0565b9050919050565b60006020820190508181036000830152612a1281612616565b9050919050565b60006020820190508181036000830152612a3281612656565b9050919050565b60006020820190508181036000830152612a52816126bc565b9050919050565b6000602082019050612a6e6000830184612722565b92915050565b6000604051905081810181811067ffffffffffffffff82111715612a9b57612a9a612d0d565b5b8060405250919050565b600067ffffffffffffffff821115612ac057612abf612d0d565b5b601f19601f8301169050602081019050919050565b600067ffffffffffffffff821115612af057612aef612d0d565b5b601f19601f8301169050602081019050919050565b600081519050919050565b600081519050919050565b600082825260208201905092915050565b600082825260208201905092915050565b6000612b4882612c31565b9150612b5383612c31565b9250827fffffffffffffffffffffffffffffffffffffffffffffffffffffffffffffffff03821115612b8857612b87612caf565b5b828201905092915050565b6000612b9e82612c31565b9150612ba983612c31565b925082821015612bbc57612bbb612caf565b5b828203905092915050565b6000612bd282612c11565b9050919050565b60008115159050919050565b60007fffffffff0000000000000000000000000000000000000000000000000000000082169050919050565b600073ffffffffffffffffffffffffffffffffffffffff82169050919050565b6000819050919050565b82818337600083830152505050565b60005b83811015612c68578082015181840152602081019050612c4d565b83811115612c77576000848401525b50505050565b60006002820490506001821680612c9557607f821691505b60208210811415612ca957612ca8612cde565b5b50919050565b7f4e487b7100000000000000000000000000000000000000000000000000000000600052601160045260246000fd5b7f4e487b7100000000000000000000000000000000000000000000000000000000600052602260045260246000fd5b7f4e487b7100000000000000000000000000000000000000000000000000000000600052604160045260246000fd5b6000601f19601f8301169050919050565b612d5681612bc7565b8114612d6157600080fd5b50565b612d6d81612bd9565b8114612d7857600080fd5b50565b612d8481612be5565b8114612d8f57600080fd5b50565b612d9b81612c31565b8114612da657600080fd5b5056fea2646970667358221220daa68c4c7b712c1ad6e882988afb2fea7e4952dc789e3d34fc1922a73e07ce3064736f6c63430008000033",
  "immutableReferences": {},
  "source": "pragma solidity ^0.8.0;\n\nimport \"openzeppelin-solidity/contracts/token/ERC721/ERC721.sol\";\nimport \"openzeppelin-solidity/contracts/access/Ownable.sol\";\nimport \"openzeppelin-solidity/contracts/utils/math/SafeMath.sol\";\n\ncontract EnvoyBillboard is ERC721, Ownable {\n\n  using SafeMath for uint256;\n\n  //\n  // ******************* METADATA STRUCT *******************\n  //\n\n  struct MetaData {\n    string image;\n    string city;\n    string redirectUrl;\n    string adImage;\n    bool status;\n    string ownerName;\n  }\n\n  //\n  // ******************* VARIABLES *******************\n  //\n\n  // MetaData map\n  mapping(uint256 => MetaData) public _tokenData;\n\n\n\n  // URIs\n  mapping(uint256 => string) private _tokenURIs;\n\n  // Images\n  mapping(uint256 => string) private _tokenAdImages;\n\n\n\n\n  //\n  // ******************* SETUP *******************\n  //\n\n  // Constructor\n  constructor (string memory name, string memory symbol) public ERC721(name, symbol) {\n\n    // Mint needed tokens (1000 is too much, too high gas fee)\n    // Need \"mint\" method for external partner\n    for (uint256 i=0; i < 100; i++) {\n      _safeMint(_msgSender(), i);\n    }\n              \n  }\n\n  //\n  // ******************* ERC721 *******************\n  //\n\n  function tokenURI(uint256 tokenId) public view override returns (string memory) {\n    require(_exists(tokenId), \"URI query for nonexistent token\");\n\n    return _tokenData[tokenId].adImage;\n  }\n\n  //\n  // ******************* SETTERS *******************\n  //\n\n  function setMetaData(uint256 tokenId, string memory adImage, string memory redirectUrl) public {\n    require(_exists(tokenId), \"URI set of nonexistent token\");\n    require(_msgSender() == ownerOf(tokenId), \"Only owner can update URI\");\n\n    _tokenData[tokenId].adImage = adImage;\n    _tokenData[tokenId].redirectUrl = redirectUrl;\n  }\n\n  function setAdImage(uint256 tokenId, string memory adImage) public {\n    require(_exists(tokenId), \"URI set of nonexistent token\");\n    require(_msgSender() == ownerOf(tokenId), \"Only owner can update URI\");\n\n    _tokenData[tokenId].adImage = adImage;\n  }\n\n  function setRedirectUrl(uint256 tokenId, string memory redirectUrl) public {\n    require(_exists(tokenId), \"URI set of nonexistent token\");\n    require(_msgSender() == ownerOf(tokenId), \"Only owner can update URI\");\n\n    _tokenData[tokenId].redirectUrl = redirectUrl;\n  }\n\n}\n\n\n",
  "sourcePath": "/Users/nieldeckx/Development/Envoy/Contracts/contracts/EnvoyBillboard.sol",
  "compiler": {
    "name": "solc",
    "version": "0.8.0+commit.c7dfd78e.Emscripten.clang"
  },
  "schemaVersion": "3.4.1",
  "updatedAt": "2021-07-17T13:08:34.558Z",
  "networkType": "ethereum",
  "devdoc": {
    "kind": "dev",
    "methods": {
      "approve(address,uint256)": {
        "details": "See {IERC721-approve}."
      },
      "balanceOf(address)": {
        "details": "See {IERC721-balanceOf}."
      },
      "getApproved(uint256)": {
        "details": "See {IERC721-getApproved}."
      },
      "isApprovedForAll(address,address)": {
        "details": "See {IERC721-isApprovedForAll}."
      },
      "name()": {
        "details": "See {IERC721Metadata-name}."
      },
      "owner()": {
        "details": "Returns the address of the current owner."
      },
      "ownerOf(uint256)": {
        "details": "See {IERC721-ownerOf}."
      },
      "renounceOwnership()": {
        "details": "Leaves the contract without owner. It will not be possible to call `onlyOwner` functions anymore. Can only be called by the current owner. NOTE: Renouncing ownership will leave the contract without an owner, thereby removing any functionality that is only available to the owner."
      },
      "safeTransferFrom(address,address,uint256)": {
        "details": "See {IERC721-safeTransferFrom}."
      },
      "safeTransferFrom(address,address,uint256,bytes)": {
        "details": "See {IERC721-safeTransferFrom}."
      },
      "setApprovalForAll(address,bool)": {
        "details": "See {IERC721-setApprovalForAll}."
      },
      "supportsInterface(bytes4)": {
        "details": "See {IERC165-supportsInterface}."
      },
      "symbol()": {
        "details": "See {IERC721Metadata-symbol}."
      },
      "tokenURI(uint256)": {
        "details": "See {IERC721Metadata-tokenURI}."
      },
      "transferFrom(address,address,uint256)": {
        "details": "See {IERC721-transferFrom}."
      },
      "transferOwnership(address)": {
        "details": "Transfers ownership of the contract to a new account (`newOwner`). Can only be called by the current owner."
      }
    },
    "version": 1
  },
  "userdoc": {
    "kind": "user",
    "methods": {},
    "version": 1
  }
}