{
  "contractName": "EnvoyBillboard",
  "abi": [
    {
      "inputs": [
        {
          "internalType": "string",
          "name": "name",
          "type": "string"
        },
        {
          "internalType": "string",
          "name": "symbol",
          "type": "string"
        }
      ],
      "stateMutability": "nonpayable",
      "type": "constructor"
    },
    {
      "anonymous": false,
      "inputs": [
        {
          "indexed": true,
          "internalType": "address",
          "name": "owner",
          "type": "address"
        },
        {
          "indexed": true,
          "internalType": "address",
          "name": "approved",
          "type": "address"
        },
        {
          "indexed": true,
          "internalType": "uint256",
          "name": "tokenId",
          "type": "uint256"
        }
      ],
      "name": "Approval",
      "type": "event"
    },
    {
      "anonymous": false,
      "inputs": [
        {
          "indexed": true,
          "internalType": "address",
          "name": "owner",
          "type": "address"
        },
        {
          "indexed": true,
          "internalType": "address",
          "name": "operator",
          "type": "address"
        },
        {
          "indexed": false,
          "internalType": "bool",
          "name": "approved",
          "type": "bool"
        }
      ],
      "name": "ApprovalForAll",
      "type": "event"
    },
    {
      "anonymous": false,
      "inputs": [
        {
          "indexed": true,
          "internalType": "address",
          "name": "previousOwner",
          "type": "address"
        },
        {
          "indexed": true,
          "internalType": "address",
          "name": "newOwner",
          "type": "address"
        }
      ],
      "name": "OwnershipTransferred",
      "type": "event"
    },
    {
      "anonymous": false,
      "inputs": [
        {
          "indexed": true,
          "internalType": "address",
          "name": "from",
          "type": "address"
        },
        {
          "indexed": true,
          "internalType": "address",
          "name": "to",
          "type": "address"
        },
        {
          "indexed": true,
          "internalType": "uint256",
          "name": "tokenId",
          "type": "uint256"
        }
      ],
      "name": "Transfer",
      "type": "event"
    },
    {
      "inputs": [
        {
          "internalType": "uint256",
          "name": "",
          "type": "uint256"
        }
      ],
      "name": "_tokenData",
      "outputs": [
        {
          "internalType": "string",
          "name": "image",
          "type": "string"
        },
        {
          "internalType": "string",
          "name": "city",
          "type": "string"
        },
        {
          "internalType": "string",
          "name": "redirectUrl",
          "type": "string"
        },
        {
          "internalType": "string",
          "name": "adImage",
          "type": "string"
        },
        {
          "internalType": "bool",
          "name": "status",
          "type": "bool"
        },
        {
          "internalType": "string",
          "name": "ownerName",
          "type": "string"
        }
      ],
      "stateMutability": "view",
      "type": "function",
      "constant": true
    },
    {
      "inputs": [
        {
          "internalType": "address",
          "name": "to",
          "type": "address"
        },
        {
          "internalType": "uint256",
          "name": "tokenId",
          "type": "uint256"
        }
      ],
      "name": "approve",
      "outputs": [],
      "stateMutability": "nonpayable",
      "type": "function"
    },
    {
      "inputs": [
        {
          "internalType": "address",
          "name": "owner",
          "type": "address"
        }
      ],
      "name": "balanceOf",
      "outputs": [
        {
          "internalType": "uint256",
          "name": "",
          "type": "uint256"
        }
      ],
      "stateMutability": "view",
      "type": "function",
      "constant": true
    },
    {
      "inputs": [
        {
          "internalType": "uint256",
          "name": "tokenId",
          "type": "uint256"
        }
      ],
      "name": "getApproved",
      "outputs": [
        {
          "internalType": "address",
          "name": "",
          "type": "address"
        }
      ],
      "stateMutability": "view",
      "type": "function",
      "constant": true
    },
    {
      "inputs": [
        {
          "internalType": "address",
          "name": "owner",
          "type": "address"
        },
        {
          "internalType": "address",
          "name": "operator",
          "type": "address"
        }
      ],
      "name": "isApprovedForAll",
      "outputs": [
        {
          "internalType": "bool",
          "name": "",
          "type": "bool"
        }
      ],
      "stateMutability": "view",
      "type": "function",
      "constant": true
    },
    {
      "inputs": [],
      "name": "name",
      "outputs": [
        {
          "internalType": "string",
          "name": "",
          "type": "string"
        }
      ],
      "stateMutability": "view",
      "type": "function",
      "constant": true
    },
    {
      "inputs": [],
      "name": "owner",
      "outputs": [
        {
          "internalType": "address",
          "name": "",
          "type": "address"
        }
      ],
      "stateMutability": "view",
      "type": "function",
      "constant": true
    },
    {
      "inputs": [
        {
          "internalType": "uint256",
          "name": "tokenId",
          "type": "uint256"
        }
      ],
      "name": "ownerOf",
      "outputs": [
        {
          "internalType": "address",
          "name": "",
          "type": "address"
        }
      ],
      "stateMutability": "view",
      "type": "function",
      "constant": true
    },
    {
      "inputs": [],
      "name": "renounceOwnership",
      "outputs": [],
      "stateMutability": "nonpayable",
      "type": "function"
    },
    {
      "inputs": [
        {
          "internalType": "address",
          "name": "from",
          "type": "address"
        },
        {
          "internalType": "address",
          "name": "to",
          "type": "address"
        },
        {
          "internalType": "uint256",
          "name": "tokenId",
          "type": "uint256"
        }
      ],
      "name": "safeTransferFrom",
      "outputs": [],
      "stateMutability": "nonpayable",
      "type": "function"
    },
    {
      "inputs": [
        {
          "internalType": "address",
          "name": "from",
          "type": "address"
        },
        {
          "internalType": "address",
          "name": "to",
          "type": "address"
        },
        {
          "internalType": "uint256",
          "name": "tokenId",
          "type": "uint256"
        },
        {
          "internalType": "bytes",
          "name": "_data",
          "type": "bytes"
        }
      ],
      "name": "safeTransferFrom",
      "outputs": [],
      "stateMutability": "nonpayable",
      "type": "function"
    },
    {
      "inputs": [
        {
          "internalType": "address",
          "name": "operator",
          "type": "address"
        },
        {
          "internalType": "bool",
          "name": "approved",
          "type": "bool"
        }
      ],
      "name": "setApprovalForAll",
      "outputs": [],
      "stateMutability": "nonpayable",
      "type": "function"
    },
    {
      "inputs": [
        {
          "internalType": "bytes4",
          "name": "interfaceId",
          "type": "bytes4"
        }
      ],
      "name": "supportsInterface",
      "outputs": [
        {
          "internalType": "bool",
          "name": "",
          "type": "bool"
        }
      ],
      "stateMutability": "view",
      "type": "function",
      "constant": true
    },
    {
      "inputs": [],
      "name": "symbol",
      "outputs": [
        {
          "internalType": "string",
          "name": "",
          "type": "string"
        }
      ],
      "stateMutability": "view",
      "type": "function",
      "constant": true
    },
    {
      "inputs": [
        {
          "internalType": "address",
          "name": "from",
          "type": "address"
        },
        {
          "internalType": "address",
          "name": "to",
          "type": "address"
        },
        {
          "internalType": "uint256",
          "name": "tokenId",
          "type": "uint256"
        }
      ],
      "name": "transferFrom",
      "outputs": [],
      "stateMutability": "nonpayable",
      "type": "function"
    },
    {
      "inputs": [
        {
          "internalType": "address",
          "name": "newOwner",
          "type": "address"
        }
      ],
      "name": "transferOwnership",
      "outputs": [],
      "stateMutability": "nonpayable",
      "type": "function"
    },
    {
      "inputs": [
        {
          "internalType": "address",
          "name": "owner",
          "type": "address"
        }
      ],
      "name": "updateContractOwner",
      "outputs": [],
      "stateMutability": "nonpayable",
      "type": "function"
    },
    {
      "inputs": [
        {
          "internalType": "address",
          "name": "minter",
          "type": "address"
        }
      ],
      "name": "updateContractMinter",
      "outputs": [],
      "stateMutability": "nonpayable",
      "type": "function"
    },
    {
      "inputs": [
        {
          "internalType": "uint256",
          "name": "tokenId",
          "type": "uint256"
        },
        {
          "internalType": "string",
          "name": "image",
          "type": "string"
        },
        {
          "internalType": "string",
          "name": "city",
          "type": "string"
        }
      ],
      "name": "mintToken",
      "outputs": [],
      "stateMutability": "nonpayable",
      "type": "function"
    },
    {
      "inputs": [
        {
          "internalType": "uint256",
          "name": "tokenId",
          "type": "uint256"
        },
        {
          "internalType": "string",
          "name": "image",
          "type": "string"
        },
        {
          "internalType": "string",
          "name": "city",
          "type": "string"
        },
        {
          "internalType": "string",
          "name": "adImage",
          "type": "string"
        },
        {
          "internalType": "string",
          "name": "redirectUrl",
          "type": "string"
        },
        {
          "internalType": "bool",
          "name": "status",
          "type": "bool"
        },
        {
          "internalType": "string",
          "name": "ownerName",
          "type": "string"
        }
      ],
      "name": "mintTokenWithData",
      "outputs": [],
      "stateMutability": "nonpayable",
      "type": "function"
    },
    {
      "inputs": [
        {
          "internalType": "uint256",
          "name": "tokenId",
          "type": "uint256"
        }
      ],
      "name": "tokenURI",
      "outputs": [
        {
          "internalType": "string",
          "name": "",
          "type": "string"
        }
      ],
      "stateMutability": "view",
      "type": "function",
      "constant": true
    },
    {
      "inputs": [
        {
          "internalType": "uint256",
          "name": "tokenId",
          "type": "uint256"
        },
        {
          "internalType": "string",
          "name": "adImage",
          "type": "string"
        },
        {
          "internalType": "string",
          "name": "redirectUrl",
          "type": "string"
        },
        {
          "internalType": "bool",
          "name": "status",
          "type": "bool"
        },
        {
          "internalType": "string",
          "name": "ownerName",
          "type": "string"
        }
      ],
      "name": "setMetaData",
      "outputs": [],
      "stateMutability": "nonpayable",
      "type": "function"
    },
    {
      "inputs": [
        {
          "internalType": "uint256",
          "name": "tokenId",
          "type": "uint256"
        },
        {
          "internalType": "string",
          "name": "adImage",
          "type": "string"
        }
      ],
      "name": "setAdImage",
      "outputs": [],
      "stateMutability": "nonpayable",
      "type": "function"
    },
    {
      "inputs": [
        {
          "internalType": "uint256",
          "name": "tokenId",
          "type": "uint256"
        },
        {
          "internalType": "string",
          "name": "redirectUrl",
          "type": "string"
        }
      ],
      "name": "setRedirectUrl",
      "outputs": [],
      "stateMutability": "nonpayable",
      "type": "function"
    },
    {
      "inputs": [
        {
          "internalType": "uint256",
          "name": "tokenId",
          "type": "uint256"
        },
        {
          "internalType": "bool",
          "name": "status",
          "type": "bool"
        }
      ],
      "name": "setStatus",
      "outputs": [],
      "stateMutability": "nonpayable",
      "type": "function"
    },
    {
      "inputs": [
        {
          "internalType": "uint256",
          "name": "tokenId",
          "type": "uint256"
        },
        {
          "internalType": "string",
          "name": "ownerName",
          "type": "string"
        }
      ],
      "name": "setOwnerName",
      "outputs": [],
      "stateMutability": "nonpayable",
      "type": "function"
    }
  ],
  "bytecode": "0x60806040526000600860006101000a81548173ffffffffffffffffffffffffffffffffffffffff021916908373ffffffffffffffffffffffffffffffffffffffff1602179055506000600960006101000a81548173ffffffffffffffffffffffffffffffffffffffff021916908373ffffffffffffffffffffffffffffffffffffffff1602179055503480156200009557600080fd5b506040516200404e3803806200404e8339818101604052810190620000bb9190620003a9565b81818160009080519060200190620000d592919062000287565b508060019080519060200190620000ee92919062000287565b5050506200011162000105620001b960201b60201c565b620001c160201b60201c565b62000121620001b960201b60201c565b600860006101000a81548173ffffffffffffffffffffffffffffffffffffffff021916908373ffffffffffffffffffffffffffffffffffffffff16021790555062000171620001b960201b60201c565b600960006101000a81548173ffffffffffffffffffffffffffffffffffffffff021916908373ffffffffffffffffffffffffffffffffffffffff16021790555050506200054d565b600033905090565b6000600660009054906101000a900473ffffffffffffffffffffffffffffffffffffffff16905081600660006101000a81548173ffffffffffffffffffffffffffffffffffffffff021916908373ffffffffffffffffffffffffffffffffffffffff1602179055508173ffffffffffffffffffffffffffffffffffffffff168173ffffffffffffffffffffffffffffffffffffffff167f8be0079c531659141344cd1fd0a4f28419497f9722a3daafe3b4186f6b6457e060405160405180910390a35050565b8280546200029590620004b9565b90600052602060002090601f016020900481019282620002b9576000855562000305565b82601f10620002d457805160ff191683800117855562000305565b8280016001018555821562000305579182015b8281111562000304578251825591602001919060010190620002e7565b5b50905062000314919062000318565b5090565b5b808211156200033357600081600090555060010162000319565b5090565b60006200034e620003488462000450565b6200041c565b9050828152602081018484840111156200036757600080fd5b6200037484828562000483565b509392505050565b600082601f8301126200038e57600080fd5b8151620003a084826020860162000337565b91505092915050565b60008060408385031215620003bd57600080fd5b600083015167ffffffffffffffff811115620003d857600080fd5b620003e6858286016200037c565b925050602083015167ffffffffffffffff8111156200040457600080fd5b62000412858286016200037c565b9150509250929050565b6000604051905081810181811067ffffffffffffffff821117156200044657620004456200051e565b5b8060405250919050565b600067ffffffffffffffff8211156200046e576200046d6200051e565b5b601f19601f8301169050602081019050919050565b60005b83811015620004a357808201518184015260208101905062000486565b83811115620004b3576000848401525b50505050565b60006002820490506001821680620004d257607f821691505b60208210811415620004e957620004e8620004ef565b5b50919050565b7f4e487b7100000000000000000000000000000000000000000000000000000000600052602260045260246000fd5b7f4e487b7100000000000000000000000000000000000000000000000000000000600052604160045260246000fd5b613af1806200055d6000396000f3fe608060405234801561001057600080fd5b506004361061018e5760003560e01c80638719e8ac116100de578063b88d4fde11610097578063e985e9c511610071578063e985e9c51461046c578063eb9df7db1461049c578063f2fde38b146104b8578063f38b6bb0146104d45761018e565b8063b88d4fde14610404578063c87b56dd14610420578063e27a9c74146104505761018e565b80638719e8ac1461035857806389ca669e146103745780638da5cb5b1461039057806395d89b41146103ae578063a22cb465146103cc578063b14084d2146103e85761018e565b806331ba07a31161014b5780636352211e116101255780636352211e146102d257806368f25a3c1461030257806370a082311461031e578063715018a61461034e5761018e565b806331ba07a31461027e57806340b276761461029a57806342842e0e146102b65761018e565b806301ffc9a71461019357806306fdde03146101c3578063081812fc146101e1578063095ea7b31461021157806323b872dd1461022d5780632c2cdd6014610249575b600080fd5b6101ad60048036038101906101a89190612877565b6104f0565b6040516101ba919061340a565b60405180910390f35b6101cb6105d2565b6040516101d89190613425565b60405180910390f35b6101fb60048036038101906101f691906128c9565b610664565b60405161020891906133a3565b60405180910390f35b61022b6004803603810190610226919061283b565b6106e9565b005b61024760048036038101906102429190612735565b610801565b005b610263600480360381019061025e91906128c9565b610861565b60405161027596959493929190613447565b60405180910390f35b61029860048036038101906102939190612982565b610b52565b005b6102b460048036038101906102af9190612ac0565b610cb9565b005b6102d060048036038101906102cb9190612735565b610cda565b005b6102ec60048036038101906102e791906128c9565b610cfa565b6040516102f991906133a3565b60405180910390f35b61031c6004803603810190610317919061292e565b610dac565b005b610338600480360381019061033391906126d0565b610ea0565b604051610345919061376b565b60405180910390f35b610356610f58565b005b610372600480360381019061036d91906128f2565b610fe0565b005b61038e60048036038101906103899190612a01565b6110d7565b005b610398611252565b6040516103a591906133a3565b60405180910390f35b6103b661127c565b6040516103c39190613425565b60405180910390f35b6103e660048036038101906103e191906127ff565b61130e565b005b61040260048036038101906103fd919061292e565b61148f565b005b61041e60048036038101906104199190612784565b611583565b005b61043a600480360381019061043591906128c9565b6115e5565b6040516104479190613425565b60405180910390f35b61046a6004803603810190610465919061292e565b6116d5565b005b610486600480360381019061048191906126f9565b6117c9565b604051610493919061340a565b60405180910390f35b6104b660048036038101906104b191906126d0565b61185d565b005b6104d260048036038101906104cd91906126d0565b611938565b005b6104ee60048036038101906104e991906126d0565b611a30565b005b60007f80ac58cd000000000000000000000000000000000000000000000000000000007bffffffffffffffffffffffffffffffffffffffffffffffffffffffff1916827bffffffffffffffffffffffffffffffffffffffffffffffffffffffff191614806105bb57507f5b5e139f000000000000000000000000000000000000000000000000000000007bffffffffffffffffffffffffffffffffffffffffffffffffffffffff1916827bffffffffffffffffffffffffffffffffffffffffffffffffffffffff1916145b806105cb57506105ca82611b0b565b5b9050919050565b6060600080546105e19061398f565b80601f016020809104026020016040519081016040528092919081815260200182805461060d9061398f565b801561065a5780601f1061062f5761010080835404028352916020019161065a565b820191906000526020600020905b81548152906001019060200180831161063d57829003601f168201915b5050505050905090565b600061066f82611b75565b6106ae576040517f08c379a00000000000000000000000000000000000000000000000000000000081526004016106a59061368b565b60405180910390fd5b6004600083815260200190815260200160002060009054906101000a900473ffffffffffffffffffffffffffffffffffffffff169050919050565b60006106f482610cfa565b90508073ffffffffffffffffffffffffffffffffffffffff168373ffffffffffffffffffffffffffffffffffffffff161415610765576040517f08c379a000000000000000000000000000000000000000000000000000000000815260040161075c9061372b565b60405180910390fd5b8073ffffffffffffffffffffffffffffffffffffffff16610784611be1565b73ffffffffffffffffffffffffffffffffffffffff1614806107b357506107b2816107ad611be1565b6117c9565b5b6107f2576040517f08c379a00000000000000000000000000000000000000000000000000000000081526004016107e99061360b565b60405180910390fd5b6107fc8383611be9565b505050565b61081261080c611be1565b82611ca2565b610851576040517f08c379a00000000000000000000000000000000000000000000000000000000081526004016108489061374b565b60405180910390fd5b61085c838383611d80565b505050565b60076020528060005260406000206000915090508060000180546108849061398f565b80601f01602080910402602001604051908101604052809291908181526020018280546108b09061398f565b80156108fd5780601f106108d2576101008083540402835291602001916108fd565b820191906000526020600020905b8154815290600101906020018083116108e057829003601f168201915b5050505050908060010180546109129061398f565b80601f016020809104026020016040519081016040528092919081815260200182805461093e9061398f565b801561098b5780601f106109605761010080835404028352916020019161098b565b820191906000526020600020905b81548152906001019060200180831161096e57829003601f168201915b5050505050908060020180546109a09061398f565b80601f01602080910402602001604051908101604052809291908181526020018280546109cc9061398f565b8015610a195780601f106109ee57610100808354040283529160200191610a19565b820191906000526020600020905b8154815290600101906020018083116109fc57829003601f168201915b505050505090806003018054610a2e9061398f565b80601f0160208091040260200160405190810160405280929190818152602001828054610a5a9061398f565b8015610aa75780601f10610a7c57610100808354040283529160200191610aa7565b820191906000526020600020905b815481529060010190602001808311610a8a57829003601f168201915b5050505050908060040160009054906101000a900460ff1690806005018054610acf9061398f565b80601f0160208091040260200160405190810160405280929190818152602001828054610afb9061398f565b8015610b485780601f10610b1d57610100808354040283529160200191610b48565b820191906000526020600020905b815481529060010190602001808311610b2b57829003601f168201915b5050505050905086565b610b5b83611b75565b15610b9b576040517f08c379a0000000000000000000000000000000000000000000000000000000008152600401610b929061354b565b60405180910390fd5b600960009054906101000a900473ffffffffffffffffffffffffffffffffffffffff1673ffffffffffffffffffffffffffffffffffffffff16610bdc611be1565b73ffffffffffffffffffffffffffffffffffffffff1614610c32576040517f08c379a0000000000000000000000000000000000000000000000000000000008152600401610c29906136ab565b60405180910390fd5b610c5e600960009054906101000a900473ffffffffffffffffffffffffffffffffffffffff1684611fdc565b81600760008581526020019081526020016000206000019080519060200190610c889291906124f4565b5080600760008581526020019081526020016000206001019080519060200190610cb39291906124f4565b50505050565b610cc4878787610b52565b610cd187858585856110d7565b50505050505050565b610cf583838360405180602001604052806000815250611583565b505050565b6000806002600084815260200190815260200160002060009054906101000a900473ffffffffffffffffffffffffffffffffffffffff169050600073ffffffffffffffffffffffffffffffffffffffff168173ffffffffffffffffffffffffffffffffffffffff161415610da3576040517f08c379a0000000000000000000000000000000000000000000000000000000008152600401610d9a9061364b565b60405180910390fd5b80915050919050565b610db582611b75565b610df4576040517f08c379a0000000000000000000000000000000000000000000000000000000008152600401610deb906135cb565b60405180910390fd5b610dfd82610cfa565b73ffffffffffffffffffffffffffffffffffffffff16610e1b611be1565b73ffffffffffffffffffffffffffffffffffffffff1614610e71576040517f08c379a0000000000000000000000000000000000000000000000000000000008152600401610e68906136eb565b60405180910390fd5b80600760008481526020019081526020016000206003019080519060200190610e9b9291906124f4565b505050565b60008073ffffffffffffffffffffffffffffffffffffffff168273ffffffffffffffffffffffffffffffffffffffff161415610f11576040517f08c379a0000000000000000000000000000000000000000000000000000000008152600401610f089061362b565b60405180910390fd5b600360008373ffffffffffffffffffffffffffffffffffffffff1673ffffffffffffffffffffffffffffffffffffffff168152602001908152602001600020549050919050565b610f60611be1565b73ffffffffffffffffffffffffffffffffffffffff16610f7e611252565b73ffffffffffffffffffffffffffffffffffffffff1614610fd4576040517f08c379a0000000000000000000000000000000000000000000000000000000008152600401610fcb906136cb565b60405180910390fd5b610fde6000611ffa565b565b610fe982611b75565b611028576040517f08c379a000000000000000000000000000000000000000000000000000000000815260040161101f906135cb565b60405180910390fd5b61103182610cfa565b73ffffffffffffffffffffffffffffffffffffffff1661104f611be1565b73ffffffffffffffffffffffffffffffffffffffff16146110a5576040517f08c379a000000000000000000000000000000000000000000000000000000000815260040161109c906136eb565b60405180910390fd5b806007600084815260200190815260200160002060040160006101000a81548160ff0219169083151502179055505050565b6110e085611b75565b61111f576040517f08c379a0000000000000000000000000000000000000000000000000000000008152600401611116906135cb565b60405180910390fd5b61112885610cfa565b73ffffffffffffffffffffffffffffffffffffffff16611146611be1565b73ffffffffffffffffffffffffffffffffffffffff161461119c576040517f08c379a0000000000000000000000000000000000000000000000000000000008152600401611193906136eb565b60405180910390fd5b836007600087815260200190815260200160002060030190805190602001906111c69291906124f4565b50826007600087815260200190815260200160002060020190805190602001906111f19291906124f4565b50816007600087815260200190815260200160002060040160006101000a81548160ff0219169083151502179055508060076000878152602001908152602001600020600501908051906020019061124a9291906124f4565b505050505050565b6000600660009054906101000a900473ffffffffffffffffffffffffffffffffffffffff16905090565b60606001805461128b9061398f565b80601f01602080910402602001604051908101604052809291908181526020018280546112b79061398f565b80156113045780601f106112d957610100808354040283529160200191611304565b820191906000526020600020905b8154815290600101906020018083116112e757829003601f168201915b5050505050905090565b611316611be1565b73ffffffffffffffffffffffffffffffffffffffff168273ffffffffffffffffffffffffffffffffffffffff161415611384576040517f08c379a000000000000000000000000000000000000000000000000000000000815260040161137b9061358b565b60405180910390fd5b8060056000611391611be1565b73ffffffffffffffffffffffffffffffffffffffff1673ffffffffffffffffffffffffffffffffffffffff16815260200190815260200160002060008473ffffffffffffffffffffffffffffffffffffffff1673ffffffffffffffffffffffffffffffffffffffff16815260200190815260200160002060006101000a81548160ff0219169083151502179055508173ffffffffffffffffffffffffffffffffffffffff1661143e611be1565b73ffffffffffffffffffffffffffffffffffffffff167f17307eab39ab6107e8899845ad3d59bd9653f200f220920489ca2b5937696c3183604051611483919061340a565b60405180910390a35050565b61149882611b75565b6114d7576040517f08c379a00000000000000000000000000000000000000000000000000000000081526004016114ce906135cb565b60405180910390fd5b6114e082610cfa565b73ffffffffffffffffffffffffffffffffffffffff166114fe611be1565b73ffffffffffffffffffffffffffffffffffffffff1614611554576040517f08c379a000000000000000000000000000000000000000000000000000000000815260040161154b906136eb565b60405180910390fd5b8060076000848152602001908152602001600020600201908051906020019061157e9291906124f4565b505050565b61159461158e611be1565b83611ca2565b6115d3576040517f08c379a00000000000000000000000000000000000000000000000000000000081526004016115ca9061374b565b60405180910390fd5b6115df848484846120c0565b50505050565b60606115f082611b75565b61162f576040517f08c379a0000000000000000000000000000000000000000000000000000000008152600401611626906135cb565b60405180910390fd5b6007600083815260200190815260200160002060030180546116509061398f565b80601f016020809104026020016040519081016040528092919081815260200182805461167c9061398f565b80156116c95780601f1061169e576101008083540402835291602001916116c9565b820191906000526020600020905b8154815290600101906020018083116116ac57829003601f168201915b50505050509050919050565b6116de82611b75565b61171d576040517f08c379a0000000000000000000000000000000000000000000000000000000008152600401611714906135cb565b60405180910390fd5b61172682610cfa565b73ffffffffffffffffffffffffffffffffffffffff16611744611be1565b73ffffffffffffffffffffffffffffffffffffffff161461179a576040517f08c379a0000000000000000000000000000000000000000000000000000000008152600401611791906136eb565b60405180910390fd5b806007600084815260200190815260200160002060050190805190602001906117c49291906124f4565b505050565b6000600560008473ffffffffffffffffffffffffffffffffffffffff1673ffffffffffffffffffffffffffffffffffffffff16815260200190815260200160002060008373ffffffffffffffffffffffffffffffffffffffff1673ffffffffffffffffffffffffffffffffffffffff16815260200190815260200160002060009054906101000a900460ff16905092915050565b600860009054906101000a900473ffffffffffffffffffffffffffffffffffffffff1673ffffffffffffffffffffffffffffffffffffffff1661189e611be1565b73ffffffffffffffffffffffffffffffffffffffff16146118f4576040517f08c379a00000000000000000000000000000000000000000000000000000000081526004016118eb906135ab565b60405180910390fd5b80600860006101000a81548173ffffffffffffffffffffffffffffffffffffffff021916908373ffffffffffffffffffffffffffffffffffffffff16021790555050565b611940611be1565b73ffffffffffffffffffffffffffffffffffffffff1661195e611252565b73ffffffffffffffffffffffffffffffffffffffff16146119b4576040517f08c379a00000000000000000000000000000000000000000000000000000000081526004016119ab906136cb565b60405180910390fd5b600073ffffffffffffffffffffffffffffffffffffffff168173ffffffffffffffffffffffffffffffffffffffff161415611a24576040517f08c379a0000000000000000000000000000000000000000000000000000000008152600401611a1b906134eb565b60405180910390fd5b611a2d81611ffa565b50565b600860009054906101000a900473ffffffffffffffffffffffffffffffffffffffff1673ffffffffffffffffffffffffffffffffffffffff16611a71611be1565b73ffffffffffffffffffffffffffffffffffffffff1614611ac7576040517f08c379a0000000000000000000000000000000000000000000000000000000008152600401611abe9061350b565b60405180910390fd5b80600960006101000a81548173ffffffffffffffffffffffffffffffffffffffff021916908373ffffffffffffffffffffffffffffffffffffffff16021790555050565b60007f01ffc9a7000000000000000000000000000000000000000000000000000000007bffffffffffffffffffffffffffffffffffffffffffffffffffffffff1916827bffffffffffffffffffffffffffffffffffffffffffffffffffffffff1916149050919050565b60008073ffffffffffffffffffffffffffffffffffffffff166002600084815260200190815260200160002060009054906101000a900473ffffffffffffffffffffffffffffffffffffffff1673ffffffffffffffffffffffffffffffffffffffff1614159050919050565b600033905090565b816004600083815260200190815260200160002060006101000a81548173ffffffffffffffffffffffffffffffffffffffff021916908373ffffffffffffffffffffffffffffffffffffffff160217905550808273ffffffffffffffffffffffffffffffffffffffff16611c5c83610cfa565b73ffffffffffffffffffffffffffffffffffffffff167f8c5be1e5ebec7d5bd14f71427d1e84f3dd0314c0f7b2291e5b200ac8c7c3b92560405160405180910390a45050565b6000611cad82611b75565b611cec576040517f08c379a0000000000000000000000000000000000000000000000000000000008152600401611ce3906135eb565b60405180910390fd5b6000611cf783610cfa565b90508073ffffffffffffffffffffffffffffffffffffffff168473ffffffffffffffffffffffffffffffffffffffff161480611d6657508373ffffffffffffffffffffffffffffffffffffffff16611d4e84610664565b73ffffffffffffffffffffffffffffffffffffffff16145b80611d775750611d7681856117c9565b5b91505092915050565b8273ffffffffffffffffffffffffffffffffffffffff16611da082610cfa565b73ffffffffffffffffffffffffffffffffffffffff1614611df6576040517f08c379a0000000000000000000000000000000000000000000000000000000008152600401611ded9061370b565b60405180910390fd5b600073ffffffffffffffffffffffffffffffffffffffff168273ffffffffffffffffffffffffffffffffffffffff161415611e66576040517f08c379a0000000000000000000000000000000000000000000000000000000008152600401611e5d9061356b565b60405180910390fd5b611e7183838361211c565b611e7c600082611be9565b6001600360008573ffffffffffffffffffffffffffffffffffffffff1673ffffffffffffffffffffffffffffffffffffffff1681526020019081526020016000206000828254611ecc91906138a5565b925050819055506001600360008473ffffffffffffffffffffffffffffffffffffffff1673ffffffffffffffffffffffffffffffffffffffff1681526020019081526020016000206000828254611f23919061384f565b92505081905550816002600083815260200190815260200160002060006101000a81548173ffffffffffffffffffffffffffffffffffffffff021916908373ffffffffffffffffffffffffffffffffffffffff160217905550808273ffffffffffffffffffffffffffffffffffffffff168473ffffffffffffffffffffffffffffffffffffffff167fddf252ad1be2c89b69c2b068fc378daa952ba7f163c4a11628f55a4df523b3ef60405160405180910390a4505050565b611ff6828260405180602001604052806000815250612121565b5050565b6000600660009054906101000a900473ffffffffffffffffffffffffffffffffffffffff16905081600660006101000a81548173ffffffffffffffffffffffffffffffffffffffff021916908373ffffffffffffffffffffffffffffffffffffffff1602179055508173ffffffffffffffffffffffffffffffffffffffff168173ffffffffffffffffffffffffffffffffffffffff167f8be0079c531659141344cd1fd0a4f28419497f9722a3daafe3b4186f6b6457e060405160405180910390a35050565b6120cb848484611d80565b6120d78484848461217c565b612116576040517f08c379a000000000000000000000000000000000000000000000000000000000815260040161210d906134cb565b60405180910390fd5b50505050565b505050565b61212b8383612313565b612138600084848461217c565b612177576040517f08c379a000000000000000000000000000000000000000000000000000000000815260040161216e906134cb565b60405180910390fd5b505050565b600061219d8473ffffffffffffffffffffffffffffffffffffffff166124e1565b15612306578373ffffffffffffffffffffffffffffffffffffffff1663150b7a026121c6611be1565b8786866040518563ffffffff1660e01b81526004016121e894939291906133be565b602060405180830381600087803b15801561220257600080fd5b505af192505050801561223357506040513d601f19601f8201168201806040525081019061223091906128a0565b60015b6122b6573d8060008114612263576040519150601f19603f3d011682016040523d82523d6000602084013e612268565b606091505b506000815114156122ae576040517f08c379a00000000000000000000000000000000000000000000000000000000081526004016122a5906134cb565b60405180910390fd5b805181602001fd5b63150b7a0260e01b7bffffffffffffffffffffffffffffffffffffffffffffffffffffffff1916817bffffffffffffffffffffffffffffffffffffffffffffffffffffffff19161491505061230b565b600190505b949350505050565b600073ffffffffffffffffffffffffffffffffffffffff168273ffffffffffffffffffffffffffffffffffffffff161415612383576040517f08c379a000000000000000000000000000000000000000000000000000000000815260040161237a9061366b565b60405180910390fd5b61238c81611b75565b156123cc576040517f08c379a00000000000000000000000000000000000000000000000000000000081526004016123c39061352b565b60405180910390fd5b6123d86000838361211c565b6001600360008473ffffffffffffffffffffffffffffffffffffffff1673ffffffffffffffffffffffffffffffffffffffff1681526020019081526020016000206000828254612428919061384f565b92505081905550816002600083815260200190815260200160002060006101000a81548173ffffffffffffffffffffffffffffffffffffffff021916908373ffffffffffffffffffffffffffffffffffffffff160217905550808273ffffffffffffffffffffffffffffffffffffffff16600073ffffffffffffffffffffffffffffffffffffffff167fddf252ad1be2c89b69c2b068fc378daa952ba7f163c4a11628f55a4df523b3ef60405160405180910390a45050565b600080823b905060008111915050919050565b8280546125009061398f565b90600052602060002090601f0160209004810192826125225760008555612569565b82601f1061253b57805160ff1916838001178555612569565b82800160010185558215612569579182015b8281111561256857825182559160200191906001019061254d565b5b509050612576919061257a565b5090565b5b8082111561259357600081600090555060010161257b565b5090565b60006125aa6125a5846137b7565b613786565b9050828152602081018484840111156125c257600080fd5b6125cd84828561394d565b509392505050565b60006125e86125e3846137e7565b613786565b90508281526020810184848401111561260057600080fd5b61260b84828561394d565b509392505050565b60008135905061262281613a5f565b92915050565b60008135905061263781613a76565b92915050565b60008135905061264c81613a8d565b92915050565b60008151905061266181613a8d565b92915050565b600082601f83011261267857600080fd5b8135612688848260208601612597565b91505092915050565b600082601f8301126126a257600080fd5b81356126b28482602086016125d5565b91505092915050565b6000813590506126ca81613aa4565b92915050565b6000602082840312156126e257600080fd5b60006126f084828501612613565b91505092915050565b6000806040838503121561270c57600080fd5b600061271a85828601612613565b925050602061272b85828601612613565b9150509250929050565b60008060006060848603121561274a57600080fd5b600061275886828701612613565b935050602061276986828701612613565b925050604061277a868287016126bb565b9150509250925092565b6000806000806080858703121561279a57600080fd5b60006127a887828801612613565b94505060206127b987828801612613565b93505060406127ca878288016126bb565b925050606085013567ffffffffffffffff8111156127e757600080fd5b6127f387828801612667565b91505092959194509250565b6000806040838503121561281257600080fd5b600061282085828601612613565b925050602061283185828601612628565b9150509250929050565b6000806040838503121561284e57600080fd5b600061285c85828601612613565b925050602061286d858286016126bb565b9150509250929050565b60006020828403121561288957600080fd5b60006128978482850161263d565b91505092915050565b6000602082840312156128b257600080fd5b60006128c084828501612652565b91505092915050565b6000602082840312156128db57600080fd5b60006128e9848285016126bb565b91505092915050565b6000806040838503121561290557600080fd5b6000612913858286016126bb565b925050602061292485828601612628565b9150509250929050565b6000806040838503121561294157600080fd5b600061294f858286016126bb565b925050602083013567ffffffffffffffff81111561296c57600080fd5b61297885828601612691565b9150509250929050565b60008060006060848603121561299757600080fd5b60006129a5868287016126bb565b935050602084013567ffffffffffffffff8111156129c257600080fd5b6129ce86828701612691565b925050604084013567ffffffffffffffff8111156129eb57600080fd5b6129f786828701612691565b9150509250925092565b600080600080600060a08688031215612a1957600080fd5b6000612a27888289016126bb565b955050602086013567ffffffffffffffff811115612a4457600080fd5b612a5088828901612691565b945050604086013567ffffffffffffffff811115612a6d57600080fd5b612a7988828901612691565b9350506060612a8a88828901612628565b925050608086013567ffffffffffffffff811115612aa757600080fd5b612ab388828901612691565b9150509295509295909350565b600080600080600080600060e0888a031215612adb57600080fd5b6000612ae98a828b016126bb565b975050602088013567ffffffffffffffff811115612b0657600080fd5b612b128a828b01612691565b965050604088013567ffffffffffffffff811115612b2f57600080fd5b612b3b8a828b01612691565b955050606088013567ffffffffffffffff811115612b5857600080fd5b612b648a828b01612691565b945050608088013567ffffffffffffffff811115612b8157600080fd5b612b8d8a828b01612691565b93505060a0612b9e8a828b01612628565b92505060c088013567ffffffffffffffff811115612bbb57600080fd5b612bc78a828b01612691565b91505092959891949750929550565b612bdf816138d9565b82525050565b612bee816138eb565b82525050565b6000612bff82613817565b612c09818561382d565b9350612c1981856020860161395c565b612c2281613a4e565b840191505092915050565b6000612c3882613822565b612c42818561383e565b9350612c5281856020860161395c565b612c5b81613a4e565b840191505092915050565b6000612c7360328361383e565b91507f4552433732313a207472616e7366657220746f206e6f6e20455243373231526560008301527f63656976657220696d706c656d656e74657200000000000000000000000000006020830152604082019050919050565b6000612cd960268361383e565b91507f4f776e61626c653a206e6577206f776e657220697320746865207a65726f206160008301527f64647265737300000000000000000000000000000000000000000000000000006020830152604082019050919050565b6000612d3f60258361383e565b91507f4f6e6c79206f776e65722063616e2075706461746520636f6e7472616374206d60008301527f696e7465720000000000000000000000000000000000000000000000000000006020830152604082019050919050565b6000612da5601c8361383e565b91507f4552433732313a20746f6b656e20616c7265616479206d696e746564000000006000830152602082019050919050565b6000612de560148361383e565b91507f546f6b656e20616c7265616479206578697374730000000000000000000000006000830152602082019050919050565b6000612e2560248361383e565b91507f4552433732313a207472616e7366657220746f20746865207a65726f2061646460008301527f72657373000000000000000000000000000000000000000000000000000000006020830152604082019050919050565b6000612e8b60198361383e565b91507f4552433732313a20617070726f766520746f2063616c6c6572000000000000006000830152602082019050919050565b6000612ecb60218361383e565b91507f4f6e6c79206f776e65722063616e207472616e73666572206f776e657273686960008301527f70000000000000000000000000000000000000000000000000000000000000006020830152604082019050919050565b6000612f3160148361383e565b91507f546f6b656e20646f6573206e6f742065786973740000000000000000000000006000830152602082019050919050565b6000612f71602c8361383e565b91507f4552433732313a206f70657261746f7220717565727920666f72206e6f6e657860008301527f697374656e7420746f6b656e00000000000000000000000000000000000000006020830152604082019050919050565b6000612fd760388361383e565b91507f4552433732313a20617070726f76652063616c6c6572206973206e6f74206f7760008301527f6e6572206e6f7220617070726f76656420666f7220616c6c00000000000000006020830152604082019050919050565b600061303d602a8361383e565b91507f4552433732313a2062616c616e636520717565727920666f7220746865207a6560008301527f726f2061646472657373000000000000000000000000000000000000000000006020830152604082019050919050565b60006130a360298361383e565b91507f4552433732313a206f776e657220717565727920666f72206e6f6e657869737460008301527f656e7420746f6b656e00000000000000000000000000000000000000000000006020830152604082019050919050565b600061310960208361383e565b91507f4552433732313a206d696e7420746f20746865207a65726f20616464726573736000830152602082019050919050565b6000613149602c8361383e565b91507f4552433732313a20617070726f76656420717565727920666f72206e6f6e657860008301527f697374656e7420746f6b656e00000000000000000000000000000000000000006020830152604082019050919050565b60006131af601c8361383e565b91507f4f6e6c79206d696e74657220616464726573732063616e206d696e74000000006000830152602082019050919050565b60006131ef60208361383e565b91507f4f776e61626c653a2063616c6c6572206973206e6f7420746865206f776e65726000830152602082019050919050565b600061322f601e8361383e565b91507f4f6e6c79206f776e65722063616e20757064617465206d6574616461746100006000830152602082019050919050565b600061326f60298361383e565b91507f4552433732313a207472616e73666572206f6620746f6b656e2074686174206960008301527f73206e6f74206f776e00000000000000000000000000000000000000000000006020830152604082019050919050565b60006132d560218361383e565b91507f4552433732313a20617070726f76616c20746f2063757272656e74206f776e6560008301527f72000000000000000000000000000000000000000000000000000000000000006020830152604082019050919050565b600061333b60318361383e565b91507f4552433732313a207472616e736665722063616c6c6572206973206e6f74206f60008301527f776e6572206e6f7220617070726f7665640000000000000000000000000000006020830152604082019050919050565b61339d81613943565b82525050565b60006020820190506133b86000830184612bd6565b92915050565b60006080820190506133d36000830187612bd6565b6133e06020830186612bd6565b6133ed6040830185613394565b81810360608301526133ff8184612bf4565b905095945050505050565b600060208201905061341f6000830184612be5565b92915050565b6000602082019050818103600083015261343f8184612c2d565b905092915050565b600060c08201905081810360008301526134618189612c2d565b905081810360208301526134758188612c2d565b905081810360408301526134898187612c2d565b9050818103606083015261349d8186612c2d565b90506134ac6080830185612be5565b81810360a08301526134be8184612c2d565b9050979650505050505050565b600060208201905081810360008301526134e481612c66565b9050919050565b6000602082019050818103600083015261350481612ccc565b9050919050565b6000602082019050818103600083015261352481612d32565b9050919050565b6000602082019050818103600083015261354481612d98565b9050919050565b6000602082019050818103600083015261356481612dd8565b9050919050565b6000602082019050818103600083015261358481612e18565b9050919050565b600060208201905081810360008301526135a481612e7e565b9050919050565b600060208201905081810360008301526135c481612ebe565b9050919050565b600060208201905081810360008301526135e481612f24565b9050919050565b6000602082019050818103600083015261360481612f64565b9050919050565b6000602082019050818103600083015261362481612fca565b9050919050565b6000602082019050818103600083015261364481613030565b9050919050565b6000602082019050818103600083015261366481613096565b9050919050565b60006020820190508181036000830152613684816130fc565b9050919050565b600060208201905081810360008301526136a48161313c565b9050919050565b600060208201905081810360008301526136c4816131a2565b9050919050565b600060208201905081810360008301526136e4816131e2565b9050919050565b6000602082019050818103600083015261370481613222565b9050919050565b6000602082019050818103600083015261372481613262565b9050919050565b60006020820190508181036000830152613744816132c8565b9050919050565b600060208201905081810360008301526137648161332e565b9050919050565b60006020820190506137806000830184613394565b92915050565b6000604051905081810181811067ffffffffffffffff821117156137ad576137ac613a1f565b5b8060405250919050565b600067ffffffffffffffff8211156137d2576137d1613a1f565b5b601f19601f8301169050602081019050919050565b600067ffffffffffffffff82111561380257613801613a1f565b5b601f19601f8301169050602081019050919050565b600081519050919050565b600081519050919050565b600082825260208201905092915050565b600082825260208201905092915050565b600061385a82613943565b915061386583613943565b9250827fffffffffffffffffffffffffffffffffffffffffffffffffffffffffffffffff0382111561389a576138996139c1565b5b828201905092915050565b60006138b082613943565b91506138bb83613943565b9250828210156138ce576138cd6139c1565b5b828203905092915050565b60006138e482613923565b9050919050565b60008115159050919050565b60007fffffffff0000000000000000000000000000000000000000000000000000000082169050919050565b600073ffffffffffffffffffffffffffffffffffffffff82169050919050565b6000819050919050565b82818337600083830152505050565b60005b8381101561397a57808201518184015260208101905061395f565b83811115613989576000848401525b50505050565b600060028204905060018216806139a757607f821691505b602082108114156139bb576139ba6139f0565b5b50919050565b7f4e487b7100000000000000000000000000000000000000000000000000000000600052601160045260246000fd5b7f4e487b7100000000000000000000000000000000000000000000000000000000600052602260045260246000fd5b7f4e487b7100000000000000000000000000000000000000000000000000000000600052604160045260246000fd5b6000601f19601f8301169050919050565b613a68816138d9565b8114613a7357600080fd5b50565b613a7f816138eb565b8114613a8a57600080fd5b50565b613a96816138f7565b8114613aa157600080fd5b50565b613aad81613943565b8114613ab857600080fd5b5056fea2646970667358221220b07fc927b31401ce122f2391a07e1f9cc27c1201f444a14dc4b497acb534930064736f6c63430008000033",
  "immutableReferences": {},
  "source": "pragma solidity ^0.8.0;\n\nimport \"openzeppelin-solidity/contracts/token/ERC721/ERC721.sol\";\nimport \"openzeppelin-solidity/contracts/access/Ownable.sol\";\nimport \"openzeppelin-solidity/contracts/utils/math/SafeMath.sol\";\n\ncontract EnvoyBillboard is ERC721, Ownable {\n\n  using SafeMath for uint256;\n\n  //\n  // ******************* METADATA STRUCT *******************\n  //\n\n  struct MetaData {\n    string image;\n    string city;\n    string redirectUrl;\n    string adImage;\n    bool status;\n    string ownerName;\n  }\n\n  //\n  // ******************* VARIABLES *******************\n  //\n\n  // MetaData map\n  mapping(uint256 => MetaData) public _tokenData;\n\n  // Contract owner\n  address private _contractOwner = address(0);\n\n  // Contract minter\n  address private _contractMinter = address(0);\n\n  //\n  // ******************* SETUP *******************\n  //\n\n  // Constructor\n  constructor (string memory name, string memory symbol) public ERC721(name, symbol) {\n\n    // Initially the deployer is the owner\n    _contractOwner = _msgSender();\n    _contractMinter = _msgSender();\n  }\n\n  //\n  // ******************* OWNERSHIP *******************\n  //\n\n  function updateContractOwner(address owner) public {\n    require(_msgSender() == _contractOwner, \"Only owner can transfer ownership\");\n\n    _contractOwner = owner; \n  }\n\n  function updateContractMinter(address minter) public {\n    require(_msgSender() == _contractOwner, \"Only owner can update contract minter\");\n\n    _contractMinter = minter;\n  }\n\n  //\n  // ******************* MINT *******************\n  //\n\n  function mintToken(\n      uint256 tokenId, \n      string memory image, \n      string memory city\n    ) public {\n      \n    require(!_exists(tokenId), \"Token already exists\");\n    require(_msgSender() == _contractMinter, \"Only minter address can mint\");\n\n    // Minted token will be send to minter address\n    _safeMint(_contractMinter, tokenId);\n\n    // Update hardcoded metadata\n    _tokenData[tokenId].image = image;\n    _tokenData[tokenId].city = city;\n  }\n\n  function mintTokenWithData(\n      uint256 tokenId, \n      string memory image, \n      string memory city, \n      string memory adImage, \n      string memory redirectUrl, \n      bool status,\n      string memory ownerName\n    ) public {\n\n    mintToken(tokenId, image, city);\n      \n    // Update editable metadata\n    setMetaData(tokenId, adImage, redirectUrl, status, ownerName);\n  }\n\n  //\n  // ******************* ERC721 *******************\n  //\n\n  function tokenURI(uint256 tokenId) public view override returns (string memory) {\n    require(_exists(tokenId), \"Token does not exist\");\n\n    return _tokenData[tokenId].adImage;\n  }\n\n\n  //\n  // ******************* SETTERS *******************\n  //\n\n  function setMetaData(\n      uint256 tokenId, \n      string memory adImage, \n      string memory redirectUrl, \n      bool status,\n      string memory ownerName\n    ) public {\n\n    require(_exists(tokenId), \"Token does not exist\");\n    require(_msgSender() == ownerOf(tokenId), \"Only owner can update metadata\");\n\n    _tokenData[tokenId].adImage = adImage;\n    _tokenData[tokenId].redirectUrl = redirectUrl;\n    _tokenData[tokenId].status = status;\n    _tokenData[tokenId].ownerName = ownerName;\n  }\n\n  function setAdImage(uint256 tokenId, string memory adImage) public {\n    require(_exists(tokenId), \"Token does not exist\");\n    require(_msgSender() == ownerOf(tokenId), \"Only owner can update metadata\");\n\n    _tokenData[tokenId].adImage = adImage;\n  }\n\n  function setRedirectUrl(uint256 tokenId, string memory redirectUrl) public {\n    require(_exists(tokenId), \"Token does not exist\");\n    require(_msgSender() == ownerOf(tokenId), \"Only owner can update metadata\");\n\n    _tokenData[tokenId].redirectUrl = redirectUrl;\n  }\n\n  function setStatus(uint256 tokenId, bool status) public {\n    require(_exists(tokenId), \"Token does not exist\");\n    require(_msgSender() == ownerOf(tokenId), \"Only owner can update metadata\");\n\n    _tokenData[tokenId].status = status;\n  }\n\n  function setOwnerName(uint256 tokenId, string memory ownerName) public {\n    require(_exists(tokenId), \"Token does not exist\");\n    require(_msgSender() == ownerOf(tokenId), \"Only owner can update metadata\");\n\n    _tokenData[tokenId].ownerName = ownerName;\n  }\n\n}\n",
  "sourcePath": "/Users/nieldeckx/Development/Envoy/Contracts/contracts/EnvoyBillboard.sol",
  "compiler": {
    "name": "solc",
    "version": "0.8.0+commit.c7dfd78e.Emscripten.clang"
  },
  "schemaVersion": "3.4.1",
  "updatedAt": "2021-07-18T12:03:10.314Z",
  "networkType": "ethereum",
  "devdoc": {
    "kind": "dev",
    "methods": {
      "approve(address,uint256)": {
        "details": "See {IERC721-approve}."
      },
      "balanceOf(address)": {
        "details": "See {IERC721-balanceOf}."
      },
      "getApproved(uint256)": {
        "details": "See {IERC721-getApproved}."
      },
      "isApprovedForAll(address,address)": {
        "details": "See {IERC721-isApprovedForAll}."
      },
      "name()": {
        "details": "See {IERC721Metadata-name}."
      },
      "owner()": {
        "details": "Returns the address of the current owner."
      },
      "ownerOf(uint256)": {
        "details": "See {IERC721-ownerOf}."
      },
      "renounceOwnership()": {
        "details": "Leaves the contract without owner. It will not be possible to call `onlyOwner` functions anymore. Can only be called by the current owner. NOTE: Renouncing ownership will leave the contract without an owner, thereby removing any functionality that is only available to the owner."
      },
      "safeTransferFrom(address,address,uint256)": {
        "details": "See {IERC721-safeTransferFrom}."
      },
      "safeTransferFrom(address,address,uint256,bytes)": {
        "details": "See {IERC721-safeTransferFrom}."
      },
      "setApprovalForAll(address,bool)": {
        "details": "See {IERC721-setApprovalForAll}."
      },
      "supportsInterface(bytes4)": {
        "details": "See {IERC165-supportsInterface}."
      },
      "symbol()": {
        "details": "See {IERC721Metadata-symbol}."
      },
      "tokenURI(uint256)": {
        "details": "See {IERC721Metadata-tokenURI}."
      },
      "transferFrom(address,address,uint256)": {
        "details": "See {IERC721-transferFrom}."
      },
      "transferOwnership(address)": {
        "details": "Transfers ownership of the contract to a new account (`newOwner`). Can only be called by the current owner."
      }
    },
    "version": 1
  },
  "userdoc": {
    "kind": "user",
    "methods": {},
    "version": 1
  }
}