{
  "contractName": "EnvoyBillboard",
  "abi": [
    {
      "inputs": [
        {
          "internalType": "string",
          "name": "name",
          "type": "string"
        },
        {
          "internalType": "string",
          "name": "symbol",
          "type": "string"
        }
      ],
      "stateMutability": "nonpayable",
      "type": "constructor"
    },
    {
      "anonymous": false,
      "inputs": [
        {
          "indexed": true,
          "internalType": "address",
          "name": "owner",
          "type": "address"
        },
        {
          "indexed": true,
          "internalType": "address",
          "name": "approved",
          "type": "address"
        },
        {
          "indexed": true,
          "internalType": "uint256",
          "name": "tokenId",
          "type": "uint256"
        }
      ],
      "name": "Approval",
      "type": "event"
    },
    {
      "anonymous": false,
      "inputs": [
        {
          "indexed": true,
          "internalType": "address",
          "name": "owner",
          "type": "address"
        },
        {
          "indexed": true,
          "internalType": "address",
          "name": "operator",
          "type": "address"
        },
        {
          "indexed": false,
          "internalType": "bool",
          "name": "approved",
          "type": "bool"
        }
      ],
      "name": "ApprovalForAll",
      "type": "event"
    },
    {
      "anonymous": false,
      "inputs": [
        {
          "indexed": true,
          "internalType": "address",
          "name": "previousOwner",
          "type": "address"
        },
        {
          "indexed": true,
          "internalType": "address",
          "name": "newOwner",
          "type": "address"
        }
      ],
      "name": "OwnershipTransferred",
      "type": "event"
    },
    {
      "anonymous": false,
      "inputs": [
        {
          "indexed": true,
          "internalType": "address",
          "name": "from",
          "type": "address"
        },
        {
          "indexed": true,
          "internalType": "address",
          "name": "to",
          "type": "address"
        },
        {
          "indexed": true,
          "internalType": "uint256",
          "name": "tokenId",
          "type": "uint256"
        }
      ],
      "name": "Transfer",
      "type": "event"
    },
    {
      "inputs": [
        {
          "internalType": "address",
          "name": "to",
          "type": "address"
        },
        {
          "internalType": "uint256",
          "name": "tokenId",
          "type": "uint256"
        }
      ],
      "name": "approve",
      "outputs": [],
      "stateMutability": "nonpayable",
      "type": "function"
    },
    {
      "inputs": [
        {
          "internalType": "address",
          "name": "owner",
          "type": "address"
        }
      ],
      "name": "balanceOf",
      "outputs": [
        {
          "internalType": "uint256",
          "name": "",
          "type": "uint256"
        }
      ],
      "stateMutability": "view",
      "type": "function",
      "constant": true
    },
    {
      "inputs": [
        {
          "internalType": "uint256",
          "name": "tokenId",
          "type": "uint256"
        }
      ],
      "name": "getApproved",
      "outputs": [
        {
          "internalType": "address",
          "name": "",
          "type": "address"
        }
      ],
      "stateMutability": "view",
      "type": "function",
      "constant": true
    },
    {
      "inputs": [
        {
          "internalType": "address",
          "name": "owner",
          "type": "address"
        },
        {
          "internalType": "address",
          "name": "operator",
          "type": "address"
        }
      ],
      "name": "isApprovedForAll",
      "outputs": [
        {
          "internalType": "bool",
          "name": "",
          "type": "bool"
        }
      ],
      "stateMutability": "view",
      "type": "function",
      "constant": true
    },
    {
      "inputs": [],
      "name": "name",
      "outputs": [
        {
          "internalType": "string",
          "name": "",
          "type": "string"
        }
      ],
      "stateMutability": "view",
      "type": "function",
      "constant": true
    },
    {
      "inputs": [],
      "name": "owner",
      "outputs": [
        {
          "internalType": "address",
          "name": "",
          "type": "address"
        }
      ],
      "stateMutability": "view",
      "type": "function",
      "constant": true
    },
    {
      "inputs": [
        {
          "internalType": "uint256",
          "name": "tokenId",
          "type": "uint256"
        }
      ],
      "name": "ownerOf",
      "outputs": [
        {
          "internalType": "address",
          "name": "",
          "type": "address"
        }
      ],
      "stateMutability": "view",
      "type": "function",
      "constant": true
    },
    {
      "inputs": [],
      "name": "renounceOwnership",
      "outputs": [],
      "stateMutability": "nonpayable",
      "type": "function"
    },
    {
      "inputs": [
        {
          "internalType": "address",
          "name": "from",
          "type": "address"
        },
        {
          "internalType": "address",
          "name": "to",
          "type": "address"
        },
        {
          "internalType": "uint256",
          "name": "tokenId",
          "type": "uint256"
        }
      ],
      "name": "safeTransferFrom",
      "outputs": [],
      "stateMutability": "nonpayable",
      "type": "function"
    },
    {
      "inputs": [
        {
          "internalType": "address",
          "name": "from",
          "type": "address"
        },
        {
          "internalType": "address",
          "name": "to",
          "type": "address"
        },
        {
          "internalType": "uint256",
          "name": "tokenId",
          "type": "uint256"
        },
        {
          "internalType": "bytes",
          "name": "_data",
          "type": "bytes"
        }
      ],
      "name": "safeTransferFrom",
      "outputs": [],
      "stateMutability": "nonpayable",
      "type": "function"
    },
    {
      "inputs": [
        {
          "internalType": "address",
          "name": "operator",
          "type": "address"
        },
        {
          "internalType": "bool",
          "name": "approved",
          "type": "bool"
        }
      ],
      "name": "setApprovalForAll",
      "outputs": [],
      "stateMutability": "nonpayable",
      "type": "function"
    },
    {
      "inputs": [
        {
          "internalType": "bytes4",
          "name": "interfaceId",
          "type": "bytes4"
        }
      ],
      "name": "supportsInterface",
      "outputs": [
        {
          "internalType": "bool",
          "name": "",
          "type": "bool"
        }
      ],
      "stateMutability": "view",
      "type": "function",
      "constant": true
    },
    {
      "inputs": [],
      "name": "symbol",
      "outputs": [
        {
          "internalType": "string",
          "name": "",
          "type": "string"
        }
      ],
      "stateMutability": "view",
      "type": "function",
      "constant": true
    },
    {
      "inputs": [
        {
          "internalType": "address",
          "name": "from",
          "type": "address"
        },
        {
          "internalType": "address",
          "name": "to",
          "type": "address"
        },
        {
          "internalType": "uint256",
          "name": "tokenId",
          "type": "uint256"
        }
      ],
      "name": "transferFrom",
      "outputs": [],
      "stateMutability": "nonpayable",
      "type": "function"
    },
    {
      "inputs": [
        {
          "internalType": "address",
          "name": "newOwner",
          "type": "address"
        }
      ],
      "name": "transferOwnership",
      "outputs": [],
      "stateMutability": "nonpayable",
      "type": "function"
    },
    {
      "inputs": [
        {
          "internalType": "uint256",
          "name": "tokenId",
          "type": "uint256"
        }
      ],
      "name": "tokenURI",
      "outputs": [
        {
          "internalType": "string",
          "name": "",
          "type": "string"
        }
      ],
      "stateMutability": "view",
      "type": "function",
      "constant": true
    },
    {
      "inputs": [
        {
          "internalType": "uint256",
          "name": "tokenId",
          "type": "uint256"
        },
        {
          "internalType": "string",
          "name": "_tokenURI",
          "type": "string"
        }
      ],
      "name": "setTokenURI",
      "outputs": [],
      "stateMutability": "nonpayable",
      "type": "function"
    }
  ],
  "bytecode": "0x60806040523480156200001157600080fd5b5060405162003461380380620034618339818101604052810190620000379190620007c5565b818181600090805190602001906200005192919062000660565b5080600190805190602001906200006a92919062000660565b5050506200008d62000081620000da60201b60201c565b620000e260201b60201c565b60005b6064811015620000d157620000bb620000ae620000da60201b60201c565b82620001a860201b60201c565b8080620000c89062000c08565b91505062000090565b50505062000d0e565b600033905090565b6000600660009054906101000a900473ffffffffffffffffffffffffffffffffffffffff16905081600660006101000a81548173ffffffffffffffffffffffffffffffffffffffff021916908373ffffffffffffffffffffffffffffffffffffffff1602179055508173ffffffffffffffffffffffffffffffffffffffff168173ffffffffffffffffffffffffffffffffffffffff167f8be0079c531659141344cd1fd0a4f28419497f9722a3daafe3b4186f6b6457e060405160405180910390a35050565b620001ca828260405180602001604052806000815250620001ce60201b60201c565b5050565b620001e083836200023c60201b60201c565b620001f560008484846200042260201b60201c565b62000237576040517f08c379a00000000000000000000000000000000000000000000000000000000081526004016200022e90620009db565b60405180910390fd5b505050565b600073ffffffffffffffffffffffffffffffffffffffff168273ffffffffffffffffffffffffffffffffffffffff161415620002af576040517f08c379a0000000000000000000000000000000000000000000000000000000008152600401620002a69062000a1f565b60405180910390fd5b620002c081620005dc60201b60201c565b1562000303576040517f08c379a0000000000000000000000000000000000000000000000000000000008152600401620002fa90620009fd565b60405180910390fd5b62000317600083836200064860201b60201c565b6001600360008473ffffffffffffffffffffffffffffffffffffffff1673ffffffffffffffffffffffffffffffffffffffff168152602001908152602001600020600082825462000369919062000ad5565b92505081905550816002600083815260200190815260200160002060006101000a81548173ffffffffffffffffffffffffffffffffffffffff021916908373ffffffffffffffffffffffffffffffffffffffff160217905550808273ffffffffffffffffffffffffffffffffffffffff16600073ffffffffffffffffffffffffffffffffffffffff167fddf252ad1be2c89b69c2b068fc378daa952ba7f163c4a11628f55a4df523b3ef60405160405180910390a45050565b6000620004508473ffffffffffffffffffffffffffffffffffffffff166200064d60201b62000ee41760201c565b15620005cf578373ffffffffffffffffffffffffffffffffffffffff1663150b7a0262000482620000da60201b60201c565b8786866040518563ffffffff1660e01b8152600401620004a6949392919062000987565b602060405180830381600087803b158015620004c157600080fd5b505af1925050508015620004f557506040513d601f19601f82011682018060405250810190620004f2919062000799565b60015b6200057e573d806000811462000528576040519150601f19603f3d011682016040523d82523d6000602084013e6200052d565b606091505b5060008151141562000576576040517f08c379a00000000000000000000000000000000000000000000000000000000081526004016200056d90620009db565b60405180910390fd5b805181602001fd5b63150b7a0260e01b7bffffffffffffffffffffffffffffffffffffffffffffffffffffffff1916817bffffffffffffffffffffffffffffffffffffffffffffffffffffffff191614915050620005d4565b600190505b949350505050565b60008073ffffffffffffffffffffffffffffffffffffffff166002600084815260200190815260200160002060009054906101000a900473ffffffffffffffffffffffffffffffffffffffff1673ffffffffffffffffffffffffffffffffffffffff1614159050919050565b505050565b600080823b905060008111915050919050565b8280546200066e9062000bd2565b90600052602060002090601f016020900481019282620006925760008555620006de565b82601f10620006ad57805160ff1916838001178555620006de565b82800160010185558215620006de579182015b82811115620006dd578251825591602001919060010190620006c0565b5b509050620006ed9190620006f1565b5090565b5b808211156200070c576000816000905550600101620006f2565b5090565b600062000727620007218462000a75565b62000a41565b9050828152602081018484840111156200074057600080fd5b6200074d84828562000b9c565b509392505050565b600081519050620007668162000cf4565b92915050565b600082601f8301126200077e57600080fd5b81516200079084826020860162000710565b91505092915050565b600060208284031215620007ac57600080fd5b6000620007bc8482850162000755565b91505092915050565b60008060408385031215620007d957600080fd5b600083015167ffffffffffffffff811115620007f457600080fd5b62000802858286016200076c565b925050602083015167ffffffffffffffff8111156200082057600080fd5b6200082e858286016200076c565b9150509250929050565b620008438162000b32565b82525050565b6000620008568262000aa8565b62000862818562000ab3565b93506200087481856020860162000b9c565b6200087f8162000ce3565b840191505092915050565b60006200089960328362000ac4565b91507f4552433732313a207472616e7366657220746f206e6f6e20455243373231526560008301527f63656976657220696d706c656d656e74657200000000000000000000000000006020830152604082019050919050565b600062000901601c8362000ac4565b91507f4552433732313a20746f6b656e20616c7265616479206d696e746564000000006000830152602082019050919050565b60006200094360208362000ac4565b91507f4552433732313a206d696e7420746f20746865207a65726f20616464726573736000830152602082019050919050565b620009818162000b92565b82525050565b60006080820190506200099e600083018762000838565b620009ad602083018662000838565b620009bc604083018562000976565b8181036060830152620009d0818462000849565b905095945050505050565b60006020820190508181036000830152620009f6816200088a565b9050919050565b6000602082019050818103600083015262000a1881620008f2565b9050919050565b6000602082019050818103600083015262000a3a8162000934565b9050919050565b6000604051905081810181811067ffffffffffffffff8211171562000a6b5762000a6a62000cb4565b5b8060405250919050565b600067ffffffffffffffff82111562000a935762000a9262000cb4565b5b601f19601f8301169050602081019050919050565b600081519050919050565b600082825260208201905092915050565b600082825260208201905092915050565b600062000ae28262000b92565b915062000aef8362000b92565b9250827fffffffffffffffffffffffffffffffffffffffffffffffffffffffffffffffff0382111562000b275762000b2662000c56565b5b828201905092915050565b600062000b3f8262000b72565b9050919050565b60007fffffffff0000000000000000000000000000000000000000000000000000000082169050919050565b600073ffffffffffffffffffffffffffffffffffffffff82169050919050565b6000819050919050565b60005b8381101562000bbc57808201518184015260208101905062000b9f565b8381111562000bcc576000848401525b50505050565b6000600282049050600182168062000beb57607f821691505b6020821081141562000c025762000c0162000c85565b5b50919050565b600062000c158262000b92565b91507fffffffffffffffffffffffffffffffffffffffffffffffffffffffffffffffff82141562000c4b5762000c4a62000c56565b5b600182019050919050565b7f4e487b7100000000000000000000000000000000000000000000000000000000600052601160045260246000fd5b7f4e487b7100000000000000000000000000000000000000000000000000000000600052602260045260246000fd5b7f4e487b7100000000000000000000000000000000000000000000000000000000600052604160045260246000fd5b6000601f19601f8301169050919050565b62000cff8162000b46565b811462000d0b57600080fd5b50565b6127438062000d1e6000396000f3fe608060405234801561001057600080fd5b506004361061010b5760003560e01c806370a08231116100a2578063a22cb46511610071578063a22cb465146102a4578063b88d4fde146102c0578063c87b56dd146102dc578063e985e9c51461030c578063f2fde38b1461033c5761010b565b806370a082311461022e578063715018a61461025e5780638da5cb5b1461026857806395d89b41146102865761010b565b8063162094c4116100de578063162094c4146101aa57806323b872dd146101c657806342842e0e146101e25780636352211e146101fe5761010b565b806301ffc9a71461011057806306fdde0314610140578063081812fc1461015e578063095ea7b31461018e575b600080fd5b61012a60048036038101906101259190611a09565b610358565b6040516101379190612180565b60405180910390f35b61014861043a565b604051610155919061219b565b60405180910390f35b61017860048036038101906101739190611a5b565b6104cc565b6040516101859190612119565b60405180910390f35b6101a860048036038101906101a391906119cd565b610551565b005b6101c460048036038101906101bf9190611a84565b610669565b005b6101e060048036038101906101db91906118c7565b61075a565b005b6101fc60048036038101906101f791906118c7565b6107ba565b005b61021860048036038101906102139190611a5b565b6107da565b6040516102259190612119565b60405180910390f35b61024860048036038101906102439190611862565b61088c565b60405161025591906123bd565b60405180910390f35b610266610944565b005b6102706109cc565b60405161027d9190612119565b60405180910390f35b61028e6109f6565b60405161029b919061219b565b60405180910390f35b6102be60048036038101906102b99190611991565b610a88565b005b6102da60048036038101906102d59190611916565b610c09565b005b6102f660048036038101906102f19190611a5b565b610c6b565b604051610303919061219b565b60405180910390f35b6103266004803603810190610321919061188b565b610d58565b6040516103339190612180565b60405180910390f35b61035660048036038101906103519190611862565b610dec565b005b60007f80ac58cd000000000000000000000000000000000000000000000000000000007bffffffffffffffffffffffffffffffffffffffffffffffffffffffff1916827bffffffffffffffffffffffffffffffffffffffffffffffffffffffff1916148061042357507f5b5e139f000000000000000000000000000000000000000000000000000000007bffffffffffffffffffffffffffffffffffffffffffffffffffffffff1916827bffffffffffffffffffffffffffffffffffffffffffffffffffffffff1916145b80610433575061043282610ef7565b5b9050919050565b606060008054610449906125e1565b80601f0160208091040260200160405190810160405280929190818152602001828054610475906125e1565b80156104c25780601f10610497576101008083540402835291602001916104c2565b820191906000526020600020905b8154815290600101906020018083116104a557829003601f168201915b5050505050905090565b60006104d782610f61565b610516576040517f08c379a000000000000000000000000000000000000000000000000000000000815260040161050d906122fd565b60405180910390fd5b6004600083815260200190815260200160002060009054906101000a900473ffffffffffffffffffffffffffffffffffffffff169050919050565b600061055c826107da565b90508073ffffffffffffffffffffffffffffffffffffffff168373ffffffffffffffffffffffffffffffffffffffff1614156105cd576040517f08c379a00000000000000000000000000000000000000000000000000000000081526004016105c49061237d565b60405180910390fd5b8073ffffffffffffffffffffffffffffffffffffffff166105ec610fcd565b73ffffffffffffffffffffffffffffffffffffffff16148061061b575061061a81610615610fcd565b610d58565b5b61065a576040517f08c379a00000000000000000000000000000000000000000000000000000000081526004016106519061229d565b60405180910390fd5b6106648383610fd5565b505050565b61067282610f61565b6106b1576040517f08c379a00000000000000000000000000000000000000000000000000000000081526004016106a89061235d565b60405180910390fd5b6106ba826107da565b73ffffffffffffffffffffffffffffffffffffffff166106d8610fcd565b73ffffffffffffffffffffffffffffffffffffffff161461072e576040517f08c379a00000000000000000000000000000000000000000000000000000000081526004016107259061227d565b60405180910390fd5b80600760008481526020019081526020016000209080519060200190610755929190611686565b505050565b61076b610765610fcd565b8261108e565b6107aa576040517f08c379a00000000000000000000000000000000000000000000000000000000081526004016107a19061239d565b60405180910390fd5b6107b583838361116c565b505050565b6107d583838360405180602001604052806000815250610c09565b505050565b6000806002600084815260200190815260200160002060009054906101000a900473ffffffffffffffffffffffffffffffffffffffff169050600073ffffffffffffffffffffffffffffffffffffffff168173ffffffffffffffffffffffffffffffffffffffff161415610883576040517f08c379a000000000000000000000000000000000000000000000000000000000815260040161087a906122dd565b60405180910390fd5b80915050919050565b60008073ffffffffffffffffffffffffffffffffffffffff168273ffffffffffffffffffffffffffffffffffffffff1614156108fd576040517f08c379a00000000000000000000000000000000000000000000000000000000081526004016108f4906122bd565b60405180910390fd5b600360008373ffffffffffffffffffffffffffffffffffffffff1673ffffffffffffffffffffffffffffffffffffffff168152602001908152602001600020549050919050565b61094c610fcd565b73ffffffffffffffffffffffffffffffffffffffff1661096a6109cc565b73ffffffffffffffffffffffffffffffffffffffff16146109c0576040517f08c379a00000000000000000000000000000000000000000000000000000000081526004016109b79061231d565b60405180910390fd5b6109ca60006113c8565b565b6000600660009054906101000a900473ffffffffffffffffffffffffffffffffffffffff16905090565b606060018054610a05906125e1565b80601f0160208091040260200160405190810160405280929190818152602001828054610a31906125e1565b8015610a7e5780601f10610a5357610100808354040283529160200191610a7e565b820191906000526020600020905b815481529060010190602001808311610a6157829003601f168201915b5050505050905090565b610a90610fcd565b73ffffffffffffffffffffffffffffffffffffffff168273ffffffffffffffffffffffffffffffffffffffff161415610afe576040517f08c379a0000000000000000000000000000000000000000000000000000000008152600401610af59061223d565b60405180910390fd5b8060056000610b0b610fcd565b73ffffffffffffffffffffffffffffffffffffffff1673ffffffffffffffffffffffffffffffffffffffff16815260200190815260200160002060008473ffffffffffffffffffffffffffffffffffffffff1673ffffffffffffffffffffffffffffffffffffffff16815260200190815260200160002060006101000a81548160ff0219169083151502179055508173ffffffffffffffffffffffffffffffffffffffff16610bb8610fcd565b73ffffffffffffffffffffffffffffffffffffffff167f17307eab39ab6107e8899845ad3d59bd9653f200f220920489ca2b5937696c3183604051610bfd9190612180565b60405180910390a35050565b610c1a610c14610fcd565b8361108e565b610c59576040517f08c379a0000000000000000000000000000000000000000000000000000000008152600401610c509061239d565b60405180910390fd5b610c658484848461148e565b50505050565b6060610c7682610f61565b610cb5576040517f08c379a0000000000000000000000000000000000000000000000000000000008152600401610cac906121bd565b60405180910390fd5b600760008381526020019081526020016000208054610cd3906125e1565b80601f0160208091040260200160405190810160405280929190818152602001828054610cff906125e1565b8015610d4c5780601f10610d2157610100808354040283529160200191610d4c565b820191906000526020600020905b815481529060010190602001808311610d2f57829003601f168201915b50505050509050919050565b6000600560008473ffffffffffffffffffffffffffffffffffffffff1673ffffffffffffffffffffffffffffffffffffffff16815260200190815260200160002060008373ffffffffffffffffffffffffffffffffffffffff1673ffffffffffffffffffffffffffffffffffffffff16815260200190815260200160002060009054906101000a900460ff16905092915050565b610df4610fcd565b73ffffffffffffffffffffffffffffffffffffffff16610e126109cc565b73ffffffffffffffffffffffffffffffffffffffff1614610e68576040517f08c379a0000000000000000000000000000000000000000000000000000000008152600401610e5f9061231d565b60405180910390fd5b600073ffffffffffffffffffffffffffffffffffffffff168173ffffffffffffffffffffffffffffffffffffffff161415610ed8576040517f08c379a0000000000000000000000000000000000000000000000000000000008152600401610ecf906121fd565b60405180910390fd5b610ee1816113c8565b50565b600080823b905060008111915050919050565b60007f01ffc9a7000000000000000000000000000000000000000000000000000000007bffffffffffffffffffffffffffffffffffffffffffffffffffffffff1916827bffffffffffffffffffffffffffffffffffffffffffffffffffffffff1916149050919050565b60008073ffffffffffffffffffffffffffffffffffffffff166002600084815260200190815260200160002060009054906101000a900473ffffffffffffffffffffffffffffffffffffffff1673ffffffffffffffffffffffffffffffffffffffff1614159050919050565b600033905090565b816004600083815260200190815260200160002060006101000a81548173ffffffffffffffffffffffffffffffffffffffff021916908373ffffffffffffffffffffffffffffffffffffffff160217905550808273ffffffffffffffffffffffffffffffffffffffff16611048836107da565b73ffffffffffffffffffffffffffffffffffffffff167f8c5be1e5ebec7d5bd14f71427d1e84f3dd0314c0f7b2291e5b200ac8c7c3b92560405160405180910390a45050565b600061109982610f61565b6110d8576040517f08c379a00000000000000000000000000000000000000000000000000000000081526004016110cf9061225d565b60405180910390fd5b60006110e3836107da565b90508073ffffffffffffffffffffffffffffffffffffffff168473ffffffffffffffffffffffffffffffffffffffff16148061115257508373ffffffffffffffffffffffffffffffffffffffff1661113a846104cc565b73ffffffffffffffffffffffffffffffffffffffff16145b8061116357506111628185610d58565b5b91505092915050565b8273ffffffffffffffffffffffffffffffffffffffff1661118c826107da565b73ffffffffffffffffffffffffffffffffffffffff16146111e2576040517f08c379a00000000000000000000000000000000000000000000000000000000081526004016111d99061233d565b60405180910390fd5b600073ffffffffffffffffffffffffffffffffffffffff168273ffffffffffffffffffffffffffffffffffffffff161415611252576040517f08c379a00000000000000000000000000000000000000000000000000000000081526004016112499061221d565b60405180910390fd5b61125d8383836114ea565b611268600082610fd5565b6001600360008573ffffffffffffffffffffffffffffffffffffffff1673ffffffffffffffffffffffffffffffffffffffff16815260200190815260200160002060008282546112b891906124f7565b925050819055506001600360008473ffffffffffffffffffffffffffffffffffffffff1673ffffffffffffffffffffffffffffffffffffffff168152602001908152602001600020600082825461130f91906124a1565b92505081905550816002600083815260200190815260200160002060006101000a81548173ffffffffffffffffffffffffffffffffffffffff021916908373ffffffffffffffffffffffffffffffffffffffff160217905550808273ffffffffffffffffffffffffffffffffffffffff168473ffffffffffffffffffffffffffffffffffffffff167fddf252ad1be2c89b69c2b068fc378daa952ba7f163c4a11628f55a4df523b3ef60405160405180910390a4505050565b6000600660009054906101000a900473ffffffffffffffffffffffffffffffffffffffff16905081600660006101000a81548173ffffffffffffffffffffffffffffffffffffffff021916908373ffffffffffffffffffffffffffffffffffffffff1602179055508173ffffffffffffffffffffffffffffffffffffffff168173ffffffffffffffffffffffffffffffffffffffff167f8be0079c531659141344cd1fd0a4f28419497f9722a3daafe3b4186f6b6457e060405160405180910390a35050565b61149984848461116c565b6114a5848484846114ef565b6114e4576040517f08c379a00000000000000000000000000000000000000000000000000000000081526004016114db906121dd565b60405180910390fd5b50505050565b505050565b60006115108473ffffffffffffffffffffffffffffffffffffffff16610ee4565b15611679578373ffffffffffffffffffffffffffffffffffffffff1663150b7a02611539610fcd565b8786866040518563ffffffff1660e01b815260040161155b9493929190612134565b602060405180830381600087803b15801561157557600080fd5b505af19250505080156115a657506040513d601f19601f820116820180604052508101906115a39190611a32565b60015b611629573d80600081146115d6576040519150601f19603f3d011682016040523d82523d6000602084013e6115db565b606091505b50600081511415611621576040517f08c379a0000000000000000000000000000000000000000000000000000000008152600401611618906121dd565b60405180910390fd5b805181602001fd5b63150b7a0260e01b7bffffffffffffffffffffffffffffffffffffffffffffffffffffffff1916817bffffffffffffffffffffffffffffffffffffffffffffffffffffffff19161491505061167e565b600190505b949350505050565b828054611692906125e1565b90600052602060002090601f0160209004810192826116b457600085556116fb565b82601f106116cd57805160ff19168380011785556116fb565b828001600101855582156116fb579182015b828111156116fa5782518255916020019190600101906116df565b5b509050611708919061170c565b5090565b5b8082111561172557600081600090555060010161170d565b5090565b600061173c61173784612409565b6123d8565b90508281526020810184848401111561175457600080fd5b61175f84828561259f565b509392505050565b600061177a61177584612439565b6123d8565b90508281526020810184848401111561179257600080fd5b61179d84828561259f565b509392505050565b6000813590506117b4816126b1565b92915050565b6000813590506117c9816126c8565b92915050565b6000813590506117de816126df565b92915050565b6000815190506117f3816126df565b92915050565b600082601f83011261180a57600080fd5b813561181a848260208601611729565b91505092915050565b600082601f83011261183457600080fd5b8135611844848260208601611767565b91505092915050565b60008135905061185c816126f6565b92915050565b60006020828403121561187457600080fd5b6000611882848285016117a5565b91505092915050565b6000806040838503121561189e57600080fd5b60006118ac858286016117a5565b92505060206118bd858286016117a5565b9150509250929050565b6000806000606084860312156118dc57600080fd5b60006118ea868287016117a5565b93505060206118fb868287016117a5565b925050604061190c8682870161184d565b9150509250925092565b6000806000806080858703121561192c57600080fd5b600061193a878288016117a5565b945050602061194b878288016117a5565b935050604061195c8782880161184d565b925050606085013567ffffffffffffffff81111561197957600080fd5b611985878288016117f9565b91505092959194509250565b600080604083850312156119a457600080fd5b60006119b2858286016117a5565b92505060206119c3858286016117ba565b9150509250929050565b600080604083850312156119e057600080fd5b60006119ee858286016117a5565b92505060206119ff8582860161184d565b9150509250929050565b600060208284031215611a1b57600080fd5b6000611a29848285016117cf565b91505092915050565b600060208284031215611a4457600080fd5b6000611a52848285016117e4565b91505092915050565b600060208284031215611a6d57600080fd5b6000611a7b8482850161184d565b91505092915050565b60008060408385031215611a9757600080fd5b6000611aa58582860161184d565b925050602083013567ffffffffffffffff811115611ac257600080fd5b611ace85828601611823565b9150509250929050565b611ae18161252b565b82525050565b611af08161253d565b82525050565b6000611b0182612469565b611b0b818561247f565b9350611b1b8185602086016125ae565b611b24816126a0565b840191505092915050565b6000611b3a82612474565b611b448185612490565b9350611b548185602086016125ae565b611b5d816126a0565b840191505092915050565b6000611b75601f83612490565b91507f55524920717565727920666f72206e6f6e6578697374656e7420746f6b656e006000830152602082019050919050565b6000611bb5603283612490565b91507f4552433732313a207472616e7366657220746f206e6f6e20455243373231526560008301527f63656976657220696d706c656d656e74657200000000000000000000000000006020830152604082019050919050565b6000611c1b602683612490565b91507f4f776e61626c653a206e6577206f776e657220697320746865207a65726f206160008301527f64647265737300000000000000000000000000000000000000000000000000006020830152604082019050919050565b6000611c81602483612490565b91507f4552433732313a207472616e7366657220746f20746865207a65726f2061646460008301527f72657373000000000000000000000000000000000000000000000000000000006020830152604082019050919050565b6000611ce7601983612490565b91507f4552433732313a20617070726f766520746f2063616c6c6572000000000000006000830152602082019050919050565b6000611d27602c83612490565b91507f4552433732313a206f70657261746f7220717565727920666f72206e6f6e657860008301527f697374656e7420746f6b656e00000000000000000000000000000000000000006020830152604082019050919050565b6000611d8d601983612490565b91507f4f6e6c79206f776e65722063616e2075706461746520555249000000000000006000830152602082019050919050565b6000611dcd603883612490565b91507f4552433732313a20617070726f76652063616c6c6572206973206e6f74206f7760008301527f6e6572206e6f7220617070726f76656420666f7220616c6c00000000000000006020830152604082019050919050565b6000611e33602a83612490565b91507f4552433732313a2062616c616e636520717565727920666f7220746865207a6560008301527f726f2061646472657373000000000000000000000000000000000000000000006020830152604082019050919050565b6000611e99602983612490565b91507f4552433732313a206f776e657220717565727920666f72206e6f6e657869737460008301527f656e7420746f6b656e00000000000000000000000000000000000000000000006020830152604082019050919050565b6000611eff602c83612490565b91507f4552433732313a20617070726f76656420717565727920666f72206e6f6e657860008301527f697374656e7420746f6b656e00000000000000000000000000000000000000006020830152604082019050919050565b6000611f65602083612490565b91507f4f776e61626c653a2063616c6c6572206973206e6f7420746865206f776e65726000830152602082019050919050565b6000611fa5602983612490565b91507f4552433732313a207472616e73666572206f6620746f6b656e2074686174206960008301527f73206e6f74206f776e00000000000000000000000000000000000000000000006020830152604082019050919050565b600061200b601c83612490565b91507f55524920736574206f66206e6f6e6578697374656e7420746f6b656e000000006000830152602082019050919050565b600061204b602183612490565b91507f4552433732313a20617070726f76616c20746f2063757272656e74206f776e6560008301527f72000000000000000000000000000000000000000000000000000000000000006020830152604082019050919050565b60006120b1603183612490565b91507f4552433732313a207472616e736665722063616c6c6572206973206e6f74206f60008301527f776e6572206e6f7220617070726f7665640000000000000000000000000000006020830152604082019050919050565b61211381612595565b82525050565b600060208201905061212e6000830184611ad8565b92915050565b60006080820190506121496000830187611ad8565b6121566020830186611ad8565b612163604083018561210a565b81810360608301526121758184611af6565b905095945050505050565b60006020820190506121956000830184611ae7565b92915050565b600060208201905081810360008301526121b58184611b2f565b905092915050565b600060208201905081810360008301526121d681611b68565b9050919050565b600060208201905081810360008301526121f681611ba8565b9050919050565b6000602082019050818103600083015261221681611c0e565b9050919050565b6000602082019050818103600083015261223681611c74565b9050919050565b6000602082019050818103600083015261225681611cda565b9050919050565b6000602082019050818103600083015261227681611d1a565b9050919050565b6000602082019050818103600083015261229681611d80565b9050919050565b600060208201905081810360008301526122b681611dc0565b9050919050565b600060208201905081810360008301526122d681611e26565b9050919050565b600060208201905081810360008301526122f681611e8c565b9050919050565b6000602082019050818103600083015261231681611ef2565b9050919050565b6000602082019050818103600083015261233681611f58565b9050919050565b6000602082019050818103600083015261235681611f98565b9050919050565b6000602082019050818103600083015261237681611ffe565b9050919050565b600060208201905081810360008301526123968161203e565b9050919050565b600060208201905081810360008301526123b6816120a4565b9050919050565b60006020820190506123d2600083018461210a565b92915050565b6000604051905081810181811067ffffffffffffffff821117156123ff576123fe612671565b5b8060405250919050565b600067ffffffffffffffff82111561242457612423612671565b5b601f19601f8301169050602081019050919050565b600067ffffffffffffffff82111561245457612453612671565b5b601f19601f8301169050602081019050919050565b600081519050919050565b600081519050919050565b600082825260208201905092915050565b600082825260208201905092915050565b60006124ac82612595565b91506124b783612595565b9250827fffffffffffffffffffffffffffffffffffffffffffffffffffffffffffffffff038211156124ec576124eb612613565b5b828201905092915050565b600061250282612595565b915061250d83612595565b9250828210156125205761251f612613565b5b828203905092915050565b600061253682612575565b9050919050565b60008115159050919050565b60007fffffffff0000000000000000000000000000000000000000000000000000000082169050919050565b600073ffffffffffffffffffffffffffffffffffffffff82169050919050565b6000819050919050565b82818337600083830152505050565b60005b838110156125cc5780820151818401526020810190506125b1565b838111156125db576000848401525b50505050565b600060028204905060018216806125f957607f821691505b6020821081141561260d5761260c612642565b5b50919050565b7f4e487b7100000000000000000000000000000000000000000000000000000000600052601160045260246000fd5b7f4e487b7100000000000000000000000000000000000000000000000000000000600052602260045260246000fd5b7f4e487b7100000000000000000000000000000000000000000000000000000000600052604160045260246000fd5b6000601f19601f8301169050919050565b6126ba8161252b565b81146126c557600080fd5b50565b6126d18161253d565b81146126dc57600080fd5b50565b6126e881612549565b81146126f357600080fd5b50565b6126ff81612595565b811461270a57600080fd5b5056fea264697066735822122072660f206a441383d858cce5519c6b40b698493a03e26eebd0fa01a7d0e89cb664736f6c63430008000033",
  "immutableReferences": {},
  "source": "pragma solidity ^0.8.0;\n\nimport \"openzeppelin-solidity/contracts/token/ERC721/ERC721.sol\";\nimport \"openzeppelin-solidity/contracts/access/Ownable.sol\";\nimport \"openzeppelin-solidity/contracts/utils/math/SafeMath.sol\";\n\ncontract EnvoyBillboard is ERC721, Ownable {\n\n  using SafeMath for uint256;\n\n  //\n  // ******************* VARIABLES *******************\n  //\n\n  // URIs\n  mapping(uint256 => string) private _tokenURIs;\n\n  // Images\n  mapping(uint256 => string) private _tokenAdImages;\n\n  //\n  // ******************* SETUP *******************\n  //\n\n  // Constructor\n  constructor (string memory name, string memory symbol) public ERC721(name, symbol) {\n\n    // Mint needed tokens (1000 is too much, too high gas fee)\n    // Need \"mint\" method for external partner\n    for (uint256 i=0; i < 100; i++) {\n      _safeMint(_msgSender(), i);\n    }\n              \n  }\n\n  //\n  // ******************* ERC721 *******************\n  //\n\n  function tokenURI(uint256 tokenId) public view override returns (string memory) {\n    require(_exists(tokenId), \"URI query for nonexistent token\");\n\n    return _tokenURIs[tokenId];\n  }\n\n  function setTokenURI(uint256 tokenId, string memory _tokenURI) public {\n    require(_exists(tokenId), \"URI set of nonexistent token\");\n    require(_msgSender() == ownerOf(tokenId), \"Only owner can update URI\");\n\n    _tokenURIs[tokenId] = _tokenURI;\n  }\n\n  //\n  // ******************* METADATA *******************\n  //\n\n\n\n}\n\n\n",
  "sourcePath": "/Users/nieldeckx/Development/Envoy/Contracts/contracts/EnvoyBillboard.sol",
  "compiler": {
    "name": "solc",
    "version": "0.8.0+commit.c7dfd78e.Emscripten.clang"
  },
  "schemaVersion": "3.4.1",
  "updatedAt": "2021-07-17T08:44:36.807Z",
  "networkType": "ethereum",
  "devdoc": {
    "kind": "dev",
    "methods": {
      "approve(address,uint256)": {
        "details": "See {IERC721-approve}."
      },
      "balanceOf(address)": {
        "details": "See {IERC721-balanceOf}."
      },
      "getApproved(uint256)": {
        "details": "See {IERC721-getApproved}."
      },
      "isApprovedForAll(address,address)": {
        "details": "See {IERC721-isApprovedForAll}."
      },
      "name()": {
        "details": "See {IERC721Metadata-name}."
      },
      "owner()": {
        "details": "Returns the address of the current owner."
      },
      "ownerOf(uint256)": {
        "details": "See {IERC721-ownerOf}."
      },
      "renounceOwnership()": {
        "details": "Leaves the contract without owner. It will not be possible to call `onlyOwner` functions anymore. Can only be called by the current owner. NOTE: Renouncing ownership will leave the contract without an owner, thereby removing any functionality that is only available to the owner."
      },
      "safeTransferFrom(address,address,uint256)": {
        "details": "See {IERC721-safeTransferFrom}."
      },
      "safeTransferFrom(address,address,uint256,bytes)": {
        "details": "See {IERC721-safeTransferFrom}."
      },
      "setApprovalForAll(address,bool)": {
        "details": "See {IERC721-setApprovalForAll}."
      },
      "supportsInterface(bytes4)": {
        "details": "See {IERC165-supportsInterface}."
      },
      "symbol()": {
        "details": "See {IERC721Metadata-symbol}."
      },
      "tokenURI(uint256)": {
        "details": "See {IERC721Metadata-tokenURI}."
      },
      "transferFrom(address,address,uint256)": {
        "details": "See {IERC721-transferFrom}."
      },
      "transferOwnership(address)": {
        "details": "Transfers ownership of the contract to a new account (`newOwner`). Can only be called by the current owner."
      }
    },
    "version": 1
  },
  "userdoc": {
    "kind": "user",
    "methods": {},
    "version": 1
  }
}