{
  "contractName": "EnvoyBillboard",
  "abi": [
    {
      "inputs": [
        {
          "internalType": "string",
          "name": "name",
          "type": "string"
        },
        {
          "internalType": "string",
          "name": "symbol",
          "type": "string"
        }
      ],
      "stateMutability": "nonpayable",
      "type": "constructor"
    },
    {
      "anonymous": false,
      "inputs": [
        {
          "indexed": true,
          "internalType": "address",
          "name": "owner",
          "type": "address"
        },
        {
          "indexed": true,
          "internalType": "address",
          "name": "approved",
          "type": "address"
        },
        {
          "indexed": true,
          "internalType": "uint256",
          "name": "tokenId",
          "type": "uint256"
        }
      ],
      "name": "Approval",
      "type": "event"
    },
    {
      "anonymous": false,
      "inputs": [
        {
          "indexed": true,
          "internalType": "address",
          "name": "owner",
          "type": "address"
        },
        {
          "indexed": true,
          "internalType": "address",
          "name": "operator",
          "type": "address"
        },
        {
          "indexed": false,
          "internalType": "bool",
          "name": "approved",
          "type": "bool"
        }
      ],
      "name": "ApprovalForAll",
      "type": "event"
    },
    {
      "anonymous": false,
      "inputs": [
        {
          "indexed": true,
          "internalType": "address",
          "name": "previousOwner",
          "type": "address"
        },
        {
          "indexed": true,
          "internalType": "address",
          "name": "newOwner",
          "type": "address"
        }
      ],
      "name": "OwnershipTransferred",
      "type": "event"
    },
    {
      "anonymous": false,
      "inputs": [
        {
          "indexed": true,
          "internalType": "address",
          "name": "from",
          "type": "address"
        },
        {
          "indexed": true,
          "internalType": "address",
          "name": "to",
          "type": "address"
        },
        {
          "indexed": true,
          "internalType": "uint256",
          "name": "tokenId",
          "type": "uint256"
        }
      ],
      "name": "Transfer",
      "type": "event"
    },
    {
      "inputs": [
        {
          "internalType": "uint256",
          "name": "",
          "type": "uint256"
        },
        {
          "internalType": "string",
          "name": "",
          "type": "string"
        }
      ],
      "name": "_tokenData",
      "outputs": [
        {
          "internalType": "uint256",
          "name": "tokenId",
          "type": "uint256"
        },
        {
          "internalType": "string",
          "name": "image",
          "type": "string"
        },
        {
          "internalType": "string",
          "name": "city",
          "type": "string"
        },
        {
          "internalType": "string",
          "name": "redirectUrl",
          "type": "string"
        },
        {
          "internalType": "string",
          "name": "adImage",
          "type": "string"
        },
        {
          "internalType": "bool",
          "name": "status",
          "type": "bool"
        },
        {
          "internalType": "string",
          "name": "ownerName",
          "type": "string"
        }
      ],
      "stateMutability": "view",
      "type": "function",
      "constant": true
    },
    {
      "inputs": [
        {
          "internalType": "uint256",
          "name": "",
          "type": "uint256"
        }
      ],
      "name": "_tokenImage",
      "outputs": [
        {
          "internalType": "string",
          "name": "",
          "type": "string"
        }
      ],
      "stateMutability": "view",
      "type": "function",
      "constant": true
    },
    {
      "inputs": [
        {
          "internalType": "address",
          "name": "to",
          "type": "address"
        },
        {
          "internalType": "uint256",
          "name": "tokenId",
          "type": "uint256"
        }
      ],
      "name": "approve",
      "outputs": [],
      "stateMutability": "nonpayable",
      "type": "function"
    },
    {
      "inputs": [
        {
          "internalType": "address",
          "name": "owner",
          "type": "address"
        }
      ],
      "name": "balanceOf",
      "outputs": [
        {
          "internalType": "uint256",
          "name": "",
          "type": "uint256"
        }
      ],
      "stateMutability": "view",
      "type": "function",
      "constant": true
    },
    {
      "inputs": [
        {
          "internalType": "uint256",
          "name": "tokenId",
          "type": "uint256"
        }
      ],
      "name": "getApproved",
      "outputs": [
        {
          "internalType": "address",
          "name": "",
          "type": "address"
        }
      ],
      "stateMutability": "view",
      "type": "function",
      "constant": true
    },
    {
      "inputs": [
        {
          "internalType": "address",
          "name": "owner",
          "type": "address"
        },
        {
          "internalType": "address",
          "name": "operator",
          "type": "address"
        }
      ],
      "name": "isApprovedForAll",
      "outputs": [
        {
          "internalType": "bool",
          "name": "",
          "type": "bool"
        }
      ],
      "stateMutability": "view",
      "type": "function",
      "constant": true
    },
    {
      "inputs": [],
      "name": "name",
      "outputs": [
        {
          "internalType": "string",
          "name": "",
          "type": "string"
        }
      ],
      "stateMutability": "view",
      "type": "function",
      "constant": true
    },
    {
      "inputs": [],
      "name": "owner",
      "outputs": [
        {
          "internalType": "address",
          "name": "",
          "type": "address"
        }
      ],
      "stateMutability": "view",
      "type": "function",
      "constant": true
    },
    {
      "inputs": [
        {
          "internalType": "uint256",
          "name": "tokenId",
          "type": "uint256"
        }
      ],
      "name": "ownerOf",
      "outputs": [
        {
          "internalType": "address",
          "name": "",
          "type": "address"
        }
      ],
      "stateMutability": "view",
      "type": "function",
      "constant": true
    },
    {
      "inputs": [],
      "name": "renounceOwnership",
      "outputs": [],
      "stateMutability": "nonpayable",
      "type": "function"
    },
    {
      "inputs": [
        {
          "internalType": "address",
          "name": "from",
          "type": "address"
        },
        {
          "internalType": "address",
          "name": "to",
          "type": "address"
        },
        {
          "internalType": "uint256",
          "name": "tokenId",
          "type": "uint256"
        }
      ],
      "name": "safeTransferFrom",
      "outputs": [],
      "stateMutability": "nonpayable",
      "type": "function"
    },
    {
      "inputs": [
        {
          "internalType": "address",
          "name": "from",
          "type": "address"
        },
        {
          "internalType": "address",
          "name": "to",
          "type": "address"
        },
        {
          "internalType": "uint256",
          "name": "tokenId",
          "type": "uint256"
        },
        {
          "internalType": "bytes",
          "name": "_data",
          "type": "bytes"
        }
      ],
      "name": "safeTransferFrom",
      "outputs": [],
      "stateMutability": "nonpayable",
      "type": "function"
    },
    {
      "inputs": [
        {
          "internalType": "address",
          "name": "operator",
          "type": "address"
        },
        {
          "internalType": "bool",
          "name": "approved",
          "type": "bool"
        }
      ],
      "name": "setApprovalForAll",
      "outputs": [],
      "stateMutability": "nonpayable",
      "type": "function"
    },
    {
      "inputs": [
        {
          "internalType": "bytes4",
          "name": "interfaceId",
          "type": "bytes4"
        }
      ],
      "name": "supportsInterface",
      "outputs": [
        {
          "internalType": "bool",
          "name": "",
          "type": "bool"
        }
      ],
      "stateMutability": "view",
      "type": "function",
      "constant": true
    },
    {
      "inputs": [],
      "name": "symbol",
      "outputs": [
        {
          "internalType": "string",
          "name": "",
          "type": "string"
        }
      ],
      "stateMutability": "view",
      "type": "function",
      "constant": true
    },
    {
      "inputs": [
        {
          "internalType": "address",
          "name": "from",
          "type": "address"
        },
        {
          "internalType": "address",
          "name": "to",
          "type": "address"
        },
        {
          "internalType": "uint256",
          "name": "tokenId",
          "type": "uint256"
        }
      ],
      "name": "transferFrom",
      "outputs": [],
      "stateMutability": "nonpayable",
      "type": "function"
    },
    {
      "inputs": [
        {
          "internalType": "address",
          "name": "newOwner",
          "type": "address"
        }
      ],
      "name": "transferOwnership",
      "outputs": [],
      "stateMutability": "nonpayable",
      "type": "function"
    },
    {
      "inputs": [
        {
          "internalType": "address",
          "name": "owner",
          "type": "address"
        }
      ],
      "name": "updateContractOwner",
      "outputs": [],
      "stateMutability": "nonpayable",
      "type": "function"
    },
    {
      "inputs": [
        {
          "internalType": "address",
          "name": "minter",
          "type": "address"
        }
      ],
      "name": "updateContractMinter",
      "outputs": [],
      "stateMutability": "nonpayable",
      "type": "function"
    },
    {
      "inputs": [
        {
          "internalType": "uint256",
          "name": "boardId",
          "type": "uint256"
        },
        {
          "internalType": "string",
          "name": "slot",
          "type": "string"
        },
        {
          "internalType": "string",
          "name": "image",
          "type": "string"
        },
        {
          "internalType": "string",
          "name": "city",
          "type": "string"
        }
      ],
      "name": "mintToken",
      "outputs": [],
      "stateMutability": "nonpayable",
      "type": "function"
    },
    {
      "inputs": [
        {
          "internalType": "uint256",
          "name": "boardId",
          "type": "uint256"
        },
        {
          "internalType": "string",
          "name": "slot",
          "type": "string"
        },
        {
          "internalType": "string",
          "name": "image",
          "type": "string"
        },
        {
          "internalType": "string",
          "name": "city",
          "type": "string"
        },
        {
          "internalType": "string",
          "name": "adImage",
          "type": "string"
        },
        {
          "internalType": "string",
          "name": "redirectUrl",
          "type": "string"
        },
        {
          "internalType": "bool",
          "name": "status",
          "type": "bool"
        },
        {
          "internalType": "string",
          "name": "ownerName",
          "type": "string"
        }
      ],
      "name": "mintTokenWithData",
      "outputs": [],
      "stateMutability": "nonpayable",
      "type": "function"
    },
    {
      "inputs": [
        {
          "internalType": "uint256",
          "name": "tokenId",
          "type": "uint256"
        }
      ],
      "name": "tokenURI",
      "outputs": [
        {
          "internalType": "string",
          "name": "",
          "type": "string"
        }
      ],
      "stateMutability": "view",
      "type": "function",
      "constant": true
    },
    {
      "inputs": [
        {
          "internalType": "uint256",
          "name": "boardId",
          "type": "uint256"
        },
        {
          "internalType": "string",
          "name": "slot",
          "type": "string"
        },
        {
          "internalType": "string",
          "name": "adImage",
          "type": "string"
        },
        {
          "internalType": "string",
          "name": "redirectUrl",
          "type": "string"
        },
        {
          "internalType": "bool",
          "name": "status",
          "type": "bool"
        },
        {
          "internalType": "string",
          "name": "ownerName",
          "type": "string"
        }
      ],
      "name": "setMetaData",
      "outputs": [],
      "stateMutability": "nonpayable",
      "type": "function"
    },
    {
      "inputs": [
        {
          "internalType": "uint256",
          "name": "boardId",
          "type": "uint256"
        },
        {
          "internalType": "string",
          "name": "slot",
          "type": "string"
        },
        {
          "internalType": "string",
          "name": "adImage",
          "type": "string"
        }
      ],
      "name": "setAdImage",
      "outputs": [],
      "stateMutability": "nonpayable",
      "type": "function"
    },
    {
      "inputs": [
        {
          "internalType": "uint256",
          "name": "boardId",
          "type": "uint256"
        },
        {
          "internalType": "string",
          "name": "slot",
          "type": "string"
        },
        {
          "internalType": "string",
          "name": "redirectUrl",
          "type": "string"
        }
      ],
      "name": "setRedirectUrl",
      "outputs": [],
      "stateMutability": "nonpayable",
      "type": "function"
    },
    {
      "inputs": [
        {
          "internalType": "uint256",
          "name": "boardId",
          "type": "uint256"
        },
        {
          "internalType": "string",
          "name": "slot",
          "type": "string"
        },
        {
          "internalType": "bool",
          "name": "status",
          "type": "bool"
        }
      ],
      "name": "setStatus",
      "outputs": [],
      "stateMutability": "nonpayable",
      "type": "function"
    },
    {
      "inputs": [
        {
          "internalType": "uint256",
          "name": "boardId",
          "type": "uint256"
        },
        {
          "internalType": "string",
          "name": "slot",
          "type": "string"
        },
        {
          "internalType": "string",
          "name": "ownerName",
          "type": "string"
        }
      ],
      "name": "setOwnerName",
      "outputs": [],
      "stateMutability": "nonpayable",
      "type": "function"
    }
  ],
  "bytecode": "0x608060405260006009556000600a60006101000a81548173ffffffffffffffffffffffffffffffffffffffff021916908373ffffffffffffffffffffffffffffffffffffffff1602179055506000600b60006101000a81548173ffffffffffffffffffffffffffffffffffffffff021916908373ffffffffffffffffffffffffffffffffffffffff1602179055503480156200009a57600080fd5b50604051620045e4380380620045e48339818101604052810190620000c09190620003ae565b81818160009080519060200190620000da9291906200028c565b508060019080519060200190620000f39291906200028c565b505050620001166200010a620001be60201b60201c565b620001c660201b60201c565b62000126620001be60201b60201c565b600a60006101000a81548173ffffffffffffffffffffffffffffffffffffffff021916908373ffffffffffffffffffffffffffffffffffffffff16021790555062000176620001be60201b60201c565b600b60006101000a81548173ffffffffffffffffffffffffffffffffffffffff021916908373ffffffffffffffffffffffffffffffffffffffff160217905550505062000552565b600033905090565b6000600660009054906101000a900473ffffffffffffffffffffffffffffffffffffffff16905081600660006101000a81548173ffffffffffffffffffffffffffffffffffffffff021916908373ffffffffffffffffffffffffffffffffffffffff1602179055508173ffffffffffffffffffffffffffffffffffffffff168173ffffffffffffffffffffffffffffffffffffffff167f8be0079c531659141344cd1fd0a4f28419497f9722a3daafe3b4186f6b6457e060405160405180910390a35050565b8280546200029a90620004be565b90600052602060002090601f016020900481019282620002be57600085556200030a565b82601f10620002d957805160ff19168380011785556200030a565b828001600101855582156200030a579182015b8281111562000309578251825591602001919060010190620002ec565b5b5090506200031991906200031d565b5090565b5b80821115620003385760008160009055506001016200031e565b5090565b6000620003536200034d8462000455565b62000421565b9050828152602081018484840111156200036c57600080fd5b6200037984828562000488565b509392505050565b600082601f8301126200039357600080fd5b8151620003a58482602086016200033c565b91505092915050565b60008060408385031215620003c257600080fd5b600083015167ffffffffffffffff811115620003dd57600080fd5b620003eb8582860162000381565b925050602083015167ffffffffffffffff8111156200040957600080fd5b620004178582860162000381565b9150509250929050565b6000604051905081810181811067ffffffffffffffff821117156200044b576200044a62000523565b5b8060405250919050565b600067ffffffffffffffff82111562000473576200047262000523565b5b601f19601f8301169050602081019050919050565b60005b83811015620004a85780820151818401526020810190506200048b565b83811115620004b8576000848401525b50505050565b60006002820490506001821680620004d757607f821691505b60208210811415620004ee57620004ed620004f4565b5b50919050565b7f4e487b7100000000000000000000000000000000000000000000000000000000600052602260045260246000fd5b7f4e487b7100000000000000000000000000000000000000000000000000000000600052604160045260246000fd5b61408280620005626000396000f3fe608060405234801561001057600080fd5b50600436106101a95760003560e01c8063715018a6116100f9578063c87b56dd11610097578063e985e9c511610071578063e985e9c5146104b8578063eb9df7db146104e8578063f2fde38b14610504578063f38b6bb014610520576101a9565b8063c87b56dd1461043c578063d40dace81461046c578063e617f69514610488576101a9565b8063a22cb465116100d3578063a22cb465146103b2578063ae05b832146103ce578063b88d4fde14610404578063c28aeb7714610420576101a9565b8063715018a61461036c5780638da5cb5b1461037657806395d89b4114610394576101a9565b80633f6c13bc11610166578063483f1d1311610140578063483f1d13146102d45780636352211e146102f057806366b87c7e1461032057806370a082311461033c576101a9565b80633f6c13bc1461028057806342842e0e1461029c578063483a6e57146102b8576101a9565b806301ffc9a7146101ae57806306fdde03146101de578063081812fc146101fc578063095ea7b31461022c5780630d329f581461024857806323b872dd14610264575b600080fd5b6101c860048036038101906101c39190612c7b565b61053c565b6040516101d59190613982565b60405180910390f35b6101e661061e565b6040516101f3919061399d565b60405180910390f35b61021660048036038101906102119190612ccd565b6106b0565b604051610223919061391b565b60405180910390f35b61024660048036038101906102419190612c3f565b610735565b005b610262600480360381019061025d9190612fc4565b61084d565b005b61027e60048036038101906102799190612b39565b610871565b005b61029a60048036038101906102959190612edb565b6108d1565b005b6102b660048036038101906102b19190612b39565b610af5565b005b6102d260048036038101906102cd9190612db1565b610b15565b005b6102ee60048036038101906102e99190612d4a565b610c5e565b005b61030a60048036038101906103059190612ccd565b610daa565b604051610317919061391b565b60405180910390f35b61033a60048036038101906103359190612db1565b610e5c565b005b61035660048036038101906103519190612ad4565b610fa5565b6040516103639190613c5f565b60405180910390f35b61037461105d565b005b61037e6110e5565b60405161038b919061391b565b60405180910390f35b61039c61110f565b6040516103a9919061399d565b60405180910390f35b6103cc60048036038101906103c79190612c03565b6111a1565b005b6103e860048036038101906103e39190612cf6565b611322565b6040516103fb9796959493929190613c7a565b60405180910390f35b61041e60048036038101906104199190612b88565b61163c565b005b61043a60048036038101906104359190612db1565b61169e565b005b61045660048036038101906104519190612ccd565b6117e7565b604051610463919061399d565b60405180910390f35b61048660048036038101906104819190612e30565b6118d4565b005b6104a2600480360381019061049d9190612ccd565b611b2d565b6040516104af919061399d565b60405180910390f35b6104d260048036038101906104cd9190612afd565b611bcd565b6040516104df9190613982565b60405180910390f35b61050260048036038101906104fd9190612ad4565b611c61565b005b61051e60048036038101906105199190612ad4565b611d3c565b005b61053a60048036038101906105359190612ad4565b611e34565b005b60007f80ac58cd000000000000000000000000000000000000000000000000000000007bffffffffffffffffffffffffffffffffffffffffffffffffffffffff1916827bffffffffffffffffffffffffffffffffffffffffffffffffffffffff1916148061060757507f5b5e139f000000000000000000000000000000000000000000000000000000007bffffffffffffffffffffffffffffffffffffffffffffffffffffffff1916827bffffffffffffffffffffffffffffffffffffffffffffffffffffffff1916145b80610617575061061682611f0f565b5b9050919050565b60606000805461062d90613f20565b80601f016020809104026020016040519081016040528092919081815260200182805461065990613f20565b80156106a65780601f1061067b576101008083540402835291602001916106a6565b820191906000526020600020905b81548152906001019060200180831161068957829003601f168201915b5050505050905090565b60006106bb82611f79565b6106fa576040517f08c379a00000000000000000000000000000000000000000000000000000000081526004016106f190613b7f565b60405180910390fd5b6004600083815260200190815260200160002060009054906101000a900473ffffffffffffffffffffffffffffffffffffffff169050919050565b600061074082610daa565b90508073ffffffffffffffffffffffffffffffffffffffff168373ffffffffffffffffffffffffffffffffffffffff1614156107b1576040517f08c379a00000000000000000000000000000000000000000000000000000000081526004016107a890613c1f565b60405180910390fd5b8073ffffffffffffffffffffffffffffffffffffffff166107d0611fe5565b73ffffffffffffffffffffffffffffffffffffffff1614806107ff57506107fe816107f9611fe5565b611bcd565b5b61083e576040517f08c379a000000000000000000000000000000000000000000000000000000000815260040161083590613aff565b60405180910390fd5b6108488383611fed565b505050565b610859888888886118d4565b6108678888868686866108d1565b5050505050505050565b61088261087c611fe5565b826120a6565b6108c1576040517f08c379a00000000000000000000000000000000000000000000000000000000081526004016108b890613c3f565b60405180910390fd5b6108cc838383612184565b505050565b600060076000888152602001908152602001600020866040516108f49190613904565b908152602001604051809103902060000154905061091181611f79565b610950576040517f08c379a000000000000000000000000000000000000000000000000000000000815260040161094790613abf565b60405180910390fd5b61095981610daa565b73ffffffffffffffffffffffffffffffffffffffff16610977611fe5565b73ffffffffffffffffffffffffffffffffffffffff16146109cd576040517f08c379a00000000000000000000000000000000000000000000000000000000081526004016109c490613bdf565b60405180910390fd5b8460076000898152602001908152602001600020876040516109ef9190613904565b90815260200160405180910390206004019080519060200190610a139291906128f8565b50836007600089815260200190815260200160002087604051610a369190613904565b90815260200160405180910390206003019080519060200190610a5a9291906128f8565b50826007600089815260200190815260200160002087604051610a7d9190613904565b908152602001604051809103902060050160006101000a81548160ff021916908315150217905550816007600089815260200190815260200160002087604051610ac79190613904565b90815260200160405180910390206006019080519060200190610aeb9291906128f8565b5050505050505050565b610b108383836040518060200160405280600081525061163c565b505050565b60006007600085815260200190815260200160002083604051610b389190613904565b9081526020016040518091039020600001549050610b5581611f79565b610b94576040517f08c379a0000000000000000000000000000000000000000000000000000000008152600401610b8b90613abf565b60405180910390fd5b610b9d81610daa565b73ffffffffffffffffffffffffffffffffffffffff16610bbb611fe5565b73ffffffffffffffffffffffffffffffffffffffff1614610c11576040517f08c379a0000000000000000000000000000000000000000000000000000000008152600401610c0890613bdf565b60405180910390fd5b816007600086815260200190815260200160002084604051610c339190613904565b90815260200160405180910390206004019080519060200190610c579291906128f8565b5050505050565b60006007600085815260200190815260200160002083604051610c819190613904565b9081526020016040518091039020600001549050610c9e81611f79565b610cdd576040517f08c379a0000000000000000000000000000000000000000000000000000000008152600401610cd490613abf565b60405180910390fd5b610ce681610daa565b73ffffffffffffffffffffffffffffffffffffffff16610d04611fe5565b73ffffffffffffffffffffffffffffffffffffffff1614610d5a576040517f08c379a0000000000000000000000000000000000000000000000000000000008152600401610d5190613bdf565b60405180910390fd5b816007600086815260200190815260200160002084604051610d7c9190613904565b908152602001604051809103902060050160006101000a81548160ff02191690831515021790555050505050565b6000806002600084815260200190815260200160002060009054906101000a900473ffffffffffffffffffffffffffffffffffffffff169050600073ffffffffffffffffffffffffffffffffffffffff168173ffffffffffffffffffffffffffffffffffffffff161415610e53576040517f08c379a0000000000000000000000000000000000000000000000000000000008152600401610e4a90613b3f565b60405180910390fd5b80915050919050565b60006007600085815260200190815260200160002083604051610e7f9190613904565b9081526020016040518091039020600001549050610e9c81611f79565b610edb576040517f08c379a0000000000000000000000000000000000000000000000000000000008152600401610ed290613abf565b60405180910390fd5b610ee481610daa565b73ffffffffffffffffffffffffffffffffffffffff16610f02611fe5565b73ffffffffffffffffffffffffffffffffffffffff1614610f58576040517f08c379a0000000000000000000000000000000000000000000000000000000008152600401610f4f90613bdf565b60405180910390fd5b816007600086815260200190815260200160002084604051610f7a9190613904565b90815260200160405180910390206003019080519060200190610f9e9291906128f8565b5050505050565b60008073ffffffffffffffffffffffffffffffffffffffff168273ffffffffffffffffffffffffffffffffffffffff161415611016576040517f08c379a000000000000000000000000000000000000000000000000000000000815260040161100d90613b1f565b60405180910390fd5b600360008373ffffffffffffffffffffffffffffffffffffffff1673ffffffffffffffffffffffffffffffffffffffff168152602001908152602001600020549050919050565b611065611fe5565b73ffffffffffffffffffffffffffffffffffffffff166110836110e5565b73ffffffffffffffffffffffffffffffffffffffff16146110d9576040517f08c379a00000000000000000000000000000000000000000000000000000000081526004016110d090613bbf565b60405180910390fd5b6110e360006123e0565b565b6000600660009054906101000a900473ffffffffffffffffffffffffffffffffffffffff16905090565b60606001805461111e90613f20565b80601f016020809104026020016040519081016040528092919081815260200182805461114a90613f20565b80156111975780601f1061116c57610100808354040283529160200191611197565b820191906000526020600020905b81548152906001019060200180831161117a57829003601f168201915b5050505050905090565b6111a9611fe5565b73ffffffffffffffffffffffffffffffffffffffff168273ffffffffffffffffffffffffffffffffffffffff161415611217576040517f08c379a000000000000000000000000000000000000000000000000000000000815260040161120e90613a7f565b60405180910390fd5b8060056000611224611fe5565b73ffffffffffffffffffffffffffffffffffffffff1673ffffffffffffffffffffffffffffffffffffffff16815260200190815260200160002060008473ffffffffffffffffffffffffffffffffffffffff1673ffffffffffffffffffffffffffffffffffffffff16815260200190815260200160002060006101000a81548160ff0219169083151502179055508173ffffffffffffffffffffffffffffffffffffffff166112d1611fe5565b73ffffffffffffffffffffffffffffffffffffffff167f17307eab39ab6107e8899845ad3d59bd9653f200f220920489ca2b5937696c31836040516113169190613982565b60405180910390a35050565b6007602052816000526040600020818051602081018201805184825260208301602085012081835280955050505050506000915091505080600001549080600101805461136e90613f20565b80601f016020809104026020016040519081016040528092919081815260200182805461139a90613f20565b80156113e75780601f106113bc576101008083540402835291602001916113e7565b820191906000526020600020905b8154815290600101906020018083116113ca57829003601f168201915b5050505050908060020180546113fc90613f20565b80601f016020809104026020016040519081016040528092919081815260200182805461142890613f20565b80156114755780601f1061144a57610100808354040283529160200191611475565b820191906000526020600020905b81548152906001019060200180831161145857829003601f168201915b50505050509080600301805461148a90613f20565b80601f01602080910402602001604051908101604052809291908181526020018280546114b690613f20565b80156115035780601f106114d857610100808354040283529160200191611503565b820191906000526020600020905b8154815290600101906020018083116114e657829003601f168201915b50505050509080600401805461151890613f20565b80601f016020809104026020016040519081016040528092919081815260200182805461154490613f20565b80156115915780601f1061156657610100808354040283529160200191611591565b820191906000526020600020905b81548152906001019060200180831161157457829003601f168201915b5050505050908060050160009054906101000a900460ff16908060060180546115b990613f20565b80601f01602080910402602001604051908101604052809291908181526020018280546115e590613f20565b80156116325780601f1061160757610100808354040283529160200191611632565b820191906000526020600020905b81548152906001019060200180831161161557829003601f168201915b5050505050905087565b61164d611647611fe5565b836120a6565b61168c576040517f08c379a000000000000000000000000000000000000000000000000000000000815260040161168390613c3f565b60405180910390fd5b611698848484846124a6565b50505050565b600060076000858152602001908152602001600020836040516116c19190613904565b90815260200160405180910390206000015490506116de81611f79565b61171d576040517f08c379a000000000000000000000000000000000000000000000000000000000815260040161171490613abf565b60405180910390fd5b61172681610daa565b73ffffffffffffffffffffffffffffffffffffffff16611744611fe5565b73ffffffffffffffffffffffffffffffffffffffff161461179a576040517f08c379a000000000000000000000000000000000000000000000000000000000815260040161179190613bdf565b60405180910390fd5b8160076000868152602001908152602001600020846040516117bc9190613904565b908152602001604051809103902060060190805190602001906117e09291906128f8565b5050505050565b60606117f282611f79565b611831576040517f08c379a000000000000000000000000000000000000000000000000000000000815260040161182890613abf565b60405180910390fd5b60086000838152602001908152602001600020805461184f90613f20565b80601f016020809104026020016040519081016040528092919081815260200182805461187b90613f20565b80156118c85780601f1061189d576101008083540402835291602001916118c8565b820191906000526020600020905b8154815290600101906020018083116118ab57829003601f168201915b50505050509050919050565b600b60009054906101000a900473ffffffffffffffffffffffffffffffffffffffff1673ffffffffffffffffffffffffffffffffffffffff16611915611fe5565b73ffffffffffffffffffffffffffffffffffffffff161461196b576040517f08c379a000000000000000000000000000000000000000000000000000000000815260040161196290613b9f565b60405180910390fd5b6000600760008681526020019081526020016000208460405161198e9190613904565b908152602001604051809103902060010180546119aa90613f20565b9050146119ec576040517f08c379a00000000000000000000000000000000000000000000000000000000081526004016119e390613a3f565b60405180910390fd5b60006009549050611a1f600b60009054906101000a900473ffffffffffffffffffffffffffffffffffffffff1682612502565b600160096000828254611a329190613de0565b92505081905550806007600087815260200190815260200160002085604051611a5b9190613904565b908152602001604051809103902060000181905550826007600087815260200190815260200160002085604051611a929190613904565b90815260200160405180910390206001019080519060200190611ab69291906128f8565b50816007600087815260200190815260200160002085604051611ad99190613904565b90815260200160405180910390206002019080519060200190611afd9291906128f8565b5082600860008381526020019081526020016000209080519060200190611b259291906128f8565b505050505050565b60086020528060005260406000206000915090508054611b4c90613f20565b80601f0160208091040260200160405190810160405280929190818152602001828054611b7890613f20565b8015611bc55780601f10611b9a57610100808354040283529160200191611bc5565b820191906000526020600020905b815481529060010190602001808311611ba857829003601f168201915b505050505081565b6000600560008473ffffffffffffffffffffffffffffffffffffffff1673ffffffffffffffffffffffffffffffffffffffff16815260200190815260200160002060008373ffffffffffffffffffffffffffffffffffffffff1673ffffffffffffffffffffffffffffffffffffffff16815260200190815260200160002060009054906101000a900460ff16905092915050565b600a60009054906101000a900473ffffffffffffffffffffffffffffffffffffffff1673ffffffffffffffffffffffffffffffffffffffff16611ca2611fe5565b73ffffffffffffffffffffffffffffffffffffffff1614611cf8576040517f08c379a0000000000000000000000000000000000000000000000000000000008152600401611cef90613a9f565b60405180910390fd5b80600a60006101000a81548173ffffffffffffffffffffffffffffffffffffffff021916908373ffffffffffffffffffffffffffffffffffffffff16021790555050565b611d44611fe5565b73ffffffffffffffffffffffffffffffffffffffff16611d626110e5565b73ffffffffffffffffffffffffffffffffffffffff1614611db8576040517f08c379a0000000000000000000000000000000000000000000000000000000008152600401611daf90613bbf565b60405180910390fd5b600073ffffffffffffffffffffffffffffffffffffffff168173ffffffffffffffffffffffffffffffffffffffff161415611e28576040517f08c379a0000000000000000000000000000000000000000000000000000000008152600401611e1f906139df565b60405180910390fd5b611e31816123e0565b50565b600a60009054906101000a900473ffffffffffffffffffffffffffffffffffffffff1673ffffffffffffffffffffffffffffffffffffffff16611e75611fe5565b73ffffffffffffffffffffffffffffffffffffffff1614611ecb576040517f08c379a0000000000000000000000000000000000000000000000000000000008152600401611ec2906139ff565b60405180910390fd5b80600b60006101000a81548173ffffffffffffffffffffffffffffffffffffffff021916908373ffffffffffffffffffffffffffffffffffffffff16021790555050565b60007f01ffc9a7000000000000000000000000000000000000000000000000000000007bffffffffffffffffffffffffffffffffffffffffffffffffffffffff1916827bffffffffffffffffffffffffffffffffffffffffffffffffffffffff1916149050919050565b60008073ffffffffffffffffffffffffffffffffffffffff166002600084815260200190815260200160002060009054906101000a900473ffffffffffffffffffffffffffffffffffffffff1673ffffffffffffffffffffffffffffffffffffffff1614159050919050565b600033905090565b816004600083815260200190815260200160002060006101000a81548173ffffffffffffffffffffffffffffffffffffffff021916908373ffffffffffffffffffffffffffffffffffffffff160217905550808273ffffffffffffffffffffffffffffffffffffffff1661206083610daa565b73ffffffffffffffffffffffffffffffffffffffff167f8c5be1e5ebec7d5bd14f71427d1e84f3dd0314c0f7b2291e5b200ac8c7c3b92560405160405180910390a45050565b60006120b182611f79565b6120f0576040517f08c379a00000000000000000000000000000000000000000000000000000000081526004016120e790613adf565b60405180910390fd5b60006120fb83610daa565b90508073ffffffffffffffffffffffffffffffffffffffff168473ffffffffffffffffffffffffffffffffffffffff16148061216a57508373ffffffffffffffffffffffffffffffffffffffff16612152846106b0565b73ffffffffffffffffffffffffffffffffffffffff16145b8061217b575061217a8185611bcd565b5b91505092915050565b8273ffffffffffffffffffffffffffffffffffffffff166121a482610daa565b73ffffffffffffffffffffffffffffffffffffffff16146121fa576040517f08c379a00000000000000000000000000000000000000000000000000000000081526004016121f190613bff565b60405180910390fd5b600073ffffffffffffffffffffffffffffffffffffffff168273ffffffffffffffffffffffffffffffffffffffff16141561226a576040517f08c379a000000000000000000000000000000000000000000000000000000000815260040161226190613a5f565b60405180910390fd5b612275838383612520565b612280600082611fed565b6001600360008573ffffffffffffffffffffffffffffffffffffffff1673ffffffffffffffffffffffffffffffffffffffff16815260200190815260200160002060008282546122d09190613e36565b925050819055506001600360008473ffffffffffffffffffffffffffffffffffffffff1673ffffffffffffffffffffffffffffffffffffffff16815260200190815260200160002060008282546123279190613de0565b92505081905550816002600083815260200190815260200160002060006101000a81548173ffffffffffffffffffffffffffffffffffffffff021916908373ffffffffffffffffffffffffffffffffffffffff160217905550808273ffffffffffffffffffffffffffffffffffffffff168473ffffffffffffffffffffffffffffffffffffffff167fddf252ad1be2c89b69c2b068fc378daa952ba7f163c4a11628f55a4df523b3ef60405160405180910390a4505050565b6000600660009054906101000a900473ffffffffffffffffffffffffffffffffffffffff16905081600660006101000a81548173ffffffffffffffffffffffffffffffffffffffff021916908373ffffffffffffffffffffffffffffffffffffffff1602179055508173ffffffffffffffffffffffffffffffffffffffff168173ffffffffffffffffffffffffffffffffffffffff167f8be0079c531659141344cd1fd0a4f28419497f9722a3daafe3b4186f6b6457e060405160405180910390a35050565b6124b1848484612184565b6124bd84848484612525565b6124fc576040517f08c379a00000000000000000000000000000000000000000000000000000000081526004016124f3906139bf565b60405180910390fd5b50505050565b61251c8282604051806020016040528060008152506126bc565b5050565b505050565b60006125468473ffffffffffffffffffffffffffffffffffffffff16612717565b156126af578373ffffffffffffffffffffffffffffffffffffffff1663150b7a0261256f611fe5565b8786866040518563ffffffff1660e01b81526004016125919493929190613936565b602060405180830381600087803b1580156125ab57600080fd5b505af19250505080156125dc57506040513d601f19601f820116820180604052508101906125d99190612ca4565b60015b61265f573d806000811461260c576040519150601f19603f3d011682016040523d82523d6000602084013e612611565b606091505b50600081511415612657576040517f08c379a000000000000000000000000000000000000000000000000000000000815260040161264e906139bf565b60405180910390fd5b805181602001fd5b63150b7a0260e01b7bffffffffffffffffffffffffffffffffffffffffffffffffffffffff1916817bffffffffffffffffffffffffffffffffffffffffffffffffffffffff1916149150506126b4565b600190505b949350505050565b6126c6838361272a565b6126d36000848484612525565b612712576040517f08c379a0000000000000000000000000000000000000000000000000000000008152600401612709906139bf565b60405180910390fd5b505050565b600080823b905060008111915050919050565b600073ffffffffffffffffffffffffffffffffffffffff168273ffffffffffffffffffffffffffffffffffffffff16141561279a576040517f08c379a000000000000000000000000000000000000000000000000000000000815260040161279190613b5f565b60405180910390fd5b6127a381611f79565b156127e3576040517f08c379a00000000000000000000000000000000000000000000000000000000081526004016127da90613a1f565b60405180910390fd5b6127ef60008383612520565b6001600360008473ffffffffffffffffffffffffffffffffffffffff1673ffffffffffffffffffffffffffffffffffffffff168152602001908152602001600020600082825461283f9190613de0565b92505081905550816002600083815260200190815260200160002060006101000a81548173ffffffffffffffffffffffffffffffffffffffff021916908373ffffffffffffffffffffffffffffffffffffffff160217905550808273ffffffffffffffffffffffffffffffffffffffff16600073ffffffffffffffffffffffffffffffffffffffff167fddf252ad1be2c89b69c2b068fc378daa952ba7f163c4a11628f55a4df523b3ef60405160405180910390a45050565b82805461290490613f20565b90600052602060002090601f016020900481019282612926576000855561296d565b82601f1061293f57805160ff191683800117855561296d565b8280016001018555821561296d579182015b8281111561296c578251825591602001919060010190612951565b5b50905061297a919061297e565b5090565b5b8082111561299757600081600090555060010161297f565b5090565b60006129ae6129a984613d3d565b613d0c565b9050828152602081018484840111156129c657600080fd5b6129d1848285613ede565b509392505050565b60006129ec6129e784613d6d565b613d0c565b905082815260208101848484011115612a0457600080fd5b612a0f848285613ede565b509392505050565b600081359050612a2681613ff0565b92915050565b600081359050612a3b81614007565b92915050565b600081359050612a508161401e565b92915050565b600081519050612a658161401e565b92915050565b600082601f830112612a7c57600080fd5b8135612a8c84826020860161299b565b91505092915050565b600082601f830112612aa657600080fd5b8135612ab68482602086016129d9565b91505092915050565b600081359050612ace81614035565b92915050565b600060208284031215612ae657600080fd5b6000612af484828501612a17565b91505092915050565b60008060408385031215612b1057600080fd5b6000612b1e85828601612a17565b9250506020612b2f85828601612a17565b9150509250929050565b600080600060608486031215612b4e57600080fd5b6000612b5c86828701612a17565b9350506020612b6d86828701612a17565b9250506040612b7e86828701612abf565b9150509250925092565b60008060008060808587031215612b9e57600080fd5b6000612bac87828801612a17565b9450506020612bbd87828801612a17565b9350506040612bce87828801612abf565b925050606085013567ffffffffffffffff811115612beb57600080fd5b612bf787828801612a6b565b91505092959194509250565b60008060408385031215612c1657600080fd5b6000612c2485828601612a17565b9250506020612c3585828601612a2c565b9150509250929050565b60008060408385031215612c5257600080fd5b6000612c6085828601612a17565b9250506020612c7185828601612abf565b9150509250929050565b600060208284031215612c8d57600080fd5b6000612c9b84828501612a41565b91505092915050565b600060208284031215612cb657600080fd5b6000612cc484828501612a56565b91505092915050565b600060208284031215612cdf57600080fd5b6000612ced84828501612abf565b91505092915050565b60008060408385031215612d0957600080fd5b6000612d1785828601612abf565b925050602083013567ffffffffffffffff811115612d3457600080fd5b612d4085828601612a95565b9150509250929050565b600080600060608486031215612d5f57600080fd5b6000612d6d86828701612abf565b935050602084013567ffffffffffffffff811115612d8a57600080fd5b612d9686828701612a95565b9250506040612da786828701612a2c565b9150509250925092565b600080600060608486031215612dc657600080fd5b6000612dd486828701612abf565b935050602084013567ffffffffffffffff811115612df157600080fd5b612dfd86828701612a95565b925050604084013567ffffffffffffffff811115612e1a57600080fd5b612e2686828701612a95565b9150509250925092565b60008060008060808587031215612e4657600080fd5b6000612e5487828801612abf565b945050602085013567ffffffffffffffff811115612e7157600080fd5b612e7d87828801612a95565b935050604085013567ffffffffffffffff811115612e9a57600080fd5b612ea687828801612a95565b925050606085013567ffffffffffffffff811115612ec357600080fd5b612ecf87828801612a95565b91505092959194509250565b60008060008060008060c08789031215612ef457600080fd5b6000612f0289828a01612abf565b965050602087013567ffffffffffffffff811115612f1f57600080fd5b612f2b89828a01612a95565b955050604087013567ffffffffffffffff811115612f4857600080fd5b612f5489828a01612a95565b945050606087013567ffffffffffffffff811115612f7157600080fd5b612f7d89828a01612a95565b9350506080612f8e89828a01612a2c565b92505060a087013567ffffffffffffffff811115612fab57600080fd5b612fb789828a01612a95565b9150509295509295509295565b600080600080600080600080610100898b031215612fe157600080fd5b6000612fef8b828c01612abf565b985050602089013567ffffffffffffffff81111561300c57600080fd5b6130188b828c01612a95565b975050604089013567ffffffffffffffff81111561303557600080fd5b6130418b828c01612a95565b965050606089013567ffffffffffffffff81111561305e57600080fd5b61306a8b828c01612a95565b955050608089013567ffffffffffffffff81111561308757600080fd5b6130938b828c01612a95565b94505060a089013567ffffffffffffffff8111156130b057600080fd5b6130bc8b828c01612a95565b93505060c06130cd8b828c01612a2c565b92505060e089013567ffffffffffffffff8111156130ea57600080fd5b6130f68b828c01612a95565b9150509295985092959890939650565b61310f81613e6a565b82525050565b61311e81613e7c565b82525050565b600061312f82613d9d565b6131398185613db3565b9350613149818560208601613eed565b61315281613fdf565b840191505092915050565b600061316882613da8565b6131728185613dc4565b9350613182818560208601613eed565b61318b81613fdf565b840191505092915050565b60006131a182613da8565b6131ab8185613dd5565b93506131bb818560208601613eed565b80840191505092915050565b60006131d4603283613dc4565b91507f4552433732313a207472616e7366657220746f206e6f6e20455243373231526560008301527f63656976657220696d706c656d656e74657200000000000000000000000000006020830152604082019050919050565b600061323a602683613dc4565b91507f4f776e61626c653a206e6577206f776e657220697320746865207a65726f206160008301527f64647265737300000000000000000000000000000000000000000000000000006020830152604082019050919050565b60006132a0602583613dc4565b91507f4f6e6c79206f776e65722063616e2075706461746520636f6e7472616374206d60008301527f696e7465720000000000000000000000000000000000000000000000000000006020830152604082019050919050565b6000613306601c83613dc4565b91507f4552433732313a20746f6b656e20616c7265616479206d696e746564000000006000830152602082019050919050565b6000613346601483613dc4565b91507f546f6b656e20616c7265616479206578697374730000000000000000000000006000830152602082019050919050565b6000613386602483613dc4565b91507f4552433732313a207472616e7366657220746f20746865207a65726f2061646460008301527f72657373000000000000000000000000000000000000000000000000000000006020830152604082019050919050565b60006133ec601983613dc4565b91507f4552433732313a20617070726f766520746f2063616c6c6572000000000000006000830152602082019050919050565b600061342c602183613dc4565b91507f4f6e6c79206f776e65722063616e207472616e73666572206f776e657273686960008301527f70000000000000000000000000000000000000000000000000000000000000006020830152604082019050919050565b6000613492601483613dc4565b91507f546f6b656e20646f6573206e6f742065786973740000000000000000000000006000830152602082019050919050565b60006134d2602c83613dc4565b91507f4552433732313a206f70657261746f7220717565727920666f72206e6f6e657860008301527f697374656e7420746f6b656e00000000000000000000000000000000000000006020830152604082019050919050565b6000613538603883613dc4565b91507f4552433732313a20617070726f76652063616c6c6572206973206e6f74206f7760008301527f6e6572206e6f7220617070726f76656420666f7220616c6c00000000000000006020830152604082019050919050565b600061359e602a83613dc4565b91507f4552433732313a2062616c616e636520717565727920666f7220746865207a6560008301527f726f2061646472657373000000000000000000000000000000000000000000006020830152604082019050919050565b6000613604602983613dc4565b91507f4552433732313a206f776e657220717565727920666f72206e6f6e657869737460008301527f656e7420746f6b656e00000000000000000000000000000000000000000000006020830152604082019050919050565b600061366a602083613dc4565b91507f4552433732313a206d696e7420746f20746865207a65726f20616464726573736000830152602082019050919050565b60006136aa602c83613dc4565b91507f4552433732313a20617070726f76656420717565727920666f72206e6f6e657860008301527f697374656e7420746f6b656e00000000000000000000000000000000000000006020830152604082019050919050565b6000613710601c83613dc4565b91507f4f6e6c79206d696e74657220616464726573732063616e206d696e74000000006000830152602082019050919050565b6000613750602083613dc4565b91507f4f776e61626c653a2063616c6c6572206973206e6f7420746865206f776e65726000830152602082019050919050565b6000613790601e83613dc4565b91507f4f6e6c79206f776e65722063616e20757064617465206d6574616461746100006000830152602082019050919050565b60006137d0602983613dc4565b91507f4552433732313a207472616e73666572206f6620746f6b656e2074686174206960008301527f73206e6f74206f776e00000000000000000000000000000000000000000000006020830152604082019050919050565b6000613836602183613dc4565b91507f4552433732313a20617070726f76616c20746f2063757272656e74206f776e6560008301527f72000000000000000000000000000000000000000000000000000000000000006020830152604082019050919050565b600061389c603183613dc4565b91507f4552433732313a207472616e736665722063616c6c6572206973206e6f74206f60008301527f776e6572206e6f7220617070726f7665640000000000000000000000000000006020830152604082019050919050565b6138fe81613ed4565b82525050565b60006139108284613196565b915081905092915050565b60006020820190506139306000830184613106565b92915050565b600060808201905061394b6000830187613106565b6139586020830186613106565b61396560408301856138f5565b81810360608301526139778184613124565b905095945050505050565b60006020820190506139976000830184613115565b92915050565b600060208201905081810360008301526139b7818461315d565b905092915050565b600060208201905081810360008301526139d8816131c7565b9050919050565b600060208201905081810360008301526139f88161322d565b9050919050565b60006020820190508181036000830152613a1881613293565b9050919050565b60006020820190508181036000830152613a38816132f9565b9050919050565b60006020820190508181036000830152613a5881613339565b9050919050565b60006020820190508181036000830152613a7881613379565b9050919050565b60006020820190508181036000830152613a98816133df565b9050919050565b60006020820190508181036000830152613ab88161341f565b9050919050565b60006020820190508181036000830152613ad881613485565b9050919050565b60006020820190508181036000830152613af8816134c5565b9050919050565b60006020820190508181036000830152613b188161352b565b9050919050565b60006020820190508181036000830152613b3881613591565b9050919050565b60006020820190508181036000830152613b58816135f7565b9050919050565b60006020820190508181036000830152613b788161365d565b9050919050565b60006020820190508181036000830152613b988161369d565b9050919050565b60006020820190508181036000830152613bb881613703565b9050919050565b60006020820190508181036000830152613bd881613743565b9050919050565b60006020820190508181036000830152613bf881613783565b9050919050565b60006020820190508181036000830152613c18816137c3565b9050919050565b60006020820190508181036000830152613c3881613829565b9050919050565b60006020820190508181036000830152613c588161388f565b9050919050565b6000602082019050613c7460008301846138f5565b92915050565b600060e082019050613c8f600083018a6138f5565b8181036020830152613ca1818961315d565b90508181036040830152613cb5818861315d565b90508181036060830152613cc9818761315d565b90508181036080830152613cdd818661315d565b9050613cec60a0830185613115565b81810360c0830152613cfe818461315d565b905098975050505050505050565b6000604051905081810181811067ffffffffffffffff82111715613d3357613d32613fb0565b5b8060405250919050565b600067ffffffffffffffff821115613d5857613d57613fb0565b5b601f19601f8301169050602081019050919050565b600067ffffffffffffffff821115613d8857613d87613fb0565b5b601f19601f8301169050602081019050919050565b600081519050919050565b600081519050919050565b600082825260208201905092915050565b600082825260208201905092915050565b600081905092915050565b6000613deb82613ed4565b9150613df683613ed4565b9250827fffffffffffffffffffffffffffffffffffffffffffffffffffffffffffffffff03821115613e2b57613e2a613f52565b5b828201905092915050565b6000613e4182613ed4565b9150613e4c83613ed4565b925082821015613e5f57613e5e613f52565b5b828203905092915050565b6000613e7582613eb4565b9050919050565b60008115159050919050565b60007fffffffff0000000000000000000000000000000000000000000000000000000082169050919050565b600073ffffffffffffffffffffffffffffffffffffffff82169050919050565b6000819050919050565b82818337600083830152505050565b60005b83811015613f0b578082015181840152602081019050613ef0565b83811115613f1a576000848401525b50505050565b60006002820490506001821680613f3857607f821691505b60208210811415613f4c57613f4b613f81565b5b50919050565b7f4e487b7100000000000000000000000000000000000000000000000000000000600052601160045260246000fd5b7f4e487b7100000000000000000000000000000000000000000000000000000000600052602260045260246000fd5b7f4e487b7100000000000000000000000000000000000000000000000000000000600052604160045260246000fd5b6000601f19601f8301169050919050565b613ff981613e6a565b811461400457600080fd5b50565b61401081613e7c565b811461401b57600080fd5b50565b61402781613e88565b811461403257600080fd5b50565b61403e81613ed4565b811461404957600080fd5b5056fea264697066735822122052f3e0d32e93cb1a1fe64cecd76dcee9a181ab0e761ceb9613c30a35351b8ba864736f6c63430008000033",
  "immutableReferences": {},
  "source": "pragma solidity ^0.8.0;\n\nimport \"openzeppelin-solidity/contracts/token/ERC721/ERC721.sol\";\nimport \"openzeppelin-solidity/contracts/access/Ownable.sol\";\nimport \"openzeppelin-solidity/contracts/utils/math/SafeMath.sol\";\n\ncontract EnvoyBillboard is ERC721, Ownable {\n\n  using SafeMath for uint256;\n\n  //\n  // ******************* METADATA STRUCT *******************\n  //\n\n  struct MetaData {\n    uint256 tokenId;\n    string image;\n    string city;\n    string redirectUrl;\n    string adImage;\n    bool status;\n    string ownerName;\n  }\n\n  //\n  // ******************* VARIABLES *******************\n  //\n\n  // MetaData map\n  mapping(uint256 => mapping(string => MetaData)) public _tokenData;\n\n  // Default ERC721 image\n  mapping(uint256 => string) public _tokenImage;\n\n  // Total tokens\n  uint256 private _totalSupply = 0;\n\n  // Contract owner\n  address private _contractOwner = address(0);\n\n  // Contract minter\n  address private _contractMinter = address(0);\n\n  //\n  // ******************* SETUP *******************\n  //\n\n  // Constructor\n  constructor (string memory name, string memory symbol) public ERC721(name, symbol) {\n\n    // Initially the deployer is the owner\n    _contractOwner = _msgSender();\n    _contractMinter = _msgSender();\n  }\n\n  //\n  // ******************* OWNERSHIP *******************\n  //\n\n  function updateContractOwner(address owner) public {\n    require(_msgSender() == _contractOwner, \"Only owner can transfer ownership\");\n\n    _contractOwner = owner; \n  }\n\n  function updateContractMinter(address minter) public {\n    require(_msgSender() == _contractOwner, \"Only owner can update contract minter\");\n\n    _contractMinter = minter;\n  }\n\n  //\n  // ******************* MINT *******************\n  //\n\n  function mintToken(\n      uint256 boardId,\n      string memory slot,\n      string memory image, \n      string memory city\n    ) public {\n\n    require(_msgSender() == _contractMinter, \"Only minter address can mint\");\n    require(bytes(_tokenData[boardId][slot].image).length == 0, \"Token already exists\");\n\n    // Minted token will be send to minter address\n    uint256 tokenId = _totalSupply;\n    _safeMint(_contractMinter, tokenId);\n    _totalSupply += 1;\n\n    // Set tokenId\n    _tokenData[boardId][slot].tokenId = tokenId;\n\n    // Update hardcoded metadata\n    _tokenData[boardId][slot].image = image;\n    _tokenData[boardId][slot].city = city;\n\n    // ERC721 image\n    _tokenImage[tokenId] = image;\n  }\n\n  function mintTokenWithData(\n      uint256 boardId,\n      string memory slot,\n      string memory image, \n      string memory city, \n      string memory adImage, \n      string memory redirectUrl, \n      bool status,\n      string memory ownerName\n    ) public {\n\n    // Mint token\n    mintToken(boardId, slot, image, city);\n      \n    // Update editable metadata\n    setMetaData(boardId, slot, adImage, redirectUrl, status, ownerName);\n  }\n\n  //\n  // ******************* ERC721 *******************\n  //\n\n  function tokenURI(uint256 tokenId) public view override returns (string memory) {\n    require(_exists(tokenId), \"Token does not exist\");\n\n    return _tokenImage[tokenId];\n  }\n\n\n  //\n  // ******************* SETTERS *******************\n  //\n\n  function setMetaData(\n      uint256 boardId,\n      string memory slot, \n      string memory adImage, \n      string memory redirectUrl, \n      bool status,\n      string memory ownerName\n    ) public {\n\n    uint256 tokenId = _tokenData[boardId][slot].tokenId;\n\n    require(_exists(tokenId), \"Token does not exist\");\n    require(_msgSender() == ownerOf(tokenId), \"Only owner can update metadata\");\n\n    _tokenData[boardId][slot].adImage = adImage;\n    _tokenData[boardId][slot].redirectUrl = redirectUrl;\n    _tokenData[boardId][slot].status = status;\n    _tokenData[boardId][slot].ownerName = ownerName;\n  }\n\n  function setAdImage(uint256 boardId, string memory slot, string memory adImage) public {\n    uint256 tokenId = _tokenData[boardId][slot].tokenId;\n\n    require(_exists(tokenId), \"Token does not exist\");\n    require(_msgSender() == ownerOf(tokenId), \"Only owner can update metadata\");\n\n    _tokenData[boardId][slot].adImage = adImage;\n  }\n\n  function setRedirectUrl(uint256 boardId, string memory slot, string memory redirectUrl) public {\n    uint256 tokenId = _tokenData[boardId][slot].tokenId;\n\n    require(_exists(tokenId), \"Token does not exist\");\n    require(_msgSender() == ownerOf(tokenId), \"Only owner can update metadata\");\n\n    _tokenData[boardId][slot].redirectUrl = redirectUrl;\n  }\n\n  function setStatus(uint256 boardId, string memory slot, bool status) public {\n    uint256 tokenId = _tokenData[boardId][slot].tokenId;\n\n    require(_exists(tokenId), \"Token does not exist\");\n    require(_msgSender() == ownerOf(tokenId), \"Only owner can update metadata\");\n\n    _tokenData[boardId][slot].status = status;\n  }\n\n  function setOwnerName(uint256 boardId, string memory slot, string memory ownerName) public {\n    uint256 tokenId = _tokenData[boardId][slot].tokenId;\n\n    require(_exists(tokenId), \"Token does not exist\");\n    require(_msgSender() == ownerOf(tokenId), \"Only owner can update metadata\");\n\n    _tokenData[boardId][slot].ownerName = ownerName;\n  }\n\n}\n",
  "sourcePath": "/Users/nieldeckx/Development/Envoy/Contracts/contracts/EnvoyBillboard.sol",
  "compiler": {
    "name": "solc",
    "version": "0.8.0+commit.c7dfd78e.Emscripten.clang"
  },
  "schemaVersion": "3.4.1",
  "updatedAt": "2021-07-24T14:36:42.486Z",
  "networkType": "ethereum",
  "devdoc": {
    "kind": "dev",
    "methods": {
      "approve(address,uint256)": {
        "details": "See {IERC721-approve}."
      },
      "balanceOf(address)": {
        "details": "See {IERC721-balanceOf}."
      },
      "getApproved(uint256)": {
        "details": "See {IERC721-getApproved}."
      },
      "isApprovedForAll(address,address)": {
        "details": "See {IERC721-isApprovedForAll}."
      },
      "name()": {
        "details": "See {IERC721Metadata-name}."
      },
      "owner()": {
        "details": "Returns the address of the current owner."
      },
      "ownerOf(uint256)": {
        "details": "See {IERC721-ownerOf}."
      },
      "renounceOwnership()": {
        "details": "Leaves the contract without owner. It will not be possible to call `onlyOwner` functions anymore. Can only be called by the current owner. NOTE: Renouncing ownership will leave the contract without an owner, thereby removing any functionality that is only available to the owner."
      },
      "safeTransferFrom(address,address,uint256)": {
        "details": "See {IERC721-safeTransferFrom}."
      },
      "safeTransferFrom(address,address,uint256,bytes)": {
        "details": "See {IERC721-safeTransferFrom}."
      },
      "setApprovalForAll(address,bool)": {
        "details": "See {IERC721-setApprovalForAll}."
      },
      "supportsInterface(bytes4)": {
        "details": "See {IERC165-supportsInterface}."
      },
      "symbol()": {
        "details": "See {IERC721Metadata-symbol}."
      },
      "tokenURI(uint256)": {
        "details": "See {IERC721Metadata-tokenURI}."
      },
      "transferFrom(address,address,uint256)": {
        "details": "See {IERC721-transferFrom}."
      },
      "transferOwnership(address)": {
        "details": "Transfers ownership of the contract to a new account (`newOwner`). Can only be called by the current owner."
      }
    },
    "version": 1
  },
  "userdoc": {
    "kind": "user",
    "methods": {},
    "version": 1
  }
}